{
	"data": {
		"bytecode": {
			"linkReferences": {
				"remix_accounts.sol": {
					"TestsAccounts": [
						{
							"length": 20,
							"start": 7
						},
						{
							"length": 20,
							"start": 9267
						},
						{
							"length": 20,
							"start": 9449
						},
						{
							"length": 20,
							"start": 9631
						},
						{
							"length": 20,
							"start": 9813
						}
					]
				},
				"remix_tests.sol": {
					"Assert": [
						{
							"length": 20,
							"start": 4775
						},
						{
							"length": 20,
							"start": 4983
						},
						{
							"length": 20,
							"start": 5147
						},
						{
							"length": 20,
							"start": 5457
						},
						{
							"length": 20,
							"start": 5699
						},
						{
							"length": 20,
							"start": 6669
						},
						{
							"length": 20,
							"start": 6947
						},
						{
							"length": 20,
							"start": 7111
						},
						{
							"length": 20,
							"start": 7324
						},
						{
							"length": 20,
							"start": 7531
						},
						{
							"length": 20,
							"start": 8694
						},
						{
							"length": 20,
							"start": 8901
						},
						{
							"length": 20,
							"start": 10409
						},
						{
							"length": 20,
							"start": 10618
						},
						{
							"length": 20,
							"start": 10782
						},
						{
							"length": 20,
							"start": 11272
						},
						{
							"length": 20,
							"start": 11398
						},
						{
							"length": 20,
							"start": 11524
						},
						{
							"length": 20,
							"start": 11653
						},
						{
							"length": 20,
							"start": 11963
						}
					]
				}
			},
			"object": "61016060405273__$1068a87eb54ed04c4e435de35b2ebf536f$__63ce88b1455f6040518263ffffffff1660e01b815260040161003c919061069f565b602060405180830381865af4158015610057573d5f803e3d5ffd5b505050506040513d601f19601f8201168201806040525081019061007b9190610716565b600b5f6101000a81548173ffffffffffffffffffffffffffffffffffffffff021916908373ffffffffffffffffffffffffffffffffffffffff1602179055503480156100c5575f80fd5b50600b5f9054906101000a900473ffffffffffffffffffffffffffffffffffffffff166040518060400160405280600b81526020017f466c69676874546f6b656e000000000000000000000000000000000000000000815250806040518060400160405280600181526020017f3100000000000000000000000000000000000000000000000000000000000000815250836040518060400160405280600b81526020017f466c69676874546f6b656e0000000000000000000000000000000000000000008152506040518060400160405280600481526020017f464c54540000000000000000000000000000000000000000000000000000000081525081600390816101d19190610969565b5080600490816101e19190610969565b5050505f73ffffffffffffffffffffffffffffffffffffffff168173ffffffffffffffffffffffffffffffffffffffff1603610254575f6040517f1e4fbdf700000000000000000000000000000000000000000000000000000000815260040161024b9190610a47565b60405180910390fd5b6102638161032460201b60201c565b506102786006836103e760201b90919060201c565b61012081815250506102946007826103e760201b90919060201c565b6101408181525050818051906020012060e08181525050808051906020012061010081815250504660a081815250506102d161043460201b60201c565b608081815250503073ffffffffffffffffffffffffffffffffffffffff1660c08173ffffffffffffffffffffffffffffffffffffffff168152505050505061031e8161048e60201b60201c565b50610bf1565b5f60055f9054906101000a900473ffffffffffffffffffffffffffffffffffffffff1690508160055f6101000a81548173ffffffffffffffffffffffffffffffffffffffff021916908373ffffffffffffffffffffffffffffffffffffffff1602179055508173ffffffffffffffffffffffffffffffffffffffff168173ffffffffffffffffffffffffffffffffffffffff167f8be0079c531659141344cd1fd0a4f28419497f9722a3daafe3b4186f6b6457e060405160405180910390a35050565b5f602083511015610408576104018361051e60201b60201c565b905061042e565b826104188361058360201b60201c565b5f0190816104269190610969565b5060ff5f1b90505b92915050565b5f7f8b73c3c69bb8fe3d512ecc4cf759cc79239f7b179b0ffacaa9a75d522b39400f60e051610100514630604051602001610473959493929190610a87565b60405160208183030381529060405280519060200120905090565b61049c61058c60201b60201c565b5f73ffffffffffffffffffffffffffffffffffffffff168173ffffffffffffffffffffffffffffffffffffffff160361050c575f6040517f1e4fbdf70000000000000000000000000000000000000000000000000000000081526004016105039190610a47565b60405180910390fd5b61051b8161032460201b60201c565b50565b5f80829050601f8151111561056a57826040517f305a27a90000000000000000000000000000000000000000000000000000000081526004016105619190610b3e565b60405180910390fd5b80518161057690610b8b565b5f1c175f1b915050919050565b5f819050919050565b61059a61062560201b60201c565b73ffffffffffffffffffffffffffffffffffffffff166105be61062c60201b60201c565b73ffffffffffffffffffffffffffffffffffffffff1614610623576105e761062560201b60201c565b6040517f118cdaa700000000000000000000000000000000000000000000000000000000815260040161061a9190610a47565b60405180910390fd5b565b5f33905090565b5f60055f9054906101000a900473ffffffffffffffffffffffffffffffffffffffff16905090565b5f819050919050565b5f819050919050565b5f819050919050565b5f61068961068461067f84610654565b610666565b61065d565b9050919050565b6106998161066f565b82525050565b5f6020820190506106b25f830184610690565b92915050565b5f80fd5b5f73ffffffffffffffffffffffffffffffffffffffff82169050919050565b5f6106e5826106bc565b9050919050565b6106f5816106db565b81146106ff575f80fd5b50565b5f81519050610710816106ec565b92915050565b5f6020828403121561072b5761072a6106b8565b5b5f61073884828501610702565b91505092915050565b5f81519050919050565b7f4e487b71000000000000000000000000000000000000000000000000000000005f52604160045260245ffd5b7f4e487b71000000000000000000000000000000000000000000000000000000005f52602260045260245ffd5b5f60028204905060018216806107bc57607f821691505b6020821081036107cf576107ce610778565b5b50919050565b5f819050815f5260205f209050919050565b5f6020601f8301049050919050565b5f82821b905092915050565b5f600883026108317fffffffffffffffffffffffffffffffffffffffffffffffffffffffffffffffff826107f6565b61083b86836107f6565b95508019841693508086168417925050509392505050565b5f61086d6108686108638461065d565b610666565b61065d565b9050919050565b5f819050919050565b61088683610853565b61089a61089282610874565b848454610802565b825550505050565b5f90565b6108ae6108a2565b6108b981848461087d565b505050565b5b818110156108dc576108d15f826108a6565b6001810190506108bf565b5050565b601f821115610921576108f2816107d5565b6108fb846107e7565b8101602085101561090a578190505b61091e610916856107e7565b8301826108be565b50505b505050565b5f82821c905092915050565b5f6109415f1984600802610926565b1980831691505092915050565b5f6109598383610932565b9150826002028217905092915050565b61097282610741565b67ffffffffffffffff81111561098b5761098a61074b565b5b61099582546107a5565b6109a08282856108e0565b5f60209050601f8311600181146109d1575f84156109bf578287015190505b6109c9858261094e565b865550610a30565b601f1984166109df866107d5565b5f5b82811015610a06578489015182556001820191506020850194506020810190506109e1565b86831015610a235784890151610a1f601f891682610932565b8355505b6001600288020188555050505b505050505050565b610a41816106db565b82525050565b5f602082019050610a5a5f830184610a38565b92915050565b5f819050919050565b610a7281610a60565b82525050565b610a818161065d565b82525050565b5f60a082019050610a9a5f830188610a69565b610aa76020830187610a69565b610ab46040830186610a69565b610ac16060830185610a78565b610ace6080830184610a38565b9695505050505050565b5f82825260208201905092915050565b8281835e5f83830152505050565b5f601f19601f8301169050919050565b5f610b1082610741565b610b1a8185610ad8565b9350610b2a818560208601610ae8565b610b3381610af6565b840191505092915050565b5f6020820190508181035f830152610b568184610b06565b905092915050565b5f81519050919050565b5f819050602082019050919050565b5f610b828251610a60565b80915050919050565b5f610b9582610b5e565b82610b9f84610b68565b9050610baa81610b77565b92506020821015610bea57610be57fffffffffffffffffffffffffffffffffffffffffffffffffffffffffffffffff836020036008026107f6565b831692505b5050919050565b60805160a05160c05160e051610100516101205161014051614964610c425f395f61293201525f6128f701525f612e2b01525f612e0a01525f61262c01525f61268201525f6126ab01526149645ff3fe608060405234801561000f575f80fd5b5060043610610246575f3560e01c80637052454e11610139578063a9059cbb116100b6578063e2eb41ff1161007a578063e2eb41ff146105d7578063eb7492d114610609578063f18299eb14610613578063f26c159f1461061d578063f2fde38b1461063957610246565b8063a9059cbb14610547578063bc7035f114610577578063d505accf14610581578063dc881d1c1461059d578063dd62ed3e146105a757610246565b80637fea0d4b116100fd5780637fea0d4b146104ad57806384b0196e146104b7578063860838a5146104db5780638da5cb5b1461050b57806395d89b411461052957610246565b80637052454e1461041d57806370a0823114610427578063715018a614610457578063788649ea146104615780637ecebe001461047d57610246565b8063313ce567116101c757806340c10f191161018b57806340c10f191461038e5780634fd66eae146103aa578063679d4b31146103db5780636b5cc6d9146103e55780636d1b229d1461040157610246565b8063313ce5671461033457806336284ce0146103525780633644e5151461035c5780633649a96c1461037a5780633da0b6db1461038457610246565b80630c81877c1161020e5780630c81877c146102b657806318160ddd146102c05780631f5ee31c146102de57806323b872dd146102e857806330407d761461031857610246565b806303c33d5b1461024a5780630647b3751461025457806306fdde031461025e57806306fe1e881461027c578063095ea7b314610286575b5f80fd5b610252610655565b005b61025c610663565b005b61026661087d565b60405161027391906132e1565b60405180910390f35b61028461090d565b005b6102a0600480360381019061029b9190613392565b610ac7565b6040516102ad91906133ea565b60405180910390f35b6102be610ae9565b005b6102c8610af8565b6040516102d59190613412565b60405180910390f35b6102e6610b01565b005b61030260048036038101906102fd919061342b565b610b30565b60405161030f91906133ea565b60405180910390f35b610332600480360381019061032d919061347b565b610b5e565b005b61033c610dc1565b60405161034991906134c1565b60405180910390f35b61035a610dc9565b005b61036461104a565b60405161037191906134f2565b60405180910390f35b610382611058565b005b61038c6111cd565b005b6103a860048036038101906103a39190613392565b6111db565b005b6103c460048036038101906103bf919061350b565b611233565b6040516103d2929190613536565b60405180910390f35b6103e36112bf565b005b6103ff60048036038101906103fa919061350b565b611310565b005b61041b6004803603810190610416919061347b565b611437565b005b6104256115b2565b005b610441600480360381019061043c919061350b565b611727565b60405161044e9190613412565b60405180910390f35b61045f61176c565b005b61047b6004803603810190610476919061350b565b61177f565b005b6104976004803603810190610492919061350b565b6117de565b6040516104a49190613412565b60405180910390f35b6104b56117ef565b005b6104bf611ac9565b6040516104d2979695949392919061365d565b60405180910390f35b6104f560048036038101906104f0919061350b565b611b6e565b60405161050291906133ea565b60405180910390f35b610513611b8b565b60405161052091906136df565b60405180910390f35b610531611bb3565b60405161053e91906132e1565b60405180910390f35b610561600480360381019061055c9190613392565b611c43565b60405161056e91906133ea565b60405180910390f35b61057f611c65565b005b61059b6004803603810190610596919061374c565b611e7f565b005b6105a5611fc4565b005b6105c160048036038101906105bc91906137e9565b6121c3565b6040516105ce9190613412565b60405180910390f35b6105f160048036038101906105ec919061350b565b612245565b60405161060093929190613827565b60405180910390f35b610611612277565b005b61061b6122fb565b005b6106376004803603810190610632919061350b565b61232b565b005b610653600480360381019061064e919061350b565b61238b565b005b6106605f6064611c43565b50565b73__$acbfb1c35000d78352310b16a054a6b106$__63abcd79606106a7600c5f9054906101000a900473ffffffffffffffffffffffffffffffffffffffff16611727565b5f6040518363ffffffff1660e01b81526004016106c592919061392d565b602060405180830381865af41580156106e0573d5f803e3d5ffd5b505050506040513d601f19601f820116820180604052508101906107049190613991565b50610732600c5f9054906101000a900473ffffffffffffffffffffffffffffffffffffffff166101f4611c43565b5073__$acbfb1c35000d78352310b16a054a6b106$__63abcd7960610777600b5f9054906101000a900473ffffffffffffffffffffffffffffffffffffffff16611727565b61251c6040518363ffffffff1660e01b8152600401610797929190613a3f565b602060405180830381865af41580156107b2573d5f803e3d5ffd5b505050506040513d601f19601f820116820180604052508101906107d69190613991565b5073__$acbfb1c35000d78352310b16a054a6b106$__63abcd796061081b600c5f9054906101000a900473ffffffffffffffffffffffffffffffffffffffff16611727565b6101f46040518363ffffffff1660e01b815260040161083b929190613ab2565b602060405180830381865af4158015610856573d5f803e3d5ffd5b505050506040513d601f19601f8201168201806040525081019061087a9190613991565b50565b60606003805461088c90613b19565b80601f01602080910402602001604051908101604052809291908181526020018280546108b890613b19565b80156109035780601f106108da57610100808354040283529160200191610903565b820191905f5260205f20905b8154815290600101906020018083116108e657829003601f168201915b5050505050905090565b73__$acbfb1c35000d78352310b16a054a6b106$__63abcd7960610973600b5f9054906101000a900473ffffffffffffffffffffffffffffffffffffffff16600e5f9054906101000a900473ffffffffffffffffffffffffffffffffffffffff166121c3565b5f6040518363ffffffff1660e01b8152600401610991929190613bb9565b602060405180830381865af41580156109ac573d5f803e3d5ffd5b505050506040513d601f19601f820116820180604052508101906109d09190613991565b506109fe600e5f9054906101000a900473ffffffffffffffffffffffffffffffffffffffff166101f4610ac7565b5073__$acbfb1c35000d78352310b16a054a6b106$__63abcd7960610a65600b5f9054906101000a900473ffffffffffffffffffffffffffffffffffffffff16600e5f9054906101000a900473ffffffffffffffffffffffffffffffffffffffff166121c3565b6101f46040518363ffffffff1660e01b8152600401610a85929190613c3d565b602060405180830381865af4158015610aa0573d5f803e3d5ffd5b505050506040513d601f19601f82011682018060405250810190610ac49190613991565b50565b5f80610ad161240f565b9050610ade818585612416565b600191505092915050565b610af55f6101f4610ac7565b50565b5f600254905090565b610b2d600e5f9054906101000a900473ffffffffffffffffffffffffffffffffffffffff16606e611c43565b50565b5f80610b3a61240f565b9050610b47858285612428565b610b528585856124ba565b60019150509392505050565b60095f3373ffffffffffffffffffffffffffffffffffffffff1673ffffffffffffffffffffffffffffffffffffffff1681526020019081526020015f206002015f9054906101000a900460ff16610bea576040517f08c379a0000000000000000000000000000000000000000000000000000000008152600401610be190613cc1565b60405180910390fd5b5f8111610c2c576040517f08c379a0000000000000000000000000000000000000000000000000000000008152600401610c2390613d29565b60405180910390fd5b8060095f3373ffffffffffffffffffffffffffffffffffffffff1673ffffffffffffffffffffffffffffffffffffffff1681526020019081526020015f205f015f828254610c7a9190613d74565b92505081905550600160095f3373ffffffffffffffffffffffffffffffffffffffff1673ffffffffffffffffffffffffffffffffffffffff1681526020019081526020015f206001015f828254610cd19190613d74565b92505081905550610ce233826125aa565b3373ffffffffffffffffffffffffffffffffffffffff167f949b66d6baaf4912605d046be8fef8d8dac6040bb52018e69a7a805279fbeb1582604051610d289190613412565b60405180910390a23373ffffffffffffffffffffffffffffffffffffffff167f3f353885ba7b0df356d5de44b74119a3847ce3212913ece94dab584a929596a060095f3373ffffffffffffffffffffffffffffffffffffffff1673ffffffffffffffffffffffffffffffffffffffff1681526020019081526020015f2060010154604051610db69190613412565b60405180910390a250565b5f6012905090565b73__$acbfb1c35000d78352310b16a054a6b106$__63abcd7960610e2f600b5f9054906101000a900473ffffffffffffffffffffffffffffffffffffffff16600e5f9054906101000a900473ffffffffffffffffffffffffffffffffffffffff166121c3565b6101f46040518363ffffffff1660e01b8152600401610e4f929190613c3d565b602060405180830381865af4158015610e6a573d5f803e3d5ffd5b505050506040513d601f19601f82011682018060405250810190610e8e9190613991565b50610ede600b5f9054906101000a900473ffffffffffffffffffffffffffffffffffffffff16600f5f9054906101000a900473ffffffffffffffffffffffffffffffffffffffff16610190610b30565b5073__$acbfb1c35000d78352310b16a054a6b106$__63abcd7960610f23600f5f9054906101000a900473ffffffffffffffffffffffffffffffffffffffff16611727565b6101906040518363ffffffff1660e01b8152600401610f43929190613e2a565b602060405180830381865af4158015610f5e573d5f803e3d5ffd5b505050506040513d601f19601f82011682018060405250810190610f829190613991565b5073__$acbfb1c35000d78352310b16a054a6b106$__63abcd7960610fe9600b5f9054906101000a900473ffffffffffffffffffffffffffffffffffffffff16600e5f9054906101000a900473ffffffffffffffffffffffffffffffffffffffff166121c3565b60646040518363ffffffff1660e01b8152600401611008929190613e9d565b602060405180830381865af4158015611023573d5f803e3d5ffd5b505050506040513d601f19601f820116820180604052508101906110479190613991565b50565b5f611053612629565b905090565b73__$acbfb1c35000d78352310b16a054a6b106$__63abcd796061109c600b5f9054906101000a900473ffffffffffffffffffffffffffffffffffffffff16611727565b5f6040518363ffffffff1660e01b81526004016110ba92919061392d565b602060405180830381865af41580156110d5573d5f803e3d5ffd5b505050506040513d601f19601f820116820180604052508101906110f99190613991565b50611127600b5f9054906101000a900473ffffffffffffffffffffffffffffffffffffffff166127106111db565b73__$acbfb1c35000d78352310b16a054a6b106$__63abcd796061116b600b5f9054906101000a900473ffffffffffffffffffffffffffffffffffffffff16611727565b6127106040518363ffffffff1660e01b815260040161118b929190613f10565b602060405180830381865af41580156111a6573d5f803e3d5ffd5b505050506040513d601f19601f820116820180604052508101906111ca9190613991565b50565b6111d95f6127106111db565b565b6111e36126df565b5f8111611225576040517f08c379a000000000000000000000000000000000000000000000000000000000815260040161121c90613fba565b60405180910390fd5b61122f82826125aa565b5050565b5f8060095f8473ffffffffffffffffffffffffffffffffffffffff1673ffffffffffffffffffffffffffffffffffffffff1681526020019081526020015f205f015460095f8573ffffffffffffffffffffffffffffffffffffffff1673ffffffffffffffffffffffffffffffffffffffff1681526020019081526020015f206001015491509150915091565b61130d600b5f9054906101000a900473ffffffffffffffffffffffffffffffffffffffff16600f5f9054906101000a900473ffffffffffffffffffffffffffffffffffffffff16606e610b30565b50565b6113186126df565b60095f8273ffffffffffffffffffffffffffffffffffffffff1673ffffffffffffffffffffffffffffffffffffffff1681526020019081526020015f206002015f9054906101000a900460ff16156113a5576040517f08c379a000000000000000000000000000000000000000000000000000000000815260040161139c90614022565b60405180910390fd5b60405180606001604052805f81526020015f81526020016001151581525060095f8373ffffffffffffffffffffffffffffffffffffffff1673ffffffffffffffffffffffffffffffffffffffff1681526020019081526020015f205f820151815f0155602082015181600101556040820151816002015f6101000a81548160ff02191690831515021790555090505050565b60095f3373ffffffffffffffffffffffffffffffffffffffff1673ffffffffffffffffffffffffffffffffffffffff1681526020019081526020015f206002015f9054906101000a900460ff166114c3576040517f08c379a00000000000000000000000000000000000000000000000000000000081526004016114ba90613cc1565b60405180910390fd5b5f8111611505576040517f08c379a00000000000000000000000000000000000000000000000000000000081526004016114fc90613d29565b60405180910390fd5b8061150f33611727565b1015611550576040517f08c379a00000000000000000000000000000000000000000000000000000000081526004016115479061408a565b60405180910390fd5b61155a3382612766565b8060095f3373ffffffffffffffffffffffffffffffffffffffff1673ffffffffffffffffffffffffffffffffffffffff1681526020019081526020015f205f015f8282546115a891906140a8565b9250508190555050565b73__$acbfb1c35000d78352310b16a054a6b106$__63abcd79606115f6600b5f9054906101000a900473ffffffffffffffffffffffffffffffffffffffff16611727565b5f6040518363ffffffff1660e01b815260040161161492919061392d565b602060405180830381865af415801561162f573d5f803e3d5ffd5b505050506040513d601f19601f820116820180604052508101906116539190613991565b50611681600b5f9054906101000a900473ffffffffffffffffffffffffffffffffffffffff166127106111db565b73__$acbfb1c35000d78352310b16a054a6b106$__63abcd79606116c5600b5f9054906101000a900473ffffffffffffffffffffffffffffffffffffffff16611727565b6127106040518363ffffffff1660e01b81526004016116e5929190613f10565b602060405180830381865af4158015611700573d5f803e3d5ffd5b505050506040513d601f19601f820116820180604052508101906117249190613991565b50565b5f805f8373ffffffffffffffffffffffffffffffffffffffff1673ffffffffffffffffffffffffffffffffffffffff1681526020019081526020015f20549050919050565b6117746126df565b61177d5f6127e5565b565b6117876126df565b5f600a5f8373ffffffffffffffffffffffffffffffffffffffff1673ffffffffffffffffffffffffffffffffffffffff1681526020019081526020015f205f6101000a81548160ff02191690831515021790555050565b5f6117e8826128a8565b9050919050565b73__$1068a87eb54ed04c4e435de35b2ebf536f$__63ce88b14560016040518263ffffffff1660e01b81526004016118279190614114565b602060405180830381865af4158015611842573d5f803e3d5ffd5b505050506040513d601f19601f820116820180604052508101906118669190614141565b600c5f6101000a81548173ffffffffffffffffffffffffffffffffffffffff021916908373ffffffffffffffffffffffffffffffffffffffff16021790555073__$1068a87eb54ed04c4e435de35b2ebf536f$__63ce88b14560026040518263ffffffff1660e01b81526004016118dd91906141a5565b602060405180830381865af41580156118f8573d5f803e3d5ffd5b505050506040513d601f19601f8201168201806040525081019061191c9190614141565b600d5f6101000a81548173ffffffffffffffffffffffffffffffffffffffff021916908373ffffffffffffffffffffffffffffffffffffffff16021790555073__$1068a87eb54ed04c4e435de35b2ebf536f$__63ce88b14560036040518263ffffffff1660e01b815260040161199391906141f7565b602060405180830381865af41580156119ae573d5f803e3d5ffd5b505050506040513d601f19601f820116820180604052508101906119d29190614141565b600e5f6101000a81548173ffffffffffffffffffffffffffffffffffffffff021916908373ffffffffffffffffffffffffffffffffffffffff16021790555073__$1068a87eb54ed04c4e435de35b2ebf536f$__63ce88b14560046040518263ffffffff1660e01b8152600401611a499190614249565b602060405180830381865af4158015611a64573d5f803e3d5ffd5b505050506040513d601f19601f82011682018060405250810190611a889190614141565b600f5f6101000a81548173ffffffffffffffffffffffffffffffffffffffff021916908373ffffffffffffffffffffffffffffffffffffffff160217905550565b5f6060805f805f6060611ada6128ee565b611ae2612929565b46305f801b5f67ffffffffffffffff811115611b0157611b00614262565b5b604051908082528060200260200182016040528015611b2f5781602001602082028036833780820191505090505b507f0f00000000000000000000000000000000000000000000000000000000000000959493929190965096509650965096509650965090919293949596565b600a602052805f5260405f205f915054906101000a900460ff1681565b5f60055f9054906101000a900473ffffffffffffffffffffffffffffffffffffffff16905090565b606060048054611bc290613b19565b80601f0160208091040260200160405190810160405280929190818152602001828054611bee90613b19565b8015611c395780601f10611c1057610100808354040283529160200191611c39565b820191905f5260205f20905b815481529060010190602001808311611c1c57829003601f168201915b5050505050905090565b5f80611c4d61240f565b9050611c5a8185856124ba565b600191505092915050565b73__$acbfb1c35000d78352310b16a054a6b106$__63abcd7960611ca9600c5f9054906101000a900473ffffffffffffffffffffffffffffffffffffffff16611727565b6101f46040518363ffffffff1660e01b8152600401611cc99291906142d9565b602060405180830381865af4158015611ce4573d5f803e3d5ffd5b505050506040513d601f19601f82011682018060405250810190611d089190613991565b50611d35600d5f9054906101000a900473ffffffffffffffffffffffffffffffffffffffff166064611c43565b5073__$acbfb1c35000d78352310b16a054a6b106$__63abcd7960611d7a600c5f9054906101000a900473ffffffffffffffffffffffffffffffffffffffff16611727565b6101906040518363ffffffff1660e01b8152600401611d9a929190614313565b602060405180830381865af4158015611db5573d5f803e3d5ffd5b505050506040513d601f19601f82011682018060405250810190611dd99190613991565b5073__$acbfb1c35000d78352310b16a054a6b106$__63abcd7960611e1e600d5f9054906101000a900473ffffffffffffffffffffffffffffffffffffffff16611727565b60646040518363ffffffff1660e01b8152600401611e3d929190614397565b602060405180830381865af4158015611e58573d5f803e3d5ffd5b505050506040513d601f19601f82011682018060405250810190611e7c9190613991565b50565b83421115611ec457836040517f62791302000000000000000000000000000000000000000000000000000000008152600401611ebb9190613412565b60405180910390fd5b5f7f6e71edae12b1b97f4d1f60370fef10105fa2faae0126114a169c64845d6126c9888888611ef28c612964565b89604051602001611f08969594939291906143d1565b6040516020818303038152906040528051906020012090505f611f2a826129b7565b90505f611f39828787876129d0565b90508973ffffffffffffffffffffffffffffffffffffffff168173ffffffffffffffffffffffffffffffffffffffff1614611fad57808a6040517f4b800e46000000000000000000000000000000000000000000000000000000008152600401611fa4929190614430565b60405180910390fd5b611fb88a8a8a612416565b50505050505050505050565b73__$acbfb1c35000d78352310b16a054a6b106$__63e8c2cb16611fe661087d565b6040518263ffffffff1660e01b81526004016120029190614523565b602060405180830381865af415801561201d573d5f803e3d5ffd5b505050506040513d601f19601f820116820180604052508101906120419190613991565b5073__$acbfb1c35000d78352310b16a054a6b106$__63e8c2cb16612064611bb3565b6040518263ffffffff1660e01b815260040161208091906145fd565b602060405180830381865af415801561209b573d5f803e3d5ffd5b505050506040513d601f19601f820116820180604052508101906120bf9190613991565b5073__$acbfb1c35000d78352310b16a054a6b106$__63abcd79606120e2610dc1565b60126040518363ffffffff1660e01b81526004016121019291906146f6565b602060405180830381865af415801561211c573d5f803e3d5ffd5b505050506040513d601f19601f820116820180604052508101906121409190613991565b5073__$acbfb1c35000d78352310b16a054a6b106$__63abcd7960612163610af8565b5f6040518363ffffffff1660e01b815260040161218192919061477a565b602060405180830381865af415801561219c573d5f803e3d5ffd5b505050506040513d601f19601f820116820180604052508101906121c09190613991565b50565b5f60015f8473ffffffffffffffffffffffffffffffffffffffff1673ffffffffffffffffffffffffffffffffffffffff1681526020019081526020015f205f8373ffffffffffffffffffffffffffffffffffffffff1673ffffffffffffffffffffffffffffffffffffffff1681526020019081526020015f2054905092915050565b6009602052805f5260405f205f91509050805f015490806001015490806002015f9054906101000a900460ff16905083565b73__$acbfb1c35000d78352310b16a054a6b106$__63abcd7960612299610af8565b6127106040518363ffffffff1660e01b81526004016122b99291906147fe565b602060405180830381865af41580156122d4573d5f803e3d5ffd5b505050506040513d601f19601f820116820180604052508101906122f89190613991565b50565b612328600b5f9054906101000a900473ffffffffffffffffffffffffffffffffffffffff165f6064610b30565b50565b6123336126df565b6001600a5f8373ffffffffffffffffffffffffffffffffffffffff1673ffffffffffffffffffffffffffffffffffffffff1681526020019081526020015f205f6101000a81548160ff02191690831515021790555050565b6123936126df565b5f73ffffffffffffffffffffffffffffffffffffffff168173ffffffffffffffffffffffffffffffffffffffff1603612403575f6040517f1e4fbdf70000000000000000000000000000000000000000000000000000000081526004016123fa91906136df565b60405180910390fd5b61240c816127e5565b50565b5f33905090565b61242383838360016129fe565b505050565b5f61243384846121c3565b90507fffffffffffffffffffffffffffffffffffffffffffffffffffffffffffffffff81146124b457818110156124a5578281836040517ffb8f41b200000000000000000000000000000000000000000000000000000000815260040161249c93929190614838565b60405180910390fd5b6124b384848484035f6129fe565b5b50505050565b5f73ffffffffffffffffffffffffffffffffffffffff168373ffffffffffffffffffffffffffffffffffffffff160361252a575f6040517f96c6fd1e00000000000000000000000000000000000000000000000000000000815260040161252191906136df565b60405180910390fd5b5f73ffffffffffffffffffffffffffffffffffffffff168273ffffffffffffffffffffffffffffffffffffffff160361259a575f6040517fec442f0500000000000000000000000000000000000000000000000000000000815260040161259191906136df565b60405180910390fd5b6125a5838383612bcd565b505050565b5f73ffffffffffffffffffffffffffffffffffffffff168273ffffffffffffffffffffffffffffffffffffffff160361261a575f6040517fec442f0500000000000000000000000000000000000000000000000000000000815260040161261191906136df565b60405180910390fd5b6126255f8383612bcd565b5050565b5f7f000000000000000000000000000000000000000000000000000000000000000073ffffffffffffffffffffffffffffffffffffffff163073ffffffffffffffffffffffffffffffffffffffff161480156126a457507f000000000000000000000000000000000000000000000000000000000000000046145b156126d1577f000000000000000000000000000000000000000000000000000000000000000090506126dc565b6126d9612de6565b90505b90565b6126e761240f565b73ffffffffffffffffffffffffffffffffffffffff16612705611b8b565b73ffffffffffffffffffffffffffffffffffffffff16146127645761272861240f565b6040517f118cdaa700000000000000000000000000000000000000000000000000000000815260040161275b91906136df565b60405180910390fd5b565b5f73ffffffffffffffffffffffffffffffffffffffff168273ffffffffffffffffffffffffffffffffffffffff16036127d6575f6040517f96c6fd1e0000000000000000000000000000000000000000000000000000000081526004016127cd91906136df565b60405180910390fd5b6127e1825f83612bcd565b5050565b5f60055f9054906101000a900473ffffffffffffffffffffffffffffffffffffffff1690508160055f6101000a81548173ffffffffffffffffffffffffffffffffffffffff021916908373ffffffffffffffffffffffffffffffffffffffff1602179055508173ffffffffffffffffffffffffffffffffffffffff168173ffffffffffffffffffffffffffffffffffffffff167f8be0079c531659141344cd1fd0a4f28419497f9722a3daafe3b4186f6b6457e060405160405180910390a35050565b5f60085f8373ffffffffffffffffffffffffffffffffffffffff1673ffffffffffffffffffffffffffffffffffffffff1681526020019081526020015f20549050919050565b606061292460067f0000000000000000000000000000000000000000000000000000000000000000612e7b90919063ffffffff16565b905090565b606061295f60077f0000000000000000000000000000000000000000000000000000000000000000612e7b90919063ffffffff16565b905090565b5f60085f8373ffffffffffffffffffffffffffffffffffffffff1673ffffffffffffffffffffffffffffffffffffffff1681526020019081526020015f205f815480929190600101919050559050919050565b5f6129c96129c3612629565b83612f28565b9050919050565b5f805f806129e088888888612f68565b9250925092506129f0828261304f565b829350505050949350505050565b5f73ffffffffffffffffffffffffffffffffffffffff168473ffffffffffffffffffffffffffffffffffffffff1603612a6e575f6040517fe602df05000000000000000000000000000000000000000000000000000000008152600401612a6591906136df565b60405180910390fd5b5f73ffffffffffffffffffffffffffffffffffffffff168373ffffffffffffffffffffffffffffffffffffffff1603612ade575f6040517f94280d62000000000000000000000000000000000000000000000000000000008152600401612ad591906136df565b60405180910390fd5b8160015f8673ffffffffffffffffffffffffffffffffffffffff1673ffffffffffffffffffffffffffffffffffffffff1681526020019081526020015f205f8573ffffffffffffffffffffffffffffffffffffffff1673ffffffffffffffffffffffffffffffffffffffff1681526020019081526020015f20819055508015612bc7578273ffffffffffffffffffffffffffffffffffffffff168473ffffffffffffffffffffffffffffffffffffffff167f8c5be1e5ebec7d5bd14f71427d1e84f3dd0314c0f7b2291e5b200ac8c7c3b92584604051612bbe9190613412565b60405180910390a35b50505050565b5f73ffffffffffffffffffffffffffffffffffffffff168373ffffffffffffffffffffffffffffffffffffffff1603612c1d578060025f828254612c119190613d74565b92505081905550612ceb565b5f805f8573ffffffffffffffffffffffffffffffffffffffff1673ffffffffffffffffffffffffffffffffffffffff1681526020019081526020015f2054905081811015612ca6578381836040517fe450d38c000000000000000000000000000000000000000000000000000000008152600401612c9d93929190614838565b60405180910390fd5b8181035f808673ffffffffffffffffffffffffffffffffffffffff1673ffffffffffffffffffffffffffffffffffffffff1681526020019081526020015f2081905550505b5f73ffffffffffffffffffffffffffffffffffffffff168273ffffffffffffffffffffffffffffffffffffffff1603612d32578060025f8282540392505081905550612d7c565b805f808473ffffffffffffffffffffffffffffffffffffffff1673ffffffffffffffffffffffffffffffffffffffff1681526020019081526020015f205f82825401925050819055505b8173ffffffffffffffffffffffffffffffffffffffff168373ffffffffffffffffffffffffffffffffffffffff167fddf252ad1be2c89b69c2b068fc378daa952ba7f163c4a11628f55a4df523b3ef83604051612dd99190613412565b60405180910390a3505050565b5f7f8b73c3c69bb8fe3d512ecc4cf759cc79239f7b179b0ffacaa9a75d522b39400f7f00000000000000000000000000000000000000000000000000000000000000007f00000000000000000000000000000000000000000000000000000000000000004630604051602001612e6095949392919061486d565b60405160208183030381529060405280519060200120905090565b606060ff5f1b8314612e9757612e90836131b1565b9050612f22565b818054612ea390613b19565b80601f0160208091040260200160405190810160405280929190818152602001828054612ecf90613b19565b8015612f1a5780601f10612ef157610100808354040283529160200191612f1a565b820191905f5260205f20905b815481529060010190602001808311612efd57829003601f168201915b505050505090505b92915050565b5f6040517f190100000000000000000000000000000000000000000000000000000000000081528360028201528260228201526042812091505092915050565b5f805f7f7fffffffffffffffffffffffffffffff5d576e7357a4501ddfe92f46681b20a0845f1c1115612fa4575f600385925092509250613045565b5f6001888888886040515f8152602001604052604051612fc794939291906148be565b6020604051602081039080840390855afa158015612fe7573d5f803e3d5ffd5b5050506020604051035190505f73ffffffffffffffffffffffffffffffffffffffff168173ffffffffffffffffffffffffffffffffffffffff1603613038575f60015f801b93509350935050613045565b805f805f1b935093509350505b9450945094915050565b5f600381111561306257613061614901565b5b82600381111561307557613074614901565b5b03156131ad576001600381111561308f5761308e614901565b5b8260038111156130a2576130a1614901565b5b036130d9576040517ff645eedf00000000000000000000000000000000000000000000000000000000815260040160405180910390fd5b600260038111156130ed576130ec614901565b5b826003811115613100576130ff614901565b5b0361314457805f1c6040517ffce698f700000000000000000000000000000000000000000000000000000000815260040161313b9190613412565b60405180910390fd5b60038081111561315757613156614901565b5b82600381111561316a57613169614901565b5b036131ac57806040517fd78bce0c0000000000000000000000000000000000000000000000000000000081526004016131a391906134f2565b60405180910390fd5b5b5050565b60605f6131bd83613223565b90505f602067ffffffffffffffff8111156131db576131da614262565b5b6040519080825280601f01601f19166020018201604052801561320d5781602001600182028036833780820191505090505b5090508181528360208201528092505050919050565b5f8060ff835f1c169050601f811115613268576040517fb3512b0c00000000000000000000000000000000000000000000000000000000815260040160405180910390fd5b80915050919050565b5f81519050919050565b5f82825260208201905092915050565b8281835e5f83830152505050565b5f601f19601f8301169050919050565b5f6132b382613271565b6132bd818561327b565b93506132cd81856020860161328b565b6132d681613299565b840191505092915050565b5f6020820190508181035f8301526132f981846132a9565b905092915050565b5f80fd5b5f73ffffffffffffffffffffffffffffffffffffffff82169050919050565b5f61332e82613305565b9050919050565b61333e81613324565b8114613348575f80fd5b50565b5f8135905061335981613335565b92915050565b5f819050919050565b6133718161335f565b811461337b575f80fd5b50565b5f8135905061338c81613368565b92915050565b5f80604083850312156133a8576133a7613301565b5b5f6133b58582860161334b565b92505060206133c68582860161337e565b9150509250929050565b5f8115159050919050565b6133e4816133d0565b82525050565b5f6020820190506133fd5f8301846133db565b92915050565b61340c8161335f565b82525050565b5f6020820190506134255f830184613403565b92915050565b5f805f6060848603121561344257613441613301565b5b5f61344f8682870161334b565b93505060206134608682870161334b565b92505060406134718682870161337e565b9150509250925092565b5f602082840312156134905761348f613301565b5b5f61349d8482850161337e565b91505092915050565b5f60ff82169050919050565b6134bb816134a6565b82525050565b5f6020820190506134d45f8301846134b2565b92915050565b5f819050919050565b6134ec816134da565b82525050565b5f6020820190506135055f8301846134e3565b92915050565b5f602082840312156135205761351f613301565b5b5f61352d8482850161334b565b91505092915050565b5f6040820190506135495f830185613403565b6135566020830184613403565b9392505050565b5f7fff0000000000000000000000000000000000000000000000000000000000000082169050919050565b6135918161355d565b82525050565b6135a081613324565b82525050565b5f81519050919050565b5f82825260208201905092915050565b5f819050602082019050919050565b6135d88161335f565b82525050565b5f6135e983836135cf565b60208301905092915050565b5f602082019050919050565b5f61360b826135a6565b61361581856135b0565b9350613620836135c0565b805f5b8381101561365057815161363788826135de565b9750613642836135f5565b925050600181019050613623565b5085935050505092915050565b5f60e0820190506136705f83018a613588565b818103602083015261368281896132a9565b9050818103604083015261369681886132a9565b90506136a56060830187613403565b6136b26080830186613597565b6136bf60a08301856134e3565b81810360c08301526136d18184613601565b905098975050505050505050565b5f6020820190506136f25f830184613597565b92915050565b613701816134a6565b811461370b575f80fd5b50565b5f8135905061371c816136f8565b92915050565b61372b816134da565b8114613735575f80fd5b50565b5f8135905061374681613722565b92915050565b5f805f805f805f60e0888a03121561376757613766613301565b5b5f6137748a828b0161334b565b97505060206137858a828b0161334b565b96505060406137968a828b0161337e565b95505060606137a78a828b0161337e565b94505060806137b88a828b0161370e565b93505060a06137c98a828b01613738565b92505060c06137da8a828b01613738565b91505092959891949750929550565b5f80604083850312156137ff576137fe613301565b5b5f61380c8582860161334b565b925050602061381d8582860161334b565b9150509250929050565b5f60608201905061383a5f830186613403565b6138476020830185613403565b61385460408301846133db565b949350505050565b6138658161335f565b82525050565b5f819050919050565b5f819050919050565b5f61389761389261388d8461386b565b613874565b61335f565b9050919050565b6138a78161387d565b82525050565b5f82825260208201905092915050565b7f746f6b656e2062616c616e63652073686f756c64206265207a65726f20696e695f8201527f7469616c6c790000000000000000000000000000000000000000000000000000602082015250565b5f6139176026836138ad565b9150613922826138bd565b604082019050919050565b5f6060820190506139405f83018561385c565b61394d602083018461389e565b818103604083015261395e8161390b565b90509392505050565b613970816133d0565b811461397a575f80fd5b50565b5f8151905061398b81613967565b92915050565b5f602082840312156139a6576139a5613301565b5b5f6139b38482850161397d565b91505092915050565b5f819050919050565b5f6139df6139da6139d5846139bc565b613874565b61335f565b9050919050565b6139ef816139c5565b82525050565b7f746f6b656e2062616c616e636520646964206e6f74206d6174636800000000005f82015250565b5f613a29601b836138ad565b9150613a34826139f5565b602082019050919050565b5f606082019050613a525f83018561385c565b613a5f60208301846139e6565b8181036040830152613a7081613a1d565b90509392505050565b5f819050919050565b5f613a9c613a97613a9284613a79565b613874565b61335f565b9050919050565b613aac81613a82565b82525050565b5f606082019050613ac55f83018561385c565b613ad26020830184613aa3565b8181036040830152613ae381613a1d565b90509392505050565b7f4e487b71000000000000000000000000000000000000000000000000000000005f52602260045260245ffd5b5f6002820490506001821680613b3057607f821691505b602082108103613b4357613b42613aec565b5b50919050565b7f746f6b656e20616c6c6f77616e63652073686f756c64206265207a65726f20695f8201527f6e697469616c6c79000000000000000000000000000000000000000000000000602082015250565b5f613ba36028836138ad565b9150613bae82613b49565b604082019050919050565b5f606082019050613bcc5f83018561385c565b613bd9602083018461389e565b8181036040830152613bea81613b97565b90509392505050565b7f746f6b656e20616c6c6f77616e636520646964206e6f74206d617463680000005f82015250565b5f613c27601d836138ad565b9150613c3282613bf3565b602082019050919050565b5f606082019050613c505f83018561385c565b613c5d6020830184613aa3565b8181036040830152613c6e81613c1b565b90509392505050565b7f506c61796572206e6f74207265676973746572656400000000000000000000005f82015250565b5f613cab60158361327b565b9150613cb682613c77565b602082019050919050565b5f6020820190508181035f830152613cd881613c9f565b9050919050565b7f416d6f756e74206d7573742062652067726561746572207468616e207a65726f5f82015250565b5f613d1360208361327b565b9150613d1e82613cdf565b602082019050919050565b5f6020820190508181035f830152613d4081613d07565b9050919050565b7f4e487b71000000000000000000000000000000000000000000000000000000005f52601160045260245ffd5b5f613d7e8261335f565b9150613d898361335f565b9250828201905080821115613da157613da0613d47565b5b92915050565b5f819050919050565b5f613dca613dc5613dc084613da7565b613874565b61335f565b9050919050565b613dda81613db0565b82525050565b7f6163633420746f6b656e2062616c616e636520646964206e6f74206d617463685f82015250565b5f613e146020836138ad565b9150613e1f82613de0565b602082019050919050565b5f606082019050613e3d5f83018561385c565b613e4a6020830184613dd1565b8181036040830152613e5b81613e08565b90509392505050565b5f819050919050565b5f613e87613e82613e7d84613e64565b613874565b61335f565b9050919050565b613e9781613e6d565b82525050565b5f606082019050613eb05f83018561385c565b613ebd6020830184613e8e565b8181036040830152613ece81613c1b565b90509392505050565b5f819050919050565b5f613efa613ef5613ef084613ed7565b613874565b61335f565b9050919050565b613f0a81613ee0565b82525050565b5f606082019050613f235f83018561385c565b613f306020830184613f01565b8181036040830152613f4181613a1d565b90509392505050565b7f4d696e7420616d6f756e74206d7573742062652067726561746572207468616e5f8201527f207a65726f000000000000000000000000000000000000000000000000000000602082015250565b5f613fa460258361327b565b9150613faf82613f4a565b604082019050919050565b5f6020820190508181035f830152613fd181613f98565b9050919050565b7f506c6179657220616c72656164792072656769737465726564000000000000005f82015250565b5f61400c60198361327b565b915061401782613fd8565b602082019050919050565b5f6020820190508181035f83015261403981614000565b9050919050565b7f496e73756666696369656e742062616c616e636520746f206275726e000000005f82015250565b5f614074601c8361327b565b915061407f82614040565b602082019050919050565b5f6020820190508181035f8301526140a181614068565b9050919050565b5f6140b28261335f565b91506140bd8361335f565b92508282039050818111156140d5576140d4613d47565b5b92915050565b5f819050919050565b5f6140fe6140f96140f4846140db565b613874565b61335f565b9050919050565b61410e816140e4565b82525050565b5f6020820190506141275f830184614105565b92915050565b5f8151905061413b81613335565b92915050565b5f6020828403121561415657614155613301565b5b5f6141638482850161412d565b91505092915050565b5f819050919050565b5f61418f61418a6141858461416c565b613874565b61335f565b9050919050565b61419f81614175565b82525050565b5f6020820190506141b85f830184614196565b92915050565b5f819050919050565b5f6141e16141dc6141d7846141be565b613874565b61335f565b9050919050565b6141f1816141c7565b82525050565b5f60208201905061420a5f8301846141e8565b92915050565b5f819050919050565b5f61423361422e61422984614210565b613874565b61335f565b9050919050565b61424381614219565b82525050565b5f60208201905061425c5f83018461423a565b92915050565b7f4e487b71000000000000000000000000000000000000000000000000000000005f52604160045260245ffd5b7f6163633120746f6b656e2062616c616e636520646964206e6f74206d617463685f82015250565b5f6142c36020836138ad565b91506142ce8261428f565b602082019050919050565b5f6060820190506142ec5f83018561385c565b6142f96020830184613aa3565b818103604083015261430a816142b7565b90509392505050565b5f6060820190506143265f83018561385c565b6143336020830184613dd1565b8181036040830152614344816142b7565b90509392505050565b7f6163633220746f6b656e2062616c616e636520646964206e6f74206d617463685f82015250565b5f6143816020836138ad565b915061438c8261434d565b602082019050919050565b5f6060820190506143aa5f83018561385c565b6143b76020830184613e8e565b81810360408301526143c881614375565b90509392505050565b5f60c0820190506143e45f8301896134e3565b6143f16020830188613597565b6143fe6040830187613597565b61440b6060830186613403565b6144186080830185613403565b61442560a0830184613403565b979650505050505050565b5f6040820190506144435f830185613597565b6144506020830184613597565b9392505050565b5f61446182613271565b61446b81856138ad565b935061447b81856020860161328b565b61448481613299565b840191505092915050565b7f466c69676874546f6b656e0000000000000000000000000000000000000000005f82015250565b5f6144c3600b836138ad565b91506144ce8261448f565b602082019050919050565b7f746f6b656e206e616d6520646964206e6f74206d6174636800000000000000005f82015250565b5f61450d6018836138ad565b9150614518826144d9565b602082019050919050565b5f6060820190508181035f83015261453b8184614457565b9050818103602083015261454e816144b7565b9050818103604083015261456181614501565b905092915050565b7f464c5454000000000000000000000000000000000000000000000000000000005f82015250565b5f61459d6004836138ad565b91506145a882614569565b602082019050919050565b7f746f6b656e2073796d626f6c20646964206e6f74206d617463680000000000005f82015250565b5f6145e7601a836138ad565b91506145f2826145b3565b602082019050919050565b5f6060820190508181035f8301526146158184614457565b9050818103602083015261462881614591565b9050818103604083015261463b816145db565b905092915050565b5f61465d614658614653846134a6565b613874565b61335f565b9050919050565b61466d81614643565b82525050565b5f819050919050565b5f61469661469161468c84614673565b613874565b61335f565b9050919050565b6146a68161467c565b82525050565b7f746f6b656e20646563696d616c7320646964206e6f74206d61746368000000005f82015250565b5f6146e0601c836138ad565b91506146eb826146ac565b602082019050919050565b5f6060820190506147095f830185614664565b614716602083018461469d565b8181036040830152614727816146d4565b90509392505050565b7f746f6b656e20737570706c792073686f756c64206265207a65726f00000000005f82015250565b5f614764601b836138ad565b915061476f82614730565b602082019050919050565b5f60608201905061478d5f83018561385c565b61479a602083018461389e565b81810360408301526147ab81614758565b90509392505050565b7f746f74616c20737570706c7920646964206e6f74206d617463680000000000005f82015250565b5f6147e8601a836138ad565b91506147f3826147b4565b602082019050919050565b5f6060820190506148115f83018561385c565b61481e6020830184613f01565b818103604083015261482f816147dc565b90509392505050565b5f60608201905061484b5f830186613597565b6148586020830185613403565b6148656040830184613403565b949350505050565b5f60a0820190506148805f8301886134e3565b61488d60208301876134e3565b61489a60408301866134e3565b6148a76060830185613403565b6148b46080830184613597565b9695505050505050565b5f6080820190506148d15f8301876134e3565b6148de60208301866134b2565b6148eb60408301856134e3565b6148f860608301846134e3565b95945050505050565b7f4e487b71000000000000000000000000000000000000000000000000000000005f52602160045260245ffdfea2646970667358221220250a95dc1dfea7d92a8b900bfc672fa04c29f52b8673d2b56118ec4ac2572f4264736f6c634300081a0033",
			"opcodes": "PUSH2 0x160 PUSH1 0x40 MSTORE PUSH20 0x0 PUSH4 0xCE88B145 PUSH0 PUSH1 0x40 MLOAD DUP3 PUSH4 0xFFFFFFFF AND PUSH1 0xE0 SHL DUP2 MSTORE PUSH1 0x4 ADD PUSH2 0x3C SWAP2 SWAP1 PUSH2 0x69F JUMP JUMPDEST PUSH1 0x20 PUSH1 0x40 MLOAD DUP1 DUP4 SUB DUP2 DUP7 GAS DELEGATECALL ISZERO DUP1 ISZERO PUSH2 0x57 JUMPI RETURNDATASIZE PUSH0 DUP1 RETURNDATACOPY RETURNDATASIZE PUSH0 REVERT JUMPDEST POP POP POP POP PUSH1 0x40 MLOAD RETURNDATASIZE PUSH1 0x1F NOT PUSH1 0x1F DUP3 ADD AND DUP3 ADD DUP1 PUSH1 0x40 MSTORE POP DUP2 ADD SWAP1 PUSH2 0x7B SWAP2 SWAP1 PUSH2 0x716 JUMP JUMPDEST PUSH1 0xB PUSH0 PUSH2 0x100 EXP DUP2 SLOAD DUP2 PUSH20 0xFFFFFFFFFFFFFFFFFFFFFFFFFFFFFFFFFFFFFFFF MUL NOT AND SWAP1 DUP4 PUSH20 0xFFFFFFFFFFFFFFFFFFFFFFFFFFFFFFFFFFFFFFFF AND MUL OR SWAP1 SSTORE POP CALLVALUE DUP1 ISZERO PUSH2 0xC5 JUMPI PUSH0 DUP1 REVERT JUMPDEST POP PUSH1 0xB PUSH0 SWAP1 SLOAD SWAP1 PUSH2 0x100 EXP SWAP1 DIV PUSH20 0xFFFFFFFFFFFFFFFFFFFFFFFFFFFFFFFFFFFFFFFF AND PUSH1 0x40 MLOAD DUP1 PUSH1 0x40 ADD PUSH1 0x40 MSTORE DUP1 PUSH1 0xB DUP2 MSTORE PUSH1 0x20 ADD PUSH32 0x466C69676874546F6B656E000000000000000000000000000000000000000000 DUP2 MSTORE POP DUP1 PUSH1 0x40 MLOAD DUP1 PUSH1 0x40 ADD PUSH1 0x40 MSTORE DUP1 PUSH1 0x1 DUP2 MSTORE PUSH1 0x20 ADD PUSH32 0x3100000000000000000000000000000000000000000000000000000000000000 DUP2 MSTORE POP DUP4 PUSH1 0x40 MLOAD DUP1 PUSH1 0x40 ADD PUSH1 0x40 MSTORE DUP1 PUSH1 0xB DUP2 MSTORE PUSH1 0x20 ADD PUSH32 0x466C69676874546F6B656E000000000000000000000000000000000000000000 DUP2 MSTORE POP PUSH1 0x40 MLOAD DUP1 PUSH1 0x40 ADD PUSH1 0x40 MSTORE DUP1 PUSH1 0x4 DUP2 MSTORE PUSH1 0x20 ADD PUSH32 0x464C545400000000000000000000000000000000000000000000000000000000 DUP2 MSTORE POP DUP2 PUSH1 0x3 SWAP1 DUP2 PUSH2 0x1D1 SWAP2 SWAP1 PUSH2 0x969 JUMP JUMPDEST POP DUP1 PUSH1 0x4 SWAP1 DUP2 PUSH2 0x1E1 SWAP2 SWAP1 PUSH2 0x969 JUMP JUMPDEST POP POP POP PUSH0 PUSH20 0xFFFFFFFFFFFFFFFFFFFFFFFFFFFFFFFFFFFFFFFF AND DUP2 PUSH20 0xFFFFFFFFFFFFFFFFFFFFFFFFFFFFFFFFFFFFFFFF AND SUB PUSH2 0x254 JUMPI PUSH0 PUSH1 0x40 MLOAD PUSH32 0x1E4FBDF700000000000000000000000000000000000000000000000000000000 DUP2 MSTORE PUSH1 0x4 ADD PUSH2 0x24B SWAP2 SWAP1 PUSH2 0xA47 JUMP JUMPDEST PUSH1 0x40 MLOAD DUP1 SWAP2 SUB SWAP1 REVERT JUMPDEST PUSH2 0x263 DUP2 PUSH2 0x324 PUSH1 0x20 SHL PUSH1 0x20 SHR JUMP JUMPDEST POP PUSH2 0x278 PUSH1 0x6 DUP4 PUSH2 0x3E7 PUSH1 0x20 SHL SWAP1 SWAP2 SWAP1 PUSH1 0x20 SHR JUMP JUMPDEST PUSH2 0x120 DUP2 DUP2 MSTORE POP POP PUSH2 0x294 PUSH1 0x7 DUP3 PUSH2 0x3E7 PUSH1 0x20 SHL SWAP1 SWAP2 SWAP1 PUSH1 0x20 SHR JUMP JUMPDEST PUSH2 0x140 DUP2 DUP2 MSTORE POP POP DUP2 DUP1 MLOAD SWAP1 PUSH1 0x20 ADD KECCAK256 PUSH1 0xE0 DUP2 DUP2 MSTORE POP POP DUP1 DUP1 MLOAD SWAP1 PUSH1 0x20 ADD KECCAK256 PUSH2 0x100 DUP2 DUP2 MSTORE POP POP CHAINID PUSH1 0xA0 DUP2 DUP2 MSTORE POP POP PUSH2 0x2D1 PUSH2 0x434 PUSH1 0x20 SHL PUSH1 0x20 SHR JUMP JUMPDEST PUSH1 0x80 DUP2 DUP2 MSTORE POP POP ADDRESS PUSH20 0xFFFFFFFFFFFFFFFFFFFFFFFFFFFFFFFFFFFFFFFF AND PUSH1 0xC0 DUP2 PUSH20 0xFFFFFFFFFFFFFFFFFFFFFFFFFFFFFFFFFFFFFFFF AND DUP2 MSTORE POP POP POP POP POP PUSH2 0x31E DUP2 PUSH2 0x48E PUSH1 0x20 SHL PUSH1 0x20 SHR JUMP JUMPDEST POP PUSH2 0xBF1 JUMP JUMPDEST PUSH0 PUSH1 0x5 PUSH0 SWAP1 SLOAD SWAP1 PUSH2 0x100 EXP SWAP1 DIV PUSH20 0xFFFFFFFFFFFFFFFFFFFFFFFFFFFFFFFFFFFFFFFF AND SWAP1 POP DUP2 PUSH1 0x5 PUSH0 PUSH2 0x100 EXP DUP2 SLOAD DUP2 PUSH20 0xFFFFFFFFFFFFFFFFFFFFFFFFFFFFFFFFFFFFFFFF MUL NOT AND SWAP1 DUP4 PUSH20 0xFFFFFFFFFFFFFFFFFFFFFFFFFFFFFFFFFFFFFFFF AND MUL OR SWAP1 SSTORE POP DUP2 PUSH20 0xFFFFFFFFFFFFFFFFFFFFFFFFFFFFFFFFFFFFFFFF AND DUP2 PUSH20 0xFFFFFFFFFFFFFFFFFFFFFFFFFFFFFFFFFFFFFFFF AND PUSH32 0x8BE0079C531659141344CD1FD0A4F28419497F9722A3DAAFE3B4186F6B6457E0 PUSH1 0x40 MLOAD PUSH1 0x40 MLOAD DUP1 SWAP2 SUB SWAP1 LOG3 POP POP JUMP JUMPDEST PUSH0 PUSH1 0x20 DUP4 MLOAD LT ISZERO PUSH2 0x408 JUMPI PUSH2 0x401 DUP4 PUSH2 0x51E PUSH1 0x20 SHL PUSH1 0x20 SHR JUMP JUMPDEST SWAP1 POP PUSH2 0x42E JUMP JUMPDEST DUP3 PUSH2 0x418 DUP4 PUSH2 0x583 PUSH1 0x20 SHL PUSH1 0x20 SHR JUMP JUMPDEST PUSH0 ADD SWAP1 DUP2 PUSH2 0x426 SWAP2 SWAP1 PUSH2 0x969 JUMP JUMPDEST POP PUSH1 0xFF PUSH0 SHL SWAP1 POP JUMPDEST SWAP3 SWAP2 POP POP JUMP JUMPDEST PUSH0 PUSH32 0x8B73C3C69BB8FE3D512ECC4CF759CC79239F7B179B0FFACAA9A75D522B39400F PUSH1 0xE0 MLOAD PUSH2 0x100 MLOAD CHAINID ADDRESS PUSH1 0x40 MLOAD PUSH1 0x20 ADD PUSH2 0x473 SWAP6 SWAP5 SWAP4 SWAP3 SWAP2 SWAP1 PUSH2 0xA87 JUMP JUMPDEST PUSH1 0x40 MLOAD PUSH1 0x20 DUP2 DUP4 SUB SUB DUP2 MSTORE SWAP1 PUSH1 0x40 MSTORE DUP1 MLOAD SWAP1 PUSH1 0x20 ADD KECCAK256 SWAP1 POP SWAP1 JUMP JUMPDEST PUSH2 0x49C PUSH2 0x58C PUSH1 0x20 SHL PUSH1 0x20 SHR JUMP JUMPDEST PUSH0 PUSH20 0xFFFFFFFFFFFFFFFFFFFFFFFFFFFFFFFFFFFFFFFF AND DUP2 PUSH20 0xFFFFFFFFFFFFFFFFFFFFFFFFFFFFFFFFFFFFFFFF AND SUB PUSH2 0x50C JUMPI PUSH0 PUSH1 0x40 MLOAD PUSH32 0x1E4FBDF700000000000000000000000000000000000000000000000000000000 DUP2 MSTORE PUSH1 0x4 ADD PUSH2 0x503 SWAP2 SWAP1 PUSH2 0xA47 JUMP JUMPDEST PUSH1 0x40 MLOAD DUP1 SWAP2 SUB SWAP1 REVERT JUMPDEST PUSH2 0x51B DUP2 PUSH2 0x324 PUSH1 0x20 SHL PUSH1 0x20 SHR JUMP JUMPDEST POP JUMP JUMPDEST PUSH0 DUP1 DUP3 SWAP1 POP PUSH1 0x1F DUP2 MLOAD GT ISZERO PUSH2 0x56A JUMPI DUP3 PUSH1 0x40 MLOAD PUSH32 0x305A27A900000000000000000000000000000000000000000000000000000000 DUP2 MSTORE PUSH1 0x4 ADD PUSH2 0x561 SWAP2 SWAP1 PUSH2 0xB3E JUMP JUMPDEST PUSH1 0x40 MLOAD DUP1 SWAP2 SUB SWAP1 REVERT JUMPDEST DUP1 MLOAD DUP2 PUSH2 0x576 SWAP1 PUSH2 0xB8B JUMP JUMPDEST PUSH0 SHR OR PUSH0 SHL SWAP2 POP POP SWAP2 SWAP1 POP JUMP JUMPDEST PUSH0 DUP2 SWAP1 POP SWAP2 SWAP1 POP JUMP JUMPDEST PUSH2 0x59A PUSH2 0x625 PUSH1 0x20 SHL PUSH1 0x20 SHR JUMP JUMPDEST PUSH20 0xFFFFFFFFFFFFFFFFFFFFFFFFFFFFFFFFFFFFFFFF AND PUSH2 0x5BE PUSH2 0x62C PUSH1 0x20 SHL PUSH1 0x20 SHR JUMP JUMPDEST PUSH20 0xFFFFFFFFFFFFFFFFFFFFFFFFFFFFFFFFFFFFFFFF AND EQ PUSH2 0x623 JUMPI PUSH2 0x5E7 PUSH2 0x625 PUSH1 0x20 SHL PUSH1 0x20 SHR JUMP JUMPDEST PUSH1 0x40 MLOAD PUSH32 0x118CDAA700000000000000000000000000000000000000000000000000000000 DUP2 MSTORE PUSH1 0x4 ADD PUSH2 0x61A SWAP2 SWAP1 PUSH2 0xA47 JUMP JUMPDEST PUSH1 0x40 MLOAD DUP1 SWAP2 SUB SWAP1 REVERT JUMPDEST JUMP JUMPDEST PUSH0 CALLER SWAP1 POP SWAP1 JUMP JUMPDEST PUSH0 PUSH1 0x5 PUSH0 SWAP1 SLOAD SWAP1 PUSH2 0x100 EXP SWAP1 DIV PUSH20 0xFFFFFFFFFFFFFFFFFFFFFFFFFFFFFFFFFFFFFFFF AND SWAP1 POP SWAP1 JUMP JUMPDEST PUSH0 DUP2 SWAP1 POP SWAP2 SWAP1 POP JUMP JUMPDEST PUSH0 DUP2 SWAP1 POP SWAP2 SWAP1 POP JUMP JUMPDEST PUSH0 DUP2 SWAP1 POP SWAP2 SWAP1 POP JUMP JUMPDEST PUSH0 PUSH2 0x689 PUSH2 0x684 PUSH2 0x67F DUP5 PUSH2 0x654 JUMP JUMPDEST PUSH2 0x666 JUMP JUMPDEST PUSH2 0x65D JUMP JUMPDEST SWAP1 POP SWAP2 SWAP1 POP JUMP JUMPDEST PUSH2 0x699 DUP2 PUSH2 0x66F JUMP JUMPDEST DUP3 MSTORE POP POP JUMP JUMPDEST PUSH0 PUSH1 0x20 DUP3 ADD SWAP1 POP PUSH2 0x6B2 PUSH0 DUP4 ADD DUP5 PUSH2 0x690 JUMP JUMPDEST SWAP3 SWAP2 POP POP JUMP JUMPDEST PUSH0 DUP1 REVERT JUMPDEST PUSH0 PUSH20 0xFFFFFFFFFFFFFFFFFFFFFFFFFFFFFFFFFFFFFFFF DUP3 AND SWAP1 POP SWAP2 SWAP1 POP JUMP JUMPDEST PUSH0 PUSH2 0x6E5 DUP3 PUSH2 0x6BC JUMP JUMPDEST SWAP1 POP SWAP2 SWAP1 POP JUMP JUMPDEST PUSH2 0x6F5 DUP2 PUSH2 0x6DB JUMP JUMPDEST DUP2 EQ PUSH2 0x6FF JUMPI PUSH0 DUP1 REVERT JUMPDEST POP JUMP JUMPDEST PUSH0 DUP2 MLOAD SWAP1 POP PUSH2 0x710 DUP2 PUSH2 0x6EC JUMP JUMPDEST SWAP3 SWAP2 POP POP JUMP JUMPDEST PUSH0 PUSH1 0x20 DUP3 DUP5 SUB SLT ISZERO PUSH2 0x72B JUMPI PUSH2 0x72A PUSH2 0x6B8 JUMP JUMPDEST JUMPDEST PUSH0 PUSH2 0x738 DUP5 DUP3 DUP6 ADD PUSH2 0x702 JUMP JUMPDEST SWAP2 POP POP SWAP3 SWAP2 POP POP JUMP JUMPDEST PUSH0 DUP2 MLOAD SWAP1 POP SWAP2 SWAP1 POP JUMP JUMPDEST PUSH32 0x4E487B7100000000000000000000000000000000000000000000000000000000 PUSH0 MSTORE PUSH1 0x41 PUSH1 0x4 MSTORE PUSH1 0x24 PUSH0 REVERT JUMPDEST PUSH32 0x4E487B7100000000000000000000000000000000000000000000000000000000 PUSH0 MSTORE PUSH1 0x22 PUSH1 0x4 MSTORE PUSH1 0x24 PUSH0 REVERT JUMPDEST PUSH0 PUSH1 0x2 DUP3 DIV SWAP1 POP PUSH1 0x1 DUP3 AND DUP1 PUSH2 0x7BC JUMPI PUSH1 0x7F DUP3 AND SWAP2 POP JUMPDEST PUSH1 0x20 DUP3 LT DUP2 SUB PUSH2 0x7CF JUMPI PUSH2 0x7CE PUSH2 0x778 JUMP JUMPDEST JUMPDEST POP SWAP2 SWAP1 POP JUMP JUMPDEST PUSH0 DUP2 SWAP1 POP DUP2 PUSH0 MSTORE PUSH1 0x20 PUSH0 KECCAK256 SWAP1 POP SWAP2 SWAP1 POP JUMP JUMPDEST PUSH0 PUSH1 0x20 PUSH1 0x1F DUP4 ADD DIV SWAP1 POP SWAP2 SWAP1 POP JUMP JUMPDEST PUSH0 DUP3 DUP3 SHL SWAP1 POP SWAP3 SWAP2 POP POP JUMP JUMPDEST PUSH0 PUSH1 0x8 DUP4 MUL PUSH2 0x831 PUSH32 0xFFFFFFFFFFFFFFFFFFFFFFFFFFFFFFFFFFFFFFFFFFFFFFFFFFFFFFFFFFFFFFFF DUP3 PUSH2 0x7F6 JUMP JUMPDEST PUSH2 0x83B DUP7 DUP4 PUSH2 0x7F6 JUMP JUMPDEST SWAP6 POP DUP1 NOT DUP5 AND SWAP4 POP DUP1 DUP7 AND DUP5 OR SWAP3 POP POP POP SWAP4 SWAP3 POP POP POP JUMP JUMPDEST PUSH0 PUSH2 0x86D PUSH2 0x868 PUSH2 0x863 DUP5 PUSH2 0x65D JUMP JUMPDEST PUSH2 0x666 JUMP JUMPDEST PUSH2 0x65D JUMP JUMPDEST SWAP1 POP SWAP2 SWAP1 POP JUMP JUMPDEST PUSH0 DUP2 SWAP1 POP SWAP2 SWAP1 POP JUMP JUMPDEST PUSH2 0x886 DUP4 PUSH2 0x853 JUMP JUMPDEST PUSH2 0x89A PUSH2 0x892 DUP3 PUSH2 0x874 JUMP JUMPDEST DUP5 DUP5 SLOAD PUSH2 0x802 JUMP JUMPDEST DUP3 SSTORE POP POP POP POP JUMP JUMPDEST PUSH0 SWAP1 JUMP JUMPDEST PUSH2 0x8AE PUSH2 0x8A2 JUMP JUMPDEST PUSH2 0x8B9 DUP2 DUP5 DUP5 PUSH2 0x87D JUMP JUMPDEST POP POP POP JUMP JUMPDEST JUMPDEST DUP2 DUP2 LT ISZERO PUSH2 0x8DC JUMPI PUSH2 0x8D1 PUSH0 DUP3 PUSH2 0x8A6 JUMP JUMPDEST PUSH1 0x1 DUP2 ADD SWAP1 POP PUSH2 0x8BF JUMP JUMPDEST POP POP JUMP JUMPDEST PUSH1 0x1F DUP3 GT ISZERO PUSH2 0x921 JUMPI PUSH2 0x8F2 DUP2 PUSH2 0x7D5 JUMP JUMPDEST PUSH2 0x8FB DUP5 PUSH2 0x7E7 JUMP JUMPDEST DUP2 ADD PUSH1 0x20 DUP6 LT ISZERO PUSH2 0x90A JUMPI DUP2 SWAP1 POP JUMPDEST PUSH2 0x91E PUSH2 0x916 DUP6 PUSH2 0x7E7 JUMP JUMPDEST DUP4 ADD DUP3 PUSH2 0x8BE JUMP JUMPDEST POP POP JUMPDEST POP POP POP JUMP JUMPDEST PUSH0 DUP3 DUP3 SHR SWAP1 POP SWAP3 SWAP2 POP POP JUMP JUMPDEST PUSH0 PUSH2 0x941 PUSH0 NOT DUP5 PUSH1 0x8 MUL PUSH2 0x926 JUMP JUMPDEST NOT DUP1 DUP4 AND SWAP2 POP POP SWAP3 SWAP2 POP POP JUMP JUMPDEST PUSH0 PUSH2 0x959 DUP4 DUP4 PUSH2 0x932 JUMP JUMPDEST SWAP2 POP DUP3 PUSH1 0x2 MUL DUP3 OR SWAP1 POP SWAP3 SWAP2 POP POP JUMP JUMPDEST PUSH2 0x972 DUP3 PUSH2 0x741 JUMP JUMPDEST PUSH8 0xFFFFFFFFFFFFFFFF DUP2 GT ISZERO PUSH2 0x98B JUMPI PUSH2 0x98A PUSH2 0x74B JUMP JUMPDEST JUMPDEST PUSH2 0x995 DUP3 SLOAD PUSH2 0x7A5 JUMP JUMPDEST PUSH2 0x9A0 DUP3 DUP3 DUP6 PUSH2 0x8E0 JUMP JUMPDEST PUSH0 PUSH1 0x20 SWAP1 POP PUSH1 0x1F DUP4 GT PUSH1 0x1 DUP2 EQ PUSH2 0x9D1 JUMPI PUSH0 DUP5 ISZERO PUSH2 0x9BF JUMPI DUP3 DUP8 ADD MLOAD SWAP1 POP JUMPDEST PUSH2 0x9C9 DUP6 DUP3 PUSH2 0x94E JUMP JUMPDEST DUP7 SSTORE POP PUSH2 0xA30 JUMP JUMPDEST PUSH1 0x1F NOT DUP5 AND PUSH2 0x9DF DUP7 PUSH2 0x7D5 JUMP JUMPDEST PUSH0 JUMPDEST DUP3 DUP2 LT ISZERO PUSH2 0xA06 JUMPI DUP5 DUP10 ADD MLOAD DUP3 SSTORE PUSH1 0x1 DUP3 ADD SWAP2 POP PUSH1 0x20 DUP6 ADD SWAP5 POP PUSH1 0x20 DUP2 ADD SWAP1 POP PUSH2 0x9E1 JUMP JUMPDEST DUP7 DUP4 LT ISZERO PUSH2 0xA23 JUMPI DUP5 DUP10 ADD MLOAD PUSH2 0xA1F PUSH1 0x1F DUP10 AND DUP3 PUSH2 0x932 JUMP JUMPDEST DUP4 SSTORE POP JUMPDEST PUSH1 0x1 PUSH1 0x2 DUP9 MUL ADD DUP9 SSTORE POP POP POP JUMPDEST POP POP POP POP POP POP JUMP JUMPDEST PUSH2 0xA41 DUP2 PUSH2 0x6DB JUMP JUMPDEST DUP3 MSTORE POP POP JUMP JUMPDEST PUSH0 PUSH1 0x20 DUP3 ADD SWAP1 POP PUSH2 0xA5A PUSH0 DUP4 ADD DUP5 PUSH2 0xA38 JUMP JUMPDEST SWAP3 SWAP2 POP POP JUMP JUMPDEST PUSH0 DUP2 SWAP1 POP SWAP2 SWAP1 POP JUMP JUMPDEST PUSH2 0xA72 DUP2 PUSH2 0xA60 JUMP JUMPDEST DUP3 MSTORE POP POP JUMP JUMPDEST PUSH2 0xA81 DUP2 PUSH2 0x65D JUMP JUMPDEST DUP3 MSTORE POP POP JUMP JUMPDEST PUSH0 PUSH1 0xA0 DUP3 ADD SWAP1 POP PUSH2 0xA9A PUSH0 DUP4 ADD DUP9 PUSH2 0xA69 JUMP JUMPDEST PUSH2 0xAA7 PUSH1 0x20 DUP4 ADD DUP8 PUSH2 0xA69 JUMP JUMPDEST PUSH2 0xAB4 PUSH1 0x40 DUP4 ADD DUP7 PUSH2 0xA69 JUMP JUMPDEST PUSH2 0xAC1 PUSH1 0x60 DUP4 ADD DUP6 PUSH2 0xA78 JUMP JUMPDEST PUSH2 0xACE PUSH1 0x80 DUP4 ADD DUP5 PUSH2 0xA38 JUMP JUMPDEST SWAP7 SWAP6 POP POP POP POP POP POP JUMP JUMPDEST PUSH0 DUP3 DUP3 MSTORE PUSH1 0x20 DUP3 ADD SWAP1 POP SWAP3 SWAP2 POP POP JUMP JUMPDEST DUP3 DUP2 DUP4 MCOPY PUSH0 DUP4 DUP4 ADD MSTORE POP POP POP JUMP JUMPDEST PUSH0 PUSH1 0x1F NOT PUSH1 0x1F DUP4 ADD AND SWAP1 POP SWAP2 SWAP1 POP JUMP JUMPDEST PUSH0 PUSH2 0xB10 DUP3 PUSH2 0x741 JUMP JUMPDEST PUSH2 0xB1A DUP2 DUP6 PUSH2 0xAD8 JUMP JUMPDEST SWAP4 POP PUSH2 0xB2A DUP2 DUP6 PUSH1 0x20 DUP7 ADD PUSH2 0xAE8 JUMP JUMPDEST PUSH2 0xB33 DUP2 PUSH2 0xAF6 JUMP JUMPDEST DUP5 ADD SWAP2 POP POP SWAP3 SWAP2 POP POP JUMP JUMPDEST PUSH0 PUSH1 0x20 DUP3 ADD SWAP1 POP DUP2 DUP2 SUB PUSH0 DUP4 ADD MSTORE PUSH2 0xB56 DUP2 DUP5 PUSH2 0xB06 JUMP JUMPDEST SWAP1 POP SWAP3 SWAP2 POP POP JUMP JUMPDEST PUSH0 DUP2 MLOAD SWAP1 POP SWAP2 SWAP1 POP JUMP JUMPDEST PUSH0 DUP2 SWAP1 POP PUSH1 0x20 DUP3 ADD SWAP1 POP SWAP2 SWAP1 POP JUMP JUMPDEST PUSH0 PUSH2 0xB82 DUP3 MLOAD PUSH2 0xA60 JUMP JUMPDEST DUP1 SWAP2 POP POP SWAP2 SWAP1 POP JUMP JUMPDEST PUSH0 PUSH2 0xB95 DUP3 PUSH2 0xB5E JUMP JUMPDEST DUP3 PUSH2 0xB9F DUP5 PUSH2 0xB68 JUMP JUMPDEST SWAP1 POP PUSH2 0xBAA DUP2 PUSH2 0xB77 JUMP JUMPDEST SWAP3 POP PUSH1 0x20 DUP3 LT ISZERO PUSH2 0xBEA JUMPI PUSH2 0xBE5 PUSH32 0xFFFFFFFFFFFFFFFFFFFFFFFFFFFFFFFFFFFFFFFFFFFFFFFFFFFFFFFFFFFFFFFF DUP4 PUSH1 0x20 SUB PUSH1 0x8 MUL PUSH2 0x7F6 JUMP JUMPDEST DUP4 AND SWAP3 POP JUMPDEST POP POP SWAP2 SWAP1 POP JUMP JUMPDEST PUSH1 0x80 MLOAD PUSH1 0xA0 MLOAD PUSH1 0xC0 MLOAD PUSH1 0xE0 MLOAD PUSH2 0x100 MLOAD PUSH2 0x120 MLOAD PUSH2 0x140 MLOAD PUSH2 0x4964 PUSH2 0xC42 PUSH0 CODECOPY PUSH0 PUSH2 0x2932 ADD MSTORE PUSH0 PUSH2 0x28F7 ADD MSTORE PUSH0 PUSH2 0x2E2B ADD MSTORE PUSH0 PUSH2 0x2E0A ADD MSTORE PUSH0 PUSH2 0x262C ADD MSTORE PUSH0 PUSH2 0x2682 ADD MSTORE PUSH0 PUSH2 0x26AB ADD MSTORE PUSH2 0x4964 PUSH0 RETURN INVALID PUSH1 0x80 PUSH1 0x40 MSTORE CALLVALUE DUP1 ISZERO PUSH2 0xF JUMPI PUSH0 DUP1 REVERT JUMPDEST POP PUSH1 0x4 CALLDATASIZE LT PUSH2 0x246 JUMPI PUSH0 CALLDATALOAD PUSH1 0xE0 SHR DUP1 PUSH4 0x7052454E GT PUSH2 0x139 JUMPI DUP1 PUSH4 0xA9059CBB GT PUSH2 0xB6 JUMPI DUP1 PUSH4 0xE2EB41FF GT PUSH2 0x7A JUMPI DUP1 PUSH4 0xE2EB41FF EQ PUSH2 0x5D7 JUMPI DUP1 PUSH4 0xEB7492D1 EQ PUSH2 0x609 JUMPI DUP1 PUSH4 0xF18299EB EQ PUSH2 0x613 JUMPI DUP1 PUSH4 0xF26C159F EQ PUSH2 0x61D JUMPI DUP1 PUSH4 0xF2FDE38B EQ PUSH2 0x639 JUMPI PUSH2 0x246 JUMP JUMPDEST DUP1 PUSH4 0xA9059CBB EQ PUSH2 0x547 JUMPI DUP1 PUSH4 0xBC7035F1 EQ PUSH2 0x577 JUMPI DUP1 PUSH4 0xD505ACCF EQ PUSH2 0x581 JUMPI DUP1 PUSH4 0xDC881D1C EQ PUSH2 0x59D JUMPI DUP1 PUSH4 0xDD62ED3E EQ PUSH2 0x5A7 JUMPI PUSH2 0x246 JUMP JUMPDEST DUP1 PUSH4 0x7FEA0D4B GT PUSH2 0xFD JUMPI DUP1 PUSH4 0x7FEA0D4B EQ PUSH2 0x4AD JUMPI DUP1 PUSH4 0x84B0196E EQ PUSH2 0x4B7 JUMPI DUP1 PUSH4 0x860838A5 EQ PUSH2 0x4DB JUMPI DUP1 PUSH4 0x8DA5CB5B EQ PUSH2 0x50B JUMPI DUP1 PUSH4 0x95D89B41 EQ PUSH2 0x529 JUMPI PUSH2 0x246 JUMP JUMPDEST DUP1 PUSH4 0x7052454E EQ PUSH2 0x41D JUMPI DUP1 PUSH4 0x70A08231 EQ PUSH2 0x427 JUMPI DUP1 PUSH4 0x715018A6 EQ PUSH2 0x457 JUMPI DUP1 PUSH4 0x788649EA EQ PUSH2 0x461 JUMPI DUP1 PUSH4 0x7ECEBE00 EQ PUSH2 0x47D JUMPI PUSH2 0x246 JUMP JUMPDEST DUP1 PUSH4 0x313CE567 GT PUSH2 0x1C7 JUMPI DUP1 PUSH4 0x40C10F19 GT PUSH2 0x18B JUMPI DUP1 PUSH4 0x40C10F19 EQ PUSH2 0x38E JUMPI DUP1 PUSH4 0x4FD66EAE EQ PUSH2 0x3AA JUMPI DUP1 PUSH4 0x679D4B31 EQ PUSH2 0x3DB JUMPI DUP1 PUSH4 0x6B5CC6D9 EQ PUSH2 0x3E5 JUMPI DUP1 PUSH4 0x6D1B229D EQ PUSH2 0x401 JUMPI PUSH2 0x246 JUMP JUMPDEST DUP1 PUSH4 0x313CE567 EQ PUSH2 0x334 JUMPI DUP1 PUSH4 0x36284CE0 EQ PUSH2 0x352 JUMPI DUP1 PUSH4 0x3644E515 EQ PUSH2 0x35C JUMPI DUP1 PUSH4 0x3649A96C EQ PUSH2 0x37A JUMPI DUP1 PUSH4 0x3DA0B6DB EQ PUSH2 0x384 JUMPI PUSH2 0x246 JUMP JUMPDEST DUP1 PUSH4 0xC81877C GT PUSH2 0x20E JUMPI DUP1 PUSH4 0xC81877C EQ PUSH2 0x2B6 JUMPI DUP1 PUSH4 0x18160DDD EQ PUSH2 0x2C0 JUMPI DUP1 PUSH4 0x1F5EE31C EQ PUSH2 0x2DE JUMPI DUP1 PUSH4 0x23B872DD EQ PUSH2 0x2E8 JUMPI DUP1 PUSH4 0x30407D76 EQ PUSH2 0x318 JUMPI PUSH2 0x246 JUMP JUMPDEST DUP1 PUSH4 0x3C33D5B EQ PUSH2 0x24A JUMPI DUP1 PUSH4 0x647B375 EQ PUSH2 0x254 JUMPI DUP1 PUSH4 0x6FDDE03 EQ PUSH2 0x25E JUMPI DUP1 PUSH4 0x6FE1E88 EQ PUSH2 0x27C JUMPI DUP1 PUSH4 0x95EA7B3 EQ PUSH2 0x286 JUMPI JUMPDEST PUSH0 DUP1 REVERT JUMPDEST PUSH2 0x252 PUSH2 0x655 JUMP JUMPDEST STOP JUMPDEST PUSH2 0x25C PUSH2 0x663 JUMP JUMPDEST STOP JUMPDEST PUSH2 0x266 PUSH2 0x87D JUMP JUMPDEST PUSH1 0x40 MLOAD PUSH2 0x273 SWAP2 SWAP1 PUSH2 0x32E1 JUMP JUMPDEST PUSH1 0x40 MLOAD DUP1 SWAP2 SUB SWAP1 RETURN JUMPDEST PUSH2 0x284 PUSH2 0x90D JUMP JUMPDEST STOP JUMPDEST PUSH2 0x2A0 PUSH1 0x4 DUP1 CALLDATASIZE SUB DUP2 ADD SWAP1 PUSH2 0x29B SWAP2 SWAP1 PUSH2 0x3392 JUMP JUMPDEST PUSH2 0xAC7 JUMP JUMPDEST PUSH1 0x40 MLOAD PUSH2 0x2AD SWAP2 SWAP1 PUSH2 0x33EA JUMP JUMPDEST PUSH1 0x40 MLOAD DUP1 SWAP2 SUB SWAP1 RETURN JUMPDEST PUSH2 0x2BE PUSH2 0xAE9 JUMP JUMPDEST STOP JUMPDEST PUSH2 0x2C8 PUSH2 0xAF8 JUMP JUMPDEST PUSH1 0x40 MLOAD PUSH2 0x2D5 SWAP2 SWAP1 PUSH2 0x3412 JUMP JUMPDEST PUSH1 0x40 MLOAD DUP1 SWAP2 SUB SWAP1 RETURN JUMPDEST PUSH2 0x2E6 PUSH2 0xB01 JUMP JUMPDEST STOP JUMPDEST PUSH2 0x302 PUSH1 0x4 DUP1 CALLDATASIZE SUB DUP2 ADD SWAP1 PUSH2 0x2FD SWAP2 SWAP1 PUSH2 0x342B JUMP JUMPDEST PUSH2 0xB30 JUMP JUMPDEST PUSH1 0x40 MLOAD PUSH2 0x30F SWAP2 SWAP1 PUSH2 0x33EA JUMP JUMPDEST PUSH1 0x40 MLOAD DUP1 SWAP2 SUB SWAP1 RETURN JUMPDEST PUSH2 0x332 PUSH1 0x4 DUP1 CALLDATASIZE SUB DUP2 ADD SWAP1 PUSH2 0x32D SWAP2 SWAP1 PUSH2 0x347B JUMP JUMPDEST PUSH2 0xB5E JUMP JUMPDEST STOP JUMPDEST PUSH2 0x33C PUSH2 0xDC1 JUMP JUMPDEST PUSH1 0x40 MLOAD PUSH2 0x349 SWAP2 SWAP1 PUSH2 0x34C1 JUMP JUMPDEST PUSH1 0x40 MLOAD DUP1 SWAP2 SUB SWAP1 RETURN JUMPDEST PUSH2 0x35A PUSH2 0xDC9 JUMP JUMPDEST STOP JUMPDEST PUSH2 0x364 PUSH2 0x104A JUMP JUMPDEST PUSH1 0x40 MLOAD PUSH2 0x371 SWAP2 SWAP1 PUSH2 0x34F2 JUMP JUMPDEST PUSH1 0x40 MLOAD DUP1 SWAP2 SUB SWAP1 RETURN JUMPDEST PUSH2 0x382 PUSH2 0x1058 JUMP JUMPDEST STOP JUMPDEST PUSH2 0x38C PUSH2 0x11CD JUMP JUMPDEST STOP JUMPDEST PUSH2 0x3A8 PUSH1 0x4 DUP1 CALLDATASIZE SUB DUP2 ADD SWAP1 PUSH2 0x3A3 SWAP2 SWAP1 PUSH2 0x3392 JUMP JUMPDEST PUSH2 0x11DB JUMP JUMPDEST STOP JUMPDEST PUSH2 0x3C4 PUSH1 0x4 DUP1 CALLDATASIZE SUB DUP2 ADD SWAP1 PUSH2 0x3BF SWAP2 SWAP1 PUSH2 0x350B JUMP JUMPDEST PUSH2 0x1233 JUMP JUMPDEST PUSH1 0x40 MLOAD PUSH2 0x3D2 SWAP3 SWAP2 SWAP1 PUSH2 0x3536 JUMP JUMPDEST PUSH1 0x40 MLOAD DUP1 SWAP2 SUB SWAP1 RETURN JUMPDEST PUSH2 0x3E3 PUSH2 0x12BF JUMP JUMPDEST STOP JUMPDEST PUSH2 0x3FF PUSH1 0x4 DUP1 CALLDATASIZE SUB DUP2 ADD SWAP1 PUSH2 0x3FA SWAP2 SWAP1 PUSH2 0x350B JUMP JUMPDEST PUSH2 0x1310 JUMP JUMPDEST STOP JUMPDEST PUSH2 0x41B PUSH1 0x4 DUP1 CALLDATASIZE SUB DUP2 ADD SWAP1 PUSH2 0x416 SWAP2 SWAP1 PUSH2 0x347B JUMP JUMPDEST PUSH2 0x1437 JUMP JUMPDEST STOP JUMPDEST PUSH2 0x425 PUSH2 0x15B2 JUMP JUMPDEST STOP JUMPDEST PUSH2 0x441 PUSH1 0x4 DUP1 CALLDATASIZE SUB DUP2 ADD SWAP1 PUSH2 0x43C SWAP2 SWAP1 PUSH2 0x350B JUMP JUMPDEST PUSH2 0x1727 JUMP JUMPDEST PUSH1 0x40 MLOAD PUSH2 0x44E SWAP2 SWAP1 PUSH2 0x3412 JUMP JUMPDEST PUSH1 0x40 MLOAD DUP1 SWAP2 SUB SWAP1 RETURN JUMPDEST PUSH2 0x45F PUSH2 0x176C JUMP JUMPDEST STOP JUMPDEST PUSH2 0x47B PUSH1 0x4 DUP1 CALLDATASIZE SUB DUP2 ADD SWAP1 PUSH2 0x476 SWAP2 SWAP1 PUSH2 0x350B JUMP JUMPDEST PUSH2 0x177F JUMP JUMPDEST STOP JUMPDEST PUSH2 0x497 PUSH1 0x4 DUP1 CALLDATASIZE SUB DUP2 ADD SWAP1 PUSH2 0x492 SWAP2 SWAP1 PUSH2 0x350B JUMP JUMPDEST PUSH2 0x17DE JUMP JUMPDEST PUSH1 0x40 MLOAD PUSH2 0x4A4 SWAP2 SWAP1 PUSH2 0x3412 JUMP JUMPDEST PUSH1 0x40 MLOAD DUP1 SWAP2 SUB SWAP1 RETURN JUMPDEST PUSH2 0x4B5 PUSH2 0x17EF JUMP JUMPDEST STOP JUMPDEST PUSH2 0x4BF PUSH2 0x1AC9 JUMP JUMPDEST PUSH1 0x40 MLOAD PUSH2 0x4D2 SWAP8 SWAP7 SWAP6 SWAP5 SWAP4 SWAP3 SWAP2 SWAP1 PUSH2 0x365D JUMP JUMPDEST PUSH1 0x40 MLOAD DUP1 SWAP2 SUB SWAP1 RETURN JUMPDEST PUSH2 0x4F5 PUSH1 0x4 DUP1 CALLDATASIZE SUB DUP2 ADD SWAP1 PUSH2 0x4F0 SWAP2 SWAP1 PUSH2 0x350B JUMP JUMPDEST PUSH2 0x1B6E JUMP JUMPDEST PUSH1 0x40 MLOAD PUSH2 0x502 SWAP2 SWAP1 PUSH2 0x33EA JUMP JUMPDEST PUSH1 0x40 MLOAD DUP1 SWAP2 SUB SWAP1 RETURN JUMPDEST PUSH2 0x513 PUSH2 0x1B8B JUMP JUMPDEST PUSH1 0x40 MLOAD PUSH2 0x520 SWAP2 SWAP1 PUSH2 0x36DF JUMP JUMPDEST PUSH1 0x40 MLOAD DUP1 SWAP2 SUB SWAP1 RETURN JUMPDEST PUSH2 0x531 PUSH2 0x1BB3 JUMP JUMPDEST PUSH1 0x40 MLOAD PUSH2 0x53E SWAP2 SWAP1 PUSH2 0x32E1 JUMP JUMPDEST PUSH1 0x40 MLOAD DUP1 SWAP2 SUB SWAP1 RETURN JUMPDEST PUSH2 0x561 PUSH1 0x4 DUP1 CALLDATASIZE SUB DUP2 ADD SWAP1 PUSH2 0x55C SWAP2 SWAP1 PUSH2 0x3392 JUMP JUMPDEST PUSH2 0x1C43 JUMP JUMPDEST PUSH1 0x40 MLOAD PUSH2 0x56E SWAP2 SWAP1 PUSH2 0x33EA JUMP JUMPDEST PUSH1 0x40 MLOAD DUP1 SWAP2 SUB SWAP1 RETURN JUMPDEST PUSH2 0x57F PUSH2 0x1C65 JUMP JUMPDEST STOP JUMPDEST PUSH2 0x59B PUSH1 0x4 DUP1 CALLDATASIZE SUB DUP2 ADD SWAP1 PUSH2 0x596 SWAP2 SWAP1 PUSH2 0x374C JUMP JUMPDEST PUSH2 0x1E7F JUMP JUMPDEST STOP JUMPDEST PUSH2 0x5A5 PUSH2 0x1FC4 JUMP JUMPDEST STOP JUMPDEST PUSH2 0x5C1 PUSH1 0x4 DUP1 CALLDATASIZE SUB DUP2 ADD SWAP1 PUSH2 0x5BC SWAP2 SWAP1 PUSH2 0x37E9 JUMP JUMPDEST PUSH2 0x21C3 JUMP JUMPDEST PUSH1 0x40 MLOAD PUSH2 0x5CE SWAP2 SWAP1 PUSH2 0x3412 JUMP JUMPDEST PUSH1 0x40 MLOAD DUP1 SWAP2 SUB SWAP1 RETURN JUMPDEST PUSH2 0x5F1 PUSH1 0x4 DUP1 CALLDATASIZE SUB DUP2 ADD SWAP1 PUSH2 0x5EC SWAP2 SWAP1 PUSH2 0x350B JUMP JUMPDEST PUSH2 0x2245 JUMP JUMPDEST PUSH1 0x40 MLOAD PUSH2 0x600 SWAP4 SWAP3 SWAP2 SWAP1 PUSH2 0x3827 JUMP JUMPDEST PUSH1 0x40 MLOAD DUP1 SWAP2 SUB SWAP1 RETURN JUMPDEST PUSH2 0x611 PUSH2 0x2277 JUMP JUMPDEST STOP JUMPDEST PUSH2 0x61B PUSH2 0x22FB JUMP JUMPDEST STOP JUMPDEST PUSH2 0x637 PUSH1 0x4 DUP1 CALLDATASIZE SUB DUP2 ADD SWAP1 PUSH2 0x632 SWAP2 SWAP1 PUSH2 0x350B JUMP JUMPDEST PUSH2 0x232B JUMP JUMPDEST STOP JUMPDEST PUSH2 0x653 PUSH1 0x4 DUP1 CALLDATASIZE SUB DUP2 ADD SWAP1 PUSH2 0x64E SWAP2 SWAP1 PUSH2 0x350B JUMP JUMPDEST PUSH2 0x238B JUMP JUMPDEST STOP JUMPDEST PUSH2 0x660 PUSH0 PUSH1 0x64 PUSH2 0x1C43 JUMP JUMPDEST POP JUMP JUMPDEST PUSH20 0x0 PUSH4 0xABCD7960 PUSH2 0x6A7 PUSH1 0xC PUSH0 SWAP1 SLOAD SWAP1 PUSH2 0x100 EXP SWAP1 DIV PUSH20 0xFFFFFFFFFFFFFFFFFFFFFFFFFFFFFFFFFFFFFFFF AND PUSH2 0x1727 JUMP JUMPDEST PUSH0 PUSH1 0x40 MLOAD DUP4 PUSH4 0xFFFFFFFF AND PUSH1 0xE0 SHL DUP2 MSTORE PUSH1 0x4 ADD PUSH2 0x6C5 SWAP3 SWAP2 SWAP1 PUSH2 0x392D JUMP JUMPDEST PUSH1 0x20 PUSH1 0x40 MLOAD DUP1 DUP4 SUB DUP2 DUP7 GAS DELEGATECALL ISZERO DUP1 ISZERO PUSH2 0x6E0 JUMPI RETURNDATASIZE PUSH0 DUP1 RETURNDATACOPY RETURNDATASIZE PUSH0 REVERT JUMPDEST POP POP POP POP PUSH1 0x40 MLOAD RETURNDATASIZE PUSH1 0x1F NOT PUSH1 0x1F DUP3 ADD AND DUP3 ADD DUP1 PUSH1 0x40 MSTORE POP DUP2 ADD SWAP1 PUSH2 0x704 SWAP2 SWAP1 PUSH2 0x3991 JUMP JUMPDEST POP PUSH2 0x732 PUSH1 0xC PUSH0 SWAP1 SLOAD SWAP1 PUSH2 0x100 EXP SWAP1 DIV PUSH20 0xFFFFFFFFFFFFFFFFFFFFFFFFFFFFFFFFFFFFFFFF AND PUSH2 0x1F4 PUSH2 0x1C43 JUMP JUMPDEST POP PUSH20 0x0 PUSH4 0xABCD7960 PUSH2 0x777 PUSH1 0xB PUSH0 SWAP1 SLOAD SWAP1 PUSH2 0x100 EXP SWAP1 DIV PUSH20 0xFFFFFFFFFFFFFFFFFFFFFFFFFFFFFFFFFFFFFFFF AND PUSH2 0x1727 JUMP JUMPDEST PUSH2 0x251C PUSH1 0x40 MLOAD DUP4 PUSH4 0xFFFFFFFF AND PUSH1 0xE0 SHL DUP2 MSTORE PUSH1 0x4 ADD PUSH2 0x797 SWAP3 SWAP2 SWAP1 PUSH2 0x3A3F JUMP JUMPDEST PUSH1 0x20 PUSH1 0x40 MLOAD DUP1 DUP4 SUB DUP2 DUP7 GAS DELEGATECALL ISZERO DUP1 ISZERO PUSH2 0x7B2 JUMPI RETURNDATASIZE PUSH0 DUP1 RETURNDATACOPY RETURNDATASIZE PUSH0 REVERT JUMPDEST POP POP POP POP PUSH1 0x40 MLOAD RETURNDATASIZE PUSH1 0x1F NOT PUSH1 0x1F DUP3 ADD AND DUP3 ADD DUP1 PUSH1 0x40 MSTORE POP DUP2 ADD SWAP1 PUSH2 0x7D6 SWAP2 SWAP1 PUSH2 0x3991 JUMP JUMPDEST POP PUSH20 0x0 PUSH4 0xABCD7960 PUSH2 0x81B PUSH1 0xC PUSH0 SWAP1 SLOAD SWAP1 PUSH2 0x100 EXP SWAP1 DIV PUSH20 0xFFFFFFFFFFFFFFFFFFFFFFFFFFFFFFFFFFFFFFFF AND PUSH2 0x1727 JUMP JUMPDEST PUSH2 0x1F4 PUSH1 0x40 MLOAD DUP4 PUSH4 0xFFFFFFFF AND PUSH1 0xE0 SHL DUP2 MSTORE PUSH1 0x4 ADD PUSH2 0x83B SWAP3 SWAP2 SWAP1 PUSH2 0x3AB2 JUMP JUMPDEST PUSH1 0x20 PUSH1 0x40 MLOAD DUP1 DUP4 SUB DUP2 DUP7 GAS DELEGATECALL ISZERO DUP1 ISZERO PUSH2 0x856 JUMPI RETURNDATASIZE PUSH0 DUP1 RETURNDATACOPY RETURNDATASIZE PUSH0 REVERT JUMPDEST POP POP POP POP PUSH1 0x40 MLOAD RETURNDATASIZE PUSH1 0x1F NOT PUSH1 0x1F DUP3 ADD AND DUP3 ADD DUP1 PUSH1 0x40 MSTORE POP DUP2 ADD SWAP1 PUSH2 0x87A SWAP2 SWAP1 PUSH2 0x3991 JUMP JUMPDEST POP JUMP JUMPDEST PUSH1 0x60 PUSH1 0x3 DUP1 SLOAD PUSH2 0x88C SWAP1 PUSH2 0x3B19 JUMP JUMPDEST DUP1 PUSH1 0x1F ADD PUSH1 0x20 DUP1 SWAP2 DIV MUL PUSH1 0x20 ADD PUSH1 0x40 MLOAD SWAP1 DUP2 ADD PUSH1 0x40 MSTORE DUP1 SWAP3 SWAP2 SWAP1 DUP2 DUP2 MSTORE PUSH1 0x20 ADD DUP3 DUP1 SLOAD PUSH2 0x8B8 SWAP1 PUSH2 0x3B19 JUMP JUMPDEST DUP1 ISZERO PUSH2 0x903 JUMPI DUP1 PUSH1 0x1F LT PUSH2 0x8DA JUMPI PUSH2 0x100 DUP1 DUP4 SLOAD DIV MUL DUP4 MSTORE SWAP2 PUSH1 0x20 ADD SWAP2 PUSH2 0x903 JUMP JUMPDEST DUP3 ADD SWAP2 SWAP1 PUSH0 MSTORE PUSH1 0x20 PUSH0 KECCAK256 SWAP1 JUMPDEST DUP2 SLOAD DUP2 MSTORE SWAP1 PUSH1 0x1 ADD SWAP1 PUSH1 0x20 ADD DUP1 DUP4 GT PUSH2 0x8E6 JUMPI DUP3 SWAP1 SUB PUSH1 0x1F AND DUP3 ADD SWAP2 JUMPDEST POP POP POP POP POP SWAP1 POP SWAP1 JUMP JUMPDEST PUSH20 0x0 PUSH4 0xABCD7960 PUSH2 0x973 PUSH1 0xB PUSH0 SWAP1 SLOAD SWAP1 PUSH2 0x100 EXP SWAP1 DIV PUSH20 0xFFFFFFFFFFFFFFFFFFFFFFFFFFFFFFFFFFFFFFFF AND PUSH1 0xE PUSH0 SWAP1 SLOAD SWAP1 PUSH2 0x100 EXP SWAP1 DIV PUSH20 0xFFFFFFFFFFFFFFFFFFFFFFFFFFFFFFFFFFFFFFFF AND PUSH2 0x21C3 JUMP JUMPDEST PUSH0 PUSH1 0x40 MLOAD DUP4 PUSH4 0xFFFFFFFF AND PUSH1 0xE0 SHL DUP2 MSTORE PUSH1 0x4 ADD PUSH2 0x991 SWAP3 SWAP2 SWAP1 PUSH2 0x3BB9 JUMP JUMPDEST PUSH1 0x20 PUSH1 0x40 MLOAD DUP1 DUP4 SUB DUP2 DUP7 GAS DELEGATECALL ISZERO DUP1 ISZERO PUSH2 0x9AC JUMPI RETURNDATASIZE PUSH0 DUP1 RETURNDATACOPY RETURNDATASIZE PUSH0 REVERT JUMPDEST POP POP POP POP PUSH1 0x40 MLOAD RETURNDATASIZE PUSH1 0x1F NOT PUSH1 0x1F DUP3 ADD AND DUP3 ADD DUP1 PUSH1 0x40 MSTORE POP DUP2 ADD SWAP1 PUSH2 0x9D0 SWAP2 SWAP1 PUSH2 0x3991 JUMP JUMPDEST POP PUSH2 0x9FE PUSH1 0xE PUSH0 SWAP1 SLOAD SWAP1 PUSH2 0x100 EXP SWAP1 DIV PUSH20 0xFFFFFFFFFFFFFFFFFFFFFFFFFFFFFFFFFFFFFFFF AND PUSH2 0x1F4 PUSH2 0xAC7 JUMP JUMPDEST POP PUSH20 0x0 PUSH4 0xABCD7960 PUSH2 0xA65 PUSH1 0xB PUSH0 SWAP1 SLOAD SWAP1 PUSH2 0x100 EXP SWAP1 DIV PUSH20 0xFFFFFFFFFFFFFFFFFFFFFFFFFFFFFFFFFFFFFFFF AND PUSH1 0xE PUSH0 SWAP1 SLOAD SWAP1 PUSH2 0x100 EXP SWAP1 DIV PUSH20 0xFFFFFFFFFFFFFFFFFFFFFFFFFFFFFFFFFFFFFFFF AND PUSH2 0x21C3 JUMP JUMPDEST PUSH2 0x1F4 PUSH1 0x40 MLOAD DUP4 PUSH4 0xFFFFFFFF AND PUSH1 0xE0 SHL DUP2 MSTORE PUSH1 0x4 ADD PUSH2 0xA85 SWAP3 SWAP2 SWAP1 PUSH2 0x3C3D JUMP JUMPDEST PUSH1 0x20 PUSH1 0x40 MLOAD DUP1 DUP4 SUB DUP2 DUP7 GAS DELEGATECALL ISZERO DUP1 ISZERO PUSH2 0xAA0 JUMPI RETURNDATASIZE PUSH0 DUP1 RETURNDATACOPY RETURNDATASIZE PUSH0 REVERT JUMPDEST POP POP POP POP PUSH1 0x40 MLOAD RETURNDATASIZE PUSH1 0x1F NOT PUSH1 0x1F DUP3 ADD AND DUP3 ADD DUP1 PUSH1 0x40 MSTORE POP DUP2 ADD SWAP1 PUSH2 0xAC4 SWAP2 SWAP1 PUSH2 0x3991 JUMP JUMPDEST POP JUMP JUMPDEST PUSH0 DUP1 PUSH2 0xAD1 PUSH2 0x240F JUMP JUMPDEST SWAP1 POP PUSH2 0xADE DUP2 DUP6 DUP6 PUSH2 0x2416 JUMP JUMPDEST PUSH1 0x1 SWAP2 POP POP SWAP3 SWAP2 POP POP JUMP JUMPDEST PUSH2 0xAF5 PUSH0 PUSH2 0x1F4 PUSH2 0xAC7 JUMP JUMPDEST POP JUMP JUMPDEST PUSH0 PUSH1 0x2 SLOAD SWAP1 POP SWAP1 JUMP JUMPDEST PUSH2 0xB2D PUSH1 0xE PUSH0 SWAP1 SLOAD SWAP1 PUSH2 0x100 EXP SWAP1 DIV PUSH20 0xFFFFFFFFFFFFFFFFFFFFFFFFFFFFFFFFFFFFFFFF AND PUSH1 0x6E PUSH2 0x1C43 JUMP JUMPDEST POP JUMP JUMPDEST PUSH0 DUP1 PUSH2 0xB3A PUSH2 0x240F JUMP JUMPDEST SWAP1 POP PUSH2 0xB47 DUP6 DUP3 DUP6 PUSH2 0x2428 JUMP JUMPDEST PUSH2 0xB52 DUP6 DUP6 DUP6 PUSH2 0x24BA JUMP JUMPDEST PUSH1 0x1 SWAP2 POP POP SWAP4 SWAP3 POP POP POP JUMP JUMPDEST PUSH1 0x9 PUSH0 CALLER PUSH20 0xFFFFFFFFFFFFFFFFFFFFFFFFFFFFFFFFFFFFFFFF AND PUSH20 0xFFFFFFFFFFFFFFFFFFFFFFFFFFFFFFFFFFFFFFFF AND DUP2 MSTORE PUSH1 0x20 ADD SWAP1 DUP2 MSTORE PUSH1 0x20 ADD PUSH0 KECCAK256 PUSH1 0x2 ADD PUSH0 SWAP1 SLOAD SWAP1 PUSH2 0x100 EXP SWAP1 DIV PUSH1 0xFF AND PUSH2 0xBEA JUMPI PUSH1 0x40 MLOAD PUSH32 0x8C379A000000000000000000000000000000000000000000000000000000000 DUP2 MSTORE PUSH1 0x4 ADD PUSH2 0xBE1 SWAP1 PUSH2 0x3CC1 JUMP JUMPDEST PUSH1 0x40 MLOAD DUP1 SWAP2 SUB SWAP1 REVERT JUMPDEST PUSH0 DUP2 GT PUSH2 0xC2C JUMPI PUSH1 0x40 MLOAD PUSH32 0x8C379A000000000000000000000000000000000000000000000000000000000 DUP2 MSTORE PUSH1 0x4 ADD PUSH2 0xC23 SWAP1 PUSH2 0x3D29 JUMP JUMPDEST PUSH1 0x40 MLOAD DUP1 SWAP2 SUB SWAP1 REVERT JUMPDEST DUP1 PUSH1 0x9 PUSH0 CALLER PUSH20 0xFFFFFFFFFFFFFFFFFFFFFFFFFFFFFFFFFFFFFFFF AND PUSH20 0xFFFFFFFFFFFFFFFFFFFFFFFFFFFFFFFFFFFFFFFF AND DUP2 MSTORE PUSH1 0x20 ADD SWAP1 DUP2 MSTORE PUSH1 0x20 ADD PUSH0 KECCAK256 PUSH0 ADD PUSH0 DUP3 DUP3 SLOAD PUSH2 0xC7A SWAP2 SWAP1 PUSH2 0x3D74 JUMP JUMPDEST SWAP3 POP POP DUP2 SWAP1 SSTORE POP PUSH1 0x1 PUSH1 0x9 PUSH0 CALLER PUSH20 0xFFFFFFFFFFFFFFFFFFFFFFFFFFFFFFFFFFFFFFFF AND PUSH20 0xFFFFFFFFFFFFFFFFFFFFFFFFFFFFFFFFFFFFFFFF AND DUP2 MSTORE PUSH1 0x20 ADD SWAP1 DUP2 MSTORE PUSH1 0x20 ADD PUSH0 KECCAK256 PUSH1 0x1 ADD PUSH0 DUP3 DUP3 SLOAD PUSH2 0xCD1 SWAP2 SWAP1 PUSH2 0x3D74 JUMP JUMPDEST SWAP3 POP POP DUP2 SWAP1 SSTORE POP PUSH2 0xCE2 CALLER DUP3 PUSH2 0x25AA JUMP JUMPDEST CALLER PUSH20 0xFFFFFFFFFFFFFFFFFFFFFFFFFFFFFFFFFFFFFFFF AND PUSH32 0x949B66D6BAAF4912605D046BE8FEF8D8DAC6040BB52018E69A7A805279FBEB15 DUP3 PUSH1 0x40 MLOAD PUSH2 0xD28 SWAP2 SWAP1 PUSH2 0x3412 JUMP JUMPDEST PUSH1 0x40 MLOAD DUP1 SWAP2 SUB SWAP1 LOG2 CALLER PUSH20 0xFFFFFFFFFFFFFFFFFFFFFFFFFFFFFFFFFFFFFFFF AND PUSH32 0x3F353885BA7B0DF356D5DE44B74119A3847CE3212913ECE94DAB584A929596A0 PUSH1 0x9 PUSH0 CALLER PUSH20 0xFFFFFFFFFFFFFFFFFFFFFFFFFFFFFFFFFFFFFFFF AND PUSH20 0xFFFFFFFFFFFFFFFFFFFFFFFFFFFFFFFFFFFFFFFF AND DUP2 MSTORE PUSH1 0x20 ADD SWAP1 DUP2 MSTORE PUSH1 0x20 ADD PUSH0 KECCAK256 PUSH1 0x1 ADD SLOAD PUSH1 0x40 MLOAD PUSH2 0xDB6 SWAP2 SWAP1 PUSH2 0x3412 JUMP JUMPDEST PUSH1 0x40 MLOAD DUP1 SWAP2 SUB SWAP1 LOG2 POP JUMP JUMPDEST PUSH0 PUSH1 0x12 SWAP1 POP SWAP1 JUMP JUMPDEST PUSH20 0x0 PUSH4 0xABCD7960 PUSH2 0xE2F PUSH1 0xB PUSH0 SWAP1 SLOAD SWAP1 PUSH2 0x100 EXP SWAP1 DIV PUSH20 0xFFFFFFFFFFFFFFFFFFFFFFFFFFFFFFFFFFFFFFFF AND PUSH1 0xE PUSH0 SWAP1 SLOAD SWAP1 PUSH2 0x100 EXP SWAP1 DIV PUSH20 0xFFFFFFFFFFFFFFFFFFFFFFFFFFFFFFFFFFFFFFFF AND PUSH2 0x21C3 JUMP JUMPDEST PUSH2 0x1F4 PUSH1 0x40 MLOAD DUP4 PUSH4 0xFFFFFFFF AND PUSH1 0xE0 SHL DUP2 MSTORE PUSH1 0x4 ADD PUSH2 0xE4F SWAP3 SWAP2 SWAP1 PUSH2 0x3C3D JUMP JUMPDEST PUSH1 0x20 PUSH1 0x40 MLOAD DUP1 DUP4 SUB DUP2 DUP7 GAS DELEGATECALL ISZERO DUP1 ISZERO PUSH2 0xE6A JUMPI RETURNDATASIZE PUSH0 DUP1 RETURNDATACOPY RETURNDATASIZE PUSH0 REVERT JUMPDEST POP POP POP POP PUSH1 0x40 MLOAD RETURNDATASIZE PUSH1 0x1F NOT PUSH1 0x1F DUP3 ADD AND DUP3 ADD DUP1 PUSH1 0x40 MSTORE POP DUP2 ADD SWAP1 PUSH2 0xE8E SWAP2 SWAP1 PUSH2 0x3991 JUMP JUMPDEST POP PUSH2 0xEDE PUSH1 0xB PUSH0 SWAP1 SLOAD SWAP1 PUSH2 0x100 EXP SWAP1 DIV PUSH20 0xFFFFFFFFFFFFFFFFFFFFFFFFFFFFFFFFFFFFFFFF AND PUSH1 0xF PUSH0 SWAP1 SLOAD SWAP1 PUSH2 0x100 EXP SWAP1 DIV PUSH20 0xFFFFFFFFFFFFFFFFFFFFFFFFFFFFFFFFFFFFFFFF AND PUSH2 0x190 PUSH2 0xB30 JUMP JUMPDEST POP PUSH20 0x0 PUSH4 0xABCD7960 PUSH2 0xF23 PUSH1 0xF PUSH0 SWAP1 SLOAD SWAP1 PUSH2 0x100 EXP SWAP1 DIV PUSH20 0xFFFFFFFFFFFFFFFFFFFFFFFFFFFFFFFFFFFFFFFF AND PUSH2 0x1727 JUMP JUMPDEST PUSH2 0x190 PUSH1 0x40 MLOAD DUP4 PUSH4 0xFFFFFFFF AND PUSH1 0xE0 SHL DUP2 MSTORE PUSH1 0x4 ADD PUSH2 0xF43 SWAP3 SWAP2 SWAP1 PUSH2 0x3E2A JUMP JUMPDEST PUSH1 0x20 PUSH1 0x40 MLOAD DUP1 DUP4 SUB DUP2 DUP7 GAS DELEGATECALL ISZERO DUP1 ISZERO PUSH2 0xF5E JUMPI RETURNDATASIZE PUSH0 DUP1 RETURNDATACOPY RETURNDATASIZE PUSH0 REVERT JUMPDEST POP POP POP POP PUSH1 0x40 MLOAD RETURNDATASIZE PUSH1 0x1F NOT PUSH1 0x1F DUP3 ADD AND DUP3 ADD DUP1 PUSH1 0x40 MSTORE POP DUP2 ADD SWAP1 PUSH2 0xF82 SWAP2 SWAP1 PUSH2 0x3991 JUMP JUMPDEST POP PUSH20 0x0 PUSH4 0xABCD7960 PUSH2 0xFE9 PUSH1 0xB PUSH0 SWAP1 SLOAD SWAP1 PUSH2 0x100 EXP SWAP1 DIV PUSH20 0xFFFFFFFFFFFFFFFFFFFFFFFFFFFFFFFFFFFFFFFF AND PUSH1 0xE PUSH0 SWAP1 SLOAD SWAP1 PUSH2 0x100 EXP SWAP1 DIV PUSH20 0xFFFFFFFFFFFFFFFFFFFFFFFFFFFFFFFFFFFFFFFF AND PUSH2 0x21C3 JUMP JUMPDEST PUSH1 0x64 PUSH1 0x40 MLOAD DUP4 PUSH4 0xFFFFFFFF AND PUSH1 0xE0 SHL DUP2 MSTORE PUSH1 0x4 ADD PUSH2 0x1008 SWAP3 SWAP2 SWAP1 PUSH2 0x3E9D JUMP JUMPDEST PUSH1 0x20 PUSH1 0x40 MLOAD DUP1 DUP4 SUB DUP2 DUP7 GAS DELEGATECALL ISZERO DUP1 ISZERO PUSH2 0x1023 JUMPI RETURNDATASIZE PUSH0 DUP1 RETURNDATACOPY RETURNDATASIZE PUSH0 REVERT JUMPDEST POP POP POP POP PUSH1 0x40 MLOAD RETURNDATASIZE PUSH1 0x1F NOT PUSH1 0x1F DUP3 ADD AND DUP3 ADD DUP1 PUSH1 0x40 MSTORE POP DUP2 ADD SWAP1 PUSH2 0x1047 SWAP2 SWAP1 PUSH2 0x3991 JUMP JUMPDEST POP JUMP JUMPDEST PUSH0 PUSH2 0x1053 PUSH2 0x2629 JUMP JUMPDEST SWAP1 POP SWAP1 JUMP JUMPDEST PUSH20 0x0 PUSH4 0xABCD7960 PUSH2 0x109C PUSH1 0xB PUSH0 SWAP1 SLOAD SWAP1 PUSH2 0x100 EXP SWAP1 DIV PUSH20 0xFFFFFFFFFFFFFFFFFFFFFFFFFFFFFFFFFFFFFFFF AND PUSH2 0x1727 JUMP JUMPDEST PUSH0 PUSH1 0x40 MLOAD DUP4 PUSH4 0xFFFFFFFF AND PUSH1 0xE0 SHL DUP2 MSTORE PUSH1 0x4 ADD PUSH2 0x10BA SWAP3 SWAP2 SWAP1 PUSH2 0x392D JUMP JUMPDEST PUSH1 0x20 PUSH1 0x40 MLOAD DUP1 DUP4 SUB DUP2 DUP7 GAS DELEGATECALL ISZERO DUP1 ISZERO PUSH2 0x10D5 JUMPI RETURNDATASIZE PUSH0 DUP1 RETURNDATACOPY RETURNDATASIZE PUSH0 REVERT JUMPDEST POP POP POP POP PUSH1 0x40 MLOAD RETURNDATASIZE PUSH1 0x1F NOT PUSH1 0x1F DUP3 ADD AND DUP3 ADD DUP1 PUSH1 0x40 MSTORE POP DUP2 ADD SWAP1 PUSH2 0x10F9 SWAP2 SWAP1 PUSH2 0x3991 JUMP JUMPDEST POP PUSH2 0x1127 PUSH1 0xB PUSH0 SWAP1 SLOAD SWAP1 PUSH2 0x100 EXP SWAP1 DIV PUSH20 0xFFFFFFFFFFFFFFFFFFFFFFFFFFFFFFFFFFFFFFFF AND PUSH2 0x2710 PUSH2 0x11DB JUMP JUMPDEST PUSH20 0x0 PUSH4 0xABCD7960 PUSH2 0x116B PUSH1 0xB PUSH0 SWAP1 SLOAD SWAP1 PUSH2 0x100 EXP SWAP1 DIV PUSH20 0xFFFFFFFFFFFFFFFFFFFFFFFFFFFFFFFFFFFFFFFF AND PUSH2 0x1727 JUMP JUMPDEST PUSH2 0x2710 PUSH1 0x40 MLOAD DUP4 PUSH4 0xFFFFFFFF AND PUSH1 0xE0 SHL DUP2 MSTORE PUSH1 0x4 ADD PUSH2 0x118B SWAP3 SWAP2 SWAP1 PUSH2 0x3F10 JUMP JUMPDEST PUSH1 0x20 PUSH1 0x40 MLOAD DUP1 DUP4 SUB DUP2 DUP7 GAS DELEGATECALL ISZERO DUP1 ISZERO PUSH2 0x11A6 JUMPI RETURNDATASIZE PUSH0 DUP1 RETURNDATACOPY RETURNDATASIZE PUSH0 REVERT JUMPDEST POP POP POP POP PUSH1 0x40 MLOAD RETURNDATASIZE PUSH1 0x1F NOT PUSH1 0x1F DUP3 ADD AND DUP3 ADD DUP1 PUSH1 0x40 MSTORE POP DUP2 ADD SWAP1 PUSH2 0x11CA SWAP2 SWAP1 PUSH2 0x3991 JUMP JUMPDEST POP JUMP JUMPDEST PUSH2 0x11D9 PUSH0 PUSH2 0x2710 PUSH2 0x11DB JUMP JUMPDEST JUMP JUMPDEST PUSH2 0x11E3 PUSH2 0x26DF JUMP JUMPDEST PUSH0 DUP2 GT PUSH2 0x1225 JUMPI PUSH1 0x40 MLOAD PUSH32 0x8C379A000000000000000000000000000000000000000000000000000000000 DUP2 MSTORE PUSH1 0x4 ADD PUSH2 0x121C SWAP1 PUSH2 0x3FBA JUMP JUMPDEST PUSH1 0x40 MLOAD DUP1 SWAP2 SUB SWAP1 REVERT JUMPDEST PUSH2 0x122F DUP3 DUP3 PUSH2 0x25AA JUMP JUMPDEST POP POP JUMP JUMPDEST PUSH0 DUP1 PUSH1 0x9 PUSH0 DUP5 PUSH20 0xFFFFFFFFFFFFFFFFFFFFFFFFFFFFFFFFFFFFFFFF AND PUSH20 0xFFFFFFFFFFFFFFFFFFFFFFFFFFFFFFFFFFFFFFFF AND DUP2 MSTORE PUSH1 0x20 ADD SWAP1 DUP2 MSTORE PUSH1 0x20 ADD PUSH0 KECCAK256 PUSH0 ADD SLOAD PUSH1 0x9 PUSH0 DUP6 PUSH20 0xFFFFFFFFFFFFFFFFFFFFFFFFFFFFFFFFFFFFFFFF AND PUSH20 0xFFFFFFFFFFFFFFFFFFFFFFFFFFFFFFFFFFFFFFFF AND DUP2 MSTORE PUSH1 0x20 ADD SWAP1 DUP2 MSTORE PUSH1 0x20 ADD PUSH0 KECCAK256 PUSH1 0x1 ADD SLOAD SWAP2 POP SWAP2 POP SWAP2 POP SWAP2 JUMP JUMPDEST PUSH2 0x130D PUSH1 0xB PUSH0 SWAP1 SLOAD SWAP1 PUSH2 0x100 EXP SWAP1 DIV PUSH20 0xFFFFFFFFFFFFFFFFFFFFFFFFFFFFFFFFFFFFFFFF AND PUSH1 0xF PUSH0 SWAP1 SLOAD SWAP1 PUSH2 0x100 EXP SWAP1 DIV PUSH20 0xFFFFFFFFFFFFFFFFFFFFFFFFFFFFFFFFFFFFFFFF AND PUSH1 0x6E PUSH2 0xB30 JUMP JUMPDEST POP JUMP JUMPDEST PUSH2 0x1318 PUSH2 0x26DF JUMP JUMPDEST PUSH1 0x9 PUSH0 DUP3 PUSH20 0xFFFFFFFFFFFFFFFFFFFFFFFFFFFFFFFFFFFFFFFF AND PUSH20 0xFFFFFFFFFFFFFFFFFFFFFFFFFFFFFFFFFFFFFFFF AND DUP2 MSTORE PUSH1 0x20 ADD SWAP1 DUP2 MSTORE PUSH1 0x20 ADD PUSH0 KECCAK256 PUSH1 0x2 ADD PUSH0 SWAP1 SLOAD SWAP1 PUSH2 0x100 EXP SWAP1 DIV PUSH1 0xFF AND ISZERO PUSH2 0x13A5 JUMPI PUSH1 0x40 MLOAD PUSH32 0x8C379A000000000000000000000000000000000000000000000000000000000 DUP2 MSTORE PUSH1 0x4 ADD PUSH2 0x139C SWAP1 PUSH2 0x4022 JUMP JUMPDEST PUSH1 0x40 MLOAD DUP1 SWAP2 SUB SWAP1 REVERT JUMPDEST PUSH1 0x40 MLOAD DUP1 PUSH1 0x60 ADD PUSH1 0x40 MSTORE DUP1 PUSH0 DUP2 MSTORE PUSH1 0x20 ADD PUSH0 DUP2 MSTORE PUSH1 0x20 ADD PUSH1 0x1 ISZERO ISZERO DUP2 MSTORE POP PUSH1 0x9 PUSH0 DUP4 PUSH20 0xFFFFFFFFFFFFFFFFFFFFFFFFFFFFFFFFFFFFFFFF AND PUSH20 0xFFFFFFFFFFFFFFFFFFFFFFFFFFFFFFFFFFFFFFFF AND DUP2 MSTORE PUSH1 0x20 ADD SWAP1 DUP2 MSTORE PUSH1 0x20 ADD PUSH0 KECCAK256 PUSH0 DUP3 ADD MLOAD DUP2 PUSH0 ADD SSTORE PUSH1 0x20 DUP3 ADD MLOAD DUP2 PUSH1 0x1 ADD SSTORE PUSH1 0x40 DUP3 ADD MLOAD DUP2 PUSH1 0x2 ADD PUSH0 PUSH2 0x100 EXP DUP2 SLOAD DUP2 PUSH1 0xFF MUL NOT AND SWAP1 DUP4 ISZERO ISZERO MUL OR SWAP1 SSTORE POP SWAP1 POP POP POP JUMP JUMPDEST PUSH1 0x9 PUSH0 CALLER PUSH20 0xFFFFFFFFFFFFFFFFFFFFFFFFFFFFFFFFFFFFFFFF AND PUSH20 0xFFFFFFFFFFFFFFFFFFFFFFFFFFFFFFFFFFFFFFFF AND DUP2 MSTORE PUSH1 0x20 ADD SWAP1 DUP2 MSTORE PUSH1 0x20 ADD PUSH0 KECCAK256 PUSH1 0x2 ADD PUSH0 SWAP1 SLOAD SWAP1 PUSH2 0x100 EXP SWAP1 DIV PUSH1 0xFF AND PUSH2 0x14C3 JUMPI PUSH1 0x40 MLOAD PUSH32 0x8C379A000000000000000000000000000000000000000000000000000000000 DUP2 MSTORE PUSH1 0x4 ADD PUSH2 0x14BA SWAP1 PUSH2 0x3CC1 JUMP JUMPDEST PUSH1 0x40 MLOAD DUP1 SWAP2 SUB SWAP1 REVERT JUMPDEST PUSH0 DUP2 GT PUSH2 0x1505 JUMPI PUSH1 0x40 MLOAD PUSH32 0x8C379A000000000000000000000000000000000000000000000000000000000 DUP2 MSTORE PUSH1 0x4 ADD PUSH2 0x14FC SWAP1 PUSH2 0x3D29 JUMP JUMPDEST PUSH1 0x40 MLOAD DUP1 SWAP2 SUB SWAP1 REVERT JUMPDEST DUP1 PUSH2 0x150F CALLER PUSH2 0x1727 JUMP JUMPDEST LT ISZERO PUSH2 0x1550 JUMPI PUSH1 0x40 MLOAD PUSH32 0x8C379A000000000000000000000000000000000000000000000000000000000 DUP2 MSTORE PUSH1 0x4 ADD PUSH2 0x1547 SWAP1 PUSH2 0x408A JUMP JUMPDEST PUSH1 0x40 MLOAD DUP1 SWAP2 SUB SWAP1 REVERT JUMPDEST PUSH2 0x155A CALLER DUP3 PUSH2 0x2766 JUMP JUMPDEST DUP1 PUSH1 0x9 PUSH0 CALLER PUSH20 0xFFFFFFFFFFFFFFFFFFFFFFFFFFFFFFFFFFFFFFFF AND PUSH20 0xFFFFFFFFFFFFFFFFFFFFFFFFFFFFFFFFFFFFFFFF AND DUP2 MSTORE PUSH1 0x20 ADD SWAP1 DUP2 MSTORE PUSH1 0x20 ADD PUSH0 KECCAK256 PUSH0 ADD PUSH0 DUP3 DUP3 SLOAD PUSH2 0x15A8 SWAP2 SWAP1 PUSH2 0x40A8 JUMP JUMPDEST SWAP3 POP POP DUP2 SWAP1 SSTORE POP POP JUMP JUMPDEST PUSH20 0x0 PUSH4 0xABCD7960 PUSH2 0x15F6 PUSH1 0xB PUSH0 SWAP1 SLOAD SWAP1 PUSH2 0x100 EXP SWAP1 DIV PUSH20 0xFFFFFFFFFFFFFFFFFFFFFFFFFFFFFFFFFFFFFFFF AND PUSH2 0x1727 JUMP JUMPDEST PUSH0 PUSH1 0x40 MLOAD DUP4 PUSH4 0xFFFFFFFF AND PUSH1 0xE0 SHL DUP2 MSTORE PUSH1 0x4 ADD PUSH2 0x1614 SWAP3 SWAP2 SWAP1 PUSH2 0x392D JUMP JUMPDEST PUSH1 0x20 PUSH1 0x40 MLOAD DUP1 DUP4 SUB DUP2 DUP7 GAS DELEGATECALL ISZERO DUP1 ISZERO PUSH2 0x162F JUMPI RETURNDATASIZE PUSH0 DUP1 RETURNDATACOPY RETURNDATASIZE PUSH0 REVERT JUMPDEST POP POP POP POP PUSH1 0x40 MLOAD RETURNDATASIZE PUSH1 0x1F NOT PUSH1 0x1F DUP3 ADD AND DUP3 ADD DUP1 PUSH1 0x40 MSTORE POP DUP2 ADD SWAP1 PUSH2 0x1653 SWAP2 SWAP1 PUSH2 0x3991 JUMP JUMPDEST POP PUSH2 0x1681 PUSH1 0xB PUSH0 SWAP1 SLOAD SWAP1 PUSH2 0x100 EXP SWAP1 DIV PUSH20 0xFFFFFFFFFFFFFFFFFFFFFFFFFFFFFFFFFFFFFFFF AND PUSH2 0x2710 PUSH2 0x11DB JUMP JUMPDEST PUSH20 0x0 PUSH4 0xABCD7960 PUSH2 0x16C5 PUSH1 0xB PUSH0 SWAP1 SLOAD SWAP1 PUSH2 0x100 EXP SWAP1 DIV PUSH20 0xFFFFFFFFFFFFFFFFFFFFFFFFFFFFFFFFFFFFFFFF AND PUSH2 0x1727 JUMP JUMPDEST PUSH2 0x2710 PUSH1 0x40 MLOAD DUP4 PUSH4 0xFFFFFFFF AND PUSH1 0xE0 SHL DUP2 MSTORE PUSH1 0x4 ADD PUSH2 0x16E5 SWAP3 SWAP2 SWAP1 PUSH2 0x3F10 JUMP JUMPDEST PUSH1 0x20 PUSH1 0x40 MLOAD DUP1 DUP4 SUB DUP2 DUP7 GAS DELEGATECALL ISZERO DUP1 ISZERO PUSH2 0x1700 JUMPI RETURNDATASIZE PUSH0 DUP1 RETURNDATACOPY RETURNDATASIZE PUSH0 REVERT JUMPDEST POP POP POP POP PUSH1 0x40 MLOAD RETURNDATASIZE PUSH1 0x1F NOT PUSH1 0x1F DUP3 ADD AND DUP3 ADD DUP1 PUSH1 0x40 MSTORE POP DUP2 ADD SWAP1 PUSH2 0x1724 SWAP2 SWAP1 PUSH2 0x3991 JUMP JUMPDEST POP JUMP JUMPDEST PUSH0 DUP1 PUSH0 DUP4 PUSH20 0xFFFFFFFFFFFFFFFFFFFFFFFFFFFFFFFFFFFFFFFF AND PUSH20 0xFFFFFFFFFFFFFFFFFFFFFFFFFFFFFFFFFFFFFFFF AND DUP2 MSTORE PUSH1 0x20 ADD SWAP1 DUP2 MSTORE PUSH1 0x20 ADD PUSH0 KECCAK256 SLOAD SWAP1 POP SWAP2 SWAP1 POP JUMP JUMPDEST PUSH2 0x1774 PUSH2 0x26DF JUMP JUMPDEST PUSH2 0x177D PUSH0 PUSH2 0x27E5 JUMP JUMPDEST JUMP JUMPDEST PUSH2 0x1787 PUSH2 0x26DF JUMP JUMPDEST PUSH0 PUSH1 0xA PUSH0 DUP4 PUSH20 0xFFFFFFFFFFFFFFFFFFFFFFFFFFFFFFFFFFFFFFFF AND PUSH20 0xFFFFFFFFFFFFFFFFFFFFFFFFFFFFFFFFFFFFFFFF AND DUP2 MSTORE PUSH1 0x20 ADD SWAP1 DUP2 MSTORE PUSH1 0x20 ADD PUSH0 KECCAK256 PUSH0 PUSH2 0x100 EXP DUP2 SLOAD DUP2 PUSH1 0xFF MUL NOT AND SWAP1 DUP4 ISZERO ISZERO MUL OR SWAP1 SSTORE POP POP JUMP JUMPDEST PUSH0 PUSH2 0x17E8 DUP3 PUSH2 0x28A8 JUMP JUMPDEST SWAP1 POP SWAP2 SWAP1 POP JUMP JUMPDEST PUSH20 0x0 PUSH4 0xCE88B145 PUSH1 0x1 PUSH1 0x40 MLOAD DUP3 PUSH4 0xFFFFFFFF AND PUSH1 0xE0 SHL DUP2 MSTORE PUSH1 0x4 ADD PUSH2 0x1827 SWAP2 SWAP1 PUSH2 0x4114 JUMP JUMPDEST PUSH1 0x20 PUSH1 0x40 MLOAD DUP1 DUP4 SUB DUP2 DUP7 GAS DELEGATECALL ISZERO DUP1 ISZERO PUSH2 0x1842 JUMPI RETURNDATASIZE PUSH0 DUP1 RETURNDATACOPY RETURNDATASIZE PUSH0 REVERT JUMPDEST POP POP POP POP PUSH1 0x40 MLOAD RETURNDATASIZE PUSH1 0x1F NOT PUSH1 0x1F DUP3 ADD AND DUP3 ADD DUP1 PUSH1 0x40 MSTORE POP DUP2 ADD SWAP1 PUSH2 0x1866 SWAP2 SWAP1 PUSH2 0x4141 JUMP JUMPDEST PUSH1 0xC PUSH0 PUSH2 0x100 EXP DUP2 SLOAD DUP2 PUSH20 0xFFFFFFFFFFFFFFFFFFFFFFFFFFFFFFFFFFFFFFFF MUL NOT AND SWAP1 DUP4 PUSH20 0xFFFFFFFFFFFFFFFFFFFFFFFFFFFFFFFFFFFFFFFF AND MUL OR SWAP1 SSTORE POP PUSH20 0x0 PUSH4 0xCE88B145 PUSH1 0x2 PUSH1 0x40 MLOAD DUP3 PUSH4 0xFFFFFFFF AND PUSH1 0xE0 SHL DUP2 MSTORE PUSH1 0x4 ADD PUSH2 0x18DD SWAP2 SWAP1 PUSH2 0x41A5 JUMP JUMPDEST PUSH1 0x20 PUSH1 0x40 MLOAD DUP1 DUP4 SUB DUP2 DUP7 GAS DELEGATECALL ISZERO DUP1 ISZERO PUSH2 0x18F8 JUMPI RETURNDATASIZE PUSH0 DUP1 RETURNDATACOPY RETURNDATASIZE PUSH0 REVERT JUMPDEST POP POP POP POP PUSH1 0x40 MLOAD RETURNDATASIZE PUSH1 0x1F NOT PUSH1 0x1F DUP3 ADD AND DUP3 ADD DUP1 PUSH1 0x40 MSTORE POP DUP2 ADD SWAP1 PUSH2 0x191C SWAP2 SWAP1 PUSH2 0x4141 JUMP JUMPDEST PUSH1 0xD PUSH0 PUSH2 0x100 EXP DUP2 SLOAD DUP2 PUSH20 0xFFFFFFFFFFFFFFFFFFFFFFFFFFFFFFFFFFFFFFFF MUL NOT AND SWAP1 DUP4 PUSH20 0xFFFFFFFFFFFFFFFFFFFFFFFFFFFFFFFFFFFFFFFF AND MUL OR SWAP1 SSTORE POP PUSH20 0x0 PUSH4 0xCE88B145 PUSH1 0x3 PUSH1 0x40 MLOAD DUP3 PUSH4 0xFFFFFFFF AND PUSH1 0xE0 SHL DUP2 MSTORE PUSH1 0x4 ADD PUSH2 0x1993 SWAP2 SWAP1 PUSH2 0x41F7 JUMP JUMPDEST PUSH1 0x20 PUSH1 0x40 MLOAD DUP1 DUP4 SUB DUP2 DUP7 GAS DELEGATECALL ISZERO DUP1 ISZERO PUSH2 0x19AE JUMPI RETURNDATASIZE PUSH0 DUP1 RETURNDATACOPY RETURNDATASIZE PUSH0 REVERT JUMPDEST POP POP POP POP PUSH1 0x40 MLOAD RETURNDATASIZE PUSH1 0x1F NOT PUSH1 0x1F DUP3 ADD AND DUP3 ADD DUP1 PUSH1 0x40 MSTORE POP DUP2 ADD SWAP1 PUSH2 0x19D2 SWAP2 SWAP1 PUSH2 0x4141 JUMP JUMPDEST PUSH1 0xE PUSH0 PUSH2 0x100 EXP DUP2 SLOAD DUP2 PUSH20 0xFFFFFFFFFFFFFFFFFFFFFFFFFFFFFFFFFFFFFFFF MUL NOT AND SWAP1 DUP4 PUSH20 0xFFFFFFFFFFFFFFFFFFFFFFFFFFFFFFFFFFFFFFFF AND MUL OR SWAP1 SSTORE POP PUSH20 0x0 PUSH4 0xCE88B145 PUSH1 0x4 PUSH1 0x40 MLOAD DUP3 PUSH4 0xFFFFFFFF AND PUSH1 0xE0 SHL DUP2 MSTORE PUSH1 0x4 ADD PUSH2 0x1A49 SWAP2 SWAP1 PUSH2 0x4249 JUMP JUMPDEST PUSH1 0x20 PUSH1 0x40 MLOAD DUP1 DUP4 SUB DUP2 DUP7 GAS DELEGATECALL ISZERO DUP1 ISZERO PUSH2 0x1A64 JUMPI RETURNDATASIZE PUSH0 DUP1 RETURNDATACOPY RETURNDATASIZE PUSH0 REVERT JUMPDEST POP POP POP POP PUSH1 0x40 MLOAD RETURNDATASIZE PUSH1 0x1F NOT PUSH1 0x1F DUP3 ADD AND DUP3 ADD DUP1 PUSH1 0x40 MSTORE POP DUP2 ADD SWAP1 PUSH2 0x1A88 SWAP2 SWAP1 PUSH2 0x4141 JUMP JUMPDEST PUSH1 0xF PUSH0 PUSH2 0x100 EXP DUP2 SLOAD DUP2 PUSH20 0xFFFFFFFFFFFFFFFFFFFFFFFFFFFFFFFFFFFFFFFF MUL NOT AND SWAP1 DUP4 PUSH20 0xFFFFFFFFFFFFFFFFFFFFFFFFFFFFFFFFFFFFFFFF AND MUL OR SWAP1 SSTORE POP JUMP JUMPDEST PUSH0 PUSH1 0x60 DUP1 PUSH0 DUP1 PUSH0 PUSH1 0x60 PUSH2 0x1ADA PUSH2 0x28EE JUMP JUMPDEST PUSH2 0x1AE2 PUSH2 0x2929 JUMP JUMPDEST CHAINID ADDRESS PUSH0 DUP1 SHL PUSH0 PUSH8 0xFFFFFFFFFFFFFFFF DUP2 GT ISZERO PUSH2 0x1B01 JUMPI PUSH2 0x1B00 PUSH2 0x4262 JUMP JUMPDEST JUMPDEST PUSH1 0x40 MLOAD SWAP1 DUP1 DUP3 MSTORE DUP1 PUSH1 0x20 MUL PUSH1 0x20 ADD DUP3 ADD PUSH1 0x40 MSTORE DUP1 ISZERO PUSH2 0x1B2F JUMPI DUP2 PUSH1 0x20 ADD PUSH1 0x20 DUP3 MUL DUP1 CALLDATASIZE DUP4 CALLDATACOPY DUP1 DUP3 ADD SWAP2 POP POP SWAP1 POP JUMPDEST POP PUSH32 0xF00000000000000000000000000000000000000000000000000000000000000 SWAP6 SWAP5 SWAP4 SWAP3 SWAP2 SWAP1 SWAP7 POP SWAP7 POP SWAP7 POP SWAP7 POP SWAP7 POP SWAP7 POP SWAP7 POP SWAP1 SWAP2 SWAP3 SWAP4 SWAP5 SWAP6 SWAP7 JUMP JUMPDEST PUSH1 0xA PUSH1 0x20 MSTORE DUP1 PUSH0 MSTORE PUSH1 0x40 PUSH0 KECCAK256 PUSH0 SWAP2 POP SLOAD SWAP1 PUSH2 0x100 EXP SWAP1 DIV PUSH1 0xFF AND DUP2 JUMP JUMPDEST PUSH0 PUSH1 0x5 PUSH0 SWAP1 SLOAD SWAP1 PUSH2 0x100 EXP SWAP1 DIV PUSH20 0xFFFFFFFFFFFFFFFFFFFFFFFFFFFFFFFFFFFFFFFF AND SWAP1 POP SWAP1 JUMP JUMPDEST PUSH1 0x60 PUSH1 0x4 DUP1 SLOAD PUSH2 0x1BC2 SWAP1 PUSH2 0x3B19 JUMP JUMPDEST DUP1 PUSH1 0x1F ADD PUSH1 0x20 DUP1 SWAP2 DIV MUL PUSH1 0x20 ADD PUSH1 0x40 MLOAD SWAP1 DUP2 ADD PUSH1 0x40 MSTORE DUP1 SWAP3 SWAP2 SWAP1 DUP2 DUP2 MSTORE PUSH1 0x20 ADD DUP3 DUP1 SLOAD PUSH2 0x1BEE SWAP1 PUSH2 0x3B19 JUMP JUMPDEST DUP1 ISZERO PUSH2 0x1C39 JUMPI DUP1 PUSH1 0x1F LT PUSH2 0x1C10 JUMPI PUSH2 0x100 DUP1 DUP4 SLOAD DIV MUL DUP4 MSTORE SWAP2 PUSH1 0x20 ADD SWAP2 PUSH2 0x1C39 JUMP JUMPDEST DUP3 ADD SWAP2 SWAP1 PUSH0 MSTORE PUSH1 0x20 PUSH0 KECCAK256 SWAP1 JUMPDEST DUP2 SLOAD DUP2 MSTORE SWAP1 PUSH1 0x1 ADD SWAP1 PUSH1 0x20 ADD DUP1 DUP4 GT PUSH2 0x1C1C JUMPI DUP3 SWAP1 SUB PUSH1 0x1F AND DUP3 ADD SWAP2 JUMPDEST POP POP POP POP POP SWAP1 POP SWAP1 JUMP JUMPDEST PUSH0 DUP1 PUSH2 0x1C4D PUSH2 0x240F JUMP JUMPDEST SWAP1 POP PUSH2 0x1C5A DUP2 DUP6 DUP6 PUSH2 0x24BA JUMP JUMPDEST PUSH1 0x1 SWAP2 POP POP SWAP3 SWAP2 POP POP JUMP JUMPDEST PUSH20 0x0 PUSH4 0xABCD7960 PUSH2 0x1CA9 PUSH1 0xC PUSH0 SWAP1 SLOAD SWAP1 PUSH2 0x100 EXP SWAP1 DIV PUSH20 0xFFFFFFFFFFFFFFFFFFFFFFFFFFFFFFFFFFFFFFFF AND PUSH2 0x1727 JUMP JUMPDEST PUSH2 0x1F4 PUSH1 0x40 MLOAD DUP4 PUSH4 0xFFFFFFFF AND PUSH1 0xE0 SHL DUP2 MSTORE PUSH1 0x4 ADD PUSH2 0x1CC9 SWAP3 SWAP2 SWAP1 PUSH2 0x42D9 JUMP JUMPDEST PUSH1 0x20 PUSH1 0x40 MLOAD DUP1 DUP4 SUB DUP2 DUP7 GAS DELEGATECALL ISZERO DUP1 ISZERO PUSH2 0x1CE4 JUMPI RETURNDATASIZE PUSH0 DUP1 RETURNDATACOPY RETURNDATASIZE PUSH0 REVERT JUMPDEST POP POP POP POP PUSH1 0x40 MLOAD RETURNDATASIZE PUSH1 0x1F NOT PUSH1 0x1F DUP3 ADD AND DUP3 ADD DUP1 PUSH1 0x40 MSTORE POP DUP2 ADD SWAP1 PUSH2 0x1D08 SWAP2 SWAP1 PUSH2 0x3991 JUMP JUMPDEST POP PUSH2 0x1D35 PUSH1 0xD PUSH0 SWAP1 SLOAD SWAP1 PUSH2 0x100 EXP SWAP1 DIV PUSH20 0xFFFFFFFFFFFFFFFFFFFFFFFFFFFFFFFFFFFFFFFF AND PUSH1 0x64 PUSH2 0x1C43 JUMP JUMPDEST POP PUSH20 0x0 PUSH4 0xABCD7960 PUSH2 0x1D7A PUSH1 0xC PUSH0 SWAP1 SLOAD SWAP1 PUSH2 0x100 EXP SWAP1 DIV PUSH20 0xFFFFFFFFFFFFFFFFFFFFFFFFFFFFFFFFFFFFFFFF AND PUSH2 0x1727 JUMP JUMPDEST PUSH2 0x190 PUSH1 0x40 MLOAD DUP4 PUSH4 0xFFFFFFFF AND PUSH1 0xE0 SHL DUP2 MSTORE PUSH1 0x4 ADD PUSH2 0x1D9A SWAP3 SWAP2 SWAP1 PUSH2 0x4313 JUMP JUMPDEST PUSH1 0x20 PUSH1 0x40 MLOAD DUP1 DUP4 SUB DUP2 DUP7 GAS DELEGATECALL ISZERO DUP1 ISZERO PUSH2 0x1DB5 JUMPI RETURNDATASIZE PUSH0 DUP1 RETURNDATACOPY RETURNDATASIZE PUSH0 REVERT JUMPDEST POP POP POP POP PUSH1 0x40 MLOAD RETURNDATASIZE PUSH1 0x1F NOT PUSH1 0x1F DUP3 ADD AND DUP3 ADD DUP1 PUSH1 0x40 MSTORE POP DUP2 ADD SWAP1 PUSH2 0x1DD9 SWAP2 SWAP1 PUSH2 0x3991 JUMP JUMPDEST POP PUSH20 0x0 PUSH4 0xABCD7960 PUSH2 0x1E1E PUSH1 0xD PUSH0 SWAP1 SLOAD SWAP1 PUSH2 0x100 EXP SWAP1 DIV PUSH20 0xFFFFFFFFFFFFFFFFFFFFFFFFFFFFFFFFFFFFFFFF AND PUSH2 0x1727 JUMP JUMPDEST PUSH1 0x64 PUSH1 0x40 MLOAD DUP4 PUSH4 0xFFFFFFFF AND PUSH1 0xE0 SHL DUP2 MSTORE PUSH1 0x4 ADD PUSH2 0x1E3D SWAP3 SWAP2 SWAP1 PUSH2 0x4397 JUMP JUMPDEST PUSH1 0x20 PUSH1 0x40 MLOAD DUP1 DUP4 SUB DUP2 DUP7 GAS DELEGATECALL ISZERO DUP1 ISZERO PUSH2 0x1E58 JUMPI RETURNDATASIZE PUSH0 DUP1 RETURNDATACOPY RETURNDATASIZE PUSH0 REVERT JUMPDEST POP POP POP POP PUSH1 0x40 MLOAD RETURNDATASIZE PUSH1 0x1F NOT PUSH1 0x1F DUP3 ADD AND DUP3 ADD DUP1 PUSH1 0x40 MSTORE POP DUP2 ADD SWAP1 PUSH2 0x1E7C SWAP2 SWAP1 PUSH2 0x3991 JUMP JUMPDEST POP JUMP JUMPDEST DUP4 TIMESTAMP GT ISZERO PUSH2 0x1EC4 JUMPI DUP4 PUSH1 0x40 MLOAD PUSH32 0x6279130200000000000000000000000000000000000000000000000000000000 DUP2 MSTORE PUSH1 0x4 ADD PUSH2 0x1EBB SWAP2 SWAP1 PUSH2 0x3412 JUMP JUMPDEST PUSH1 0x40 MLOAD DUP1 SWAP2 SUB SWAP1 REVERT JUMPDEST PUSH0 PUSH32 0x6E71EDAE12B1B97F4D1F60370FEF10105FA2FAAE0126114A169C64845D6126C9 DUP9 DUP9 DUP9 PUSH2 0x1EF2 DUP13 PUSH2 0x2964 JUMP JUMPDEST DUP10 PUSH1 0x40 MLOAD PUSH1 0x20 ADD PUSH2 0x1F08 SWAP7 SWAP6 SWAP5 SWAP4 SWAP3 SWAP2 SWAP1 PUSH2 0x43D1 JUMP JUMPDEST PUSH1 0x40 MLOAD PUSH1 0x20 DUP2 DUP4 SUB SUB DUP2 MSTORE SWAP1 PUSH1 0x40 MSTORE DUP1 MLOAD SWAP1 PUSH1 0x20 ADD KECCAK256 SWAP1 POP PUSH0 PUSH2 0x1F2A DUP3 PUSH2 0x29B7 JUMP JUMPDEST SWAP1 POP PUSH0 PUSH2 0x1F39 DUP3 DUP8 DUP8 DUP8 PUSH2 0x29D0 JUMP JUMPDEST SWAP1 POP DUP10 PUSH20 0xFFFFFFFFFFFFFFFFFFFFFFFFFFFFFFFFFFFFFFFF AND DUP2 PUSH20 0xFFFFFFFFFFFFFFFFFFFFFFFFFFFFFFFFFFFFFFFF AND EQ PUSH2 0x1FAD JUMPI DUP1 DUP11 PUSH1 0x40 MLOAD PUSH32 0x4B800E4600000000000000000000000000000000000000000000000000000000 DUP2 MSTORE PUSH1 0x4 ADD PUSH2 0x1FA4 SWAP3 SWAP2 SWAP1 PUSH2 0x4430 JUMP JUMPDEST PUSH1 0x40 MLOAD DUP1 SWAP2 SUB SWAP1 REVERT JUMPDEST PUSH2 0x1FB8 DUP11 DUP11 DUP11 PUSH2 0x2416 JUMP JUMPDEST POP POP POP POP POP POP POP POP POP POP JUMP JUMPDEST PUSH20 0x0 PUSH4 0xE8C2CB16 PUSH2 0x1FE6 PUSH2 0x87D JUMP JUMPDEST PUSH1 0x40 MLOAD DUP3 PUSH4 0xFFFFFFFF AND PUSH1 0xE0 SHL DUP2 MSTORE PUSH1 0x4 ADD PUSH2 0x2002 SWAP2 SWAP1 PUSH2 0x4523 JUMP JUMPDEST PUSH1 0x20 PUSH1 0x40 MLOAD DUP1 DUP4 SUB DUP2 DUP7 GAS DELEGATECALL ISZERO DUP1 ISZERO PUSH2 0x201D JUMPI RETURNDATASIZE PUSH0 DUP1 RETURNDATACOPY RETURNDATASIZE PUSH0 REVERT JUMPDEST POP POP POP POP PUSH1 0x40 MLOAD RETURNDATASIZE PUSH1 0x1F NOT PUSH1 0x1F DUP3 ADD AND DUP3 ADD DUP1 PUSH1 0x40 MSTORE POP DUP2 ADD SWAP1 PUSH2 0x2041 SWAP2 SWAP1 PUSH2 0x3991 JUMP JUMPDEST POP PUSH20 0x0 PUSH4 0xE8C2CB16 PUSH2 0x2064 PUSH2 0x1BB3 JUMP JUMPDEST PUSH1 0x40 MLOAD DUP3 PUSH4 0xFFFFFFFF AND PUSH1 0xE0 SHL DUP2 MSTORE PUSH1 0x4 ADD PUSH2 0x2080 SWAP2 SWAP1 PUSH2 0x45FD JUMP JUMPDEST PUSH1 0x20 PUSH1 0x40 MLOAD DUP1 DUP4 SUB DUP2 DUP7 GAS DELEGATECALL ISZERO DUP1 ISZERO PUSH2 0x209B JUMPI RETURNDATASIZE PUSH0 DUP1 RETURNDATACOPY RETURNDATASIZE PUSH0 REVERT JUMPDEST POP POP POP POP PUSH1 0x40 MLOAD RETURNDATASIZE PUSH1 0x1F NOT PUSH1 0x1F DUP3 ADD AND DUP3 ADD DUP1 PUSH1 0x40 MSTORE POP DUP2 ADD SWAP1 PUSH2 0x20BF SWAP2 SWAP1 PUSH2 0x3991 JUMP JUMPDEST POP PUSH20 0x0 PUSH4 0xABCD7960 PUSH2 0x20E2 PUSH2 0xDC1 JUMP JUMPDEST PUSH1 0x12 PUSH1 0x40 MLOAD DUP4 PUSH4 0xFFFFFFFF AND PUSH1 0xE0 SHL DUP2 MSTORE PUSH1 0x4 ADD PUSH2 0x2101 SWAP3 SWAP2 SWAP1 PUSH2 0x46F6 JUMP JUMPDEST PUSH1 0x20 PUSH1 0x40 MLOAD DUP1 DUP4 SUB DUP2 DUP7 GAS DELEGATECALL ISZERO DUP1 ISZERO PUSH2 0x211C JUMPI RETURNDATASIZE PUSH0 DUP1 RETURNDATACOPY RETURNDATASIZE PUSH0 REVERT JUMPDEST POP POP POP POP PUSH1 0x40 MLOAD RETURNDATASIZE PUSH1 0x1F NOT PUSH1 0x1F DUP3 ADD AND DUP3 ADD DUP1 PUSH1 0x40 MSTORE POP DUP2 ADD SWAP1 PUSH2 0x2140 SWAP2 SWAP1 PUSH2 0x3991 JUMP JUMPDEST POP PUSH20 0x0 PUSH4 0xABCD7960 PUSH2 0x2163 PUSH2 0xAF8 JUMP JUMPDEST PUSH0 PUSH1 0x40 MLOAD DUP4 PUSH4 0xFFFFFFFF AND PUSH1 0xE0 SHL DUP2 MSTORE PUSH1 0x4 ADD PUSH2 0x2181 SWAP3 SWAP2 SWAP1 PUSH2 0x477A JUMP JUMPDEST PUSH1 0x20 PUSH1 0x40 MLOAD DUP1 DUP4 SUB DUP2 DUP7 GAS DELEGATECALL ISZERO DUP1 ISZERO PUSH2 0x219C JUMPI RETURNDATASIZE PUSH0 DUP1 RETURNDATACOPY RETURNDATASIZE PUSH0 REVERT JUMPDEST POP POP POP POP PUSH1 0x40 MLOAD RETURNDATASIZE PUSH1 0x1F NOT PUSH1 0x1F DUP3 ADD AND DUP3 ADD DUP1 PUSH1 0x40 MSTORE POP DUP2 ADD SWAP1 PUSH2 0x21C0 SWAP2 SWAP1 PUSH2 0x3991 JUMP JUMPDEST POP JUMP JUMPDEST PUSH0 PUSH1 0x1 PUSH0 DUP5 PUSH20 0xFFFFFFFFFFFFFFFFFFFFFFFFFFFFFFFFFFFFFFFF AND PUSH20 0xFFFFFFFFFFFFFFFFFFFFFFFFFFFFFFFFFFFFFFFF AND DUP2 MSTORE PUSH1 0x20 ADD SWAP1 DUP2 MSTORE PUSH1 0x20 ADD PUSH0 KECCAK256 PUSH0 DUP4 PUSH20 0xFFFFFFFFFFFFFFFFFFFFFFFFFFFFFFFFFFFFFFFF AND PUSH20 0xFFFFFFFFFFFFFFFFFFFFFFFFFFFFFFFFFFFFFFFF AND DUP2 MSTORE PUSH1 0x20 ADD SWAP1 DUP2 MSTORE PUSH1 0x20 ADD PUSH0 KECCAK256 SLOAD SWAP1 POP SWAP3 SWAP2 POP POP JUMP JUMPDEST PUSH1 0x9 PUSH1 0x20 MSTORE DUP1 PUSH0 MSTORE PUSH1 0x40 PUSH0 KECCAK256 PUSH0 SWAP2 POP SWAP1 POP DUP1 PUSH0 ADD SLOAD SWAP1 DUP1 PUSH1 0x1 ADD SLOAD SWAP1 DUP1 PUSH1 0x2 ADD PUSH0 SWAP1 SLOAD SWAP1 PUSH2 0x100 EXP SWAP1 DIV PUSH1 0xFF AND SWAP1 POP DUP4 JUMP JUMPDEST PUSH20 0x0 PUSH4 0xABCD7960 PUSH2 0x2299 PUSH2 0xAF8 JUMP JUMPDEST PUSH2 0x2710 PUSH1 0x40 MLOAD DUP4 PUSH4 0xFFFFFFFF AND PUSH1 0xE0 SHL DUP2 MSTORE PUSH1 0x4 ADD PUSH2 0x22B9 SWAP3 SWAP2 SWAP1 PUSH2 0x47FE JUMP JUMPDEST PUSH1 0x20 PUSH1 0x40 MLOAD DUP1 DUP4 SUB DUP2 DUP7 GAS DELEGATECALL ISZERO DUP1 ISZERO PUSH2 0x22D4 JUMPI RETURNDATASIZE PUSH0 DUP1 RETURNDATACOPY RETURNDATASIZE PUSH0 REVERT JUMPDEST POP POP POP POP PUSH1 0x40 MLOAD RETURNDATASIZE PUSH1 0x1F NOT PUSH1 0x1F DUP3 ADD AND DUP3 ADD DUP1 PUSH1 0x40 MSTORE POP DUP2 ADD SWAP1 PUSH2 0x22F8 SWAP2 SWAP1 PUSH2 0x3991 JUMP JUMPDEST POP JUMP JUMPDEST PUSH2 0x2328 PUSH1 0xB PUSH0 SWAP1 SLOAD SWAP1 PUSH2 0x100 EXP SWAP1 DIV PUSH20 0xFFFFFFFFFFFFFFFFFFFFFFFFFFFFFFFFFFFFFFFF AND PUSH0 PUSH1 0x64 PUSH2 0xB30 JUMP JUMPDEST POP JUMP JUMPDEST PUSH2 0x2333 PUSH2 0x26DF JUMP JUMPDEST PUSH1 0x1 PUSH1 0xA PUSH0 DUP4 PUSH20 0xFFFFFFFFFFFFFFFFFFFFFFFFFFFFFFFFFFFFFFFF AND PUSH20 0xFFFFFFFFFFFFFFFFFFFFFFFFFFFFFFFFFFFFFFFF AND DUP2 MSTORE PUSH1 0x20 ADD SWAP1 DUP2 MSTORE PUSH1 0x20 ADD PUSH0 KECCAK256 PUSH0 PUSH2 0x100 EXP DUP2 SLOAD DUP2 PUSH1 0xFF MUL NOT AND SWAP1 DUP4 ISZERO ISZERO MUL OR SWAP1 SSTORE POP POP JUMP JUMPDEST PUSH2 0x2393 PUSH2 0x26DF JUMP JUMPDEST PUSH0 PUSH20 0xFFFFFFFFFFFFFFFFFFFFFFFFFFFFFFFFFFFFFFFF AND DUP2 PUSH20 0xFFFFFFFFFFFFFFFFFFFFFFFFFFFFFFFFFFFFFFFF AND SUB PUSH2 0x2403 JUMPI PUSH0 PUSH1 0x40 MLOAD PUSH32 0x1E4FBDF700000000000000000000000000000000000000000000000000000000 DUP2 MSTORE PUSH1 0x4 ADD PUSH2 0x23FA SWAP2 SWAP1 PUSH2 0x36DF JUMP JUMPDEST PUSH1 0x40 MLOAD DUP1 SWAP2 SUB SWAP1 REVERT JUMPDEST PUSH2 0x240C DUP2 PUSH2 0x27E5 JUMP JUMPDEST POP JUMP JUMPDEST PUSH0 CALLER SWAP1 POP SWAP1 JUMP JUMPDEST PUSH2 0x2423 DUP4 DUP4 DUP4 PUSH1 0x1 PUSH2 0x29FE JUMP JUMPDEST POP POP POP JUMP JUMPDEST PUSH0 PUSH2 0x2433 DUP5 DUP5 PUSH2 0x21C3 JUMP JUMPDEST SWAP1 POP PUSH32 0xFFFFFFFFFFFFFFFFFFFFFFFFFFFFFFFFFFFFFFFFFFFFFFFFFFFFFFFFFFFFFFFF DUP2 EQ PUSH2 0x24B4 JUMPI DUP2 DUP2 LT ISZERO PUSH2 0x24A5 JUMPI DUP3 DUP2 DUP4 PUSH1 0x40 MLOAD PUSH32 0xFB8F41B200000000000000000000000000000000000000000000000000000000 DUP2 MSTORE PUSH1 0x4 ADD PUSH2 0x249C SWAP4 SWAP3 SWAP2 SWAP1 PUSH2 0x4838 JUMP JUMPDEST PUSH1 0x40 MLOAD DUP1 SWAP2 SUB SWAP1 REVERT JUMPDEST PUSH2 0x24B3 DUP5 DUP5 DUP5 DUP5 SUB PUSH0 PUSH2 0x29FE JUMP JUMPDEST JUMPDEST POP POP POP POP JUMP JUMPDEST PUSH0 PUSH20 0xFFFFFFFFFFFFFFFFFFFFFFFFFFFFFFFFFFFFFFFF AND DUP4 PUSH20 0xFFFFFFFFFFFFFFFFFFFFFFFFFFFFFFFFFFFFFFFF AND SUB PUSH2 0x252A JUMPI PUSH0 PUSH1 0x40 MLOAD PUSH32 0x96C6FD1E00000000000000000000000000000000000000000000000000000000 DUP2 MSTORE PUSH1 0x4 ADD PUSH2 0x2521 SWAP2 SWAP1 PUSH2 0x36DF JUMP JUMPDEST PUSH1 0x40 MLOAD DUP1 SWAP2 SUB SWAP1 REVERT JUMPDEST PUSH0 PUSH20 0xFFFFFFFFFFFFFFFFFFFFFFFFFFFFFFFFFFFFFFFF AND DUP3 PUSH20 0xFFFFFFFFFFFFFFFFFFFFFFFFFFFFFFFFFFFFFFFF AND SUB PUSH2 0x259A JUMPI PUSH0 PUSH1 0x40 MLOAD PUSH32 0xEC442F0500000000000000000000000000000000000000000000000000000000 DUP2 MSTORE PUSH1 0x4 ADD PUSH2 0x2591 SWAP2 SWAP1 PUSH2 0x36DF JUMP JUMPDEST PUSH1 0x40 MLOAD DUP1 SWAP2 SUB SWAP1 REVERT JUMPDEST PUSH2 0x25A5 DUP4 DUP4 DUP4 PUSH2 0x2BCD JUMP JUMPDEST POP POP POP JUMP JUMPDEST PUSH0 PUSH20 0xFFFFFFFFFFFFFFFFFFFFFFFFFFFFFFFFFFFFFFFF AND DUP3 PUSH20 0xFFFFFFFFFFFFFFFFFFFFFFFFFFFFFFFFFFFFFFFF AND SUB PUSH2 0x261A JUMPI PUSH0 PUSH1 0x40 MLOAD PUSH32 0xEC442F0500000000000000000000000000000000000000000000000000000000 DUP2 MSTORE PUSH1 0x4 ADD PUSH2 0x2611 SWAP2 SWAP1 PUSH2 0x36DF JUMP JUMPDEST PUSH1 0x40 MLOAD DUP1 SWAP2 SUB SWAP1 REVERT JUMPDEST PUSH2 0x2625 PUSH0 DUP4 DUP4 PUSH2 0x2BCD JUMP JUMPDEST POP POP JUMP JUMPDEST PUSH0 PUSH32 0x0 PUSH20 0xFFFFFFFFFFFFFFFFFFFFFFFFFFFFFFFFFFFFFFFF AND ADDRESS PUSH20 0xFFFFFFFFFFFFFFFFFFFFFFFFFFFFFFFFFFFFFFFF AND EQ DUP1 ISZERO PUSH2 0x26A4 JUMPI POP PUSH32 0x0 CHAINID EQ JUMPDEST ISZERO PUSH2 0x26D1 JUMPI PUSH32 0x0 SWAP1 POP PUSH2 0x26DC JUMP JUMPDEST PUSH2 0x26D9 PUSH2 0x2DE6 JUMP JUMPDEST SWAP1 POP JUMPDEST SWAP1 JUMP JUMPDEST PUSH2 0x26E7 PUSH2 0x240F JUMP JUMPDEST PUSH20 0xFFFFFFFFFFFFFFFFFFFFFFFFFFFFFFFFFFFFFFFF AND PUSH2 0x2705 PUSH2 0x1B8B JUMP JUMPDEST PUSH20 0xFFFFFFFFFFFFFFFFFFFFFFFFFFFFFFFFFFFFFFFF AND EQ PUSH2 0x2764 JUMPI PUSH2 0x2728 PUSH2 0x240F JUMP JUMPDEST PUSH1 0x40 MLOAD PUSH32 0x118CDAA700000000000000000000000000000000000000000000000000000000 DUP2 MSTORE PUSH1 0x4 ADD PUSH2 0x275B SWAP2 SWAP1 PUSH2 0x36DF JUMP JUMPDEST PUSH1 0x40 MLOAD DUP1 SWAP2 SUB SWAP1 REVERT JUMPDEST JUMP JUMPDEST PUSH0 PUSH20 0xFFFFFFFFFFFFFFFFFFFFFFFFFFFFFFFFFFFFFFFF AND DUP3 PUSH20 0xFFFFFFFFFFFFFFFFFFFFFFFFFFFFFFFFFFFFFFFF AND SUB PUSH2 0x27D6 JUMPI PUSH0 PUSH1 0x40 MLOAD PUSH32 0x96C6FD1E00000000000000000000000000000000000000000000000000000000 DUP2 MSTORE PUSH1 0x4 ADD PUSH2 0x27CD SWAP2 SWAP1 PUSH2 0x36DF JUMP JUMPDEST PUSH1 0x40 MLOAD DUP1 SWAP2 SUB SWAP1 REVERT JUMPDEST PUSH2 0x27E1 DUP3 PUSH0 DUP4 PUSH2 0x2BCD JUMP JUMPDEST POP POP JUMP JUMPDEST PUSH0 PUSH1 0x5 PUSH0 SWAP1 SLOAD SWAP1 PUSH2 0x100 EXP SWAP1 DIV PUSH20 0xFFFFFFFFFFFFFFFFFFFFFFFFFFFFFFFFFFFFFFFF AND SWAP1 POP DUP2 PUSH1 0x5 PUSH0 PUSH2 0x100 EXP DUP2 SLOAD DUP2 PUSH20 0xFFFFFFFFFFFFFFFFFFFFFFFFFFFFFFFFFFFFFFFF MUL NOT AND SWAP1 DUP4 PUSH20 0xFFFFFFFFFFFFFFFFFFFFFFFFFFFFFFFFFFFFFFFF AND MUL OR SWAP1 SSTORE POP DUP2 PUSH20 0xFFFFFFFFFFFFFFFFFFFFFFFFFFFFFFFFFFFFFFFF AND DUP2 PUSH20 0xFFFFFFFFFFFFFFFFFFFFFFFFFFFFFFFFFFFFFFFF AND PUSH32 0x8BE0079C531659141344CD1FD0A4F28419497F9722A3DAAFE3B4186F6B6457E0 PUSH1 0x40 MLOAD PUSH1 0x40 MLOAD DUP1 SWAP2 SUB SWAP1 LOG3 POP POP JUMP JUMPDEST PUSH0 PUSH1 0x8 PUSH0 DUP4 PUSH20 0xFFFFFFFFFFFFFFFFFFFFFFFFFFFFFFFFFFFFFFFF AND PUSH20 0xFFFFFFFFFFFFFFFFFFFFFFFFFFFFFFFFFFFFFFFF AND DUP2 MSTORE PUSH1 0x20 ADD SWAP1 DUP2 MSTORE PUSH1 0x20 ADD PUSH0 KECCAK256 SLOAD SWAP1 POP SWAP2 SWAP1 POP JUMP JUMPDEST PUSH1 0x60 PUSH2 0x2924 PUSH1 0x6 PUSH32 0x0 PUSH2 0x2E7B SWAP1 SWAP2 SWAP1 PUSH4 0xFFFFFFFF AND JUMP JUMPDEST SWAP1 POP SWAP1 JUMP JUMPDEST PUSH1 0x60 PUSH2 0x295F PUSH1 0x7 PUSH32 0x0 PUSH2 0x2E7B SWAP1 SWAP2 SWAP1 PUSH4 0xFFFFFFFF AND JUMP JUMPDEST SWAP1 POP SWAP1 JUMP JUMPDEST PUSH0 PUSH1 0x8 PUSH0 DUP4 PUSH20 0xFFFFFFFFFFFFFFFFFFFFFFFFFFFFFFFFFFFFFFFF AND PUSH20 0xFFFFFFFFFFFFFFFFFFFFFFFFFFFFFFFFFFFFFFFF AND DUP2 MSTORE PUSH1 0x20 ADD SWAP1 DUP2 MSTORE PUSH1 0x20 ADD PUSH0 KECCAK256 PUSH0 DUP2 SLOAD DUP1 SWAP3 SWAP2 SWAP1 PUSH1 0x1 ADD SWAP2 SWAP1 POP SSTORE SWAP1 POP SWAP2 SWAP1 POP JUMP JUMPDEST PUSH0 PUSH2 0x29C9 PUSH2 0x29C3 PUSH2 0x2629 JUMP JUMPDEST DUP4 PUSH2 0x2F28 JUMP JUMPDEST SWAP1 POP SWAP2 SWAP1 POP JUMP JUMPDEST PUSH0 DUP1 PUSH0 DUP1 PUSH2 0x29E0 DUP9 DUP9 DUP9 DUP9 PUSH2 0x2F68 JUMP JUMPDEST SWAP3 POP SWAP3 POP SWAP3 POP PUSH2 0x29F0 DUP3 DUP3 PUSH2 0x304F JUMP JUMPDEST DUP3 SWAP4 POP POP POP POP SWAP5 SWAP4 POP POP POP POP JUMP JUMPDEST PUSH0 PUSH20 0xFFFFFFFFFFFFFFFFFFFFFFFFFFFFFFFFFFFFFFFF AND DUP5 PUSH20 0xFFFFFFFFFFFFFFFFFFFFFFFFFFFFFFFFFFFFFFFF AND SUB PUSH2 0x2A6E JUMPI PUSH0 PUSH1 0x40 MLOAD PUSH32 0xE602DF0500000000000000000000000000000000000000000000000000000000 DUP2 MSTORE PUSH1 0x4 ADD PUSH2 0x2A65 SWAP2 SWAP1 PUSH2 0x36DF JUMP JUMPDEST PUSH1 0x40 MLOAD DUP1 SWAP2 SUB SWAP1 REVERT JUMPDEST PUSH0 PUSH20 0xFFFFFFFFFFFFFFFFFFFFFFFFFFFFFFFFFFFFFFFF AND DUP4 PUSH20 0xFFFFFFFFFFFFFFFFFFFFFFFFFFFFFFFFFFFFFFFF AND SUB PUSH2 0x2ADE JUMPI PUSH0 PUSH1 0x40 MLOAD PUSH32 0x94280D6200000000000000000000000000000000000000000000000000000000 DUP2 MSTORE PUSH1 0x4 ADD PUSH2 0x2AD5 SWAP2 SWAP1 PUSH2 0x36DF JUMP JUMPDEST PUSH1 0x40 MLOAD DUP1 SWAP2 SUB SWAP1 REVERT JUMPDEST DUP2 PUSH1 0x1 PUSH0 DUP7 PUSH20 0xFFFFFFFFFFFFFFFFFFFFFFFFFFFFFFFFFFFFFFFF AND PUSH20 0xFFFFFFFFFFFFFFFFFFFFFFFFFFFFFFFFFFFFFFFF AND DUP2 MSTORE PUSH1 0x20 ADD SWAP1 DUP2 MSTORE PUSH1 0x20 ADD PUSH0 KECCAK256 PUSH0 DUP6 PUSH20 0xFFFFFFFFFFFFFFFFFFFFFFFFFFFFFFFFFFFFFFFF AND PUSH20 0xFFFFFFFFFFFFFFFFFFFFFFFFFFFFFFFFFFFFFFFF AND DUP2 MSTORE PUSH1 0x20 ADD SWAP1 DUP2 MSTORE PUSH1 0x20 ADD PUSH0 KECCAK256 DUP2 SWAP1 SSTORE POP DUP1 ISZERO PUSH2 0x2BC7 JUMPI DUP3 PUSH20 0xFFFFFFFFFFFFFFFFFFFFFFFFFFFFFFFFFFFFFFFF AND DUP5 PUSH20 0xFFFFFFFFFFFFFFFFFFFFFFFFFFFFFFFFFFFFFFFF AND PUSH32 0x8C5BE1E5EBEC7D5BD14F71427D1E84F3DD0314C0F7B2291E5B200AC8C7C3B925 DUP5 PUSH1 0x40 MLOAD PUSH2 0x2BBE SWAP2 SWAP1 PUSH2 0x3412 JUMP JUMPDEST PUSH1 0x40 MLOAD DUP1 SWAP2 SUB SWAP1 LOG3 JUMPDEST POP POP POP POP JUMP JUMPDEST PUSH0 PUSH20 0xFFFFFFFFFFFFFFFFFFFFFFFFFFFFFFFFFFFFFFFF AND DUP4 PUSH20 0xFFFFFFFFFFFFFFFFFFFFFFFFFFFFFFFFFFFFFFFF AND SUB PUSH2 0x2C1D JUMPI DUP1 PUSH1 0x2 PUSH0 DUP3 DUP3 SLOAD PUSH2 0x2C11 SWAP2 SWAP1 PUSH2 0x3D74 JUMP JUMPDEST SWAP3 POP POP DUP2 SWAP1 SSTORE POP PUSH2 0x2CEB JUMP JUMPDEST PUSH0 DUP1 PUSH0 DUP6 PUSH20 0xFFFFFFFFFFFFFFFFFFFFFFFFFFFFFFFFFFFFFFFF AND PUSH20 0xFFFFFFFFFFFFFFFFFFFFFFFFFFFFFFFFFFFFFFFF AND DUP2 MSTORE PUSH1 0x20 ADD SWAP1 DUP2 MSTORE PUSH1 0x20 ADD PUSH0 KECCAK256 SLOAD SWAP1 POP DUP2 DUP2 LT ISZERO PUSH2 0x2CA6 JUMPI DUP4 DUP2 DUP4 PUSH1 0x40 MLOAD PUSH32 0xE450D38C00000000000000000000000000000000000000000000000000000000 DUP2 MSTORE PUSH1 0x4 ADD PUSH2 0x2C9D SWAP4 SWAP3 SWAP2 SWAP1 PUSH2 0x4838 JUMP JUMPDEST PUSH1 0x40 MLOAD DUP1 SWAP2 SUB SWAP1 REVERT JUMPDEST DUP2 DUP2 SUB PUSH0 DUP1 DUP7 PUSH20 0xFFFFFFFFFFFFFFFFFFFFFFFFFFFFFFFFFFFFFFFF AND PUSH20 0xFFFFFFFFFFFFFFFFFFFFFFFFFFFFFFFFFFFFFFFF AND DUP2 MSTORE PUSH1 0x20 ADD SWAP1 DUP2 MSTORE PUSH1 0x20 ADD PUSH0 KECCAK256 DUP2 SWAP1 SSTORE POP POP JUMPDEST PUSH0 PUSH20 0xFFFFFFFFFFFFFFFFFFFFFFFFFFFFFFFFFFFFFFFF AND DUP3 PUSH20 0xFFFFFFFFFFFFFFFFFFFFFFFFFFFFFFFFFFFFFFFF AND SUB PUSH2 0x2D32 JUMPI DUP1 PUSH1 0x2 PUSH0 DUP3 DUP3 SLOAD SUB SWAP3 POP POP DUP2 SWAP1 SSTORE POP PUSH2 0x2D7C JUMP JUMPDEST DUP1 PUSH0 DUP1 DUP5 PUSH20 0xFFFFFFFFFFFFFFFFFFFFFFFFFFFFFFFFFFFFFFFF AND PUSH20 0xFFFFFFFFFFFFFFFFFFFFFFFFFFFFFFFFFFFFFFFF AND DUP2 MSTORE PUSH1 0x20 ADD SWAP1 DUP2 MSTORE PUSH1 0x20 ADD PUSH0 KECCAK256 PUSH0 DUP3 DUP3 SLOAD ADD SWAP3 POP POP DUP2 SWAP1 SSTORE POP JUMPDEST DUP2 PUSH20 0xFFFFFFFFFFFFFFFFFFFFFFFFFFFFFFFFFFFFFFFF AND DUP4 PUSH20 0xFFFFFFFFFFFFFFFFFFFFFFFFFFFFFFFFFFFFFFFF AND PUSH32 0xDDF252AD1BE2C89B69C2B068FC378DAA952BA7F163C4A11628F55A4DF523B3EF DUP4 PUSH1 0x40 MLOAD PUSH2 0x2DD9 SWAP2 SWAP1 PUSH2 0x3412 JUMP JUMPDEST PUSH1 0x40 MLOAD DUP1 SWAP2 SUB SWAP1 LOG3 POP POP POP JUMP JUMPDEST PUSH0 PUSH32 0x8B73C3C69BB8FE3D512ECC4CF759CC79239F7B179B0FFACAA9A75D522B39400F PUSH32 0x0 PUSH32 0x0 CHAINID ADDRESS PUSH1 0x40 MLOAD PUSH1 0x20 ADD PUSH2 0x2E60 SWAP6 SWAP5 SWAP4 SWAP3 SWAP2 SWAP1 PUSH2 0x486D JUMP JUMPDEST PUSH1 0x40 MLOAD PUSH1 0x20 DUP2 DUP4 SUB SUB DUP2 MSTORE SWAP1 PUSH1 0x40 MSTORE DUP1 MLOAD SWAP1 PUSH1 0x20 ADD KECCAK256 SWAP1 POP SWAP1 JUMP JUMPDEST PUSH1 0x60 PUSH1 0xFF PUSH0 SHL DUP4 EQ PUSH2 0x2E97 JUMPI PUSH2 0x2E90 DUP4 PUSH2 0x31B1 JUMP JUMPDEST SWAP1 POP PUSH2 0x2F22 JUMP JUMPDEST DUP2 DUP1 SLOAD PUSH2 0x2EA3 SWAP1 PUSH2 0x3B19 JUMP JUMPDEST DUP1 PUSH1 0x1F ADD PUSH1 0x20 DUP1 SWAP2 DIV MUL PUSH1 0x20 ADD PUSH1 0x40 MLOAD SWAP1 DUP2 ADD PUSH1 0x40 MSTORE DUP1 SWAP3 SWAP2 SWAP1 DUP2 DUP2 MSTORE PUSH1 0x20 ADD DUP3 DUP1 SLOAD PUSH2 0x2ECF SWAP1 PUSH2 0x3B19 JUMP JUMPDEST DUP1 ISZERO PUSH2 0x2F1A JUMPI DUP1 PUSH1 0x1F LT PUSH2 0x2EF1 JUMPI PUSH2 0x100 DUP1 DUP4 SLOAD DIV MUL DUP4 MSTORE SWAP2 PUSH1 0x20 ADD SWAP2 PUSH2 0x2F1A JUMP JUMPDEST DUP3 ADD SWAP2 SWAP1 PUSH0 MSTORE PUSH1 0x20 PUSH0 KECCAK256 SWAP1 JUMPDEST DUP2 SLOAD DUP2 MSTORE SWAP1 PUSH1 0x1 ADD SWAP1 PUSH1 0x20 ADD DUP1 DUP4 GT PUSH2 0x2EFD JUMPI DUP3 SWAP1 SUB PUSH1 0x1F AND DUP3 ADD SWAP2 JUMPDEST POP POP POP POP POP SWAP1 POP JUMPDEST SWAP3 SWAP2 POP POP JUMP JUMPDEST PUSH0 PUSH1 0x40 MLOAD PUSH32 0x1901000000000000000000000000000000000000000000000000000000000000 DUP2 MSTORE DUP4 PUSH1 0x2 DUP3 ADD MSTORE DUP3 PUSH1 0x22 DUP3 ADD MSTORE PUSH1 0x42 DUP2 KECCAK256 SWAP2 POP POP SWAP3 SWAP2 POP POP JUMP JUMPDEST PUSH0 DUP1 PUSH0 PUSH32 0x7FFFFFFFFFFFFFFFFFFFFFFFFFFFFFFF5D576E7357A4501DDFE92F46681B20A0 DUP5 PUSH0 SHR GT ISZERO PUSH2 0x2FA4 JUMPI PUSH0 PUSH1 0x3 DUP6 SWAP3 POP SWAP3 POP SWAP3 POP PUSH2 0x3045 JUMP JUMPDEST PUSH0 PUSH1 0x1 DUP9 DUP9 DUP9 DUP9 PUSH1 0x40 MLOAD PUSH0 DUP2 MSTORE PUSH1 0x20 ADD PUSH1 0x40 MSTORE PUSH1 0x40 MLOAD PUSH2 0x2FC7 SWAP5 SWAP4 SWAP3 SWAP2 SWAP1 PUSH2 0x48BE JUMP JUMPDEST PUSH1 0x20 PUSH1 0x40 MLOAD PUSH1 0x20 DUP2 SUB SWAP1 DUP1 DUP5 SUB SWAP1 DUP6 GAS STATICCALL ISZERO DUP1 ISZERO PUSH2 0x2FE7 JUMPI RETURNDATASIZE PUSH0 DUP1 RETURNDATACOPY RETURNDATASIZE PUSH0 REVERT JUMPDEST POP POP POP PUSH1 0x20 PUSH1 0x40 MLOAD SUB MLOAD SWAP1 POP PUSH0 PUSH20 0xFFFFFFFFFFFFFFFFFFFFFFFFFFFFFFFFFFFFFFFF AND DUP2 PUSH20 0xFFFFFFFFFFFFFFFFFFFFFFFFFFFFFFFFFFFFFFFF AND SUB PUSH2 0x3038 JUMPI PUSH0 PUSH1 0x1 PUSH0 DUP1 SHL SWAP4 POP SWAP4 POP SWAP4 POP POP PUSH2 0x3045 JUMP JUMPDEST DUP1 PUSH0 DUP1 PUSH0 SHL SWAP4 POP SWAP4 POP SWAP4 POP POP JUMPDEST SWAP5 POP SWAP5 POP SWAP5 SWAP2 POP POP JUMP JUMPDEST PUSH0 PUSH1 0x3 DUP2 GT ISZERO PUSH2 0x3062 JUMPI PUSH2 0x3061 PUSH2 0x4901 JUMP JUMPDEST JUMPDEST DUP3 PUSH1 0x3 DUP2 GT ISZERO PUSH2 0x3075 JUMPI PUSH2 0x3074 PUSH2 0x4901 JUMP JUMPDEST JUMPDEST SUB ISZERO PUSH2 0x31AD JUMPI PUSH1 0x1 PUSH1 0x3 DUP2 GT ISZERO PUSH2 0x308F JUMPI PUSH2 0x308E PUSH2 0x4901 JUMP JUMPDEST JUMPDEST DUP3 PUSH1 0x3 DUP2 GT ISZERO PUSH2 0x30A2 JUMPI PUSH2 0x30A1 PUSH2 0x4901 JUMP JUMPDEST JUMPDEST SUB PUSH2 0x30D9 JUMPI PUSH1 0x40 MLOAD PUSH32 0xF645EEDF00000000000000000000000000000000000000000000000000000000 DUP2 MSTORE PUSH1 0x4 ADD PUSH1 0x40 MLOAD DUP1 SWAP2 SUB SWAP1 REVERT JUMPDEST PUSH1 0x2 PUSH1 0x3 DUP2 GT ISZERO PUSH2 0x30ED JUMPI PUSH2 0x30EC PUSH2 0x4901 JUMP JUMPDEST JUMPDEST DUP3 PUSH1 0x3 DUP2 GT ISZERO PUSH2 0x3100 JUMPI PUSH2 0x30FF PUSH2 0x4901 JUMP JUMPDEST JUMPDEST SUB PUSH2 0x3144 JUMPI DUP1 PUSH0 SHR PUSH1 0x40 MLOAD PUSH32 0xFCE698F700000000000000000000000000000000000000000000000000000000 DUP2 MSTORE PUSH1 0x4 ADD PUSH2 0x313B SWAP2 SWAP1 PUSH2 0x3412 JUMP JUMPDEST PUSH1 0x40 MLOAD DUP1 SWAP2 SUB SWAP1 REVERT JUMPDEST PUSH1 0x3 DUP1 DUP2 GT ISZERO PUSH2 0x3157 JUMPI PUSH2 0x3156 PUSH2 0x4901 JUMP JUMPDEST JUMPDEST DUP3 PUSH1 0x3 DUP2 GT ISZERO PUSH2 0x316A JUMPI PUSH2 0x3169 PUSH2 0x4901 JUMP JUMPDEST JUMPDEST SUB PUSH2 0x31AC JUMPI DUP1 PUSH1 0x40 MLOAD PUSH32 0xD78BCE0C00000000000000000000000000000000000000000000000000000000 DUP2 MSTORE PUSH1 0x4 ADD PUSH2 0x31A3 SWAP2 SWAP1 PUSH2 0x34F2 JUMP JUMPDEST PUSH1 0x40 MLOAD DUP1 SWAP2 SUB SWAP1 REVERT JUMPDEST JUMPDEST POP POP JUMP JUMPDEST PUSH1 0x60 PUSH0 PUSH2 0x31BD DUP4 PUSH2 0x3223 JUMP JUMPDEST SWAP1 POP PUSH0 PUSH1 0x20 PUSH8 0xFFFFFFFFFFFFFFFF DUP2 GT ISZERO PUSH2 0x31DB JUMPI PUSH2 0x31DA PUSH2 0x4262 JUMP JUMPDEST JUMPDEST PUSH1 0x40 MLOAD SWAP1 DUP1 DUP3 MSTORE DUP1 PUSH1 0x1F ADD PUSH1 0x1F NOT AND PUSH1 0x20 ADD DUP3 ADD PUSH1 0x40 MSTORE DUP1 ISZERO PUSH2 0x320D JUMPI DUP2 PUSH1 0x20 ADD PUSH1 0x1 DUP3 MUL DUP1 CALLDATASIZE DUP4 CALLDATACOPY DUP1 DUP3 ADD SWAP2 POP POP SWAP1 POP JUMPDEST POP SWAP1 POP DUP2 DUP2 MSTORE DUP4 PUSH1 0x20 DUP3 ADD MSTORE DUP1 SWAP3 POP POP POP SWAP2 SWAP1 POP JUMP JUMPDEST PUSH0 DUP1 PUSH1 0xFF DUP4 PUSH0 SHR AND SWAP1 POP PUSH1 0x1F DUP2 GT ISZERO PUSH2 0x3268 JUMPI PUSH1 0x40 MLOAD PUSH32 0xB3512B0C00000000000000000000000000000000000000000000000000000000 DUP2 MSTORE PUSH1 0x4 ADD PUSH1 0x40 MLOAD DUP1 SWAP2 SUB SWAP1 REVERT JUMPDEST DUP1 SWAP2 POP POP SWAP2 SWAP1 POP JUMP JUMPDEST PUSH0 DUP2 MLOAD SWAP1 POP SWAP2 SWAP1 POP JUMP JUMPDEST PUSH0 DUP3 DUP3 MSTORE PUSH1 0x20 DUP3 ADD SWAP1 POP SWAP3 SWAP2 POP POP JUMP JUMPDEST DUP3 DUP2 DUP4 MCOPY PUSH0 DUP4 DUP4 ADD MSTORE POP POP POP JUMP JUMPDEST PUSH0 PUSH1 0x1F NOT PUSH1 0x1F DUP4 ADD AND SWAP1 POP SWAP2 SWAP1 POP JUMP JUMPDEST PUSH0 PUSH2 0x32B3 DUP3 PUSH2 0x3271 JUMP JUMPDEST PUSH2 0x32BD DUP2 DUP6 PUSH2 0x327B JUMP JUMPDEST SWAP4 POP PUSH2 0x32CD DUP2 DUP6 PUSH1 0x20 DUP7 ADD PUSH2 0x328B JUMP JUMPDEST PUSH2 0x32D6 DUP2 PUSH2 0x3299 JUMP JUMPDEST DUP5 ADD SWAP2 POP POP SWAP3 SWAP2 POP POP JUMP JUMPDEST PUSH0 PUSH1 0x20 DUP3 ADD SWAP1 POP DUP2 DUP2 SUB PUSH0 DUP4 ADD MSTORE PUSH2 0x32F9 DUP2 DUP5 PUSH2 0x32A9 JUMP JUMPDEST SWAP1 POP SWAP3 SWAP2 POP POP JUMP JUMPDEST PUSH0 DUP1 REVERT JUMPDEST PUSH0 PUSH20 0xFFFFFFFFFFFFFFFFFFFFFFFFFFFFFFFFFFFFFFFF DUP3 AND SWAP1 POP SWAP2 SWAP1 POP JUMP JUMPDEST PUSH0 PUSH2 0x332E DUP3 PUSH2 0x3305 JUMP JUMPDEST SWAP1 POP SWAP2 SWAP1 POP JUMP JUMPDEST PUSH2 0x333E DUP2 PUSH2 0x3324 JUMP JUMPDEST DUP2 EQ PUSH2 0x3348 JUMPI PUSH0 DUP1 REVERT JUMPDEST POP JUMP JUMPDEST PUSH0 DUP2 CALLDATALOAD SWAP1 POP PUSH2 0x3359 DUP2 PUSH2 0x3335 JUMP JUMPDEST SWAP3 SWAP2 POP POP JUMP JUMPDEST PUSH0 DUP2 SWAP1 POP SWAP2 SWAP1 POP JUMP JUMPDEST PUSH2 0x3371 DUP2 PUSH2 0x335F JUMP JUMPDEST DUP2 EQ PUSH2 0x337B JUMPI PUSH0 DUP1 REVERT JUMPDEST POP JUMP JUMPDEST PUSH0 DUP2 CALLDATALOAD SWAP1 POP PUSH2 0x338C DUP2 PUSH2 0x3368 JUMP JUMPDEST SWAP3 SWAP2 POP POP JUMP JUMPDEST PUSH0 DUP1 PUSH1 0x40 DUP4 DUP6 SUB SLT ISZERO PUSH2 0x33A8 JUMPI PUSH2 0x33A7 PUSH2 0x3301 JUMP JUMPDEST JUMPDEST PUSH0 PUSH2 0x33B5 DUP6 DUP3 DUP7 ADD PUSH2 0x334B JUMP JUMPDEST SWAP3 POP POP PUSH1 0x20 PUSH2 0x33C6 DUP6 DUP3 DUP7 ADD PUSH2 0x337E JUMP JUMPDEST SWAP2 POP POP SWAP3 POP SWAP3 SWAP1 POP JUMP JUMPDEST PUSH0 DUP2 ISZERO ISZERO SWAP1 POP SWAP2 SWAP1 POP JUMP JUMPDEST PUSH2 0x33E4 DUP2 PUSH2 0x33D0 JUMP JUMPDEST DUP3 MSTORE POP POP JUMP JUMPDEST PUSH0 PUSH1 0x20 DUP3 ADD SWAP1 POP PUSH2 0x33FD PUSH0 DUP4 ADD DUP5 PUSH2 0x33DB JUMP JUMPDEST SWAP3 SWAP2 POP POP JUMP JUMPDEST PUSH2 0x340C DUP2 PUSH2 0x335F JUMP JUMPDEST DUP3 MSTORE POP POP JUMP JUMPDEST PUSH0 PUSH1 0x20 DUP3 ADD SWAP1 POP PUSH2 0x3425 PUSH0 DUP4 ADD DUP5 PUSH2 0x3403 JUMP JUMPDEST SWAP3 SWAP2 POP POP JUMP JUMPDEST PUSH0 DUP1 PUSH0 PUSH1 0x60 DUP5 DUP7 SUB SLT ISZERO PUSH2 0x3442 JUMPI PUSH2 0x3441 PUSH2 0x3301 JUMP JUMPDEST JUMPDEST PUSH0 PUSH2 0x344F DUP7 DUP3 DUP8 ADD PUSH2 0x334B JUMP JUMPDEST SWAP4 POP POP PUSH1 0x20 PUSH2 0x3460 DUP7 DUP3 DUP8 ADD PUSH2 0x334B JUMP JUMPDEST SWAP3 POP POP PUSH1 0x40 PUSH2 0x3471 DUP7 DUP3 DUP8 ADD PUSH2 0x337E JUMP JUMPDEST SWAP2 POP POP SWAP3 POP SWAP3 POP SWAP3 JUMP JUMPDEST PUSH0 PUSH1 0x20 DUP3 DUP5 SUB SLT ISZERO PUSH2 0x3490 JUMPI PUSH2 0x348F PUSH2 0x3301 JUMP JUMPDEST JUMPDEST PUSH0 PUSH2 0x349D DUP5 DUP3 DUP6 ADD PUSH2 0x337E JUMP JUMPDEST SWAP2 POP POP SWAP3 SWAP2 POP POP JUMP JUMPDEST PUSH0 PUSH1 0xFF DUP3 AND SWAP1 POP SWAP2 SWAP1 POP JUMP JUMPDEST PUSH2 0x34BB DUP2 PUSH2 0x34A6 JUMP JUMPDEST DUP3 MSTORE POP POP JUMP JUMPDEST PUSH0 PUSH1 0x20 DUP3 ADD SWAP1 POP PUSH2 0x34D4 PUSH0 DUP4 ADD DUP5 PUSH2 0x34B2 JUMP JUMPDEST SWAP3 SWAP2 POP POP JUMP JUMPDEST PUSH0 DUP2 SWAP1 POP SWAP2 SWAP1 POP JUMP JUMPDEST PUSH2 0x34EC DUP2 PUSH2 0x34DA JUMP JUMPDEST DUP3 MSTORE POP POP JUMP JUMPDEST PUSH0 PUSH1 0x20 DUP3 ADD SWAP1 POP PUSH2 0x3505 PUSH0 DUP4 ADD DUP5 PUSH2 0x34E3 JUMP JUMPDEST SWAP3 SWAP2 POP POP JUMP JUMPDEST PUSH0 PUSH1 0x20 DUP3 DUP5 SUB SLT ISZERO PUSH2 0x3520 JUMPI PUSH2 0x351F PUSH2 0x3301 JUMP JUMPDEST JUMPDEST PUSH0 PUSH2 0x352D DUP5 DUP3 DUP6 ADD PUSH2 0x334B JUMP JUMPDEST SWAP2 POP POP SWAP3 SWAP2 POP POP JUMP JUMPDEST PUSH0 PUSH1 0x40 DUP3 ADD SWAP1 POP PUSH2 0x3549 PUSH0 DUP4 ADD DUP6 PUSH2 0x3403 JUMP JUMPDEST PUSH2 0x3556 PUSH1 0x20 DUP4 ADD DUP5 PUSH2 0x3403 JUMP JUMPDEST SWAP4 SWAP3 POP POP POP JUMP JUMPDEST PUSH0 PUSH32 0xFF00000000000000000000000000000000000000000000000000000000000000 DUP3 AND SWAP1 POP SWAP2 SWAP1 POP JUMP JUMPDEST PUSH2 0x3591 DUP2 PUSH2 0x355D JUMP JUMPDEST DUP3 MSTORE POP POP JUMP JUMPDEST PUSH2 0x35A0 DUP2 PUSH2 0x3324 JUMP JUMPDEST DUP3 MSTORE POP POP JUMP JUMPDEST PUSH0 DUP2 MLOAD SWAP1 POP SWAP2 SWAP1 POP JUMP JUMPDEST PUSH0 DUP3 DUP3 MSTORE PUSH1 0x20 DUP3 ADD SWAP1 POP SWAP3 SWAP2 POP POP JUMP JUMPDEST PUSH0 DUP2 SWAP1 POP PUSH1 0x20 DUP3 ADD SWAP1 POP SWAP2 SWAP1 POP JUMP JUMPDEST PUSH2 0x35D8 DUP2 PUSH2 0x335F JUMP JUMPDEST DUP3 MSTORE POP POP JUMP JUMPDEST PUSH0 PUSH2 0x35E9 DUP4 DUP4 PUSH2 0x35CF JUMP JUMPDEST PUSH1 0x20 DUP4 ADD SWAP1 POP SWAP3 SWAP2 POP POP JUMP JUMPDEST PUSH0 PUSH1 0x20 DUP3 ADD SWAP1 POP SWAP2 SWAP1 POP JUMP JUMPDEST PUSH0 PUSH2 0x360B DUP3 PUSH2 0x35A6 JUMP JUMPDEST PUSH2 0x3615 DUP2 DUP6 PUSH2 0x35B0 JUMP JUMPDEST SWAP4 POP PUSH2 0x3620 DUP4 PUSH2 0x35C0 JUMP JUMPDEST DUP1 PUSH0 JUMPDEST DUP4 DUP2 LT ISZERO PUSH2 0x3650 JUMPI DUP2 MLOAD PUSH2 0x3637 DUP9 DUP3 PUSH2 0x35DE JUMP JUMPDEST SWAP8 POP PUSH2 0x3642 DUP4 PUSH2 0x35F5 JUMP JUMPDEST SWAP3 POP POP PUSH1 0x1 DUP2 ADD SWAP1 POP PUSH2 0x3623 JUMP JUMPDEST POP DUP6 SWAP4 POP POP POP POP SWAP3 SWAP2 POP POP JUMP JUMPDEST PUSH0 PUSH1 0xE0 DUP3 ADD SWAP1 POP PUSH2 0x3670 PUSH0 DUP4 ADD DUP11 PUSH2 0x3588 JUMP JUMPDEST DUP2 DUP2 SUB PUSH1 0x20 DUP4 ADD MSTORE PUSH2 0x3682 DUP2 DUP10 PUSH2 0x32A9 JUMP JUMPDEST SWAP1 POP DUP2 DUP2 SUB PUSH1 0x40 DUP4 ADD MSTORE PUSH2 0x3696 DUP2 DUP9 PUSH2 0x32A9 JUMP JUMPDEST SWAP1 POP PUSH2 0x36A5 PUSH1 0x60 DUP4 ADD DUP8 PUSH2 0x3403 JUMP JUMPDEST PUSH2 0x36B2 PUSH1 0x80 DUP4 ADD DUP7 PUSH2 0x3597 JUMP JUMPDEST PUSH2 0x36BF PUSH1 0xA0 DUP4 ADD DUP6 PUSH2 0x34E3 JUMP JUMPDEST DUP2 DUP2 SUB PUSH1 0xC0 DUP4 ADD MSTORE PUSH2 0x36D1 DUP2 DUP5 PUSH2 0x3601 JUMP JUMPDEST SWAP1 POP SWAP9 SWAP8 POP POP POP POP POP POP POP POP JUMP JUMPDEST PUSH0 PUSH1 0x20 DUP3 ADD SWAP1 POP PUSH2 0x36F2 PUSH0 DUP4 ADD DUP5 PUSH2 0x3597 JUMP JUMPDEST SWAP3 SWAP2 POP POP JUMP JUMPDEST PUSH2 0x3701 DUP2 PUSH2 0x34A6 JUMP JUMPDEST DUP2 EQ PUSH2 0x370B JUMPI PUSH0 DUP1 REVERT JUMPDEST POP JUMP JUMPDEST PUSH0 DUP2 CALLDATALOAD SWAP1 POP PUSH2 0x371C DUP2 PUSH2 0x36F8 JUMP JUMPDEST SWAP3 SWAP2 POP POP JUMP JUMPDEST PUSH2 0x372B DUP2 PUSH2 0x34DA JUMP JUMPDEST DUP2 EQ PUSH2 0x3735 JUMPI PUSH0 DUP1 REVERT JUMPDEST POP JUMP JUMPDEST PUSH0 DUP2 CALLDATALOAD SWAP1 POP PUSH2 0x3746 DUP2 PUSH2 0x3722 JUMP JUMPDEST SWAP3 SWAP2 POP POP JUMP JUMPDEST PUSH0 DUP1 PUSH0 DUP1 PUSH0 DUP1 PUSH0 PUSH1 0xE0 DUP9 DUP11 SUB SLT ISZERO PUSH2 0x3767 JUMPI PUSH2 0x3766 PUSH2 0x3301 JUMP JUMPDEST JUMPDEST PUSH0 PUSH2 0x3774 DUP11 DUP3 DUP12 ADD PUSH2 0x334B JUMP JUMPDEST SWAP8 POP POP PUSH1 0x20 PUSH2 0x3785 DUP11 DUP3 DUP12 ADD PUSH2 0x334B JUMP JUMPDEST SWAP7 POP POP PUSH1 0x40 PUSH2 0x3796 DUP11 DUP3 DUP12 ADD PUSH2 0x337E JUMP JUMPDEST SWAP6 POP POP PUSH1 0x60 PUSH2 0x37A7 DUP11 DUP3 DUP12 ADD PUSH2 0x337E JUMP JUMPDEST SWAP5 POP POP PUSH1 0x80 PUSH2 0x37B8 DUP11 DUP3 DUP12 ADD PUSH2 0x370E JUMP JUMPDEST SWAP4 POP POP PUSH1 0xA0 PUSH2 0x37C9 DUP11 DUP3 DUP12 ADD PUSH2 0x3738 JUMP JUMPDEST SWAP3 POP POP PUSH1 0xC0 PUSH2 0x37DA DUP11 DUP3 DUP12 ADD PUSH2 0x3738 JUMP JUMPDEST SWAP2 POP POP SWAP3 SWAP6 SWAP9 SWAP2 SWAP5 SWAP8 POP SWAP3 SWAP6 POP JUMP JUMPDEST PUSH0 DUP1 PUSH1 0x40 DUP4 DUP6 SUB SLT ISZERO PUSH2 0x37FF JUMPI PUSH2 0x37FE PUSH2 0x3301 JUMP JUMPDEST JUMPDEST PUSH0 PUSH2 0x380C DUP6 DUP3 DUP7 ADD PUSH2 0x334B JUMP JUMPDEST SWAP3 POP POP PUSH1 0x20 PUSH2 0x381D DUP6 DUP3 DUP7 ADD PUSH2 0x334B JUMP JUMPDEST SWAP2 POP POP SWAP3 POP SWAP3 SWAP1 POP JUMP JUMPDEST PUSH0 PUSH1 0x60 DUP3 ADD SWAP1 POP PUSH2 0x383A PUSH0 DUP4 ADD DUP7 PUSH2 0x3403 JUMP JUMPDEST PUSH2 0x3847 PUSH1 0x20 DUP4 ADD DUP6 PUSH2 0x3403 JUMP JUMPDEST PUSH2 0x3854 PUSH1 0x40 DUP4 ADD DUP5 PUSH2 0x33DB JUMP JUMPDEST SWAP5 SWAP4 POP POP POP POP JUMP JUMPDEST PUSH2 0x3865 DUP2 PUSH2 0x335F JUMP JUMPDEST DUP3 MSTORE POP POP JUMP JUMPDEST PUSH0 DUP2 SWAP1 POP SWAP2 SWAP1 POP JUMP JUMPDEST PUSH0 DUP2 SWAP1 POP SWAP2 SWAP1 POP JUMP JUMPDEST PUSH0 PUSH2 0x3897 PUSH2 0x3892 PUSH2 0x388D DUP5 PUSH2 0x386B JUMP JUMPDEST PUSH2 0x3874 JUMP JUMPDEST PUSH2 0x335F JUMP JUMPDEST SWAP1 POP SWAP2 SWAP1 POP JUMP JUMPDEST PUSH2 0x38A7 DUP2 PUSH2 0x387D JUMP JUMPDEST DUP3 MSTORE POP POP JUMP JUMPDEST PUSH0 DUP3 DUP3 MSTORE PUSH1 0x20 DUP3 ADD SWAP1 POP SWAP3 SWAP2 POP POP JUMP JUMPDEST PUSH32 0x746F6B656E2062616C616E63652073686F756C64206265207A65726F20696E69 PUSH0 DUP3 ADD MSTORE PUSH32 0x7469616C6C790000000000000000000000000000000000000000000000000000 PUSH1 0x20 DUP3 ADD MSTORE POP JUMP JUMPDEST PUSH0 PUSH2 0x3917 PUSH1 0x26 DUP4 PUSH2 0x38AD JUMP JUMPDEST SWAP2 POP PUSH2 0x3922 DUP3 PUSH2 0x38BD JUMP JUMPDEST PUSH1 0x40 DUP3 ADD SWAP1 POP SWAP2 SWAP1 POP JUMP JUMPDEST PUSH0 PUSH1 0x60 DUP3 ADD SWAP1 POP PUSH2 0x3940 PUSH0 DUP4 ADD DUP6 PUSH2 0x385C JUMP JUMPDEST PUSH2 0x394D PUSH1 0x20 DUP4 ADD DUP5 PUSH2 0x389E JUMP JUMPDEST DUP2 DUP2 SUB PUSH1 0x40 DUP4 ADD MSTORE PUSH2 0x395E DUP2 PUSH2 0x390B JUMP JUMPDEST SWAP1 POP SWAP4 SWAP3 POP POP POP JUMP JUMPDEST PUSH2 0x3970 DUP2 PUSH2 0x33D0 JUMP JUMPDEST DUP2 EQ PUSH2 0x397A JUMPI PUSH0 DUP1 REVERT JUMPDEST POP JUMP JUMPDEST PUSH0 DUP2 MLOAD SWAP1 POP PUSH2 0x398B DUP2 PUSH2 0x3967 JUMP JUMPDEST SWAP3 SWAP2 POP POP JUMP JUMPDEST PUSH0 PUSH1 0x20 DUP3 DUP5 SUB SLT ISZERO PUSH2 0x39A6 JUMPI PUSH2 0x39A5 PUSH2 0x3301 JUMP JUMPDEST JUMPDEST PUSH0 PUSH2 0x39B3 DUP5 DUP3 DUP6 ADD PUSH2 0x397D JUMP JUMPDEST SWAP2 POP POP SWAP3 SWAP2 POP POP JUMP JUMPDEST PUSH0 DUP2 SWAP1 POP SWAP2 SWAP1 POP JUMP JUMPDEST PUSH0 PUSH2 0x39DF PUSH2 0x39DA PUSH2 0x39D5 DUP5 PUSH2 0x39BC JUMP JUMPDEST PUSH2 0x3874 JUMP JUMPDEST PUSH2 0x335F JUMP JUMPDEST SWAP1 POP SWAP2 SWAP1 POP JUMP JUMPDEST PUSH2 0x39EF DUP2 PUSH2 0x39C5 JUMP JUMPDEST DUP3 MSTORE POP POP JUMP JUMPDEST PUSH32 0x746F6B656E2062616C616E636520646964206E6F74206D617463680000000000 PUSH0 DUP3 ADD MSTORE POP JUMP JUMPDEST PUSH0 PUSH2 0x3A29 PUSH1 0x1B DUP4 PUSH2 0x38AD JUMP JUMPDEST SWAP2 POP PUSH2 0x3A34 DUP3 PUSH2 0x39F5 JUMP JUMPDEST PUSH1 0x20 DUP3 ADD SWAP1 POP SWAP2 SWAP1 POP JUMP JUMPDEST PUSH0 PUSH1 0x60 DUP3 ADD SWAP1 POP PUSH2 0x3A52 PUSH0 DUP4 ADD DUP6 PUSH2 0x385C JUMP JUMPDEST PUSH2 0x3A5F PUSH1 0x20 DUP4 ADD DUP5 PUSH2 0x39E6 JUMP JUMPDEST DUP2 DUP2 SUB PUSH1 0x40 DUP4 ADD MSTORE PUSH2 0x3A70 DUP2 PUSH2 0x3A1D JUMP JUMPDEST SWAP1 POP SWAP4 SWAP3 POP POP POP JUMP JUMPDEST PUSH0 DUP2 SWAP1 POP SWAP2 SWAP1 POP JUMP JUMPDEST PUSH0 PUSH2 0x3A9C PUSH2 0x3A97 PUSH2 0x3A92 DUP5 PUSH2 0x3A79 JUMP JUMPDEST PUSH2 0x3874 JUMP JUMPDEST PUSH2 0x335F JUMP JUMPDEST SWAP1 POP SWAP2 SWAP1 POP JUMP JUMPDEST PUSH2 0x3AAC DUP2 PUSH2 0x3A82 JUMP JUMPDEST DUP3 MSTORE POP POP JUMP JUMPDEST PUSH0 PUSH1 0x60 DUP3 ADD SWAP1 POP PUSH2 0x3AC5 PUSH0 DUP4 ADD DUP6 PUSH2 0x385C JUMP JUMPDEST PUSH2 0x3AD2 PUSH1 0x20 DUP4 ADD DUP5 PUSH2 0x3AA3 JUMP JUMPDEST DUP2 DUP2 SUB PUSH1 0x40 DUP4 ADD MSTORE PUSH2 0x3AE3 DUP2 PUSH2 0x3A1D JUMP JUMPDEST SWAP1 POP SWAP4 SWAP3 POP POP POP JUMP JUMPDEST PUSH32 0x4E487B7100000000000000000000000000000000000000000000000000000000 PUSH0 MSTORE PUSH1 0x22 PUSH1 0x4 MSTORE PUSH1 0x24 PUSH0 REVERT JUMPDEST PUSH0 PUSH1 0x2 DUP3 DIV SWAP1 POP PUSH1 0x1 DUP3 AND DUP1 PUSH2 0x3B30 JUMPI PUSH1 0x7F DUP3 AND SWAP2 POP JUMPDEST PUSH1 0x20 DUP3 LT DUP2 SUB PUSH2 0x3B43 JUMPI PUSH2 0x3B42 PUSH2 0x3AEC JUMP JUMPDEST JUMPDEST POP SWAP2 SWAP1 POP JUMP JUMPDEST PUSH32 0x746F6B656E20616C6C6F77616E63652073686F756C64206265207A65726F2069 PUSH0 DUP3 ADD MSTORE PUSH32 0x6E697469616C6C79000000000000000000000000000000000000000000000000 PUSH1 0x20 DUP3 ADD MSTORE POP JUMP JUMPDEST PUSH0 PUSH2 0x3BA3 PUSH1 0x28 DUP4 PUSH2 0x38AD JUMP JUMPDEST SWAP2 POP PUSH2 0x3BAE DUP3 PUSH2 0x3B49 JUMP JUMPDEST PUSH1 0x40 DUP3 ADD SWAP1 POP SWAP2 SWAP1 POP JUMP JUMPDEST PUSH0 PUSH1 0x60 DUP3 ADD SWAP1 POP PUSH2 0x3BCC PUSH0 DUP4 ADD DUP6 PUSH2 0x385C JUMP JUMPDEST PUSH2 0x3BD9 PUSH1 0x20 DUP4 ADD DUP5 PUSH2 0x389E JUMP JUMPDEST DUP2 DUP2 SUB PUSH1 0x40 DUP4 ADD MSTORE PUSH2 0x3BEA DUP2 PUSH2 0x3B97 JUMP JUMPDEST SWAP1 POP SWAP4 SWAP3 POP POP POP JUMP JUMPDEST PUSH32 0x746F6B656E20616C6C6F77616E636520646964206E6F74206D61746368000000 PUSH0 DUP3 ADD MSTORE POP JUMP JUMPDEST PUSH0 PUSH2 0x3C27 PUSH1 0x1D DUP4 PUSH2 0x38AD JUMP JUMPDEST SWAP2 POP PUSH2 0x3C32 DUP3 PUSH2 0x3BF3 JUMP JUMPDEST PUSH1 0x20 DUP3 ADD SWAP1 POP SWAP2 SWAP1 POP JUMP JUMPDEST PUSH0 PUSH1 0x60 DUP3 ADD SWAP1 POP PUSH2 0x3C50 PUSH0 DUP4 ADD DUP6 PUSH2 0x385C JUMP JUMPDEST PUSH2 0x3C5D PUSH1 0x20 DUP4 ADD DUP5 PUSH2 0x3AA3 JUMP JUMPDEST DUP2 DUP2 SUB PUSH1 0x40 DUP4 ADD MSTORE PUSH2 0x3C6E DUP2 PUSH2 0x3C1B JUMP JUMPDEST SWAP1 POP SWAP4 SWAP3 POP POP POP JUMP JUMPDEST PUSH32 0x506C61796572206E6F7420726567697374657265640000000000000000000000 PUSH0 DUP3 ADD MSTORE POP JUMP JUMPDEST PUSH0 PUSH2 0x3CAB PUSH1 0x15 DUP4 PUSH2 0x327B JUMP JUMPDEST SWAP2 POP PUSH2 0x3CB6 DUP3 PUSH2 0x3C77 JUMP JUMPDEST PUSH1 0x20 DUP3 ADD SWAP1 POP SWAP2 SWAP1 POP JUMP JUMPDEST PUSH0 PUSH1 0x20 DUP3 ADD SWAP1 POP DUP2 DUP2 SUB PUSH0 DUP4 ADD MSTORE PUSH2 0x3CD8 DUP2 PUSH2 0x3C9F JUMP JUMPDEST SWAP1 POP SWAP2 SWAP1 POP JUMP JUMPDEST PUSH32 0x416D6F756E74206D7573742062652067726561746572207468616E207A65726F PUSH0 DUP3 ADD MSTORE POP JUMP JUMPDEST PUSH0 PUSH2 0x3D13 PUSH1 0x20 DUP4 PUSH2 0x327B JUMP JUMPDEST SWAP2 POP PUSH2 0x3D1E DUP3 PUSH2 0x3CDF JUMP JUMPDEST PUSH1 0x20 DUP3 ADD SWAP1 POP SWAP2 SWAP1 POP JUMP JUMPDEST PUSH0 PUSH1 0x20 DUP3 ADD SWAP1 POP DUP2 DUP2 SUB PUSH0 DUP4 ADD MSTORE PUSH2 0x3D40 DUP2 PUSH2 0x3D07 JUMP JUMPDEST SWAP1 POP SWAP2 SWAP1 POP JUMP JUMPDEST PUSH32 0x4E487B7100000000000000000000000000000000000000000000000000000000 PUSH0 MSTORE PUSH1 0x11 PUSH1 0x4 MSTORE PUSH1 0x24 PUSH0 REVERT JUMPDEST PUSH0 PUSH2 0x3D7E DUP3 PUSH2 0x335F JUMP JUMPDEST SWAP2 POP PUSH2 0x3D89 DUP4 PUSH2 0x335F JUMP JUMPDEST SWAP3 POP DUP3 DUP3 ADD SWAP1 POP DUP1 DUP3 GT ISZERO PUSH2 0x3DA1 JUMPI PUSH2 0x3DA0 PUSH2 0x3D47 JUMP JUMPDEST JUMPDEST SWAP3 SWAP2 POP POP JUMP JUMPDEST PUSH0 DUP2 SWAP1 POP SWAP2 SWAP1 POP JUMP JUMPDEST PUSH0 PUSH2 0x3DCA PUSH2 0x3DC5 PUSH2 0x3DC0 DUP5 PUSH2 0x3DA7 JUMP JUMPDEST PUSH2 0x3874 JUMP JUMPDEST PUSH2 0x335F JUMP JUMPDEST SWAP1 POP SWAP2 SWAP1 POP JUMP JUMPDEST PUSH2 0x3DDA DUP2 PUSH2 0x3DB0 JUMP JUMPDEST DUP3 MSTORE POP POP JUMP JUMPDEST PUSH32 0x6163633420746F6B656E2062616C616E636520646964206E6F74206D61746368 PUSH0 DUP3 ADD MSTORE POP JUMP JUMPDEST PUSH0 PUSH2 0x3E14 PUSH1 0x20 DUP4 PUSH2 0x38AD JUMP JUMPDEST SWAP2 POP PUSH2 0x3E1F DUP3 PUSH2 0x3DE0 JUMP JUMPDEST PUSH1 0x20 DUP3 ADD SWAP1 POP SWAP2 SWAP1 POP JUMP JUMPDEST PUSH0 PUSH1 0x60 DUP3 ADD SWAP1 POP PUSH2 0x3E3D PUSH0 DUP4 ADD DUP6 PUSH2 0x385C JUMP JUMPDEST PUSH2 0x3E4A PUSH1 0x20 DUP4 ADD DUP5 PUSH2 0x3DD1 JUMP JUMPDEST DUP2 DUP2 SUB PUSH1 0x40 DUP4 ADD MSTORE PUSH2 0x3E5B DUP2 PUSH2 0x3E08 JUMP JUMPDEST SWAP1 POP SWAP4 SWAP3 POP POP POP JUMP JUMPDEST PUSH0 DUP2 SWAP1 POP SWAP2 SWAP1 POP JUMP JUMPDEST PUSH0 PUSH2 0x3E87 PUSH2 0x3E82 PUSH2 0x3E7D DUP5 PUSH2 0x3E64 JUMP JUMPDEST PUSH2 0x3874 JUMP JUMPDEST PUSH2 0x335F JUMP JUMPDEST SWAP1 POP SWAP2 SWAP1 POP JUMP JUMPDEST PUSH2 0x3E97 DUP2 PUSH2 0x3E6D JUMP JUMPDEST DUP3 MSTORE POP POP JUMP JUMPDEST PUSH0 PUSH1 0x60 DUP3 ADD SWAP1 POP PUSH2 0x3EB0 PUSH0 DUP4 ADD DUP6 PUSH2 0x385C JUMP JUMPDEST PUSH2 0x3EBD PUSH1 0x20 DUP4 ADD DUP5 PUSH2 0x3E8E JUMP JUMPDEST DUP2 DUP2 SUB PUSH1 0x40 DUP4 ADD MSTORE PUSH2 0x3ECE DUP2 PUSH2 0x3C1B JUMP JUMPDEST SWAP1 POP SWAP4 SWAP3 POP POP POP JUMP JUMPDEST PUSH0 DUP2 SWAP1 POP SWAP2 SWAP1 POP JUMP JUMPDEST PUSH0 PUSH2 0x3EFA PUSH2 0x3EF5 PUSH2 0x3EF0 DUP5 PUSH2 0x3ED7 JUMP JUMPDEST PUSH2 0x3874 JUMP JUMPDEST PUSH2 0x335F JUMP JUMPDEST SWAP1 POP SWAP2 SWAP1 POP JUMP JUMPDEST PUSH2 0x3F0A DUP2 PUSH2 0x3EE0 JUMP JUMPDEST DUP3 MSTORE POP POP JUMP JUMPDEST PUSH0 PUSH1 0x60 DUP3 ADD SWAP1 POP PUSH2 0x3F23 PUSH0 DUP4 ADD DUP6 PUSH2 0x385C JUMP JUMPDEST PUSH2 0x3F30 PUSH1 0x20 DUP4 ADD DUP5 PUSH2 0x3F01 JUMP JUMPDEST DUP2 DUP2 SUB PUSH1 0x40 DUP4 ADD MSTORE PUSH2 0x3F41 DUP2 PUSH2 0x3A1D JUMP JUMPDEST SWAP1 POP SWAP4 SWAP3 POP POP POP JUMP JUMPDEST PUSH32 0x4D696E7420616D6F756E74206D7573742062652067726561746572207468616E PUSH0 DUP3 ADD MSTORE PUSH32 0x207A65726F000000000000000000000000000000000000000000000000000000 PUSH1 0x20 DUP3 ADD MSTORE POP JUMP JUMPDEST PUSH0 PUSH2 0x3FA4 PUSH1 0x25 DUP4 PUSH2 0x327B JUMP JUMPDEST SWAP2 POP PUSH2 0x3FAF DUP3 PUSH2 0x3F4A JUMP JUMPDEST PUSH1 0x40 DUP3 ADD SWAP1 POP SWAP2 SWAP1 POP JUMP JUMPDEST PUSH0 PUSH1 0x20 DUP3 ADD SWAP1 POP DUP2 DUP2 SUB PUSH0 DUP4 ADD MSTORE PUSH2 0x3FD1 DUP2 PUSH2 0x3F98 JUMP JUMPDEST SWAP1 POP SWAP2 SWAP1 POP JUMP JUMPDEST PUSH32 0x506C6179657220616C7265616479207265676973746572656400000000000000 PUSH0 DUP3 ADD MSTORE POP JUMP JUMPDEST PUSH0 PUSH2 0x400C PUSH1 0x19 DUP4 PUSH2 0x327B JUMP JUMPDEST SWAP2 POP PUSH2 0x4017 DUP3 PUSH2 0x3FD8 JUMP JUMPDEST PUSH1 0x20 DUP3 ADD SWAP1 POP SWAP2 SWAP1 POP JUMP JUMPDEST PUSH0 PUSH1 0x20 DUP3 ADD SWAP1 POP DUP2 DUP2 SUB PUSH0 DUP4 ADD MSTORE PUSH2 0x4039 DUP2 PUSH2 0x4000 JUMP JUMPDEST SWAP1 POP SWAP2 SWAP1 POP JUMP JUMPDEST PUSH32 0x496E73756666696369656E742062616C616E636520746F206275726E00000000 PUSH0 DUP3 ADD MSTORE POP JUMP JUMPDEST PUSH0 PUSH2 0x4074 PUSH1 0x1C DUP4 PUSH2 0x327B JUMP JUMPDEST SWAP2 POP PUSH2 0x407F DUP3 PUSH2 0x4040 JUMP JUMPDEST PUSH1 0x20 DUP3 ADD SWAP1 POP SWAP2 SWAP1 POP JUMP JUMPDEST PUSH0 PUSH1 0x20 DUP3 ADD SWAP1 POP DUP2 DUP2 SUB PUSH0 DUP4 ADD MSTORE PUSH2 0x40A1 DUP2 PUSH2 0x4068 JUMP JUMPDEST SWAP1 POP SWAP2 SWAP1 POP JUMP JUMPDEST PUSH0 PUSH2 0x40B2 DUP3 PUSH2 0x335F JUMP JUMPDEST SWAP2 POP PUSH2 0x40BD DUP4 PUSH2 0x335F JUMP JUMPDEST SWAP3 POP DUP3 DUP3 SUB SWAP1 POP DUP2 DUP2 GT ISZERO PUSH2 0x40D5 JUMPI PUSH2 0x40D4 PUSH2 0x3D47 JUMP JUMPDEST JUMPDEST SWAP3 SWAP2 POP POP JUMP JUMPDEST PUSH0 DUP2 SWAP1 POP SWAP2 SWAP1 POP JUMP JUMPDEST PUSH0 PUSH2 0x40FE PUSH2 0x40F9 PUSH2 0x40F4 DUP5 PUSH2 0x40DB JUMP JUMPDEST PUSH2 0x3874 JUMP JUMPDEST PUSH2 0x335F JUMP JUMPDEST SWAP1 POP SWAP2 SWAP1 POP JUMP JUMPDEST PUSH2 0x410E DUP2 PUSH2 0x40E4 JUMP JUMPDEST DUP3 MSTORE POP POP JUMP JUMPDEST PUSH0 PUSH1 0x20 DUP3 ADD SWAP1 POP PUSH2 0x4127 PUSH0 DUP4 ADD DUP5 PUSH2 0x4105 JUMP JUMPDEST SWAP3 SWAP2 POP POP JUMP JUMPDEST PUSH0 DUP2 MLOAD SWAP1 POP PUSH2 0x413B DUP2 PUSH2 0x3335 JUMP JUMPDEST SWAP3 SWAP2 POP POP JUMP JUMPDEST PUSH0 PUSH1 0x20 DUP3 DUP5 SUB SLT ISZERO PUSH2 0x4156 JUMPI PUSH2 0x4155 PUSH2 0x3301 JUMP JUMPDEST JUMPDEST PUSH0 PUSH2 0x4163 DUP5 DUP3 DUP6 ADD PUSH2 0x412D JUMP JUMPDEST SWAP2 POP POP SWAP3 SWAP2 POP POP JUMP JUMPDEST PUSH0 DUP2 SWAP1 POP SWAP2 SWAP1 POP JUMP JUMPDEST PUSH0 PUSH2 0x418F PUSH2 0x418A PUSH2 0x4185 DUP5 PUSH2 0x416C JUMP JUMPDEST PUSH2 0x3874 JUMP JUMPDEST PUSH2 0x335F JUMP JUMPDEST SWAP1 POP SWAP2 SWAP1 POP JUMP JUMPDEST PUSH2 0x419F DUP2 PUSH2 0x4175 JUMP JUMPDEST DUP3 MSTORE POP POP JUMP JUMPDEST PUSH0 PUSH1 0x20 DUP3 ADD SWAP1 POP PUSH2 0x41B8 PUSH0 DUP4 ADD DUP5 PUSH2 0x4196 JUMP JUMPDEST SWAP3 SWAP2 POP POP JUMP JUMPDEST PUSH0 DUP2 SWAP1 POP SWAP2 SWAP1 POP JUMP JUMPDEST PUSH0 PUSH2 0x41E1 PUSH2 0x41DC PUSH2 0x41D7 DUP5 PUSH2 0x41BE JUMP JUMPDEST PUSH2 0x3874 JUMP JUMPDEST PUSH2 0x335F JUMP JUMPDEST SWAP1 POP SWAP2 SWAP1 POP JUMP JUMPDEST PUSH2 0x41F1 DUP2 PUSH2 0x41C7 JUMP JUMPDEST DUP3 MSTORE POP POP JUMP JUMPDEST PUSH0 PUSH1 0x20 DUP3 ADD SWAP1 POP PUSH2 0x420A PUSH0 DUP4 ADD DUP5 PUSH2 0x41E8 JUMP JUMPDEST SWAP3 SWAP2 POP POP JUMP JUMPDEST PUSH0 DUP2 SWAP1 POP SWAP2 SWAP1 POP JUMP JUMPDEST PUSH0 PUSH2 0x4233 PUSH2 0x422E PUSH2 0x4229 DUP5 PUSH2 0x4210 JUMP JUMPDEST PUSH2 0x3874 JUMP JUMPDEST PUSH2 0x335F JUMP JUMPDEST SWAP1 POP SWAP2 SWAP1 POP JUMP JUMPDEST PUSH2 0x4243 DUP2 PUSH2 0x4219 JUMP JUMPDEST DUP3 MSTORE POP POP JUMP JUMPDEST PUSH0 PUSH1 0x20 DUP3 ADD SWAP1 POP PUSH2 0x425C PUSH0 DUP4 ADD DUP5 PUSH2 0x423A JUMP JUMPDEST SWAP3 SWAP2 POP POP JUMP JUMPDEST PUSH32 0x4E487B7100000000000000000000000000000000000000000000000000000000 PUSH0 MSTORE PUSH1 0x41 PUSH1 0x4 MSTORE PUSH1 0x24 PUSH0 REVERT JUMPDEST PUSH32 0x6163633120746F6B656E2062616C616E636520646964206E6F74206D61746368 PUSH0 DUP3 ADD MSTORE POP JUMP JUMPDEST PUSH0 PUSH2 0x42C3 PUSH1 0x20 DUP4 PUSH2 0x38AD JUMP JUMPDEST SWAP2 POP PUSH2 0x42CE DUP3 PUSH2 0x428F JUMP JUMPDEST PUSH1 0x20 DUP3 ADD SWAP1 POP SWAP2 SWAP1 POP JUMP JUMPDEST PUSH0 PUSH1 0x60 DUP3 ADD SWAP1 POP PUSH2 0x42EC PUSH0 DUP4 ADD DUP6 PUSH2 0x385C JUMP JUMPDEST PUSH2 0x42F9 PUSH1 0x20 DUP4 ADD DUP5 PUSH2 0x3AA3 JUMP JUMPDEST DUP2 DUP2 SUB PUSH1 0x40 DUP4 ADD MSTORE PUSH2 0x430A DUP2 PUSH2 0x42B7 JUMP JUMPDEST SWAP1 POP SWAP4 SWAP3 POP POP POP JUMP JUMPDEST PUSH0 PUSH1 0x60 DUP3 ADD SWAP1 POP PUSH2 0x4326 PUSH0 DUP4 ADD DUP6 PUSH2 0x385C JUMP JUMPDEST PUSH2 0x4333 PUSH1 0x20 DUP4 ADD DUP5 PUSH2 0x3DD1 JUMP JUMPDEST DUP2 DUP2 SUB PUSH1 0x40 DUP4 ADD MSTORE PUSH2 0x4344 DUP2 PUSH2 0x42B7 JUMP JUMPDEST SWAP1 POP SWAP4 SWAP3 POP POP POP JUMP JUMPDEST PUSH32 0x6163633220746F6B656E2062616C616E636520646964206E6F74206D61746368 PUSH0 DUP3 ADD MSTORE POP JUMP JUMPDEST PUSH0 PUSH2 0x4381 PUSH1 0x20 DUP4 PUSH2 0x38AD JUMP JUMPDEST SWAP2 POP PUSH2 0x438C DUP3 PUSH2 0x434D JUMP JUMPDEST PUSH1 0x20 DUP3 ADD SWAP1 POP SWAP2 SWAP1 POP JUMP JUMPDEST PUSH0 PUSH1 0x60 DUP3 ADD SWAP1 POP PUSH2 0x43AA PUSH0 DUP4 ADD DUP6 PUSH2 0x385C JUMP JUMPDEST PUSH2 0x43B7 PUSH1 0x20 DUP4 ADD DUP5 PUSH2 0x3E8E JUMP JUMPDEST DUP2 DUP2 SUB PUSH1 0x40 DUP4 ADD MSTORE PUSH2 0x43C8 DUP2 PUSH2 0x4375 JUMP JUMPDEST SWAP1 POP SWAP4 SWAP3 POP POP POP JUMP JUMPDEST PUSH0 PUSH1 0xC0 DUP3 ADD SWAP1 POP PUSH2 0x43E4 PUSH0 DUP4 ADD DUP10 PUSH2 0x34E3 JUMP JUMPDEST PUSH2 0x43F1 PUSH1 0x20 DUP4 ADD DUP9 PUSH2 0x3597 JUMP JUMPDEST PUSH2 0x43FE PUSH1 0x40 DUP4 ADD DUP8 PUSH2 0x3597 JUMP JUMPDEST PUSH2 0x440B PUSH1 0x60 DUP4 ADD DUP7 PUSH2 0x3403 JUMP JUMPDEST PUSH2 0x4418 PUSH1 0x80 DUP4 ADD DUP6 PUSH2 0x3403 JUMP JUMPDEST PUSH2 0x4425 PUSH1 0xA0 DUP4 ADD DUP5 PUSH2 0x3403 JUMP JUMPDEST SWAP8 SWAP7 POP POP POP POP POP POP POP JUMP JUMPDEST PUSH0 PUSH1 0x40 DUP3 ADD SWAP1 POP PUSH2 0x4443 PUSH0 DUP4 ADD DUP6 PUSH2 0x3597 JUMP JUMPDEST PUSH2 0x4450 PUSH1 0x20 DUP4 ADD DUP5 PUSH2 0x3597 JUMP JUMPDEST SWAP4 SWAP3 POP POP POP JUMP JUMPDEST PUSH0 PUSH2 0x4461 DUP3 PUSH2 0x3271 JUMP JUMPDEST PUSH2 0x446B DUP2 DUP6 PUSH2 0x38AD JUMP JUMPDEST SWAP4 POP PUSH2 0x447B DUP2 DUP6 PUSH1 0x20 DUP7 ADD PUSH2 0x328B JUMP JUMPDEST PUSH2 0x4484 DUP2 PUSH2 0x3299 JUMP JUMPDEST DUP5 ADD SWAP2 POP POP SWAP3 SWAP2 POP POP JUMP JUMPDEST PUSH32 0x466C69676874546F6B656E000000000000000000000000000000000000000000 PUSH0 DUP3 ADD MSTORE POP JUMP JUMPDEST PUSH0 PUSH2 0x44C3 PUSH1 0xB DUP4 PUSH2 0x38AD JUMP JUMPDEST SWAP2 POP PUSH2 0x44CE DUP3 PUSH2 0x448F JUMP JUMPDEST PUSH1 0x20 DUP3 ADD SWAP1 POP SWAP2 SWAP1 POP JUMP JUMPDEST PUSH32 0x746F6B656E206E616D6520646964206E6F74206D617463680000000000000000 PUSH0 DUP3 ADD MSTORE POP JUMP JUMPDEST PUSH0 PUSH2 0x450D PUSH1 0x18 DUP4 PUSH2 0x38AD JUMP JUMPDEST SWAP2 POP PUSH2 0x4518 DUP3 PUSH2 0x44D9 JUMP JUMPDEST PUSH1 0x20 DUP3 ADD SWAP1 POP SWAP2 SWAP1 POP JUMP JUMPDEST PUSH0 PUSH1 0x60 DUP3 ADD SWAP1 POP DUP2 DUP2 SUB PUSH0 DUP4 ADD MSTORE PUSH2 0x453B DUP2 DUP5 PUSH2 0x4457 JUMP JUMPDEST SWAP1 POP DUP2 DUP2 SUB PUSH1 0x20 DUP4 ADD MSTORE PUSH2 0x454E DUP2 PUSH2 0x44B7 JUMP JUMPDEST SWAP1 POP DUP2 DUP2 SUB PUSH1 0x40 DUP4 ADD MSTORE PUSH2 0x4561 DUP2 PUSH2 0x4501 JUMP JUMPDEST SWAP1 POP SWAP3 SWAP2 POP POP JUMP JUMPDEST PUSH32 0x464C545400000000000000000000000000000000000000000000000000000000 PUSH0 DUP3 ADD MSTORE POP JUMP JUMPDEST PUSH0 PUSH2 0x459D PUSH1 0x4 DUP4 PUSH2 0x38AD JUMP JUMPDEST SWAP2 POP PUSH2 0x45A8 DUP3 PUSH2 0x4569 JUMP JUMPDEST PUSH1 0x20 DUP3 ADD SWAP1 POP SWAP2 SWAP1 POP JUMP JUMPDEST PUSH32 0x746F6B656E2073796D626F6C20646964206E6F74206D61746368000000000000 PUSH0 DUP3 ADD MSTORE POP JUMP JUMPDEST PUSH0 PUSH2 0x45E7 PUSH1 0x1A DUP4 PUSH2 0x38AD JUMP JUMPDEST SWAP2 POP PUSH2 0x45F2 DUP3 PUSH2 0x45B3 JUMP JUMPDEST PUSH1 0x20 DUP3 ADD SWAP1 POP SWAP2 SWAP1 POP JUMP JUMPDEST PUSH0 PUSH1 0x60 DUP3 ADD SWAP1 POP DUP2 DUP2 SUB PUSH0 DUP4 ADD MSTORE PUSH2 0x4615 DUP2 DUP5 PUSH2 0x4457 JUMP JUMPDEST SWAP1 POP DUP2 DUP2 SUB PUSH1 0x20 DUP4 ADD MSTORE PUSH2 0x4628 DUP2 PUSH2 0x4591 JUMP JUMPDEST SWAP1 POP DUP2 DUP2 SUB PUSH1 0x40 DUP4 ADD MSTORE PUSH2 0x463B DUP2 PUSH2 0x45DB JUMP JUMPDEST SWAP1 POP SWAP3 SWAP2 POP POP JUMP JUMPDEST PUSH0 PUSH2 0x465D PUSH2 0x4658 PUSH2 0x4653 DUP5 PUSH2 0x34A6 JUMP JUMPDEST PUSH2 0x3874 JUMP JUMPDEST PUSH2 0x335F JUMP JUMPDEST SWAP1 POP SWAP2 SWAP1 POP JUMP JUMPDEST PUSH2 0x466D DUP2 PUSH2 0x4643 JUMP JUMPDEST DUP3 MSTORE POP POP JUMP JUMPDEST PUSH0 DUP2 SWAP1 POP SWAP2 SWAP1 POP JUMP JUMPDEST PUSH0 PUSH2 0x4696 PUSH2 0x4691 PUSH2 0x468C DUP5 PUSH2 0x4673 JUMP JUMPDEST PUSH2 0x3874 JUMP JUMPDEST PUSH2 0x335F JUMP JUMPDEST SWAP1 POP SWAP2 SWAP1 POP JUMP JUMPDEST PUSH2 0x46A6 DUP2 PUSH2 0x467C JUMP JUMPDEST DUP3 MSTORE POP POP JUMP JUMPDEST PUSH32 0x746F6B656E20646563696D616C7320646964206E6F74206D6174636800000000 PUSH0 DUP3 ADD MSTORE POP JUMP JUMPDEST PUSH0 PUSH2 0x46E0 PUSH1 0x1C DUP4 PUSH2 0x38AD JUMP JUMPDEST SWAP2 POP PUSH2 0x46EB DUP3 PUSH2 0x46AC JUMP JUMPDEST PUSH1 0x20 DUP3 ADD SWAP1 POP SWAP2 SWAP1 POP JUMP JUMPDEST PUSH0 PUSH1 0x60 DUP3 ADD SWAP1 POP PUSH2 0x4709 PUSH0 DUP4 ADD DUP6 PUSH2 0x4664 JUMP JUMPDEST PUSH2 0x4716 PUSH1 0x20 DUP4 ADD DUP5 PUSH2 0x469D JUMP JUMPDEST DUP2 DUP2 SUB PUSH1 0x40 DUP4 ADD MSTORE PUSH2 0x4727 DUP2 PUSH2 0x46D4 JUMP JUMPDEST SWAP1 POP SWAP4 SWAP3 POP POP POP JUMP JUMPDEST PUSH32 0x746F6B656E20737570706C792073686F756C64206265207A65726F0000000000 PUSH0 DUP3 ADD MSTORE POP JUMP JUMPDEST PUSH0 PUSH2 0x4764 PUSH1 0x1B DUP4 PUSH2 0x38AD JUMP JUMPDEST SWAP2 POP PUSH2 0x476F DUP3 PUSH2 0x4730 JUMP JUMPDEST PUSH1 0x20 DUP3 ADD SWAP1 POP SWAP2 SWAP1 POP JUMP JUMPDEST PUSH0 PUSH1 0x60 DUP3 ADD SWAP1 POP PUSH2 0x478D PUSH0 DUP4 ADD DUP6 PUSH2 0x385C JUMP JUMPDEST PUSH2 0x479A PUSH1 0x20 DUP4 ADD DUP5 PUSH2 0x389E JUMP JUMPDEST DUP2 DUP2 SUB PUSH1 0x40 DUP4 ADD MSTORE PUSH2 0x47AB DUP2 PUSH2 0x4758 JUMP JUMPDEST SWAP1 POP SWAP4 SWAP3 POP POP POP JUMP JUMPDEST PUSH32 0x746F74616C20737570706C7920646964206E6F74206D61746368000000000000 PUSH0 DUP3 ADD MSTORE POP JUMP JUMPDEST PUSH0 PUSH2 0x47E8 PUSH1 0x1A DUP4 PUSH2 0x38AD JUMP JUMPDEST SWAP2 POP PUSH2 0x47F3 DUP3 PUSH2 0x47B4 JUMP JUMPDEST PUSH1 0x20 DUP3 ADD SWAP1 POP SWAP2 SWAP1 POP JUMP JUMPDEST PUSH0 PUSH1 0x60 DUP3 ADD SWAP1 POP PUSH2 0x4811 PUSH0 DUP4 ADD DUP6 PUSH2 0x385C JUMP JUMPDEST PUSH2 0x481E PUSH1 0x20 DUP4 ADD DUP5 PUSH2 0x3F01 JUMP JUMPDEST DUP2 DUP2 SUB PUSH1 0x40 DUP4 ADD MSTORE PUSH2 0x482F DUP2 PUSH2 0x47DC JUMP JUMPDEST SWAP1 POP SWAP4 SWAP3 POP POP POP JUMP JUMPDEST PUSH0 PUSH1 0x60 DUP3 ADD SWAP1 POP PUSH2 0x484B PUSH0 DUP4 ADD DUP7 PUSH2 0x3597 JUMP JUMPDEST PUSH2 0x4858 PUSH1 0x20 DUP4 ADD DUP6 PUSH2 0x3403 JUMP JUMPDEST PUSH2 0x4865 PUSH1 0x40 DUP4 ADD DUP5 PUSH2 0x3403 JUMP JUMPDEST SWAP5 SWAP4 POP POP POP POP JUMP JUMPDEST PUSH0 PUSH1 0xA0 DUP3 ADD SWAP1 POP PUSH2 0x4880 PUSH0 DUP4 ADD DUP9 PUSH2 0x34E3 JUMP JUMPDEST PUSH2 0x488D PUSH1 0x20 DUP4 ADD DUP8 PUSH2 0x34E3 JUMP JUMPDEST PUSH2 0x489A PUSH1 0x40 DUP4 ADD DUP7 PUSH2 0x34E3 JUMP JUMPDEST PUSH2 0x48A7 PUSH1 0x60 DUP4 ADD DUP6 PUSH2 0x3403 JUMP JUMPDEST PUSH2 0x48B4 PUSH1 0x80 DUP4 ADD DUP5 PUSH2 0x3597 JUMP JUMPDEST SWAP7 SWAP6 POP POP POP POP POP POP JUMP JUMPDEST PUSH0 PUSH1 0x80 DUP3 ADD SWAP1 POP PUSH2 0x48D1 PUSH0 DUP4 ADD DUP8 PUSH2 0x34E3 JUMP JUMPDEST PUSH2 0x48DE PUSH1 0x20 DUP4 ADD DUP7 PUSH2 0x34B2 JUMP JUMPDEST PUSH2 0x48EB PUSH1 0x40 DUP4 ADD DUP6 PUSH2 0x34E3 JUMP JUMPDEST PUSH2 0x48F8 PUSH1 0x60 DUP4 ADD DUP5 PUSH2 0x34E3 JUMP JUMPDEST SWAP6 SWAP5 POP POP POP POP POP JUMP JUMPDEST PUSH32 0x4E487B7100000000000000000000000000000000000000000000000000000000 PUSH0 MSTORE PUSH1 0x21 PUSH1 0x4 MSTORE PUSH1 0x24 PUSH0 REVERT INVALID LOG2 PUSH5 0x6970667358 0x22 SLT KECCAK256 0x25 EXP SWAP6 0xDC SAR INVALID 0xA7 0xD9 0x2A DUP12 SWAP1 SIGNEXTEND 0xFC PUSH8 0x2FA04C29F52B8673 0xD2 0xB5 PUSH2 0x18EC BLOBBASEFEE 0xC2 JUMPI 0x2F TIMESTAMP PUSH5 0x736F6C6343 STOP ADDMOD BYTE STOP CALLER "
		},
		"gasEstimates": {
			"creation": {
				"codeDepositCost": "3757600",
				"executionCost": "infinite",
				"totalCost": "infinite"
			},
			"external": {
				"DOMAIN_SEPARATOR()": "infinite",
				"allowance(address,address)": "infinite",
				"approve(address,uint256)": "infinite",
				"balanceOf(address)": "2897",
				"beforeAll()": "infinite",
				"burnTokens(uint256)": "infinite",
				"decimals()": "384",
				"earnTokens(uint256)": "infinite",
				"eip712Domain()": "infinite",
				"failTestTokenApproveForZeroSpenderAddress()": "608",
				"failTestTokenMintingForZeroAddress()": "infinite",
				"failTestTokenMintingWithWrongOwner()": "infinite",
				"failTestTokenTransferMoreThanBalance()": "infinite",
				"failTestTokenTransferToZeroAddress()": "582",
				"failTestTokenTransferfromForMoreThanAllowance()": "infinite",
				"failTestTokenTransferfromForZeroToAddress()": "infinite",
				"freezeAccount(address)": "infinite",
				"frozenAccounts(address)": "2922",
				"getPlayerStats(address)": "infinite",
				"mint(address,uint256)": "infinite",
				"name()": "infinite",
				"nonces(address)": "3005",
				"owner()": "2626",
				"permit(address,address,uint256,uint256,uint8,bytes32,bytes32)": "infinite",
				"players(address)": "infinite",
				"registerPlayer(address)": "infinite",
				"renounceOwnership()": "infinite",
				"symbol()": "infinite",
				"testTokenApprove()": "infinite",
				"testTokenInitialValues()": "infinite",
				"testTokenMinting()": "infinite",
				"testTokenTransfer()": "infinite",
				"testTokenTransferToOtherAddress()": "infinite",
				"testTokenTransferfrom()": "infinite",
				"testTotalSupply()": "infinite",
				"totalSupply()": "2500",
				"transfer(address,uint256)": "infinite",
				"transferFrom(address,address,uint256)": "infinite",
				"transferOwnership(address)": "infinite",
				"unfreezeAccount(address)": "infinite"
			}
		},
		"methodIdentifiers": {
			"DOMAIN_SEPARATOR()": "3644e515",
			"allowance(address,address)": "dd62ed3e",
			"approve(address,uint256)": "095ea7b3",
			"balanceOf(address)": "70a08231",
			"beforeAll()": "7fea0d4b",
			"burnTokens(uint256)": "6d1b229d",
			"decimals()": "313ce567",
			"earnTokens(uint256)": "30407d76",
			"eip712Domain()": "84b0196e",
			"failTestTokenApproveForZeroSpenderAddress()": "0c81877c",
			"failTestTokenMintingForZeroAddress()": "3da0b6db",
			"failTestTokenMintingWithWrongOwner()": "3649a96c",
			"failTestTokenTransferMoreThanBalance()": "1f5ee31c",
			"failTestTokenTransferToZeroAddress()": "03c33d5b",
			"failTestTokenTransferfromForMoreThanAllowance()": "679d4b31",
			"failTestTokenTransferfromForZeroToAddress()": "f18299eb",
			"freezeAccount(address)": "f26c159f",
			"frozenAccounts(address)": "860838a5",
			"getPlayerStats(address)": "4fd66eae",
			"mint(address,uint256)": "40c10f19",
			"name()": "06fdde03",
			"nonces(address)": "7ecebe00",
			"owner()": "8da5cb5b",
			"permit(address,address,uint256,uint256,uint8,bytes32,bytes32)": "d505accf",
			"players(address)": "e2eb41ff",
			"registerPlayer(address)": "6b5cc6d9",
			"renounceOwnership()": "715018a6",
			"symbol()": "95d89b41",
			"testTokenApprove()": "06fe1e88",
			"testTokenInitialValues()": "dc881d1c",
			"testTokenMinting()": "7052454e",
			"testTokenTransfer()": "0647b375",
			"testTokenTransferToOtherAddress()": "bc7035f1",
			"testTokenTransferfrom()": "36284ce0",
			"testTotalSupply()": "eb7492d1",
			"totalSupply()": "18160ddd",
			"transfer(address,uint256)": "a9059cbb",
			"transferFrom(address,address,uint256)": "23b872dd",
			"transferOwnership(address)": "f2fde38b",
			"unfreezeAccount(address)": "788649ea"
		}
	},
	"abi": [
		{
			"inputs": [],
			"stateMutability": "nonpayable",
			"type": "constructor"
		},
		{
			"inputs": [],
			"name": "ECDSAInvalidSignature",
			"type": "error"
		},
		{
			"inputs": [
				{
					"internalType": "uint256",
					"name": "length",
					"type": "uint256"
				}
			],
			"name": "ECDSAInvalidSignatureLength",
			"type": "error"
		},
		{
			"inputs": [
				{
					"internalType": "bytes32",
					"name": "s",
					"type": "bytes32"
				}
			],
			"name": "ECDSAInvalidSignatureS",
			"type": "error"
		},
		{
			"inputs": [
				{
					"internalType": "address",
					"name": "spender",
					"type": "address"
				},
				{
					"internalType": "uint256",
					"name": "allowance",
					"type": "uint256"
				},
				{
					"internalType": "uint256",
					"name": "needed",
					"type": "uint256"
				}
			],
			"name": "ERC20InsufficientAllowance",
			"type": "error"
		},
		{
			"inputs": [
				{
					"internalType": "address",
					"name": "sender",
					"type": "address"
				},
				{
					"internalType": "uint256",
					"name": "balance",
					"type": "uint256"
				},
				{
					"internalType": "uint256",
					"name": "needed",
					"type": "uint256"
				}
			],
			"name": "ERC20InsufficientBalance",
			"type": "error"
		},
		{
			"inputs": [
				{
					"internalType": "address",
					"name": "approver",
					"type": "address"
				}
			],
			"name": "ERC20InvalidApprover",
			"type": "error"
		},
		{
			"inputs": [
				{
					"internalType": "address",
					"name": "receiver",
					"type": "address"
				}
			],
			"name": "ERC20InvalidReceiver",
			"type": "error"
		},
		{
			"inputs": [
				{
					"internalType": "address",
					"name": "sender",
					"type": "address"
				}
			],
			"name": "ERC20InvalidSender",
			"type": "error"
		},
		{
			"inputs": [
				{
					"internalType": "address",
					"name": "spender",
					"type": "address"
				}
			],
			"name": "ERC20InvalidSpender",
			"type": "error"
		},
		{
			"inputs": [
				{
					"internalType": "uint256",
					"name": "deadline",
					"type": "uint256"
				}
			],
			"name": "ERC2612ExpiredSignature",
			"type": "error"
		},
		{
			"inputs": [
				{
					"internalType": "address",
					"name": "signer",
					"type": "address"
				},
				{
					"internalType": "address",
					"name": "owner",
					"type": "address"
				}
			],
			"name": "ERC2612InvalidSigner",
			"type": "error"
		},
		{
			"inputs": [
				{
					"internalType": "address",
					"name": "account",
					"type": "address"
				},
				{
					"internalType": "uint256",
					"name": "currentNonce",
					"type": "uint256"
				}
			],
			"name": "InvalidAccountNonce",
			"type": "error"
		},
		{
			"inputs": [],
			"name": "InvalidShortString",
			"type": "error"
		},
		{
			"inputs": [
				{
					"internalType": "address",
					"name": "owner",
					"type": "address"
				}
			],
			"name": "OwnableInvalidOwner",
			"type": "error"
		},
		{
			"inputs": [
				{
					"internalType": "address",
					"name": "account",
					"type": "address"
				}
			],
			"name": "OwnableUnauthorizedAccount",
			"type": "error"
		},
		{
			"inputs": [
				{
					"internalType": "string",
					"name": "str",
					"type": "string"
				}
			],
			"name": "StringTooLong",
			"type": "error"
		},
		{
			"anonymous": false,
			"inputs": [
				{
					"indexed": true,
					"internalType": "address",
					"name": "owner",
					"type": "address"
				},
				{
					"indexed": true,
					"internalType": "address",
					"name": "spender",
					"type": "address"
				},
				{
					"indexed": false,
					"internalType": "uint256",
					"name": "value",
					"type": "uint256"
				}
			],
			"name": "Approval",
			"type": "event"
		},
		{
			"anonymous": false,
			"inputs": [],
			"name": "EIP712DomainChanged",
			"type": "event"
		},
		{
			"anonymous": false,
			"inputs": [
				{
					"indexed": true,
					"internalType": "address",
					"name": "player",
					"type": "address"
				},
				{
					"indexed": false,
					"internalType": "uint256",
					"name": "flightNumber",
					"type": "uint256"
				}
			],
			"name": "FlightCompleted",
			"type": "event"
		},
		{
			"anonymous": false,
			"inputs": [
				{
					"indexed": true,
					"internalType": "address",
					"name": "previousOwner",
					"type": "address"
				},
				{
					"indexed": true,
					"internalType": "address",
					"name": "newOwner",
					"type": "address"
				}
			],
			"name": "OwnershipTransferred",
			"type": "event"
		},
		{
			"anonymous": false,
			"inputs": [
				{
					"indexed": true,
					"internalType": "address",
					"name": "player",
					"type": "address"
				},
				{
					"indexed": false,
					"internalType": "uint256",
					"name": "amount",
					"type": "uint256"
				}
			],
			"name": "TokensEarned",
			"type": "event"
		},
		{
			"anonymous": false,
			"inputs": [
				{
					"indexed": true,
					"internalType": "address",
					"name": "from",
					"type": "address"
				},
				{
					"indexed": true,
					"internalType": "address",
					"name": "to",
					"type": "address"
				},
				{
					"indexed": false,
					"internalType": "uint256",
					"name": "value",
					"type": "uint256"
				}
			],
			"name": "Transfer",
			"type": "event"
		},
		{
			"inputs": [],
			"name": "DOMAIN_SEPARATOR",
			"outputs": [
				{
					"internalType": "bytes32",
					"name": "",
					"type": "bytes32"
				}
			],
			"stateMutability": "view",
			"type": "function"
		},
		{
			"inputs": [
				{
					"internalType": "address",
					"name": "owner",
					"type": "address"
				},
				{
					"internalType": "address",
					"name": "spender",
					"type": "address"
				}
			],
			"name": "allowance",
			"outputs": [
				{
					"internalType": "uint256",
					"name": "",
					"type": "uint256"
				}
			],
			"stateMutability": "view",
			"type": "function"
		},
		{
			"inputs": [
				{
					"internalType": "address",
					"name": "spender",
					"type": "address"
				},
				{
					"internalType": "uint256",
					"name": "value",
					"type": "uint256"
				}
			],
			"name": "approve",
			"outputs": [
				{
					"internalType": "bool",
					"name": "",
					"type": "bool"
				}
			],
			"stateMutability": "nonpayable",
			"type": "function"
		},
		{
			"inputs": [
				{
					"internalType": "address",
					"name": "account",
					"type": "address"
				}
			],
			"name": "balanceOf",
			"outputs": [
				{
					"internalType": "uint256",
					"name": "",
					"type": "uint256"
				}
			],
			"stateMutability": "view",
			"type": "function"
		},
		{
			"inputs": [],
			"name": "beforeAll",
			"outputs": [],
			"stateMutability": "nonpayable",
			"type": "function"
		},
		{
			"inputs": [
				{
					"internalType": "uint256",
					"name": "amount",
					"type": "uint256"
				}
			],
			"name": "burnTokens",
			"outputs": [],
			"stateMutability": "nonpayable",
			"type": "function"
		},
		{
			"inputs": [],
			"name": "decimals",
			"outputs": [
				{
					"internalType": "uint8",
					"name": "",
					"type": "uint8"
				}
			],
			"stateMutability": "view",
			"type": "function"
		},
		{
			"inputs": [
				{
					"internalType": "uint256",
					"name": "amount",
					"type": "uint256"
				}
			],
			"name": "earnTokens",
			"outputs": [],
			"stateMutability": "nonpayable",
			"type": "function"
		},
		{
			"inputs": [],
			"name": "eip712Domain",
			"outputs": [
				{
					"internalType": "bytes1",
					"name": "fields",
					"type": "bytes1"
				},
				{
					"internalType": "string",
					"name": "name",
					"type": "string"
				},
				{
					"internalType": "string",
					"name": "version",
					"type": "string"
				},
				{
					"internalType": "uint256",
					"name": "chainId",
					"type": "uint256"
				},
				{
					"internalType": "address",
					"name": "verifyingContract",
					"type": "address"
				},
				{
					"internalType": "bytes32",
					"name": "salt",
					"type": "bytes32"
				},
				{
					"internalType": "uint256[]",
					"name": "extensions",
					"type": "uint256[]"
				}
			],
			"stateMutability": "view",
			"type": "function"
		},
		{
			"inputs": [],
			"name": "failTestTokenApproveForZeroSpenderAddress",
			"outputs": [],
			"stateMutability": "nonpayable",
			"type": "function"
		},
		{
			"inputs": [],
			"name": "failTestTokenMintingForZeroAddress",
			"outputs": [],
			"stateMutability": "nonpayable",
			"type": "function"
		},
		{
			"inputs": [],
			"name": "failTestTokenMintingWithWrongOwner",
			"outputs": [],
			"stateMutability": "nonpayable",
			"type": "function"
		},
		{
			"inputs": [],
			"name": "failTestTokenTransferMoreThanBalance",
			"outputs": [],
			"stateMutability": "nonpayable",
			"type": "function"
		},
		{
			"inputs": [],
			"name": "failTestTokenTransferToZeroAddress",
			"outputs": [],
			"stateMutability": "nonpayable",
			"type": "function"
		},
		{
			"inputs": [],
			"name": "failTestTokenTransferfromForMoreThanAllowance",
			"outputs": [],
			"stateMutability": "nonpayable",
			"type": "function"
		},
		{
			"inputs": [],
			"name": "failTestTokenTransferfromForZeroToAddress",
			"outputs": [],
			"stateMutability": "nonpayable",
			"type": "function"
		},
		{
			"inputs": [
				{
					"internalType": "address",
					"name": "player",
					"type": "address"
				}
			],
			"name": "freezeAccount",
			"outputs": [],
			"stateMutability": "nonpayable",
			"type": "function"
		},
		{
			"inputs": [
				{
					"internalType": "address",
					"name": "",
					"type": "address"
				}
			],
			"name": "frozenAccounts",
			"outputs": [
				{
					"internalType": "bool",
					"name": "",
					"type": "bool"
				}
			],
			"stateMutability": "view",
			"type": "function"
		},
		{
			"inputs": [
				{
					"internalType": "address",
					"name": "player",
					"type": "address"
				}
			],
			"name": "getPlayerStats",
			"outputs": [
				{
					"internalType": "uint256",
					"name": "",
					"type": "uint256"
				},
				{
					"internalType": "uint256",
					"name": "",
					"type": "uint256"
				}
			],
			"stateMutability": "view",
			"type": "function"
		},
		{
			"inputs": [
				{
					"internalType": "address",
					"name": "to",
					"type": "address"
				},
				{
					"internalType": "uint256",
					"name": "amount",
					"type": "uint256"
				}
			],
			"name": "mint",
			"outputs": [],
			"stateMutability": "nonpayable",
			"type": "function"
		},
		{
			"inputs": [],
			"name": "name",
			"outputs": [
				{
					"internalType": "string",
					"name": "",
					"type": "string"
				}
			],
			"stateMutability": "view",
			"type": "function"
		},
		{
			"inputs": [
				{
					"internalType": "address",
					"name": "owner",
					"type": "address"
				}
			],
			"name": "nonces",
			"outputs": [
				{
					"internalType": "uint256",
					"name": "",
					"type": "uint256"
				}
			],
			"stateMutability": "view",
			"type": "function"
		},
		{
			"inputs": [],
			"name": "owner",
			"outputs": [
				{
					"internalType": "address",
					"name": "",
					"type": "address"
				}
			],
			"stateMutability": "view",
			"type": "function"
		},
		{
			"inputs": [
				{
					"internalType": "address",
					"name": "owner",
					"type": "address"
				},
				{
					"internalType": "address",
					"name": "spender",
					"type": "address"
				},
				{
					"internalType": "uint256",
					"name": "value",
					"type": "uint256"
				},
				{
					"internalType": "uint256",
					"name": "deadline",
					"type": "uint256"
				},
				{
					"internalType": "uint8",
					"name": "v",
					"type": "uint8"
				},
				{
					"internalType": "bytes32",
					"name": "r",
					"type": "bytes32"
				},
				{
					"internalType": "bytes32",
					"name": "s",
					"type": "bytes32"
				}
			],
			"name": "permit",
			"outputs": [],
			"stateMutability": "nonpayable",
			"type": "function"
		},
		{
			"inputs": [
				{
					"internalType": "address",
					"name": "",
					"type": "address"
				}
			],
			"name": "players",
			"outputs": [
				{
					"internalType": "uint256",
					"name": "balance",
					"type": "uint256"
				},
				{
					"internalType": "uint256",
					"name": "flightsCompleted",
					"type": "uint256"
				},
				{
					"internalType": "bool",
					"name": "isRegistered",
					"type": "bool"
				}
			],
			"stateMutability": "view",
			"type": "function"
		},
		{
			"inputs": [
				{
					"internalType": "address",
					"name": "player",
					"type": "address"
				}
			],
			"name": "registerPlayer",
			"outputs": [],
			"stateMutability": "nonpayable",
			"type": "function"
		},
		{
			"inputs": [],
			"name": "renounceOwnership",
			"outputs": [],
			"stateMutability": "nonpayable",
			"type": "function"
		},
		{
			"inputs": [],
			"name": "symbol",
			"outputs": [
				{
					"internalType": "string",
					"name": "",
					"type": "string"
				}
			],
			"stateMutability": "view",
			"type": "function"
		},
		{
			"inputs": [],
			"name": "testTokenApprove",
			"outputs": [],
			"stateMutability": "nonpayable",
			"type": "function"
		},
		{
			"inputs": [],
			"name": "testTokenInitialValues",
			"outputs": [],
			"stateMutability": "nonpayable",
			"type": "function"
		},
		{
			"inputs": [],
			"name": "testTokenMinting",
			"outputs": [],
			"stateMutability": "nonpayable",
			"type": "function"
		},
		{
			"inputs": [],
			"name": "testTokenTransfer",
			"outputs": [],
			"stateMutability": "nonpayable",
			"type": "function"
		},
		{
			"inputs": [],
			"name": "testTokenTransferToOtherAddress",
			"outputs": [],
			"stateMutability": "nonpayable",
			"type": "function"
		},
		{
			"inputs": [],
			"name": "testTokenTransferfrom",
			"outputs": [],
			"stateMutability": "nonpayable",
			"type": "function"
		},
		{
			"inputs": [],
			"name": "testTotalSupply",
			"outputs": [],
			"stateMutability": "nonpayable",
			"type": "function"
		},
		{
			"inputs": [],
			"name": "totalSupply",
			"outputs": [
				{
					"internalType": "uint256",
					"name": "",
					"type": "uint256"
				}
			],
			"stateMutability": "view",
			"type": "function"
		},
		{
			"inputs": [
				{
					"internalType": "address",
					"name": "to",
					"type": "address"
				},
				{
					"internalType": "uint256",
					"name": "value",
					"type": "uint256"
				}
			],
			"name": "transfer",
			"outputs": [
				{
					"internalType": "bool",
					"name": "",
					"type": "bool"
				}
			],
			"stateMutability": "nonpayable",
			"type": "function"
		},
		{
			"inputs": [
				{
					"internalType": "address",
					"name": "from",
					"type": "address"
				},
				{
					"internalType": "address",
					"name": "to",
					"type": "address"
				},
				{
					"internalType": "uint256",
					"name": "value",
					"type": "uint256"
				}
			],
			"name": "transferFrom",
			"outputs": [
				{
					"internalType": "bool",
					"name": "",
					"type": "bool"
				}
			],
			"stateMutability": "nonpayable",
			"type": "function"
		},
		{
			"inputs": [
				{
					"internalType": "address",
					"name": "newOwner",
					"type": "address"
				}
			],
			"name": "transferOwnership",
			"outputs": [],
			"stateMutability": "nonpayable",
			"type": "function"
		},
		{
			"inputs": [
				{
					"internalType": "address",
					"name": "player",
					"type": "address"
				}
			],
			"name": "unfreezeAccount",
			"outputs": [],
			"stateMutability": "nonpayable",
			"type": "function"
		}
	]
}