{
	"contracts/GroundService.sol": {
		"GroundServices": {
			"abi": [
				{
					"anonymous": false,
					"inputs": [
						{
							"indexed": true,
							"internalType": "uint256",
							"name": "serviceId",
							"type": "uint256"
						},
						{
							"indexed": false,
							"internalType": "string",
							"name": "name",
							"type": "string"
						},
						{
							"indexed": false,
							"internalType": "uint256",
							"name": "price",
							"type": "uint256"
						}
					],
					"name": "ServiceAdded",
					"type": "event"
				},
				{
					"inputs": [
						{
							"internalType": "string",
							"name": "name",
							"type": "string"
						},
						{
							"internalType": "uint256",
							"name": "price",
							"type": "uint256"
						}
					],
					"name": "addService",
					"outputs": [],
					"stateMutability": "nonpayable",
					"type": "function"
				},
				{
					"inputs": [
						{
							"internalType": "uint256",
							"name": "serviceId",
							"type": "uint256"
						}
					],
					"name": "getService",
					"outputs": [
						{
							"components": [
								{
									"internalType": "string",
									"name": "name",
									"type": "string"
								},
								{
									"internalType": "uint256",
									"name": "price",
									"type": "uint256"
								},
								{
									"internalType": "uint256",
									"name": "totalIncome",
									"type": "uint256"
								}
							],
							"internalType": "struct GroundServices.Service",
							"name": "",
							"type": "tuple"
						}
					],
					"stateMutability": "view",
					"type": "function"
				},
				{
					"inputs": [
						{
							"internalType": "uint256",
							"name": "serviceId",
							"type": "uint256"
						}
					],
					"name": "getTotalIncome",
					"outputs": [
						{
							"internalType": "uint256",
							"name": "",
							"type": "uint256"
						}
					],
					"stateMutability": "view",
					"type": "function"
				},
				{
					"inputs": [
						{
							"internalType": "uint256",
							"name": "serviceId",
							"type": "uint256"
						},
						{
							"internalType": "uint256",
							"name": "amount",
							"type": "uint256"
						}
					],
					"name": "recordIncome",
					"outputs": [],
					"stateMutability": "nonpayable",
					"type": "function"
				},
				{
					"inputs": [],
					"name": "serviceCount",
					"outputs": [
						{
							"internalType": "uint256",
							"name": "",
							"type": "uint256"
						}
					],
					"stateMutability": "view",
					"type": "function"
				},
				{
					"inputs": [
						{
							"internalType": "uint256",
							"name": "",
							"type": "uint256"
						}
					],
					"name": "services",
					"outputs": [
						{
							"internalType": "string",
							"name": "name",
							"type": "string"
						},
						{
							"internalType": "uint256",
							"name": "price",
							"type": "uint256"
						},
						{
							"internalType": "uint256",
							"name": "totalIncome",
							"type": "uint256"
						}
					],
					"stateMutability": "view",
					"type": "function"
				}
			],
			"devdoc": {
				"kind": "dev",
				"methods": {},
				"version": 1
			},
			"evm": {
				"assembly": "    /* \"contracts/GroundService.sol\":58:1609  contract GroundServices {... */\n  mstore(0x40, 0x80)\n  callvalue\n  dup1\n  iszero\n  tag_1\n  jumpi\n  0x00\n  dup1\n  revert\ntag_1:\n  pop\n  dataSize(sub_0)\n  dup1\n  dataOffset(sub_0)\n  0x00\n  codecopy\n  0x00\n  return\nstop\n\nsub_0: assembly {\n        /* \"contracts/GroundService.sol\":58:1609  contract GroundServices {... */\n      mstore(0x40, 0x80)\n      callvalue\n      dup1\n      iszero\n      tag_1\n      jumpi\n      0x00\n      dup1\n      revert\n    tag_1:\n      pop\n      jumpi(tag_2, lt(calldatasize, 0x04))\n      shr(0xe0, calldataload(0x00))\n      dup1\n      0x06237526\n      eq\n      tag_3\n      jumpi\n      dup1\n      0x143fa89b\n      eq\n      tag_4\n      jumpi\n      dup1\n      0x66c8707a\n      eq\n      tag_5\n      jumpi\n      dup1\n      0xc22c4f43\n      eq\n      tag_6\n      jumpi\n      dup1\n      0xcc1a40b7\n      eq\n      tag_7\n      jumpi\n      dup1\n      0xef0e239b\n      eq\n      tag_8\n      jumpi\n    tag_2:\n      0x00\n      dup1\n      revert\n        /* \"contracts/GroundService.sol\":393:420  uint256 public serviceCount */\n    tag_3:\n      tag_9\n      tag_10\n      jump\t// in\n    tag_9:\n      mload(0x40)\n      tag_11\n      swap2\n      swap1\n      tag_12\n      jump\t// in\n    tag_11:\n      mload(0x40)\n      dup1\n      swap2\n      sub\n      swap1\n      return\n        /* \"contracts/GroundService.sol\":1190:1381  function recordIncome(uint256 serviceId, uint256 amount) public {... */\n    tag_4:\n      tag_13\n      0x04\n      dup1\n      calldatasize\n      sub\n      dup2\n      add\n      swap1\n      tag_14\n      swap2\n      swap1\n      tag_15\n      jump\t// in\n    tag_14:\n      tag_16\n      jump\t// in\n    tag_13:\n      stop\n        /* \"contracts/GroundService.sol\":1479:1607  function getTotalIncome(uint256 serviceId) public view returns (uint256) {... */\n    tag_5:\n      tag_17\n      0x04\n      dup1\n      calldatasize\n      sub\n      dup2\n      add\n      swap1\n      tag_18\n      swap2\n      swap1\n      tag_19\n      jump\t// in\n    tag_18:\n      tag_20\n      jump\t// in\n    tag_17:\n      mload(0x40)\n      tag_21\n      swap2\n      swap1\n      tag_12\n      jump\t// in\n    tag_21:\n      mload(0x40)\n      dup1\n      swap2\n      sub\n      swap1\n      return\n        /* \"contracts/GroundService.sol\":305:348  mapping(uint256 => Service) public services */\n    tag_6:\n      tag_22\n      0x04\n      dup1\n      calldatasize\n      sub\n      dup2\n      add\n      swap1\n      tag_23\n      swap2\n      swap1\n      tag_19\n      jump\t// in\n    tag_23:\n      tag_24\n      jump\t// in\n    tag_22:\n      mload(0x40)\n      tag_25\n      swap4\n      swap3\n      swap2\n      swap1\n      tag_26\n      jump\t// in\n    tag_25:\n      mload(0x40)\n      dup1\n      swap2\n      sub\n      swap1\n      return\n        /* \"contracts/GroundService.sol\":686:891  function addService(string memory name, uint256 price) public {... */\n    tag_7:\n      tag_27\n      0x04\n      dup1\n      calldatasize\n      sub\n      dup2\n      add\n      swap1\n      tag_28\n      swap2\n      swap1\n      tag_29\n      jump\t// in\n    tag_28:\n      tag_30\n      jump\t// in\n    tag_27:\n      stop\n        /* \"contracts/GroundService.sol\":982:1101  function getService(uint256 serviceId) public view returns (Service memory) {... */\n    tag_8:\n      tag_31\n      0x04\n      dup1\n      calldatasize\n      sub\n      dup2\n      add\n      swap1\n      tag_32\n      swap2\n      swap1\n      tag_19\n      jump\t// in\n    tag_32:\n      tag_33\n      jump\t// in\n    tag_31:\n      mload(0x40)\n      tag_34\n      swap2\n      swap1\n      tag_35\n      jump\t// in\n    tag_34:\n      mload(0x40)\n      dup1\n      swap2\n      sub\n      swap1\n      return\n        /* \"contracts/GroundService.sol\":393:420  uint256 public serviceCount */\n    tag_10:\n      sload(0x01)\n      dup2\n      jump\t// out\n        /* \"contracts/GroundService.sol\":1190:1381  function recordIncome(uint256 serviceId, uint256 amount) public {... */\n    tag_16:\n        /* \"contracts/GroundService.sol\":1284:1296  serviceCount */\n      sload(0x01)\n        /* \"contracts/GroundService.sol\":1272:1281  serviceId */\n      dup3\n        /* \"contracts/GroundService.sol\":1272:1296  serviceId < serviceCount */\n      lt\n        /* \"contracts/GroundService.sol\":1264:1323  require(serviceId < serviceCount, \"Service does not exist\") */\n      tag_37\n      jumpi\n      mload(0x40)\n      0x08c379a000000000000000000000000000000000000000000000000000000000\n      dup2\n      mstore\n      0x04\n      add\n      tag_38\n      swap1\n      tag_39\n      jump\t// in\n    tag_38:\n      mload(0x40)\n      dup1\n      swap2\n      sub\n      swap1\n      revert\n    tag_37:\n        /* \"contracts/GroundService.sol\":1368:1374  amount */\n      dup1\n        /* \"contracts/GroundService.sol\":1333:1341  services */\n      0x00\n        /* \"contracts/GroundService.sol\":1333:1352  services[serviceId] */\n      dup1\n        /* \"contracts/GroundService.sol\":1342:1351  serviceId */\n      dup5\n        /* \"contracts/GroundService.sol\":1333:1352  services[serviceId] */\n      dup2\n      mstore\n      0x20\n      add\n      swap1\n      dup2\n      mstore\n      0x20\n      add\n      0x00\n      keccak256\n        /* \"contracts/GroundService.sol\":1333:1364  services[serviceId].totalIncome */\n      0x02\n      add\n      0x00\n        /* \"contracts/GroundService.sol\":1333:1374  services[serviceId].totalIncome += amount */\n      dup3\n      dup3\n      sload\n      tag_40\n      swap2\n      swap1\n      tag_41\n      jump\t// in\n    tag_40:\n      swap3\n      pop\n      pop\n      dup2\n      swap1\n      sstore\n      pop\n        /* \"contracts/GroundService.sol\":1190:1381  function recordIncome(uint256 serviceId, uint256 amount) public {... */\n      pop\n      pop\n      jump\t// out\n        /* \"contracts/GroundService.sol\":1479:1607  function getTotalIncome(uint256 serviceId) public view returns (uint256) {... */\n    tag_20:\n        /* \"contracts/GroundService.sol\":1543:1550  uint256 */\n      0x00\n        /* \"contracts/GroundService.sol\":1569:1577  services */\n      dup1\n        /* \"contracts/GroundService.sol\":1569:1588  services[serviceId] */\n      0x00\n        /* \"contracts/GroundService.sol\":1578:1587  serviceId */\n      dup4\n        /* \"contracts/GroundService.sol\":1569:1588  services[serviceId] */\n      dup2\n      mstore\n      0x20\n      add\n      swap1\n      dup2\n      mstore\n      0x20\n      add\n      0x00\n      keccak256\n        /* \"contracts/GroundService.sol\":1569:1600  services[serviceId].totalIncome */\n      0x02\n      add\n      sload\n        /* \"contracts/GroundService.sol\":1562:1600  return services[serviceId].totalIncome */\n      swap1\n      pop\n        /* \"contracts/GroundService.sol\":1479:1607  function getTotalIncome(uint256 serviceId) public view returns (uint256) {... */\n      swap2\n      swap1\n      pop\n      jump\t// out\n        /* \"contracts/GroundService.sol\":305:348  mapping(uint256 => Service) public services */\n    tag_24:\n      mstore(0x20, 0x00)\n      dup1\n      0x00\n      mstore\n      keccak256(0x00, 0x40)\n      0x00\n      swap2\n      pop\n      swap1\n      pop\n      dup1\n      0x00\n      add\n      dup1\n      sload\n      tag_43\n      swap1\n      tag_44\n      jump\t// in\n    tag_43:\n      dup1\n      0x1f\n      add\n      0x20\n      dup1\n      swap2\n      div\n      mul\n      0x20\n      add\n      mload(0x40)\n      swap1\n      dup2\n      add\n      0x40\n      mstore\n      dup1\n      swap3\n      swap2\n      swap1\n      dup2\n      dup2\n      mstore\n      0x20\n      add\n      dup3\n      dup1\n      sload\n      tag_45\n      swap1\n      tag_44\n      jump\t// in\n    tag_45:\n      dup1\n      iszero\n      tag_46\n      jumpi\n      dup1\n      0x1f\n      lt\n      tag_47\n      jumpi\n      0x0100\n      dup1\n      dup4\n      sload\n      div\n      mul\n      dup4\n      mstore\n      swap2\n      0x20\n      add\n      swap2\n      jump(tag_46)\n    tag_47:\n      dup3\n      add\n      swap2\n      swap1\n      0x00\n      mstore\n      keccak256(0x00, 0x20)\n      swap1\n    tag_48:\n      dup2\n      sload\n      dup2\n      mstore\n      swap1\n      0x01\n      add\n      swap1\n      0x20\n      add\n      dup1\n      dup4\n      gt\n      tag_48\n      jumpi\n      dup3\n      swap1\n      sub\n      0x1f\n      and\n      dup3\n      add\n      swap2\n    tag_46:\n      pop\n      pop\n      pop\n      pop\n      pop\n      swap1\n      dup1\n      0x01\n      add\n      sload\n      swap1\n      dup1\n      0x02\n      add\n      sload\n      swap1\n      pop\n      dup4\n      jump\t// out\n        /* \"contracts/GroundService.sol\":686:891  function addService(string memory name, uint256 price) public {... */\n    tag_30:\n        /* \"contracts/GroundService.sol\":783:806  Service(name, price, 0) */\n      mload(0x40)\n      dup1\n      0x60\n      add\n      0x40\n      mstore\n      dup1\n        /* \"contracts/GroundService.sol\":791:795  name */\n      dup4\n        /* \"contracts/GroundService.sol\":783:806  Service(name, price, 0) */\n      dup2\n      mstore\n      0x20\n      add\n        /* \"contracts/GroundService.sol\":797:802  price */\n      dup3\n        /* \"contracts/GroundService.sol\":783:806  Service(name, price, 0) */\n      dup2\n      mstore\n      0x20\n      add\n        /* \"contracts/GroundService.sol\":804:805  0 */\n      0x00\n        /* \"contracts/GroundService.sol\":783:806  Service(name, price, 0) */\n      dup2\n      mstore\n      pop\n        /* \"contracts/GroundService.sol\":758:766  services */\n      0x00\n        /* \"contracts/GroundService.sol\":758:780  services[serviceCount] */\n      dup1\n        /* \"contracts/GroundService.sol\":767:779  serviceCount */\n      sload(0x01)\n        /* \"contracts/GroundService.sol\":758:780  services[serviceCount] */\n      dup2\n      mstore\n      0x20\n      add\n      swap1\n      dup2\n      mstore\n      0x20\n      add\n      0x00\n      keccak256\n        /* \"contracts/GroundService.sol\":758:806  services[serviceCount] = Service(name, price, 0) */\n      0x00\n      dup3\n      add\n      mload\n      dup2\n      0x00\n      add\n      swap1\n      dup2\n      tag_50\n      swap2\n      swap1\n      tag_51\n      jump\t// in\n    tag_50:\n      pop\n      0x20\n      dup3\n      add\n      mload\n      dup2\n      0x01\n      add\n      sstore\n      0x40\n      dup3\n      add\n      mload\n      dup2\n      0x02\n      add\n      sstore\n      swap1\n      pop\n      pop\n        /* \"contracts/GroundService.sol\":834:846  serviceCount */\n      sload(0x01)\n        /* \"contracts/GroundService.sol\":821:860  ServiceAdded(serviceCount, name, price) */\n      0x0a9a5176ea239c6f4dd87dac9eface6bb5039a6941b2e4947286e1bd8c4832ab\n        /* \"contracts/GroundService.sol\":848:852  name */\n      dup4\n        /* \"contracts/GroundService.sol\":854:859  price */\n      dup4\n        /* \"contracts/GroundService.sol\":821:860  ServiceAdded(serviceCount, name, price) */\n      mload(0x40)\n      tag_52\n      swap3\n      swap2\n      swap1\n      tag_53\n      jump\t// in\n    tag_52:\n      mload(0x40)\n      dup1\n      swap2\n      sub\n      swap1\n      log2\n        /* \"contracts/GroundService.sol\":870:882  serviceCount */\n      0x01\n      0x00\n        /* \"contracts/GroundService.sol\":870:884  serviceCount++ */\n      dup2\n      sload\n      dup1\n      swap3\n      swap2\n      swap1\n      tag_54\n      swap1\n      tag_55\n      jump\t// in\n    tag_54:\n      swap2\n      swap1\n      pop\n      sstore\n      pop\n        /* \"contracts/GroundService.sol\":686:891  function addService(string memory name, uint256 price) public {... */\n      pop\n      pop\n      jump\t// out\n        /* \"contracts/GroundService.sol\":982:1101  function getService(uint256 serviceId) public view returns (Service memory) {... */\n    tag_33:\n        /* \"contracts/GroundService.sol\":1042:1056  Service memory */\n      tag_56\n      tag_57\n      jump\t// in\n    tag_56:\n        /* \"contracts/GroundService.sol\":1075:1083  services */\n      0x00\n        /* \"contracts/GroundService.sol\":1075:1094  services[serviceId] */\n      dup1\n        /* \"contracts/GroundService.sol\":1084:1093  serviceId */\n      dup4\n        /* \"contracts/GroundService.sol\":1075:1094  services[serviceId] */\n      dup2\n      mstore\n      0x20\n      add\n      swap1\n      dup2\n      mstore\n      0x20\n      add\n      0x00\n      keccak256\n        /* \"contracts/GroundService.sol\":1068:1094  return services[serviceId] */\n      mload(0x40)\n      dup1\n      0x60\n      add\n      0x40\n      mstore\n      swap1\n      dup2\n      0x00\n      dup3\n      add\n      dup1\n      sload\n      tag_59\n      swap1\n      tag_44\n      jump\t// in\n    tag_59:\n      dup1\n      0x1f\n      add\n      0x20\n      dup1\n      swap2\n      div\n      mul\n      0x20\n      add\n      mload(0x40)\n      swap1\n      dup2\n      add\n      0x40\n      mstore\n      dup1\n      swap3\n      swap2\n      swap1\n      dup2\n      dup2\n      mstore\n      0x20\n      add\n      dup3\n      dup1\n      sload\n      tag_60\n      swap1\n      tag_44\n      jump\t// in\n    tag_60:\n      dup1\n      iszero\n      tag_61\n      jumpi\n      dup1\n      0x1f\n      lt\n      tag_62\n      jumpi\n      0x0100\n      dup1\n      dup4\n      sload\n      div\n      mul\n      dup4\n      mstore\n      swap2\n      0x20\n      add\n      swap2\n      jump(tag_61)\n    tag_62:\n      dup3\n      add\n      swap2\n      swap1\n      0x00\n      mstore\n      keccak256(0x00, 0x20)\n      swap1\n    tag_63:\n      dup2\n      sload\n      dup2\n      mstore\n      swap1\n      0x01\n      add\n      swap1\n      0x20\n      add\n      dup1\n      dup4\n      gt\n      tag_63\n      jumpi\n      dup3\n      swap1\n      sub\n      0x1f\n      and\n      dup3\n      add\n      swap2\n    tag_61:\n      pop\n      pop\n      pop\n      pop\n      pop\n      dup2\n      mstore\n      0x20\n      add\n      0x01\n      dup3\n      add\n      sload\n      dup2\n      mstore\n      0x20\n      add\n      0x02\n      dup3\n      add\n      sload\n      dup2\n      mstore\n      pop\n      pop\n      swap1\n      pop\n        /* \"contracts/GroundService.sol\":982:1101  function getService(uint256 serviceId) public view returns (Service memory) {... */\n      swap2\n      swap1\n      pop\n      jump\t// out\n    tag_57:\n      mload(0x40)\n      dup1\n      0x60\n      add\n      0x40\n      mstore\n      dup1\n      0x60\n      dup2\n      mstore\n      0x20\n      add\n      0x00\n      dup2\n      mstore\n      0x20\n      add\n      0x00\n      dup2\n      mstore\n      pop\n      swap1\n      jump\t// out\n        /* \"#utility.yul\":7:84   */\n    tag_64:\n        /* \"#utility.yul\":44:51   */\n      0x00\n        /* \"#utility.yul\":73:78   */\n      dup2\n        /* \"#utility.yul\":62:78   */\n      swap1\n      pop\n        /* \"#utility.yul\":7:84   */\n      swap2\n      swap1\n      pop\n      jump\t// out\n        /* \"#utility.yul\":90:208   */\n    tag_65:\n        /* \"#utility.yul\":177:201   */\n      tag_111\n        /* \"#utility.yul\":195:200   */\n      dup2\n        /* \"#utility.yul\":177:201   */\n      tag_64\n      jump\t// in\n    tag_111:\n        /* \"#utility.yul\":172:175   */\n      dup3\n        /* \"#utility.yul\":165:202   */\n      mstore\n        /* \"#utility.yul\":90:208   */\n      pop\n      pop\n      jump\t// out\n        /* \"#utility.yul\":214:436   */\n    tag_12:\n        /* \"#utility.yul\":307:311   */\n      0x00\n        /* \"#utility.yul\":345:347   */\n      0x20\n        /* \"#utility.yul\":334:343   */\n      dup3\n        /* \"#utility.yul\":330:348   */\n      add\n        /* \"#utility.yul\":322:348   */\n      swap1\n      pop\n        /* \"#utility.yul\":358:429   */\n      tag_113\n        /* \"#utility.yul\":426:427   */\n      0x00\n        /* \"#utility.yul\":415:424   */\n      dup4\n        /* \"#utility.yul\":411:428   */\n      add\n        /* \"#utility.yul\":402:408   */\n      dup5\n        /* \"#utility.yul\":358:429   */\n      tag_65\n      jump\t// in\n    tag_113:\n        /* \"#utility.yul\":214:436   */\n      swap3\n      swap2\n      pop\n      pop\n      jump\t// out\n        /* \"#utility.yul\":442:517   */\n    tag_66:\n        /* \"#utility.yul\":475:481   */\n      0x00\n        /* \"#utility.yul\":508:510   */\n      0x40\n        /* \"#utility.yul\":502:511   */\n      mload\n        /* \"#utility.yul\":492:511   */\n      swap1\n      pop\n        /* \"#utility.yul\":442:517   */\n      swap1\n      jump\t// out\n        /* \"#utility.yul\":523:640   */\n    tag_67:\n        /* \"#utility.yul\":632:633   */\n      0x00\n        /* \"#utility.yul\":629:630   */\n      dup1\n        /* \"#utility.yul\":622:634   */\n      revert\n        /* \"#utility.yul\":646:763   */\n    tag_68:\n        /* \"#utility.yul\":755:756   */\n      0x00\n        /* \"#utility.yul\":752:753   */\n      dup1\n        /* \"#utility.yul\":745:757   */\n      revert\n        /* \"#utility.yul\":769:891   */\n    tag_69:\n        /* \"#utility.yul\":842:866   */\n      tag_118\n        /* \"#utility.yul\":860:865   */\n      dup2\n        /* \"#utility.yul\":842:866   */\n      tag_64\n      jump\t// in\n    tag_118:\n        /* \"#utility.yul\":835:840   */\n      dup2\n        /* \"#utility.yul\":832:867   */\n      eq\n        /* \"#utility.yul\":822:885   */\n      tag_119\n      jumpi\n        /* \"#utility.yul\":881:882   */\n      0x00\n        /* \"#utility.yul\":878:879   */\n      dup1\n        /* \"#utility.yul\":871:883   */\n      revert\n        /* \"#utility.yul\":822:885   */\n    tag_119:\n        /* \"#utility.yul\":769:891   */\n      pop\n      jump\t// out\n        /* \"#utility.yul\":897:1036   */\n    tag_70:\n        /* \"#utility.yul\":943:948   */\n      0x00\n        /* \"#utility.yul\":981:987   */\n      dup2\n        /* \"#utility.yul\":968:988   */\n      calldataload\n        /* \"#utility.yul\":959:988   */\n      swap1\n      pop\n        /* \"#utility.yul\":997:1030   */\n      tag_121\n        /* \"#utility.yul\":1024:1029   */\n      dup2\n        /* \"#utility.yul\":997:1030   */\n      tag_69\n      jump\t// in\n    tag_121:\n        /* \"#utility.yul\":897:1036   */\n      swap3\n      swap2\n      pop\n      pop\n      jump\t// out\n        /* \"#utility.yul\":1042:1516   */\n    tag_15:\n        /* \"#utility.yul\":1110:1116   */\n      0x00\n        /* \"#utility.yul\":1118:1124   */\n      dup1\n        /* \"#utility.yul\":1167:1169   */\n      0x40\n        /* \"#utility.yul\":1155:1164   */\n      dup4\n        /* \"#utility.yul\":1146:1153   */\n      dup6\n        /* \"#utility.yul\":1142:1165   */\n      sub\n        /* \"#utility.yul\":1138:1170   */\n      slt\n        /* \"#utility.yul\":1135:1254   */\n      iszero\n      tag_123\n      jumpi\n        /* \"#utility.yul\":1173:1252   */\n      tag_124\n      tag_67\n      jump\t// in\n    tag_124:\n        /* \"#utility.yul\":1135:1254   */\n    tag_123:\n        /* \"#utility.yul\":1293:1294   */\n      0x00\n        /* \"#utility.yul\":1318:1371   */\n      tag_125\n        /* \"#utility.yul\":1363:1370   */\n      dup6\n        /* \"#utility.yul\":1354:1360   */\n      dup3\n        /* \"#utility.yul\":1343:1352   */\n      dup7\n        /* \"#utility.yul\":1339:1361   */\n      add\n        /* \"#utility.yul\":1318:1371   */\n      tag_70\n      jump\t// in\n    tag_125:\n        /* \"#utility.yul\":1308:1371   */\n      swap3\n      pop\n        /* \"#utility.yul\":1264:1381   */\n      pop\n        /* \"#utility.yul\":1420:1422   */\n      0x20\n        /* \"#utility.yul\":1446:1499   */\n      tag_126\n        /* \"#utility.yul\":1491:1498   */\n      dup6\n        /* \"#utility.yul\":1482:1488   */\n      dup3\n        /* \"#utility.yul\":1471:1480   */\n      dup7\n        /* \"#utility.yul\":1467:1489   */\n      add\n        /* \"#utility.yul\":1446:1499   */\n      tag_70\n      jump\t// in\n    tag_126:\n        /* \"#utility.yul\":1436:1499   */\n      swap2\n      pop\n        /* \"#utility.yul\":1391:1509   */\n      pop\n        /* \"#utility.yul\":1042:1516   */\n      swap3\n      pop\n      swap3\n      swap1\n      pop\n      jump\t// out\n        /* \"#utility.yul\":1522:1851   */\n    tag_19:\n        /* \"#utility.yul\":1581:1587   */\n      0x00\n        /* \"#utility.yul\":1630:1632   */\n      0x20\n        /* \"#utility.yul\":1618:1627   */\n      dup3\n        /* \"#utility.yul\":1609:1616   */\n      dup5\n        /* \"#utility.yul\":1605:1628   */\n      sub\n        /* \"#utility.yul\":1601:1633   */\n      slt\n        /* \"#utility.yul\":1598:1717   */\n      iszero\n      tag_128\n      jumpi\n        /* \"#utility.yul\":1636:1715   */\n      tag_129\n      tag_67\n      jump\t// in\n    tag_129:\n        /* \"#utility.yul\":1598:1717   */\n    tag_128:\n        /* \"#utility.yul\":1756:1757   */\n      0x00\n        /* \"#utility.yul\":1781:1834   */\n      tag_130\n        /* \"#utility.yul\":1826:1833   */\n      dup5\n        /* \"#utility.yul\":1817:1823   */\n      dup3\n        /* \"#utility.yul\":1806:1815   */\n      dup6\n        /* \"#utility.yul\":1802:1824   */\n      add\n        /* \"#utility.yul\":1781:1834   */\n      tag_70\n      jump\t// in\n    tag_130:\n        /* \"#utility.yul\":1771:1834   */\n      swap2\n      pop\n        /* \"#utility.yul\":1727:1844   */\n      pop\n        /* \"#utility.yul\":1522:1851   */\n      swap3\n      swap2\n      pop\n      pop\n      jump\t// out\n        /* \"#utility.yul\":1857:1956   */\n    tag_71:\n        /* \"#utility.yul\":1909:1915   */\n      0x00\n        /* \"#utility.yul\":1943:1948   */\n      dup2\n        /* \"#utility.yul\":1937:1949   */\n      mload\n        /* \"#utility.yul\":1927:1949   */\n      swap1\n      pop\n        /* \"#utility.yul\":1857:1956   */\n      swap2\n      swap1\n      pop\n      jump\t// out\n        /* \"#utility.yul\":1962:2131   */\n    tag_72:\n        /* \"#utility.yul\":2046:2057   */\n      0x00\n        /* \"#utility.yul\":2080:2086   */\n      dup3\n        /* \"#utility.yul\":2075:2078   */\n      dup3\n        /* \"#utility.yul\":2068:2087   */\n      mstore\n        /* \"#utility.yul\":2120:2124   */\n      0x20\n        /* \"#utility.yul\":2115:2118   */\n      dup3\n        /* \"#utility.yul\":2111:2125   */\n      add\n        /* \"#utility.yul\":2096:2125   */\n      swap1\n      pop\n        /* \"#utility.yul\":1962:2131   */\n      swap3\n      swap2\n      pop\n      pop\n      jump\t// out\n        /* \"#utility.yul\":2137:2276   */\n    tag_73:\n        /* \"#utility.yul\":2226:2232   */\n      dup3\n        /* \"#utility.yul\":2221:2224   */\n      dup2\n        /* \"#utility.yul\":2216:2219   */\n      dup4\n        /* \"#utility.yul\":2210:2233   */\n      mcopy\n        /* \"#utility.yul\":2267:2268   */\n      0x00\n        /* \"#utility.yul\":2258:2264   */\n      dup4\n        /* \"#utility.yul\":2253:2256   */\n      dup4\n        /* \"#utility.yul\":2249:2265   */\n      add\n        /* \"#utility.yul\":2242:2269   */\n      mstore\n        /* \"#utility.yul\":2137:2276   */\n      pop\n      pop\n      pop\n      jump\t// out\n        /* \"#utility.yul\":2282:2384   */\n    tag_74:\n        /* \"#utility.yul\":2323:2329   */\n      0x00\n        /* \"#utility.yul\":2374:2376   */\n      0x1f\n        /* \"#utility.yul\":2370:2377   */\n      not\n        /* \"#utility.yul\":2365:2367   */\n      0x1f\n        /* \"#utility.yul\":2358:2363   */\n      dup4\n        /* \"#utility.yul\":2354:2368   */\n      add\n        /* \"#utility.yul\":2350:2378   */\n      and\n        /* \"#utility.yul\":2340:2378   */\n      swap1\n      pop\n        /* \"#utility.yul\":2282:2384   */\n      swap2\n      swap1\n      pop\n      jump\t// out\n        /* \"#utility.yul\":2390:2767   */\n    tag_75:\n        /* \"#utility.yul\":2478:2481   */\n      0x00\n        /* \"#utility.yul\":2506:2545   */\n      tag_136\n        /* \"#utility.yul\":2539:2544   */\n      dup3\n        /* \"#utility.yul\":2506:2545   */\n      tag_71\n      jump\t// in\n    tag_136:\n        /* \"#utility.yul\":2561:2632   */\n      tag_137\n        /* \"#utility.yul\":2625:2631   */\n      dup2\n        /* \"#utility.yul\":2620:2623   */\n      dup6\n        /* \"#utility.yul\":2561:2632   */\n      tag_72\n      jump\t// in\n    tag_137:\n        /* \"#utility.yul\":2554:2632   */\n      swap4\n      pop\n        /* \"#utility.yul\":2641:2706   */\n      tag_138\n        /* \"#utility.yul\":2699:2705   */\n      dup2\n        /* \"#utility.yul\":2694:2697   */\n      dup6\n        /* \"#utility.yul\":2687:2691   */\n      0x20\n        /* \"#utility.yul\":2680:2685   */\n      dup7\n        /* \"#utility.yul\":2676:2692   */\n      add\n        /* \"#utility.yul\":2641:2706   */\n      tag_73\n      jump\t// in\n    tag_138:\n        /* \"#utility.yul\":2731:2760   */\n      tag_139\n        /* \"#utility.yul\":2753:2759   */\n      dup2\n        /* \"#utility.yul\":2731:2760   */\n      tag_74\n      jump\t// in\n    tag_139:\n        /* \"#utility.yul\":2726:2729   */\n      dup5\n        /* \"#utility.yul\":2722:2761   */\n      add\n        /* \"#utility.yul\":2715:2761   */\n      swap2\n      pop\n        /* \"#utility.yul\":2482:2767   */\n      pop\n        /* \"#utility.yul\":2390:2767   */\n      swap3\n      swap2\n      pop\n      pop\n      jump\t// out\n        /* \"#utility.yul\":2773:3306   */\n    tag_26:\n        /* \"#utility.yul\":2942:2946   */\n      0x00\n        /* \"#utility.yul\":2980:2982   */\n      0x60\n        /* \"#utility.yul\":2969:2978   */\n      dup3\n        /* \"#utility.yul\":2965:2983   */\n      add\n        /* \"#utility.yul\":2957:2983   */\n      swap1\n      pop\n        /* \"#utility.yul\":3029:3038   */\n      dup2\n        /* \"#utility.yul\":3023:3027   */\n      dup2\n        /* \"#utility.yul\":3019:3039   */\n      sub\n        /* \"#utility.yul\":3015:3016   */\n      0x00\n        /* \"#utility.yul\":3004:3013   */\n      dup4\n        /* \"#utility.yul\":3000:3017   */\n      add\n        /* \"#utility.yul\":2993:3040   */\n      mstore\n        /* \"#utility.yul\":3057:3135   */\n      tag_141\n        /* \"#utility.yul\":3130:3134   */\n      dup2\n        /* \"#utility.yul\":3121:3127   */\n      dup7\n        /* \"#utility.yul\":3057:3135   */\n      tag_75\n      jump\t// in\n    tag_141:\n        /* \"#utility.yul\":3049:3135   */\n      swap1\n      pop\n        /* \"#utility.yul\":3145:3217   */\n      tag_142\n        /* \"#utility.yul\":3213:3215   */\n      0x20\n        /* \"#utility.yul\":3202:3211   */\n      dup4\n        /* \"#utility.yul\":3198:3216   */\n      add\n        /* \"#utility.yul\":3189:3195   */\n      dup6\n        /* \"#utility.yul\":3145:3217   */\n      tag_65\n      jump\t// in\n    tag_142:\n        /* \"#utility.yul\":3227:3299   */\n      tag_143\n        /* \"#utility.yul\":3295:3297   */\n      0x40\n        /* \"#utility.yul\":3284:3293   */\n      dup4\n        /* \"#utility.yul\":3280:3298   */\n      add\n        /* \"#utility.yul\":3271:3277   */\n      dup5\n        /* \"#utility.yul\":3227:3299   */\n      tag_65\n      jump\t// in\n    tag_143:\n        /* \"#utility.yul\":2773:3306   */\n      swap5\n      swap4\n      pop\n      pop\n      pop\n      pop\n      jump\t// out\n        /* \"#utility.yul\":3312:3429   */\n    tag_76:\n        /* \"#utility.yul\":3421:3422   */\n      0x00\n        /* \"#utility.yul\":3418:3419   */\n      dup1\n        /* \"#utility.yul\":3411:3423   */\n      revert\n        /* \"#utility.yul\":3435:3552   */\n    tag_77:\n        /* \"#utility.yul\":3544:3545   */\n      0x00\n        /* \"#utility.yul\":3541:3542   */\n      dup1\n        /* \"#utility.yul\":3534:3546   */\n      revert\n        /* \"#utility.yul\":3558:3738   */\n    tag_78:\n        /* \"#utility.yul\":3606:3683   */\n      0x4e487b7100000000000000000000000000000000000000000000000000000000\n        /* \"#utility.yul\":3603:3604   */\n      0x00\n        /* \"#utility.yul\":3596:3684   */\n      mstore\n        /* \"#utility.yul\":3703:3707   */\n      0x41\n        /* \"#utility.yul\":3700:3701   */\n      0x04\n        /* \"#utility.yul\":3693:3708   */\n      mstore\n        /* \"#utility.yul\":3727:3731   */\n      0x24\n        /* \"#utility.yul\":3724:3725   */\n      0x00\n        /* \"#utility.yul\":3717:3732   */\n      revert\n        /* \"#utility.yul\":3744:4025   */\n    tag_79:\n        /* \"#utility.yul\":3827:3854   */\n      tag_148\n        /* \"#utility.yul\":3849:3853   */\n      dup3\n        /* \"#utility.yul\":3827:3854   */\n      tag_74\n      jump\t// in\n    tag_148:\n        /* \"#utility.yul\":3819:3825   */\n      dup2\n        /* \"#utility.yul\":3815:3855   */\n      add\n        /* \"#utility.yul\":3957:3963   */\n      dup2\n        /* \"#utility.yul\":3945:3955   */\n      dup2\n        /* \"#utility.yul\":3942:3964   */\n      lt\n        /* \"#utility.yul\":3921:3939   */\n      0xffffffffffffffff\n        /* \"#utility.yul\":3909:3919   */\n      dup3\n        /* \"#utility.yul\":3906:3940   */\n      gt\n        /* \"#utility.yul\":3903:3965   */\n      or\n        /* \"#utility.yul\":3900:3988   */\n      iszero\n      tag_149\n      jumpi\n        /* \"#utility.yul\":3968:3986   */\n      tag_150\n      tag_78\n      jump\t// in\n    tag_150:\n        /* \"#utility.yul\":3900:3988   */\n    tag_149:\n        /* \"#utility.yul\":4008:4018   */\n      dup1\n        /* \"#utility.yul\":4004:4006   */\n      0x40\n        /* \"#utility.yul\":3997:4019   */\n      mstore\n        /* \"#utility.yul\":3787:4025   */\n      pop\n        /* \"#utility.yul\":3744:4025   */\n      pop\n      pop\n      jump\t// out\n        /* \"#utility.yul\":4031:4160   */\n    tag_80:\n        /* \"#utility.yul\":4065:4071   */\n      0x00\n        /* \"#utility.yul\":4092:4112   */\n      tag_152\n      tag_66\n      jump\t// in\n    tag_152:\n        /* \"#utility.yul\":4082:4112   */\n      swap1\n      pop\n        /* \"#utility.yul\":4121:4154   */\n      tag_153\n        /* \"#utility.yul\":4149:4153   */\n      dup3\n        /* \"#utility.yul\":4141:4147   */\n      dup3\n        /* \"#utility.yul\":4121:4154   */\n      tag_79\n      jump\t// in\n    tag_153:\n        /* \"#utility.yul\":4031:4160   */\n      swap2\n      swap1\n      pop\n      jump\t// out\n        /* \"#utility.yul\":4166:4474   */\n    tag_81:\n        /* \"#utility.yul\":4228:4232   */\n      0x00\n        /* \"#utility.yul\":4318:4336   */\n      0xffffffffffffffff\n        /* \"#utility.yul\":4310:4316   */\n      dup3\n        /* \"#utility.yul\":4307:4337   */\n      gt\n        /* \"#utility.yul\":4304:4360   */\n      iszero\n      tag_155\n      jumpi\n        /* \"#utility.yul\":4340:4358   */\n      tag_156\n      tag_78\n      jump\t// in\n    tag_156:\n        /* \"#utility.yul\":4304:4360   */\n    tag_155:\n        /* \"#utility.yul\":4378:4407   */\n      tag_157\n        /* \"#utility.yul\":4400:4406   */\n      dup3\n        /* \"#utility.yul\":4378:4407   */\n      tag_74\n      jump\t// in\n    tag_157:\n        /* \"#utility.yul\":4370:4407   */\n      swap1\n      pop\n        /* \"#utility.yul\":4462:4466   */\n      0x20\n        /* \"#utility.yul\":4456:4460   */\n      dup2\n        /* \"#utility.yul\":4452:4467   */\n      add\n        /* \"#utility.yul\":4444:4467   */\n      swap1\n      pop\n        /* \"#utility.yul\":4166:4474   */\n      swap2\n      swap1\n      pop\n      jump\t// out\n        /* \"#utility.yul\":4480:4628   */\n    tag_82:\n        /* \"#utility.yul\":4578:4584   */\n      dup3\n        /* \"#utility.yul\":4573:4576   */\n      dup2\n        /* \"#utility.yul\":4568:4571   */\n      dup4\n        /* \"#utility.yul\":4555:4585   */\n      calldatacopy\n        /* \"#utility.yul\":4619:4620   */\n      0x00\n        /* \"#utility.yul\":4610:4616   */\n      dup4\n        /* \"#utility.yul\":4605:4608   */\n      dup4\n        /* \"#utility.yul\":4601:4617   */\n      add\n        /* \"#utility.yul\":4594:4621   */\n      mstore\n        /* \"#utility.yul\":4480:4628   */\n      pop\n      pop\n      pop\n      jump\t// out\n        /* \"#utility.yul\":4634:5059   */\n    tag_83:\n        /* \"#utility.yul\":4712:4717   */\n      0x00\n        /* \"#utility.yul\":4737:4803   */\n      tag_160\n        /* \"#utility.yul\":4753:4802   */\n      tag_161\n        /* \"#utility.yul\":4795:4801   */\n      dup5\n        /* \"#utility.yul\":4753:4802   */\n      tag_81\n      jump\t// in\n    tag_161:\n        /* \"#utility.yul\":4737:4803   */\n      tag_80\n      jump\t// in\n    tag_160:\n        /* \"#utility.yul\":4728:4803   */\n      swap1\n      pop\n        /* \"#utility.yul\":4826:4832   */\n      dup3\n        /* \"#utility.yul\":4819:4824   */\n      dup2\n        /* \"#utility.yul\":4812:4833   */\n      mstore\n        /* \"#utility.yul\":4864:4868   */\n      0x20\n        /* \"#utility.yul\":4857:4862   */\n      dup2\n        /* \"#utility.yul\":4853:4869   */\n      add\n        /* \"#utility.yul\":4902:4905   */\n      dup5\n        /* \"#utility.yul\":4893:4899   */\n      dup5\n        /* \"#utility.yul\":4888:4891   */\n      dup5\n        /* \"#utility.yul\":4884:4900   */\n      add\n        /* \"#utility.yul\":4881:4906   */\n      gt\n        /* \"#utility.yul\":4878:4990   */\n      iszero\n      tag_162\n      jumpi\n        /* \"#utility.yul\":4909:4988   */\n      tag_163\n      tag_77\n      jump\t// in\n    tag_163:\n        /* \"#utility.yul\":4878:4990   */\n    tag_162:\n        /* \"#utility.yul\":4999:5053   */\n      tag_164\n        /* \"#utility.yul\":5046:5052   */\n      dup5\n        /* \"#utility.yul\":5041:5044   */\n      dup3\n        /* \"#utility.yul\":5036:5039   */\n      dup6\n        /* \"#utility.yul\":4999:5053   */\n      tag_82\n      jump\t// in\n    tag_164:\n        /* \"#utility.yul\":4718:5059   */\n      pop\n        /* \"#utility.yul\":4634:5059   */\n      swap4\n      swap3\n      pop\n      pop\n      pop\n      jump\t// out\n        /* \"#utility.yul\":5079:5419   */\n    tag_84:\n        /* \"#utility.yul\":5135:5140   */\n      0x00\n        /* \"#utility.yul\":5184:5187   */\n      dup3\n        /* \"#utility.yul\":5177:5181   */\n      0x1f\n        /* \"#utility.yul\":5169:5175   */\n      dup4\n        /* \"#utility.yul\":5165:5182   */\n      add\n        /* \"#utility.yul\":5161:5188   */\n      slt\n        /* \"#utility.yul\":5151:5273   */\n      tag_166\n      jumpi\n        /* \"#utility.yul\":5192:5271   */\n      tag_167\n      tag_76\n      jump\t// in\n    tag_167:\n        /* \"#utility.yul\":5151:5273   */\n    tag_166:\n        /* \"#utility.yul\":5309:5315   */\n      dup2\n        /* \"#utility.yul\":5296:5316   */\n      calldataload\n        /* \"#utility.yul\":5334:5413   */\n      tag_168\n        /* \"#utility.yul\":5409:5412   */\n      dup5\n        /* \"#utility.yul\":5401:5407   */\n      dup3\n        /* \"#utility.yul\":5394:5398   */\n      0x20\n        /* \"#utility.yul\":5386:5392   */\n      dup7\n        /* \"#utility.yul\":5382:5399   */\n      add\n        /* \"#utility.yul\":5334:5413   */\n      tag_83\n      jump\t// in\n    tag_168:\n        /* \"#utility.yul\":5325:5413   */\n      swap2\n      pop\n        /* \"#utility.yul\":5141:5419   */\n      pop\n        /* \"#utility.yul\":5079:5419   */\n      swap3\n      swap2\n      pop\n      pop\n      jump\t// out\n        /* \"#utility.yul\":5425:6079   */\n    tag_29:\n        /* \"#utility.yul\":5503:5509   */\n      0x00\n        /* \"#utility.yul\":5511:5517   */\n      dup1\n        /* \"#utility.yul\":5560:5562   */\n      0x40\n        /* \"#utility.yul\":5548:5557   */\n      dup4\n        /* \"#utility.yul\":5539:5546   */\n      dup6\n        /* \"#utility.yul\":5535:5558   */\n      sub\n        /* \"#utility.yul\":5531:5563   */\n      slt\n        /* \"#utility.yul\":5528:5647   */\n      iszero\n      tag_170\n      jumpi\n        /* \"#utility.yul\":5566:5645   */\n      tag_171\n      tag_67\n      jump\t// in\n    tag_171:\n        /* \"#utility.yul\":5528:5647   */\n    tag_170:\n        /* \"#utility.yul\":5714:5715   */\n      0x00\n        /* \"#utility.yul\":5703:5712   */\n      dup4\n        /* \"#utility.yul\":5699:5716   */\n      add\n        /* \"#utility.yul\":5686:5717   */\n      calldataload\n        /* \"#utility.yul\":5744:5762   */\n      0xffffffffffffffff\n        /* \"#utility.yul\":5736:5742   */\n      dup2\n        /* \"#utility.yul\":5733:5763   */\n      gt\n        /* \"#utility.yul\":5730:5847   */\n      iszero\n      tag_172\n      jumpi\n        /* \"#utility.yul\":5766:5845   */\n      tag_173\n      tag_68\n      jump\t// in\n    tag_173:\n        /* \"#utility.yul\":5730:5847   */\n    tag_172:\n        /* \"#utility.yul\":5871:5934   */\n      tag_174\n        /* \"#utility.yul\":5926:5933   */\n      dup6\n        /* \"#utility.yul\":5917:5923   */\n      dup3\n        /* \"#utility.yul\":5906:5915   */\n      dup7\n        /* \"#utility.yul\":5902:5924   */\n      add\n        /* \"#utility.yul\":5871:5934   */\n      tag_84\n      jump\t// in\n    tag_174:\n        /* \"#utility.yul\":5861:5934   */\n      swap3\n      pop\n        /* \"#utility.yul\":5657:5944   */\n      pop\n        /* \"#utility.yul\":5983:5985   */\n      0x20\n        /* \"#utility.yul\":6009:6062   */\n      tag_175\n        /* \"#utility.yul\":6054:6061   */\n      dup6\n        /* \"#utility.yul\":6045:6051   */\n      dup3\n        /* \"#utility.yul\":6034:6043   */\n      dup7\n        /* \"#utility.yul\":6030:6052   */\n      add\n        /* \"#utility.yul\":6009:6062   */\n      tag_70\n      jump\t// in\n    tag_175:\n        /* \"#utility.yul\":5999:6062   */\n      swap2\n      pop\n        /* \"#utility.yul\":5954:6072   */\n      pop\n        /* \"#utility.yul\":5425:6079   */\n      swap3\n      pop\n      swap3\n      swap1\n      pop\n      jump\t// out\n        /* \"#utility.yul\":6085:6244   */\n    tag_85:\n        /* \"#utility.yul\":6159:6170   */\n      0x00\n        /* \"#utility.yul\":6193:6199   */\n      dup3\n        /* \"#utility.yul\":6188:6191   */\n      dup3\n        /* \"#utility.yul\":6181:6200   */\n      mstore\n        /* \"#utility.yul\":6233:6237   */\n      0x20\n        /* \"#utility.yul\":6228:6231   */\n      dup3\n        /* \"#utility.yul\":6224:6238   */\n      add\n        /* \"#utility.yul\":6209:6238   */\n      swap1\n      pop\n        /* \"#utility.yul\":6085:6244   */\n      swap3\n      swap2\n      pop\n      pop\n      jump\t// out\n        /* \"#utility.yul\":6250:6607   */\n    tag_86:\n        /* \"#utility.yul\":6328:6331   */\n      0x00\n        /* \"#utility.yul\":6356:6395   */\n      tag_178\n        /* \"#utility.yul\":6389:6394   */\n      dup3\n        /* \"#utility.yul\":6356:6395   */\n      tag_71\n      jump\t// in\n    tag_178:\n        /* \"#utility.yul\":6411:6472   */\n      tag_179\n        /* \"#utility.yul\":6465:6471   */\n      dup2\n        /* \"#utility.yul\":6460:6463   */\n      dup6\n        /* \"#utility.yul\":6411:6472   */\n      tag_85\n      jump\t// in\n    tag_179:\n        /* \"#utility.yul\":6404:6472   */\n      swap4\n      pop\n        /* \"#utility.yul\":6481:6546   */\n      tag_180\n        /* \"#utility.yul\":6539:6545   */\n      dup2\n        /* \"#utility.yul\":6534:6537   */\n      dup6\n        /* \"#utility.yul\":6527:6531   */\n      0x20\n        /* \"#utility.yul\":6520:6525   */\n      dup7\n        /* \"#utility.yul\":6516:6532   */\n      add\n        /* \"#utility.yul\":6481:6546   */\n      tag_73\n      jump\t// in\n    tag_180:\n        /* \"#utility.yul\":6571:6600   */\n      tag_181\n        /* \"#utility.yul\":6593:6599   */\n      dup2\n        /* \"#utility.yul\":6571:6600   */\n      tag_74\n      jump\t// in\n    tag_181:\n        /* \"#utility.yul\":6566:6569   */\n      dup5\n        /* \"#utility.yul\":6562:6601   */\n      add\n        /* \"#utility.yul\":6555:6601   */\n      swap2\n      pop\n        /* \"#utility.yul\":6332:6607   */\n      pop\n        /* \"#utility.yul\":6250:6607   */\n      swap3\n      swap2\n      pop\n      pop\n      jump\t// out\n        /* \"#utility.yul\":6613:6721   */\n    tag_87:\n        /* \"#utility.yul\":6690:6714   */\n      tag_183\n        /* \"#utility.yul\":6708:6713   */\n      dup2\n        /* \"#utility.yul\":6690:6714   */\n      tag_64\n      jump\t// in\n    tag_183:\n        /* \"#utility.yul\":6685:6688   */\n      dup3\n        /* \"#utility.yul\":6678:6715   */\n      mstore\n        /* \"#utility.yul\":6613:6721   */\n      pop\n      pop\n      jump\t// out\n        /* \"#utility.yul\":6797:7579   */\n    tag_88:\n        /* \"#utility.yul\":6910:6913   */\n      0x00\n        /* \"#utility.yul\":6946:6950   */\n      0x60\n        /* \"#utility.yul\":6941:6944   */\n      dup4\n        /* \"#utility.yul\":6937:6951   */\n      add\n        /* \"#utility.yul\":7033:7037   */\n      0x00\n        /* \"#utility.yul\":7026:7031   */\n      dup4\n        /* \"#utility.yul\":7022:7038   */\n      add\n        /* \"#utility.yul\":7016:7039   */\n      mload\n        /* \"#utility.yul\":7086:7089   */\n      dup5\n        /* \"#utility.yul\":7080:7084   */\n      dup3\n        /* \"#utility.yul\":7076:7090   */\n      sub\n        /* \"#utility.yul\":7069:7073   */\n      0x00\n        /* \"#utility.yul\":7064:7067   */\n      dup7\n        /* \"#utility.yul\":7060:7074   */\n      add\n        /* \"#utility.yul\":7053:7091   */\n      mstore\n        /* \"#utility.yul\":7112:7185   */\n      tag_185\n        /* \"#utility.yul\":7180:7184   */\n      dup3\n        /* \"#utility.yul\":7166:7178   */\n      dup3\n        /* \"#utility.yul\":7112:7185   */\n      tag_86\n      jump\t// in\n    tag_185:\n        /* \"#utility.yul\":7104:7185   */\n      swap2\n      pop\n        /* \"#utility.yul\":6961:7196   */\n      pop\n        /* \"#utility.yul\":7279:7283   */\n      0x20\n        /* \"#utility.yul\":7272:7277   */\n      dup4\n        /* \"#utility.yul\":7268:7284   */\n      add\n        /* \"#utility.yul\":7262:7285   */\n      mload\n        /* \"#utility.yul\":7298:7361   */\n      tag_186\n        /* \"#utility.yul\":7355:7359   */\n      0x20\n        /* \"#utility.yul\":7350:7353   */\n      dup7\n        /* \"#utility.yul\":7346:7360   */\n      add\n        /* \"#utility.yul\":7332:7344   */\n      dup3\n        /* \"#utility.yul\":7298:7361   */\n      tag_87\n      jump\t// in\n    tag_186:\n        /* \"#utility.yul\":7206:7371   */\n      pop\n        /* \"#utility.yul\":7460:7464   */\n      0x40\n        /* \"#utility.yul\":7453:7458   */\n      dup4\n        /* \"#utility.yul\":7449:7465   */\n      add\n        /* \"#utility.yul\":7443:7466   */\n      mload\n        /* \"#utility.yul\":7479:7542   */\n      tag_187\n        /* \"#utility.yul\":7536:7540   */\n      0x40\n        /* \"#utility.yul\":7531:7534   */\n      dup7\n        /* \"#utility.yul\":7527:7541   */\n      add\n        /* \"#utility.yul\":7513:7525   */\n      dup3\n        /* \"#utility.yul\":7479:7542   */\n      tag_87\n      jump\t// in\n    tag_187:\n        /* \"#utility.yul\":7381:7552   */\n      pop\n        /* \"#utility.yul\":7569:7573   */\n      dup1\n        /* \"#utility.yul\":7562:7573   */\n      swap2\n      pop\n        /* \"#utility.yul\":6915:7579   */\n      pop\n        /* \"#utility.yul\":6797:7579   */\n      swap3\n      swap2\n      pop\n      pop\n      jump\t// out\n        /* \"#utility.yul\":7585:7946   */\n    tag_35:\n        /* \"#utility.yul\":7722:7726   */\n      0x00\n        /* \"#utility.yul\":7760:7762   */\n      0x20\n        /* \"#utility.yul\":7749:7758   */\n      dup3\n        /* \"#utility.yul\":7745:7763   */\n      add\n        /* \"#utility.yul\":7737:7763   */\n      swap1\n      pop\n        /* \"#utility.yul\":7809:7818   */\n      dup2\n        /* \"#utility.yul\":7803:7807   */\n      dup2\n        /* \"#utility.yul\":7799:7819   */\n      sub\n        /* \"#utility.yul\":7795:7796   */\n      0x00\n        /* \"#utility.yul\":7784:7793   */\n      dup4\n        /* \"#utility.yul\":7780:7797   */\n      add\n        /* \"#utility.yul\":7773:7820   */\n      mstore\n        /* \"#utility.yul\":7837:7939   */\n      tag_189\n        /* \"#utility.yul\":7934:7938   */\n      dup2\n        /* \"#utility.yul\":7925:7931   */\n      dup5\n        /* \"#utility.yul\":7837:7939   */\n      tag_88\n      jump\t// in\n    tag_189:\n        /* \"#utility.yul\":7829:7939   */\n      swap1\n      pop\n        /* \"#utility.yul\":7585:7946   */\n      swap3\n      swap2\n      pop\n      pop\n      jump\t// out\n        /* \"#utility.yul\":7952:8124   */\n    tag_89:\n        /* \"#utility.yul\":8092:8116   */\n      0x5365727669636520646f6573206e6f7420657869737400000000000000000000\n        /* \"#utility.yul\":8088:8089   */\n      0x00\n        /* \"#utility.yul\":8080:8086   */\n      dup3\n        /* \"#utility.yul\":8076:8090   */\n      add\n        /* \"#utility.yul\":8069:8117   */\n      mstore\n        /* \"#utility.yul\":7952:8124   */\n      pop\n      jump\t// out\n        /* \"#utility.yul\":8130:8496   */\n    tag_90:\n        /* \"#utility.yul\":8272:8275   */\n      0x00\n        /* \"#utility.yul\":8293:8360   */\n      tag_192\n        /* \"#utility.yul\":8357:8359   */\n      0x16\n        /* \"#utility.yul\":8352:8355   */\n      dup4\n        /* \"#utility.yul\":8293:8360   */\n      tag_72\n      jump\t// in\n    tag_192:\n        /* \"#utility.yul\":8286:8360   */\n      swap2\n      pop\n        /* \"#utility.yul\":8369:8462   */\n      tag_193\n        /* \"#utility.yul\":8458:8461   */\n      dup3\n        /* \"#utility.yul\":8369:8462   */\n      tag_89\n      jump\t// in\n    tag_193:\n        /* \"#utility.yul\":8487:8489   */\n      0x20\n        /* \"#utility.yul\":8482:8485   */\n      dup3\n        /* \"#utility.yul\":8478:8490   */\n      add\n        /* \"#utility.yul\":8471:8490   */\n      swap1\n      pop\n        /* \"#utility.yul\":8130:8496   */\n      swap2\n      swap1\n      pop\n      jump\t// out\n        /* \"#utility.yul\":8502:8921   */\n    tag_39:\n        /* \"#utility.yul\":8668:8672   */\n      0x00\n        /* \"#utility.yul\":8706:8708   */\n      0x20\n        /* \"#utility.yul\":8695:8704   */\n      dup3\n        /* \"#utility.yul\":8691:8709   */\n      add\n        /* \"#utility.yul\":8683:8709   */\n      swap1\n      pop\n        /* \"#utility.yul\":8755:8764   */\n      dup2\n        /* \"#utility.yul\":8749:8753   */\n      dup2\n        /* \"#utility.yul\":8745:8765   */\n      sub\n        /* \"#utility.yul\":8741:8742   */\n      0x00\n        /* \"#utility.yul\":8730:8739   */\n      dup4\n        /* \"#utility.yul\":8726:8743   */\n      add\n        /* \"#utility.yul\":8719:8766   */\n      mstore\n        /* \"#utility.yul\":8783:8914   */\n      tag_195\n        /* \"#utility.yul\":8909:8913   */\n      dup2\n        /* \"#utility.yul\":8783:8914   */\n      tag_90\n      jump\t// in\n    tag_195:\n        /* \"#utility.yul\":8775:8914   */\n      swap1\n      pop\n        /* \"#utility.yul\":8502:8921   */\n      swap2\n      swap1\n      pop\n      jump\t// out\n        /* \"#utility.yul\":8927:9107   */\n    tag_91:\n        /* \"#utility.yul\":8975:9052   */\n      0x4e487b7100000000000000000000000000000000000000000000000000000000\n        /* \"#utility.yul\":8972:8973   */\n      0x00\n        /* \"#utility.yul\":8965:9053   */\n      mstore\n        /* \"#utility.yul\":9072:9076   */\n      0x11\n        /* \"#utility.yul\":9069:9070   */\n      0x04\n        /* \"#utility.yul\":9062:9077   */\n      mstore\n        /* \"#utility.yul\":9096:9100   */\n      0x24\n        /* \"#utility.yul\":9093:9094   */\n      0x00\n        /* \"#utility.yul\":9086:9101   */\n      revert\n        /* \"#utility.yul\":9113:9304   */\n    tag_41:\n        /* \"#utility.yul\":9153:9156   */\n      0x00\n        /* \"#utility.yul\":9172:9192   */\n      tag_198\n        /* \"#utility.yul\":9190:9191   */\n      dup3\n        /* \"#utility.yul\":9172:9192   */\n      tag_64\n      jump\t// in\n    tag_198:\n        /* \"#utility.yul\":9167:9192   */\n      swap2\n      pop\n        /* \"#utility.yul\":9206:9226   */\n      tag_199\n        /* \"#utility.yul\":9224:9225   */\n      dup4\n        /* \"#utility.yul\":9206:9226   */\n      tag_64\n      jump\t// in\n    tag_199:\n        /* \"#utility.yul\":9201:9226   */\n      swap3\n      pop\n        /* \"#utility.yul\":9249:9250   */\n      dup3\n        /* \"#utility.yul\":9246:9247   */\n      dup3\n        /* \"#utility.yul\":9242:9251   */\n      add\n        /* \"#utility.yul\":9235:9251   */\n      swap1\n      pop\n        /* \"#utility.yul\":9270:9273   */\n      dup1\n        /* \"#utility.yul\":9267:9268   */\n      dup3\n        /* \"#utility.yul\":9264:9274   */\n      gt\n        /* \"#utility.yul\":9261:9297   */\n      iszero\n      tag_200\n      jumpi\n        /* \"#utility.yul\":9277:9295   */\n      tag_201\n      tag_91\n      jump\t// in\n    tag_201:\n        /* \"#utility.yul\":9261:9297   */\n    tag_200:\n        /* \"#utility.yul\":9113:9304   */\n      swap3\n      swap2\n      pop\n      pop\n      jump\t// out\n        /* \"#utility.yul\":9310:9490   */\n    tag_92:\n        /* \"#utility.yul\":9358:9435   */\n      0x4e487b7100000000000000000000000000000000000000000000000000000000\n        /* \"#utility.yul\":9355:9356   */\n      0x00\n        /* \"#utility.yul\":9348:9436   */\n      mstore\n        /* \"#utility.yul\":9455:9459   */\n      0x22\n        /* \"#utility.yul\":9452:9453   */\n      0x04\n        /* \"#utility.yul\":9445:9460   */\n      mstore\n        /* \"#utility.yul\":9479:9483   */\n      0x24\n        /* \"#utility.yul\":9476:9477   */\n      0x00\n        /* \"#utility.yul\":9469:9484   */\n      revert\n        /* \"#utility.yul\":9496:9816   */\n    tag_44:\n        /* \"#utility.yul\":9540:9546   */\n      0x00\n        /* \"#utility.yul\":9577:9578   */\n      0x02\n        /* \"#utility.yul\":9571:9575   */\n      dup3\n        /* \"#utility.yul\":9567:9579   */\n      div\n        /* \"#utility.yul\":9557:9579   */\n      swap1\n      pop\n        /* \"#utility.yul\":9624:9625   */\n      0x01\n        /* \"#utility.yul\":9618:9622   */\n      dup3\n        /* \"#utility.yul\":9614:9626   */\n      and\n        /* \"#utility.yul\":9645:9663   */\n      dup1\n        /* \"#utility.yul\":9635:9716   */\n      tag_204\n      jumpi\n        /* \"#utility.yul\":9701:9705   */\n      0x7f\n        /* \"#utility.yul\":9693:9699   */\n      dup3\n        /* \"#utility.yul\":9689:9706   */\n      and\n        /* \"#utility.yul\":9679:9706   */\n      swap2\n      pop\n        /* \"#utility.yul\":9635:9716   */\n    tag_204:\n        /* \"#utility.yul\":9763:9765   */\n      0x20\n        /* \"#utility.yul\":9755:9761   */\n      dup3\n        /* \"#utility.yul\":9752:9766   */\n      lt\n        /* \"#utility.yul\":9732:9750   */\n      dup2\n        /* \"#utility.yul\":9729:9767   */\n      sub\n        /* \"#utility.yul\":9726:9810   */\n      tag_205\n      jumpi\n        /* \"#utility.yul\":9782:9800   */\n      tag_206\n      tag_92\n      jump\t// in\n    tag_206:\n        /* \"#utility.yul\":9726:9810   */\n    tag_205:\n        /* \"#utility.yul\":9547:9816   */\n      pop\n        /* \"#utility.yul\":9496:9816   */\n      swap2\n      swap1\n      pop\n      jump\t// out\n        /* \"#utility.yul\":9822:9963   */\n    tag_93:\n        /* \"#utility.yul\":9871:9875   */\n      0x00\n        /* \"#utility.yul\":9894:9897   */\n      dup2\n        /* \"#utility.yul\":9886:9897   */\n      swap1\n      pop\n        /* \"#utility.yul\":9917:9920   */\n      dup2\n        /* \"#utility.yul\":9914:9915   */\n      0x00\n        /* \"#utility.yul\":9907:9921   */\n      mstore\n        /* \"#utility.yul\":9951:9955   */\n      0x20\n        /* \"#utility.yul\":9948:9949   */\n      0x00\n        /* \"#utility.yul\":9938:9956   */\n      keccak256\n        /* \"#utility.yul\":9930:9956   */\n      swap1\n      pop\n        /* \"#utility.yul\":9822:9963   */\n      swap2\n      swap1\n      pop\n      jump\t// out\n        /* \"#utility.yul\":9969:10062   */\n    tag_94:\n        /* \"#utility.yul\":10006:10012   */\n      0x00\n        /* \"#utility.yul\":10053:10055   */\n      0x20\n        /* \"#utility.yul\":10048:10050   */\n      0x1f\n        /* \"#utility.yul\":10041:10046   */\n      dup4\n        /* \"#utility.yul\":10037:10051   */\n      add\n        /* \"#utility.yul\":10033:10056   */\n      div\n        /* \"#utility.yul\":10023:10056   */\n      swap1\n      pop\n        /* \"#utility.yul\":9969:10062   */\n      swap2\n      swap1\n      pop\n      jump\t// out\n        /* \"#utility.yul\":10068:10175   */\n    tag_95:\n        /* \"#utility.yul\":10112:10120   */\n      0x00\n        /* \"#utility.yul\":10162:10167   */\n      dup3\n        /* \"#utility.yul\":10156:10160   */\n      dup3\n        /* \"#utility.yul\":10152:10168   */\n      shl\n        /* \"#utility.yul\":10131:10168   */\n      swap1\n      pop\n        /* \"#utility.yul\":10068:10175   */\n      swap3\n      swap2\n      pop\n      pop\n      jump\t// out\n        /* \"#utility.yul\":10181:10574   */\n    tag_96:\n        /* \"#utility.yul\":10250:10256   */\n      0x00\n        /* \"#utility.yul\":10300:10301   */\n      0x08\n        /* \"#utility.yul\":10288:10298   */\n      dup4\n        /* \"#utility.yul\":10284:10302   */\n      mul\n        /* \"#utility.yul\":10323:10420   */\n      tag_211\n        /* \"#utility.yul\":10353:10419   */\n      0xffffffffffffffffffffffffffffffffffffffffffffffffffffffffffffffff\n        /* \"#utility.yul\":10342:10351   */\n      dup3\n        /* \"#utility.yul\":10323:10420   */\n      tag_95\n      jump\t// in\n    tag_211:\n        /* \"#utility.yul\":10441:10480   */\n      tag_212\n        /* \"#utility.yul\":10471:10479   */\n      dup7\n        /* \"#utility.yul\":10460:10469   */\n      dup4\n        /* \"#utility.yul\":10441:10480   */\n      tag_95\n      jump\t// in\n    tag_212:\n        /* \"#utility.yul\":10429:10480   */\n      swap6\n      pop\n        /* \"#utility.yul\":10513:10517   */\n      dup1\n        /* \"#utility.yul\":10509:10518   */\n      not\n        /* \"#utility.yul\":10502:10507   */\n      dup5\n        /* \"#utility.yul\":10498:10519   */\n      and\n        /* \"#utility.yul\":10489:10519   */\n      swap4\n      pop\n        /* \"#utility.yul\":10562:10566   */\n      dup1\n        /* \"#utility.yul\":10552:10560   */\n      dup7\n        /* \"#utility.yul\":10548:10567   */\n      and\n        /* \"#utility.yul\":10541:10546   */\n      dup5\n        /* \"#utility.yul\":10538:10568   */\n      or\n        /* \"#utility.yul\":10528:10568   */\n      swap3\n      pop\n        /* \"#utility.yul\":10257:10574   */\n      pop\n      pop\n        /* \"#utility.yul\":10181:10574   */\n      swap4\n      swap3\n      pop\n      pop\n      pop\n      jump\t// out\n        /* \"#utility.yul\":10580:10640   */\n    tag_97:\n        /* \"#utility.yul\":10608:10611   */\n      0x00\n        /* \"#utility.yul\":10629:10634   */\n      dup2\n        /* \"#utility.yul\":10622:10634   */\n      swap1\n      pop\n        /* \"#utility.yul\":10580:10640   */\n      swap2\n      swap1\n      pop\n      jump\t// out\n        /* \"#utility.yul\":10646:10788   */\n    tag_98:\n        /* \"#utility.yul\":10696:10705   */\n      0x00\n        /* \"#utility.yul\":10729:10782   */\n      tag_215\n        /* \"#utility.yul\":10747:10781   */\n      tag_216\n        /* \"#utility.yul\":10756:10780   */\n      tag_217\n        /* \"#utility.yul\":10774:10779   */\n      dup5\n        /* \"#utility.yul\":10756:10780   */\n      tag_64\n      jump\t// in\n    tag_217:\n        /* \"#utility.yul\":10747:10781   */\n      tag_97\n      jump\t// in\n    tag_216:\n        /* \"#utility.yul\":10729:10782   */\n      tag_64\n      jump\t// in\n    tag_215:\n        /* \"#utility.yul\":10716:10782   */\n      swap1\n      pop\n        /* \"#utility.yul\":10646:10788   */\n      swap2\n      swap1\n      pop\n      jump\t// out\n        /* \"#utility.yul\":10794:10869   */\n    tag_99:\n        /* \"#utility.yul\":10837:10840   */\n      0x00\n        /* \"#utility.yul\":10858:10863   */\n      dup2\n        /* \"#utility.yul\":10851:10863   */\n      swap1\n      pop\n        /* \"#utility.yul\":10794:10869   */\n      swap2\n      swap1\n      pop\n      jump\t// out\n        /* \"#utility.yul\":10875:11144   */\n    tag_100:\n        /* \"#utility.yul\":10985:11024   */\n      tag_220\n        /* \"#utility.yul\":11016:11023   */\n      dup4\n        /* \"#utility.yul\":10985:11024   */\n      tag_98\n      jump\t// in\n    tag_220:\n        /* \"#utility.yul\":11046:11137   */\n      tag_221\n        /* \"#utility.yul\":11095:11136   */\n      tag_222\n        /* \"#utility.yul\":11119:11135   */\n      dup3\n        /* \"#utility.yul\":11095:11136   */\n      tag_99\n      jump\t// in\n    tag_222:\n        /* \"#utility.yul\":11087:11093   */\n      dup5\n        /* \"#utility.yul\":11080:11084   */\n      dup5\n        /* \"#utility.yul\":11074:11085   */\n      sload\n        /* \"#utility.yul\":11046:11137   */\n      tag_96\n      jump\t// in\n    tag_221:\n        /* \"#utility.yul\":11040:11044   */\n      dup3\n        /* \"#utility.yul\":11033:11138   */\n      sstore\n        /* \"#utility.yul\":10951:11144   */\n      pop\n        /* \"#utility.yul\":10875:11144   */\n      pop\n      pop\n      pop\n      jump\t// out\n        /* \"#utility.yul\":11150:11223   */\n    tag_101:\n        /* \"#utility.yul\":11195:11198   */\n      0x00\n        /* \"#utility.yul\":11150:11223   */\n      swap1\n      jump\t// out\n        /* \"#utility.yul\":11229:11418   */\n    tag_102:\n        /* \"#utility.yul\":11306:11338   */\n      tag_225\n      tag_101\n      jump\t// in\n    tag_225:\n        /* \"#utility.yul\":11347:11412   */\n      tag_226\n        /* \"#utility.yul\":11405:11411   */\n      dup2\n        /* \"#utility.yul\":11397:11403   */\n      dup5\n        /* \"#utility.yul\":11391:11395   */\n      dup5\n        /* \"#utility.yul\":11347:11412   */\n      tag_100\n      jump\t// in\n    tag_226:\n        /* \"#utility.yul\":11282:11418   */\n      pop\n        /* \"#utility.yul\":11229:11418   */\n      pop\n      pop\n      jump\t// out\n        /* \"#utility.yul\":11424:11610   */\n    tag_103:\n        /* \"#utility.yul\":11484:11604   */\n    tag_228:\n        /* \"#utility.yul\":11501:11504   */\n      dup2\n        /* \"#utility.yul\":11494:11499   */\n      dup2\n        /* \"#utility.yul\":11491:11505   */\n      lt\n        /* \"#utility.yul\":11484:11604   */\n      iszero\n      tag_230\n      jumpi\n        /* \"#utility.yul\":11555:11594   */\n      tag_231\n        /* \"#utility.yul\":11592:11593   */\n      0x00\n        /* \"#utility.yul\":11585:11590   */\n      dup3\n        /* \"#utility.yul\":11555:11594   */\n      tag_102\n      jump\t// in\n    tag_231:\n        /* \"#utility.yul\":11528:11529   */\n      0x01\n        /* \"#utility.yul\":11521:11526   */\n      dup2\n        /* \"#utility.yul\":11517:11530   */\n      add\n        /* \"#utility.yul\":11508:11530   */\n      swap1\n      pop\n        /* \"#utility.yul\":11484:11604   */\n      jump(tag_228)\n    tag_230:\n        /* \"#utility.yul\":11424:11610   */\n      pop\n      pop\n      jump\t// out\n        /* \"#utility.yul\":11616:12159   */\n    tag_104:\n        /* \"#utility.yul\":11717:11719   */\n      0x1f\n        /* \"#utility.yul\":11712:11715   */\n      dup3\n        /* \"#utility.yul\":11709:11720   */\n      gt\n        /* \"#utility.yul\":11706:12152   */\n      iszero\n      tag_233\n      jumpi\n        /* \"#utility.yul\":11751:11789   */\n      tag_234\n        /* \"#utility.yul\":11783:11788   */\n      dup2\n        /* \"#utility.yul\":11751:11789   */\n      tag_93\n      jump\t// in\n    tag_234:\n        /* \"#utility.yul\":11835:11864   */\n      tag_235\n        /* \"#utility.yul\":11853:11863   */\n      dup5\n        /* \"#utility.yul\":11835:11864   */\n      tag_94\n      jump\t// in\n    tag_235:\n        /* \"#utility.yul\":11825:11833   */\n      dup2\n        /* \"#utility.yul\":11821:11865   */\n      add\n        /* \"#utility.yul\":12018:12020   */\n      0x20\n        /* \"#utility.yul\":12006:12016   */\n      dup6\n        /* \"#utility.yul\":12003:12021   */\n      lt\n        /* \"#utility.yul\":12000:12049   */\n      iszero\n      tag_236\n      jumpi\n        /* \"#utility.yul\":12039:12047   */\n      dup2\n        /* \"#utility.yul\":12024:12047   */\n      swap1\n      pop\n        /* \"#utility.yul\":12000:12049   */\n    tag_236:\n        /* \"#utility.yul\":12062:12142   */\n      tag_237\n        /* \"#utility.yul\":12118:12140   */\n      tag_238\n        /* \"#utility.yul\":12136:12139   */\n      dup6\n        /* \"#utility.yul\":12118:12140   */\n      tag_94\n      jump\t// in\n    tag_238:\n        /* \"#utility.yul\":12108:12116   */\n      dup4\n        /* \"#utility.yul\":12104:12141   */\n      add\n        /* \"#utility.yul\":12091:12102   */\n      dup3\n        /* \"#utility.yul\":12062:12142   */\n      tag_103\n      jump\t// in\n    tag_237:\n        /* \"#utility.yul\":11721:12152   */\n      pop\n      pop\n        /* \"#utility.yul\":11706:12152   */\n    tag_233:\n        /* \"#utility.yul\":11616:12159   */\n      pop\n      pop\n      pop\n      jump\t// out\n        /* \"#utility.yul\":12165:12282   */\n    tag_105:\n        /* \"#utility.yul\":12219:12227   */\n      0x00\n        /* \"#utility.yul\":12269:12274   */\n      dup3\n        /* \"#utility.yul\":12263:12267   */\n      dup3\n        /* \"#utility.yul\":12259:12275   */\n      shr\n        /* \"#utility.yul\":12238:12275   */\n      swap1\n      pop\n        /* \"#utility.yul\":12165:12282   */\n      swap3\n      swap2\n      pop\n      pop\n      jump\t// out\n        /* \"#utility.yul\":12288:12457   */\n    tag_106:\n        /* \"#utility.yul\":12332:12338   */\n      0x00\n        /* \"#utility.yul\":12365:12416   */\n      tag_241\n        /* \"#utility.yul\":12413:12414   */\n      0x00\n        /* \"#utility.yul\":12409:12415   */\n      not\n        /* \"#utility.yul\":12401:12406   */\n      dup5\n        /* \"#utility.yul\":12398:12399   */\n      0x08\n        /* \"#utility.yul\":12394:12407   */\n      mul\n        /* \"#utility.yul\":12365:12416   */\n      tag_105\n      jump\t// in\n    tag_241:\n        /* \"#utility.yul\":12361:12417   */\n      not\n        /* \"#utility.yul\":12446:12450   */\n      dup1\n        /* \"#utility.yul\":12440:12444   */\n      dup4\n        /* \"#utility.yul\":12436:12451   */\n      and\n        /* \"#utility.yul\":12426:12451   */\n      swap2\n      pop\n        /* \"#utility.yul\":12339:12457   */\n      pop\n        /* \"#utility.yul\":12288:12457   */\n      swap3\n      swap2\n      pop\n      pop\n      jump\t// out\n        /* \"#utility.yul\":12462:12757   */\n    tag_107:\n        /* \"#utility.yul\":12538:12542   */\n      0x00\n        /* \"#utility.yul\":12684:12713   */\n      tag_243\n        /* \"#utility.yul\":12709:12712   */\n      dup4\n        /* \"#utility.yul\":12703:12707   */\n      dup4\n        /* \"#utility.yul\":12684:12713   */\n      tag_106\n      jump\t// in\n    tag_243:\n        /* \"#utility.yul\":12676:12713   */\n      swap2\n      pop\n        /* \"#utility.yul\":12746:12749   */\n      dup3\n        /* \"#utility.yul\":12743:12744   */\n      0x02\n        /* \"#utility.yul\":12739:12750   */\n      mul\n        /* \"#utility.yul\":12733:12737   */\n      dup3\n        /* \"#utility.yul\":12730:12751   */\n      or\n        /* \"#utility.yul\":12722:12751   */\n      swap1\n      pop\n        /* \"#utility.yul\":12462:12757   */\n      swap3\n      swap2\n      pop\n      pop\n      jump\t// out\n        /* \"#utility.yul\":12762:14157   */\n    tag_51:\n        /* \"#utility.yul\":12879:12916   */\n      tag_245\n        /* \"#utility.yul\":12912:12915   */\n      dup3\n        /* \"#utility.yul\":12879:12916   */\n      tag_71\n      jump\t// in\n    tag_245:\n        /* \"#utility.yul\":12981:12999   */\n      0xffffffffffffffff\n        /* \"#utility.yul\":12973:12979   */\n      dup2\n        /* \"#utility.yul\":12970:13000   */\n      gt\n        /* \"#utility.yul\":12967:13023   */\n      iszero\n      tag_246\n      jumpi\n        /* \"#utility.yul\":13003:13021   */\n      tag_247\n      tag_78\n      jump\t// in\n    tag_247:\n        /* \"#utility.yul\":12967:13023   */\n    tag_246:\n        /* \"#utility.yul\":13047:13085   */\n      tag_248\n        /* \"#utility.yul\":13079:13083   */\n      dup3\n        /* \"#utility.yul\":13073:13084   */\n      sload\n        /* \"#utility.yul\":13047:13085   */\n      tag_44\n      jump\t// in\n    tag_248:\n        /* \"#utility.yul\":13132:13199   */\n      tag_249\n        /* \"#utility.yul\":13192:13198   */\n      dup3\n        /* \"#utility.yul\":13184:13190   */\n      dup3\n        /* \"#utility.yul\":13178:13182   */\n      dup6\n        /* \"#utility.yul\":13132:13199   */\n      tag_104\n      jump\t// in\n    tag_249:\n        /* \"#utility.yul\":13226:13227   */\n      0x00\n        /* \"#utility.yul\":13250:13254   */\n      0x20\n        /* \"#utility.yul\":13237:13254   */\n      swap1\n      pop\n        /* \"#utility.yul\":13282:13284   */\n      0x1f\n        /* \"#utility.yul\":13274:13280   */\n      dup4\n        /* \"#utility.yul\":13271:13285   */\n      gt\n        /* \"#utility.yul\":13299:13300   */\n      0x01\n        /* \"#utility.yul\":13294:13912   */\n      dup2\n      eq\n      tag_251\n      jumpi\n        /* \"#utility.yul\":13956:13957   */\n      0x00\n        /* \"#utility.yul\":13973:13979   */\n      dup5\n        /* \"#utility.yul\":13970:14047   */\n      iszero\n      tag_252\n      jumpi\n        /* \"#utility.yul\":14022:14031   */\n      dup3\n        /* \"#utility.yul\":14017:14020   */\n      dup8\n        /* \"#utility.yul\":14013:14032   */\n      add\n        /* \"#utility.yul\":14007:14033   */\n      mload\n        /* \"#utility.yul\":13998:14033   */\n      swap1\n      pop\n        /* \"#utility.yul\":13970:14047   */\n    tag_252:\n        /* \"#utility.yul\":14073:14140   */\n      tag_253\n        /* \"#utility.yul\":14133:14139   */\n      dup6\n        /* \"#utility.yul\":14126:14131   */\n      dup3\n        /* \"#utility.yul\":14073:14140   */\n      tag_107\n      jump\t// in\n    tag_253:\n        /* \"#utility.yul\":14067:14071   */\n      dup7\n        /* \"#utility.yul\":14060:14141   */\n      sstore\n        /* \"#utility.yul\":13929:14151   */\n      pop\n        /* \"#utility.yul\":13264:14151   */\n      jump(tag_250)\n        /* \"#utility.yul\":13294:13912   */\n    tag_251:\n        /* \"#utility.yul\":13346:13350   */\n      0x1f\n        /* \"#utility.yul\":13342:13351   */\n      not\n        /* \"#utility.yul\":13334:13340   */\n      dup5\n        /* \"#utility.yul\":13330:13352   */\n      and\n        /* \"#utility.yul\":13380:13417   */\n      tag_254\n        /* \"#utility.yul\":13412:13416   */\n      dup7\n        /* \"#utility.yul\":13380:13417   */\n      tag_93\n      jump\t// in\n    tag_254:\n        /* \"#utility.yul\":13439:13440   */\n      0x00\n        /* \"#utility.yul\":13453:13661   */\n    tag_255:\n        /* \"#utility.yul\":13467:13474   */\n      dup3\n        /* \"#utility.yul\":13464:13465   */\n      dup2\n        /* \"#utility.yul\":13461:13475   */\n      lt\n        /* \"#utility.yul\":13453:13661   */\n      iszero\n      tag_257\n      jumpi\n        /* \"#utility.yul\":13546:13555   */\n      dup5\n        /* \"#utility.yul\":13541:13544   */\n      dup10\n        /* \"#utility.yul\":13537:13556   */\n      add\n        /* \"#utility.yul\":13531:13557   */\n      mload\n        /* \"#utility.yul\":13523:13529   */\n      dup3\n        /* \"#utility.yul\":13516:13558   */\n      sstore\n        /* \"#utility.yul\":13597:13598   */\n      0x01\n        /* \"#utility.yul\":13589:13595   */\n      dup3\n        /* \"#utility.yul\":13585:13599   */\n      add\n        /* \"#utility.yul\":13575:13599   */\n      swap2\n      pop\n        /* \"#utility.yul\":13644:13646   */\n      0x20\n        /* \"#utility.yul\":13633:13642   */\n      dup6\n        /* \"#utility.yul\":13629:13647   */\n      add\n        /* \"#utility.yul\":13616:13647   */\n      swap5\n      pop\n        /* \"#utility.yul\":13490:13494   */\n      0x20\n        /* \"#utility.yul\":13487:13488   */\n      dup2\n        /* \"#utility.yul\":13483:13495   */\n      add\n        /* \"#utility.yul\":13478:13495   */\n      swap1\n      pop\n        /* \"#utility.yul\":13453:13661   */\n      jump(tag_255)\n    tag_257:\n        /* \"#utility.yul\":13689:13695   */\n      dup7\n        /* \"#utility.yul\":13680:13687   */\n      dup4\n        /* \"#utility.yul\":13677:13696   */\n      lt\n        /* \"#utility.yul\":13674:13853   */\n      iszero\n      tag_258\n      jumpi\n        /* \"#utility.yul\":13747:13756   */\n      dup5\n        /* \"#utility.yul\":13742:13745   */\n      dup10\n        /* \"#utility.yul\":13738:13757   */\n      add\n        /* \"#utility.yul\":13732:13758   */\n      mload\n        /* \"#utility.yul\":13790:13838   */\n      tag_259\n        /* \"#utility.yul\":13832:13836   */\n      0x1f\n        /* \"#utility.yul\":13824:13830   */\n      dup10\n        /* \"#utility.yul\":13820:13837   */\n      and\n        /* \"#utility.yul\":13809:13818   */\n      dup3\n        /* \"#utility.yul\":13790:13838   */\n      tag_106\n      jump\t// in\n    tag_259:\n        /* \"#utility.yul\":13782:13788   */\n      dup4\n        /* \"#utility.yul\":13775:13839   */\n      sstore\n        /* \"#utility.yul\":13697:13853   */\n      pop\n        /* \"#utility.yul\":13674:13853   */\n    tag_258:\n        /* \"#utility.yul\":13899:13900   */\n      0x01\n        /* \"#utility.yul\":13895:13896   */\n      0x02\n        /* \"#utility.yul\":13887:13893   */\n      dup9\n        /* \"#utility.yul\":13883:13897   */\n      mul\n        /* \"#utility.yul\":13879:13901   */\n      add\n        /* \"#utility.yul\":13873:13877   */\n      dup9\n        /* \"#utility.yul\":13866:13902   */\n      sstore\n        /* \"#utility.yul\":13301:13912   */\n      pop\n      pop\n      pop\n        /* \"#utility.yul\":13264:14151   */\n    tag_250:\n      pop\n        /* \"#utility.yul\":12854:14157   */\n      pop\n      pop\n      pop\n        /* \"#utility.yul\":12762:14157   */\n      pop\n      pop\n      jump\t// out\n        /* \"#utility.yul\":14163:14586   */\n    tag_53:\n        /* \"#utility.yul\":14304:14308   */\n      0x00\n        /* \"#utility.yul\":14342:14344   */\n      0x40\n        /* \"#utility.yul\":14331:14340   */\n      dup3\n        /* \"#utility.yul\":14327:14345   */\n      add\n        /* \"#utility.yul\":14319:14345   */\n      swap1\n      pop\n        /* \"#utility.yul\":14391:14400   */\n      dup2\n        /* \"#utility.yul\":14385:14389   */\n      dup2\n        /* \"#utility.yul\":14381:14401   */\n      sub\n        /* \"#utility.yul\":14377:14378   */\n      0x00\n        /* \"#utility.yul\":14366:14375   */\n      dup4\n        /* \"#utility.yul\":14362:14379   */\n      add\n        /* \"#utility.yul\":14355:14402   */\n      mstore\n        /* \"#utility.yul\":14419:14497   */\n      tag_261\n        /* \"#utility.yul\":14492:14496   */\n      dup2\n        /* \"#utility.yul\":14483:14489   */\n      dup6\n        /* \"#utility.yul\":14419:14497   */\n      tag_75\n      jump\t// in\n    tag_261:\n        /* \"#utility.yul\":14411:14497   */\n      swap1\n      pop\n        /* \"#utility.yul\":14507:14579   */\n      tag_262\n        /* \"#utility.yul\":14575:14577   */\n      0x20\n        /* \"#utility.yul\":14564:14573   */\n      dup4\n        /* \"#utility.yul\":14560:14578   */\n      add\n        /* \"#utility.yul\":14551:14557   */\n      dup5\n        /* \"#utility.yul\":14507:14579   */\n      tag_65\n      jump\t// in\n    tag_262:\n        /* \"#utility.yul\":14163:14586   */\n      swap4\n      swap3\n      pop\n      pop\n      pop\n      jump\t// out\n        /* \"#utility.yul\":14592:14825   */\n    tag_55:\n        /* \"#utility.yul\":14631:14634   */\n      0x00\n        /* \"#utility.yul\":14654:14678   */\n      tag_264\n        /* \"#utility.yul\":14672:14677   */\n      dup3\n        /* \"#utility.yul\":14654:14678   */\n      tag_64\n      jump\t// in\n    tag_264:\n        /* \"#utility.yul\":14645:14678   */\n      swap2\n      pop\n        /* \"#utility.yul\":14700:14766   */\n      0xffffffffffffffffffffffffffffffffffffffffffffffffffffffffffffffff\n        /* \"#utility.yul\":14693:14698   */\n      dup3\n        /* \"#utility.yul\":14690:14767   */\n      sub\n        /* \"#utility.yul\":14687:14790   */\n      tag_265\n      jumpi\n        /* \"#utility.yul\":14770:14788   */\n      tag_266\n      tag_91\n      jump\t// in\n    tag_266:\n        /* \"#utility.yul\":14687:14790   */\n    tag_265:\n        /* \"#utility.yul\":14817:14818   */\n      0x01\n        /* \"#utility.yul\":14810:14815   */\n      dup3\n        /* \"#utility.yul\":14806:14819   */\n      add\n        /* \"#utility.yul\":14799:14819   */\n      swap1\n      pop\n        /* \"#utility.yul\":14592:14825   */\n      swap2\n      swap1\n      pop\n      jump\t// out\n\n    auxdata: 0xa2646970667358221220c90c815e67176d290cce165a1e3e517c66e0554e01577b8e0368b7f114ddbe5e64736f6c634300081a0033\n}\n",
				"bytecode": {
					"linkReferences": {},
					"object": "6080604052348015600e575f80fd5b50610c2c8061001c5f395ff3fe608060405234801561000f575f80fd5b5060043610610060575f3560e01c80630623752614610064578063143fa89b1461008257806366c8707a1461009e578063c22c4f43146100ce578063cc1a40b714610100578063ef0e239b1461011c575b5f80fd5b61006c61014c565b604051610079919061043d565b60405180910390f35b61009c60048036038101906100979190610491565b610152565b005b6100b860048036038101906100b391906104cf565b6101c3565b6040516100c5919061043d565b60405180910390f35b6100e860048036038101906100e391906104cf565b6101df565b6040516100f79392919061056a565b60405180910390f35b61011a600480360381019061011591906106d2565b61028a565b005b610136600480360381019061013191906104cf565b610339565b60405161014391906107d0565b60405180910390f35b60015481565b6001548210610196576040517f08c379a000000000000000000000000000000000000000000000000000000000815260040161018d9061083a565b60405180910390fd5b805f808481526020019081526020015f206002015f8282546101b89190610885565b925050819055505050565b5f805f8381526020019081526020015f20600201549050919050565b5f602052805f5260405f205f91509050805f0180546101fd906108e5565b80601f0160208091040260200160405190810160405280929190818152602001828054610229906108e5565b80156102745780601f1061024b57610100808354040283529160200191610274565b820191905f5260205f20905b81548152906001019060200180831161025757829003601f168201915b5050505050908060010154908060020154905083565b60405180606001604052808381526020018281526020015f8152505f8060015481526020019081526020015f205f820151815f0190816102ca9190610ab2565b5060208201518160010155604082015181600201559050506001547f0a9a5176ea239c6f4dd87dac9eface6bb5039a6941b2e4947286e1bd8c4832ab8383604051610316929190610b81565b60405180910390a260015f81548092919061033090610baf565b91905055505050565b610341610406565b5f808381526020019081526020015f206040518060600160405290815f8201805461036b906108e5565b80601f0160208091040260200160405190810160405280929190818152602001828054610397906108e5565b80156103e25780601f106103b9576101008083540402835291602001916103e2565b820191905f5260205f20905b8154815290600101906020018083116103c557829003601f168201915b50505050508152602001600182015481526020016002820154815250509050919050565b6040518060600160405280606081526020015f81526020015f81525090565b5f819050919050565b61043781610425565b82525050565b5f6020820190506104505f83018461042e565b92915050565b5f604051905090565b5f80fd5b5f80fd5b61047081610425565b811461047a575f80fd5b50565b5f8135905061048b81610467565b92915050565b5f80604083850312156104a7576104a661045f565b5b5f6104b48582860161047d565b92505060206104c58582860161047d565b9150509250929050565b5f602082840312156104e4576104e361045f565b5b5f6104f18482850161047d565b91505092915050565b5f81519050919050565b5f82825260208201905092915050565b8281835e5f83830152505050565b5f601f19601f8301169050919050565b5f61053c826104fa565b6105468185610504565b9350610556818560208601610514565b61055f81610522565b840191505092915050565b5f6060820190508181035f8301526105828186610532565b9050610591602083018561042e565b61059e604083018461042e565b949350505050565b5f80fd5b5f80fd5b7f4e487b71000000000000000000000000000000000000000000000000000000005f52604160045260245ffd5b6105e482610522565b810181811067ffffffffffffffff82111715610603576106026105ae565b5b80604052505050565b5f610615610456565b905061062182826105db565b919050565b5f67ffffffffffffffff8211156106405761063f6105ae565b5b61064982610522565b9050602081019050919050565b828183375f83830152505050565b5f61067661067184610626565b61060c565b905082815260208101848484011115610692576106916105aa565b5b61069d848285610656565b509392505050565b5f82601f8301126106b9576106b86105a6565b5b81356106c9848260208601610664565b91505092915050565b5f80604083850312156106e8576106e761045f565b5b5f83013567ffffffffffffffff81111561070557610704610463565b5b610711858286016106a5565b92505060206107228582860161047d565b9150509250929050565b5f82825260208201905092915050565b5f610746826104fa565b610750818561072c565b9350610760818560208601610514565b61076981610522565b840191505092915050565b61077d81610425565b82525050565b5f606083015f8301518482035f86015261079d828261073c565b91505060208301516107b26020860182610774565b5060408301516107c56040860182610774565b508091505092915050565b5f6020820190508181035f8301526107e88184610783565b905092915050565b7f5365727669636520646f6573206e6f74206578697374000000000000000000005f82015250565b5f610824601683610504565b915061082f826107f0565b602082019050919050565b5f6020820190508181035f83015261085181610818565b9050919050565b7f4e487b71000000000000000000000000000000000000000000000000000000005f52601160045260245ffd5b5f61088f82610425565b915061089a83610425565b92508282019050808211156108b2576108b1610858565b5b92915050565b7f4e487b71000000000000000000000000000000000000000000000000000000005f52602260045260245ffd5b5f60028204905060018216806108fc57607f821691505b60208210810361090f5761090e6108b8565b5b50919050565b5f819050815f5260205f209050919050565b5f6020601f8301049050919050565b5f82821b905092915050565b5f600883026109717fffffffffffffffffffffffffffffffffffffffffffffffffffffffffffffffff82610936565b61097b8683610936565b95508019841693508086168417925050509392505050565b5f819050919050565b5f6109b66109b16109ac84610425565b610993565b610425565b9050919050565b5f819050919050565b6109cf8361099c565b6109e36109db826109bd565b848454610942565b825550505050565b5f90565b6109f76109eb565b610a028184846109c6565b505050565b5b81811015610a2557610a1a5f826109ef565b600181019050610a08565b5050565b601f821115610a6a57610a3b81610915565b610a4484610927565b81016020851015610a53578190505b610a67610a5f85610927565b830182610a07565b50505b505050565b5f82821c905092915050565b5f610a8a5f1984600802610a6f565b1980831691505092915050565b5f610aa28383610a7b565b9150826002028217905092915050565b610abb826104fa565b67ffffffffffffffff811115610ad457610ad36105ae565b5b610ade82546108e5565b610ae9828285610a29565b5f60209050601f831160018114610b1a575f8415610b08578287015190505b610b128582610a97565b865550610b79565b601f198416610b2886610915565b5f5b82811015610b4f57848901518255600182019150602085019450602081019050610b2a565b86831015610b6c5784890151610b68601f891682610a7b565b8355505b6001600288020188555050505b505050505050565b5f6040820190508181035f830152610b998185610532565b9050610ba8602083018461042e565b9392505050565b5f610bb982610425565b91507fffffffffffffffffffffffffffffffffffffffffffffffffffffffffffffffff8203610beb57610bea610858565b5b60018201905091905056fea2646970667358221220c90c815e67176d290cce165a1e3e517c66e0554e01577b8e0368b7f114ddbe5e64736f6c634300081a0033",
					"opcodes": "PUSH1 0x80 PUSH1 0x40 MSTORE CALLVALUE DUP1 ISZERO PUSH1 0xE JUMPI PUSH0 DUP1 REVERT JUMPDEST POP PUSH2 0xC2C DUP1 PUSH2 0x1C PUSH0 CODECOPY PUSH0 RETURN INVALID PUSH1 0x80 PUSH1 0x40 MSTORE CALLVALUE DUP1 ISZERO PUSH2 0xF JUMPI PUSH0 DUP1 REVERT JUMPDEST POP PUSH1 0x4 CALLDATASIZE LT PUSH2 0x60 JUMPI PUSH0 CALLDATALOAD PUSH1 0xE0 SHR DUP1 PUSH4 0x6237526 EQ PUSH2 0x64 JUMPI DUP1 PUSH4 0x143FA89B EQ PUSH2 0x82 JUMPI DUP1 PUSH4 0x66C8707A EQ PUSH2 0x9E JUMPI DUP1 PUSH4 0xC22C4F43 EQ PUSH2 0xCE JUMPI DUP1 PUSH4 0xCC1A40B7 EQ PUSH2 0x100 JUMPI DUP1 PUSH4 0xEF0E239B EQ PUSH2 0x11C JUMPI JUMPDEST PUSH0 DUP1 REVERT JUMPDEST PUSH2 0x6C PUSH2 0x14C JUMP JUMPDEST PUSH1 0x40 MLOAD PUSH2 0x79 SWAP2 SWAP1 PUSH2 0x43D JUMP JUMPDEST PUSH1 0x40 MLOAD DUP1 SWAP2 SUB SWAP1 RETURN JUMPDEST PUSH2 0x9C PUSH1 0x4 DUP1 CALLDATASIZE SUB DUP2 ADD SWAP1 PUSH2 0x97 SWAP2 SWAP1 PUSH2 0x491 JUMP JUMPDEST PUSH2 0x152 JUMP JUMPDEST STOP JUMPDEST PUSH2 0xB8 PUSH1 0x4 DUP1 CALLDATASIZE SUB DUP2 ADD SWAP1 PUSH2 0xB3 SWAP2 SWAP1 PUSH2 0x4CF JUMP JUMPDEST PUSH2 0x1C3 JUMP JUMPDEST PUSH1 0x40 MLOAD PUSH2 0xC5 SWAP2 SWAP1 PUSH2 0x43D JUMP JUMPDEST PUSH1 0x40 MLOAD DUP1 SWAP2 SUB SWAP1 RETURN JUMPDEST PUSH2 0xE8 PUSH1 0x4 DUP1 CALLDATASIZE SUB DUP2 ADD SWAP1 PUSH2 0xE3 SWAP2 SWAP1 PUSH2 0x4CF JUMP JUMPDEST PUSH2 0x1DF JUMP JUMPDEST PUSH1 0x40 MLOAD PUSH2 0xF7 SWAP4 SWAP3 SWAP2 SWAP1 PUSH2 0x56A JUMP JUMPDEST PUSH1 0x40 MLOAD DUP1 SWAP2 SUB SWAP1 RETURN JUMPDEST PUSH2 0x11A PUSH1 0x4 DUP1 CALLDATASIZE SUB DUP2 ADD SWAP1 PUSH2 0x115 SWAP2 SWAP1 PUSH2 0x6D2 JUMP JUMPDEST PUSH2 0x28A JUMP JUMPDEST STOP JUMPDEST PUSH2 0x136 PUSH1 0x4 DUP1 CALLDATASIZE SUB DUP2 ADD SWAP1 PUSH2 0x131 SWAP2 SWAP1 PUSH2 0x4CF JUMP JUMPDEST PUSH2 0x339 JUMP JUMPDEST PUSH1 0x40 MLOAD PUSH2 0x143 SWAP2 SWAP1 PUSH2 0x7D0 JUMP JUMPDEST PUSH1 0x40 MLOAD DUP1 SWAP2 SUB SWAP1 RETURN JUMPDEST PUSH1 0x1 SLOAD DUP2 JUMP JUMPDEST PUSH1 0x1 SLOAD DUP3 LT PUSH2 0x196 JUMPI PUSH1 0x40 MLOAD PUSH32 0x8C379A000000000000000000000000000000000000000000000000000000000 DUP2 MSTORE PUSH1 0x4 ADD PUSH2 0x18D SWAP1 PUSH2 0x83A JUMP JUMPDEST PUSH1 0x40 MLOAD DUP1 SWAP2 SUB SWAP1 REVERT JUMPDEST DUP1 PUSH0 DUP1 DUP5 DUP2 MSTORE PUSH1 0x20 ADD SWAP1 DUP2 MSTORE PUSH1 0x20 ADD PUSH0 KECCAK256 PUSH1 0x2 ADD PUSH0 DUP3 DUP3 SLOAD PUSH2 0x1B8 SWAP2 SWAP1 PUSH2 0x885 JUMP JUMPDEST SWAP3 POP POP DUP2 SWAP1 SSTORE POP POP POP JUMP JUMPDEST PUSH0 DUP1 PUSH0 DUP4 DUP2 MSTORE PUSH1 0x20 ADD SWAP1 DUP2 MSTORE PUSH1 0x20 ADD PUSH0 KECCAK256 PUSH1 0x2 ADD SLOAD SWAP1 POP SWAP2 SWAP1 POP JUMP JUMPDEST PUSH0 PUSH1 0x20 MSTORE DUP1 PUSH0 MSTORE PUSH1 0x40 PUSH0 KECCAK256 PUSH0 SWAP2 POP SWAP1 POP DUP1 PUSH0 ADD DUP1 SLOAD PUSH2 0x1FD SWAP1 PUSH2 0x8E5 JUMP JUMPDEST DUP1 PUSH1 0x1F ADD PUSH1 0x20 DUP1 SWAP2 DIV MUL PUSH1 0x20 ADD PUSH1 0x40 MLOAD SWAP1 DUP2 ADD PUSH1 0x40 MSTORE DUP1 SWAP3 SWAP2 SWAP1 DUP2 DUP2 MSTORE PUSH1 0x20 ADD DUP3 DUP1 SLOAD PUSH2 0x229 SWAP1 PUSH2 0x8E5 JUMP JUMPDEST DUP1 ISZERO PUSH2 0x274 JUMPI DUP1 PUSH1 0x1F LT PUSH2 0x24B JUMPI PUSH2 0x100 DUP1 DUP4 SLOAD DIV MUL DUP4 MSTORE SWAP2 PUSH1 0x20 ADD SWAP2 PUSH2 0x274 JUMP JUMPDEST DUP3 ADD SWAP2 SWAP1 PUSH0 MSTORE PUSH1 0x20 PUSH0 KECCAK256 SWAP1 JUMPDEST DUP2 SLOAD DUP2 MSTORE SWAP1 PUSH1 0x1 ADD SWAP1 PUSH1 0x20 ADD DUP1 DUP4 GT PUSH2 0x257 JUMPI DUP3 SWAP1 SUB PUSH1 0x1F AND DUP3 ADD SWAP2 JUMPDEST POP POP POP POP POP SWAP1 DUP1 PUSH1 0x1 ADD SLOAD SWAP1 DUP1 PUSH1 0x2 ADD SLOAD SWAP1 POP DUP4 JUMP JUMPDEST PUSH1 0x40 MLOAD DUP1 PUSH1 0x60 ADD PUSH1 0x40 MSTORE DUP1 DUP4 DUP2 MSTORE PUSH1 0x20 ADD DUP3 DUP2 MSTORE PUSH1 0x20 ADD PUSH0 DUP2 MSTORE POP PUSH0 DUP1 PUSH1 0x1 SLOAD DUP2 MSTORE PUSH1 0x20 ADD SWAP1 DUP2 MSTORE PUSH1 0x20 ADD PUSH0 KECCAK256 PUSH0 DUP3 ADD MLOAD DUP2 PUSH0 ADD SWAP1 DUP2 PUSH2 0x2CA SWAP2 SWAP1 PUSH2 0xAB2 JUMP JUMPDEST POP PUSH1 0x20 DUP3 ADD MLOAD DUP2 PUSH1 0x1 ADD SSTORE PUSH1 0x40 DUP3 ADD MLOAD DUP2 PUSH1 0x2 ADD SSTORE SWAP1 POP POP PUSH1 0x1 SLOAD PUSH32 0xA9A5176EA239C6F4DD87DAC9EFACE6BB5039A6941B2E4947286E1BD8C4832AB DUP4 DUP4 PUSH1 0x40 MLOAD PUSH2 0x316 SWAP3 SWAP2 SWAP1 PUSH2 0xB81 JUMP JUMPDEST PUSH1 0x40 MLOAD DUP1 SWAP2 SUB SWAP1 LOG2 PUSH1 0x1 PUSH0 DUP2 SLOAD DUP1 SWAP3 SWAP2 SWAP1 PUSH2 0x330 SWAP1 PUSH2 0xBAF JUMP JUMPDEST SWAP2 SWAP1 POP SSTORE POP POP POP JUMP JUMPDEST PUSH2 0x341 PUSH2 0x406 JUMP JUMPDEST PUSH0 DUP1 DUP4 DUP2 MSTORE PUSH1 0x20 ADD SWAP1 DUP2 MSTORE PUSH1 0x20 ADD PUSH0 KECCAK256 PUSH1 0x40 MLOAD DUP1 PUSH1 0x60 ADD PUSH1 0x40 MSTORE SWAP1 DUP2 PUSH0 DUP3 ADD DUP1 SLOAD PUSH2 0x36B SWAP1 PUSH2 0x8E5 JUMP JUMPDEST DUP1 PUSH1 0x1F ADD PUSH1 0x20 DUP1 SWAP2 DIV MUL PUSH1 0x20 ADD PUSH1 0x40 MLOAD SWAP1 DUP2 ADD PUSH1 0x40 MSTORE DUP1 SWAP3 SWAP2 SWAP1 DUP2 DUP2 MSTORE PUSH1 0x20 ADD DUP3 DUP1 SLOAD PUSH2 0x397 SWAP1 PUSH2 0x8E5 JUMP JUMPDEST DUP1 ISZERO PUSH2 0x3E2 JUMPI DUP1 PUSH1 0x1F LT PUSH2 0x3B9 JUMPI PUSH2 0x100 DUP1 DUP4 SLOAD DIV MUL DUP4 MSTORE SWAP2 PUSH1 0x20 ADD SWAP2 PUSH2 0x3E2 JUMP JUMPDEST DUP3 ADD SWAP2 SWAP1 PUSH0 MSTORE PUSH1 0x20 PUSH0 KECCAK256 SWAP1 JUMPDEST DUP2 SLOAD DUP2 MSTORE SWAP1 PUSH1 0x1 ADD SWAP1 PUSH1 0x20 ADD DUP1 DUP4 GT PUSH2 0x3C5 JUMPI DUP3 SWAP1 SUB PUSH1 0x1F AND DUP3 ADD SWAP2 JUMPDEST POP POP POP POP POP DUP2 MSTORE PUSH1 0x20 ADD PUSH1 0x1 DUP3 ADD SLOAD DUP2 MSTORE PUSH1 0x20 ADD PUSH1 0x2 DUP3 ADD SLOAD DUP2 MSTORE POP POP SWAP1 POP SWAP2 SWAP1 POP JUMP JUMPDEST PUSH1 0x40 MLOAD DUP1 PUSH1 0x60 ADD PUSH1 0x40 MSTORE DUP1 PUSH1 0x60 DUP2 MSTORE PUSH1 0x20 ADD PUSH0 DUP2 MSTORE PUSH1 0x20 ADD PUSH0 DUP2 MSTORE POP SWAP1 JUMP JUMPDEST PUSH0 DUP2 SWAP1 POP SWAP2 SWAP1 POP JUMP JUMPDEST PUSH2 0x437 DUP2 PUSH2 0x425 JUMP JUMPDEST DUP3 MSTORE POP POP JUMP JUMPDEST PUSH0 PUSH1 0x20 DUP3 ADD SWAP1 POP PUSH2 0x450 PUSH0 DUP4 ADD DUP5 PUSH2 0x42E JUMP JUMPDEST SWAP3 SWAP2 POP POP JUMP JUMPDEST PUSH0 PUSH1 0x40 MLOAD SWAP1 POP SWAP1 JUMP JUMPDEST PUSH0 DUP1 REVERT JUMPDEST PUSH0 DUP1 REVERT JUMPDEST PUSH2 0x470 DUP2 PUSH2 0x425 JUMP JUMPDEST DUP2 EQ PUSH2 0x47A JUMPI PUSH0 DUP1 REVERT JUMPDEST POP JUMP JUMPDEST PUSH0 DUP2 CALLDATALOAD SWAP1 POP PUSH2 0x48B DUP2 PUSH2 0x467 JUMP JUMPDEST SWAP3 SWAP2 POP POP JUMP JUMPDEST PUSH0 DUP1 PUSH1 0x40 DUP4 DUP6 SUB SLT ISZERO PUSH2 0x4A7 JUMPI PUSH2 0x4A6 PUSH2 0x45F JUMP JUMPDEST JUMPDEST PUSH0 PUSH2 0x4B4 DUP6 DUP3 DUP7 ADD PUSH2 0x47D JUMP JUMPDEST SWAP3 POP POP PUSH1 0x20 PUSH2 0x4C5 DUP6 DUP3 DUP7 ADD PUSH2 0x47D JUMP JUMPDEST SWAP2 POP POP SWAP3 POP SWAP3 SWAP1 POP JUMP JUMPDEST PUSH0 PUSH1 0x20 DUP3 DUP5 SUB SLT ISZERO PUSH2 0x4E4 JUMPI PUSH2 0x4E3 PUSH2 0x45F JUMP JUMPDEST JUMPDEST PUSH0 PUSH2 0x4F1 DUP5 DUP3 DUP6 ADD PUSH2 0x47D JUMP JUMPDEST SWAP2 POP POP SWAP3 SWAP2 POP POP JUMP JUMPDEST PUSH0 DUP2 MLOAD SWAP1 POP SWAP2 SWAP1 POP JUMP JUMPDEST PUSH0 DUP3 DUP3 MSTORE PUSH1 0x20 DUP3 ADD SWAP1 POP SWAP3 SWAP2 POP POP JUMP JUMPDEST DUP3 DUP2 DUP4 MCOPY PUSH0 DUP4 DUP4 ADD MSTORE POP POP POP JUMP JUMPDEST PUSH0 PUSH1 0x1F NOT PUSH1 0x1F DUP4 ADD AND SWAP1 POP SWAP2 SWAP1 POP JUMP JUMPDEST PUSH0 PUSH2 0x53C DUP3 PUSH2 0x4FA JUMP JUMPDEST PUSH2 0x546 DUP2 DUP6 PUSH2 0x504 JUMP JUMPDEST SWAP4 POP PUSH2 0x556 DUP2 DUP6 PUSH1 0x20 DUP7 ADD PUSH2 0x514 JUMP JUMPDEST PUSH2 0x55F DUP2 PUSH2 0x522 JUMP JUMPDEST DUP5 ADD SWAP2 POP POP SWAP3 SWAP2 POP POP JUMP JUMPDEST PUSH0 PUSH1 0x60 DUP3 ADD SWAP1 POP DUP2 DUP2 SUB PUSH0 DUP4 ADD MSTORE PUSH2 0x582 DUP2 DUP7 PUSH2 0x532 JUMP JUMPDEST SWAP1 POP PUSH2 0x591 PUSH1 0x20 DUP4 ADD DUP6 PUSH2 0x42E JUMP JUMPDEST PUSH2 0x59E PUSH1 0x40 DUP4 ADD DUP5 PUSH2 0x42E JUMP JUMPDEST SWAP5 SWAP4 POP POP POP POP JUMP JUMPDEST PUSH0 DUP1 REVERT JUMPDEST PUSH0 DUP1 REVERT JUMPDEST PUSH32 0x4E487B7100000000000000000000000000000000000000000000000000000000 PUSH0 MSTORE PUSH1 0x41 PUSH1 0x4 MSTORE PUSH1 0x24 PUSH0 REVERT JUMPDEST PUSH2 0x5E4 DUP3 PUSH2 0x522 JUMP JUMPDEST DUP2 ADD DUP2 DUP2 LT PUSH8 0xFFFFFFFFFFFFFFFF DUP3 GT OR ISZERO PUSH2 0x603 JUMPI PUSH2 0x602 PUSH2 0x5AE JUMP JUMPDEST JUMPDEST DUP1 PUSH1 0x40 MSTORE POP POP POP JUMP JUMPDEST PUSH0 PUSH2 0x615 PUSH2 0x456 JUMP JUMPDEST SWAP1 POP PUSH2 0x621 DUP3 DUP3 PUSH2 0x5DB JUMP JUMPDEST SWAP2 SWAP1 POP JUMP JUMPDEST PUSH0 PUSH8 0xFFFFFFFFFFFFFFFF DUP3 GT ISZERO PUSH2 0x640 JUMPI PUSH2 0x63F PUSH2 0x5AE JUMP JUMPDEST JUMPDEST PUSH2 0x649 DUP3 PUSH2 0x522 JUMP JUMPDEST SWAP1 POP PUSH1 0x20 DUP2 ADD SWAP1 POP SWAP2 SWAP1 POP JUMP JUMPDEST DUP3 DUP2 DUP4 CALLDATACOPY PUSH0 DUP4 DUP4 ADD MSTORE POP POP POP JUMP JUMPDEST PUSH0 PUSH2 0x676 PUSH2 0x671 DUP5 PUSH2 0x626 JUMP JUMPDEST PUSH2 0x60C JUMP JUMPDEST SWAP1 POP DUP3 DUP2 MSTORE PUSH1 0x20 DUP2 ADD DUP5 DUP5 DUP5 ADD GT ISZERO PUSH2 0x692 JUMPI PUSH2 0x691 PUSH2 0x5AA JUMP JUMPDEST JUMPDEST PUSH2 0x69D DUP5 DUP3 DUP6 PUSH2 0x656 JUMP JUMPDEST POP SWAP4 SWAP3 POP POP POP JUMP JUMPDEST PUSH0 DUP3 PUSH1 0x1F DUP4 ADD SLT PUSH2 0x6B9 JUMPI PUSH2 0x6B8 PUSH2 0x5A6 JUMP JUMPDEST JUMPDEST DUP2 CALLDATALOAD PUSH2 0x6C9 DUP5 DUP3 PUSH1 0x20 DUP7 ADD PUSH2 0x664 JUMP JUMPDEST SWAP2 POP POP SWAP3 SWAP2 POP POP JUMP JUMPDEST PUSH0 DUP1 PUSH1 0x40 DUP4 DUP6 SUB SLT ISZERO PUSH2 0x6E8 JUMPI PUSH2 0x6E7 PUSH2 0x45F JUMP JUMPDEST JUMPDEST PUSH0 DUP4 ADD CALLDATALOAD PUSH8 0xFFFFFFFFFFFFFFFF DUP2 GT ISZERO PUSH2 0x705 JUMPI PUSH2 0x704 PUSH2 0x463 JUMP JUMPDEST JUMPDEST PUSH2 0x711 DUP6 DUP3 DUP7 ADD PUSH2 0x6A5 JUMP JUMPDEST SWAP3 POP POP PUSH1 0x20 PUSH2 0x722 DUP6 DUP3 DUP7 ADD PUSH2 0x47D JUMP JUMPDEST SWAP2 POP POP SWAP3 POP SWAP3 SWAP1 POP JUMP JUMPDEST PUSH0 DUP3 DUP3 MSTORE PUSH1 0x20 DUP3 ADD SWAP1 POP SWAP3 SWAP2 POP POP JUMP JUMPDEST PUSH0 PUSH2 0x746 DUP3 PUSH2 0x4FA JUMP JUMPDEST PUSH2 0x750 DUP2 DUP6 PUSH2 0x72C JUMP JUMPDEST SWAP4 POP PUSH2 0x760 DUP2 DUP6 PUSH1 0x20 DUP7 ADD PUSH2 0x514 JUMP JUMPDEST PUSH2 0x769 DUP2 PUSH2 0x522 JUMP JUMPDEST DUP5 ADD SWAP2 POP POP SWAP3 SWAP2 POP POP JUMP JUMPDEST PUSH2 0x77D DUP2 PUSH2 0x425 JUMP JUMPDEST DUP3 MSTORE POP POP JUMP JUMPDEST PUSH0 PUSH1 0x60 DUP4 ADD PUSH0 DUP4 ADD MLOAD DUP5 DUP3 SUB PUSH0 DUP7 ADD MSTORE PUSH2 0x79D DUP3 DUP3 PUSH2 0x73C JUMP JUMPDEST SWAP2 POP POP PUSH1 0x20 DUP4 ADD MLOAD PUSH2 0x7B2 PUSH1 0x20 DUP7 ADD DUP3 PUSH2 0x774 JUMP JUMPDEST POP PUSH1 0x40 DUP4 ADD MLOAD PUSH2 0x7C5 PUSH1 0x40 DUP7 ADD DUP3 PUSH2 0x774 JUMP JUMPDEST POP DUP1 SWAP2 POP POP SWAP3 SWAP2 POP POP JUMP JUMPDEST PUSH0 PUSH1 0x20 DUP3 ADD SWAP1 POP DUP2 DUP2 SUB PUSH0 DUP4 ADD MSTORE PUSH2 0x7E8 DUP2 DUP5 PUSH2 0x783 JUMP JUMPDEST SWAP1 POP SWAP3 SWAP2 POP POP JUMP JUMPDEST PUSH32 0x5365727669636520646F6573206E6F7420657869737400000000000000000000 PUSH0 DUP3 ADD MSTORE POP JUMP JUMPDEST PUSH0 PUSH2 0x824 PUSH1 0x16 DUP4 PUSH2 0x504 JUMP JUMPDEST SWAP2 POP PUSH2 0x82F DUP3 PUSH2 0x7F0 JUMP JUMPDEST PUSH1 0x20 DUP3 ADD SWAP1 POP SWAP2 SWAP1 POP JUMP JUMPDEST PUSH0 PUSH1 0x20 DUP3 ADD SWAP1 POP DUP2 DUP2 SUB PUSH0 DUP4 ADD MSTORE PUSH2 0x851 DUP2 PUSH2 0x818 JUMP JUMPDEST SWAP1 POP SWAP2 SWAP1 POP JUMP JUMPDEST PUSH32 0x4E487B7100000000000000000000000000000000000000000000000000000000 PUSH0 MSTORE PUSH1 0x11 PUSH1 0x4 MSTORE PUSH1 0x24 PUSH0 REVERT JUMPDEST PUSH0 PUSH2 0x88F DUP3 PUSH2 0x425 JUMP JUMPDEST SWAP2 POP PUSH2 0x89A DUP4 PUSH2 0x425 JUMP JUMPDEST SWAP3 POP DUP3 DUP3 ADD SWAP1 POP DUP1 DUP3 GT ISZERO PUSH2 0x8B2 JUMPI PUSH2 0x8B1 PUSH2 0x858 JUMP JUMPDEST JUMPDEST SWAP3 SWAP2 POP POP JUMP JUMPDEST PUSH32 0x4E487B7100000000000000000000000000000000000000000000000000000000 PUSH0 MSTORE PUSH1 0x22 PUSH1 0x4 MSTORE PUSH1 0x24 PUSH0 REVERT JUMPDEST PUSH0 PUSH1 0x2 DUP3 DIV SWAP1 POP PUSH1 0x1 DUP3 AND DUP1 PUSH2 0x8FC JUMPI PUSH1 0x7F DUP3 AND SWAP2 POP JUMPDEST PUSH1 0x20 DUP3 LT DUP2 SUB PUSH2 0x90F JUMPI PUSH2 0x90E PUSH2 0x8B8 JUMP JUMPDEST JUMPDEST POP SWAP2 SWAP1 POP JUMP JUMPDEST PUSH0 DUP2 SWAP1 POP DUP2 PUSH0 MSTORE PUSH1 0x20 PUSH0 KECCAK256 SWAP1 POP SWAP2 SWAP1 POP JUMP JUMPDEST PUSH0 PUSH1 0x20 PUSH1 0x1F DUP4 ADD DIV SWAP1 POP SWAP2 SWAP1 POP JUMP JUMPDEST PUSH0 DUP3 DUP3 SHL SWAP1 POP SWAP3 SWAP2 POP POP JUMP JUMPDEST PUSH0 PUSH1 0x8 DUP4 MUL PUSH2 0x971 PUSH32 0xFFFFFFFFFFFFFFFFFFFFFFFFFFFFFFFFFFFFFFFFFFFFFFFFFFFFFFFFFFFFFFFF DUP3 PUSH2 0x936 JUMP JUMPDEST PUSH2 0x97B DUP7 DUP4 PUSH2 0x936 JUMP JUMPDEST SWAP6 POP DUP1 NOT DUP5 AND SWAP4 POP DUP1 DUP7 AND DUP5 OR SWAP3 POP POP POP SWAP4 SWAP3 POP POP POP JUMP JUMPDEST PUSH0 DUP2 SWAP1 POP SWAP2 SWAP1 POP JUMP JUMPDEST PUSH0 PUSH2 0x9B6 PUSH2 0x9B1 PUSH2 0x9AC DUP5 PUSH2 0x425 JUMP JUMPDEST PUSH2 0x993 JUMP JUMPDEST PUSH2 0x425 JUMP JUMPDEST SWAP1 POP SWAP2 SWAP1 POP JUMP JUMPDEST PUSH0 DUP2 SWAP1 POP SWAP2 SWAP1 POP JUMP JUMPDEST PUSH2 0x9CF DUP4 PUSH2 0x99C JUMP JUMPDEST PUSH2 0x9E3 PUSH2 0x9DB DUP3 PUSH2 0x9BD JUMP JUMPDEST DUP5 DUP5 SLOAD PUSH2 0x942 JUMP JUMPDEST DUP3 SSTORE POP POP POP POP JUMP JUMPDEST PUSH0 SWAP1 JUMP JUMPDEST PUSH2 0x9F7 PUSH2 0x9EB JUMP JUMPDEST PUSH2 0xA02 DUP2 DUP5 DUP5 PUSH2 0x9C6 JUMP JUMPDEST POP POP POP JUMP JUMPDEST JUMPDEST DUP2 DUP2 LT ISZERO PUSH2 0xA25 JUMPI PUSH2 0xA1A PUSH0 DUP3 PUSH2 0x9EF JUMP JUMPDEST PUSH1 0x1 DUP2 ADD SWAP1 POP PUSH2 0xA08 JUMP JUMPDEST POP POP JUMP JUMPDEST PUSH1 0x1F DUP3 GT ISZERO PUSH2 0xA6A JUMPI PUSH2 0xA3B DUP2 PUSH2 0x915 JUMP JUMPDEST PUSH2 0xA44 DUP5 PUSH2 0x927 JUMP JUMPDEST DUP2 ADD PUSH1 0x20 DUP6 LT ISZERO PUSH2 0xA53 JUMPI DUP2 SWAP1 POP JUMPDEST PUSH2 0xA67 PUSH2 0xA5F DUP6 PUSH2 0x927 JUMP JUMPDEST DUP4 ADD DUP3 PUSH2 0xA07 JUMP JUMPDEST POP POP JUMPDEST POP POP POP JUMP JUMPDEST PUSH0 DUP3 DUP3 SHR SWAP1 POP SWAP3 SWAP2 POP POP JUMP JUMPDEST PUSH0 PUSH2 0xA8A PUSH0 NOT DUP5 PUSH1 0x8 MUL PUSH2 0xA6F JUMP JUMPDEST NOT DUP1 DUP4 AND SWAP2 POP POP SWAP3 SWAP2 POP POP JUMP JUMPDEST PUSH0 PUSH2 0xAA2 DUP4 DUP4 PUSH2 0xA7B JUMP JUMPDEST SWAP2 POP DUP3 PUSH1 0x2 MUL DUP3 OR SWAP1 POP SWAP3 SWAP2 POP POP JUMP JUMPDEST PUSH2 0xABB DUP3 PUSH2 0x4FA JUMP JUMPDEST PUSH8 0xFFFFFFFFFFFFFFFF DUP2 GT ISZERO PUSH2 0xAD4 JUMPI PUSH2 0xAD3 PUSH2 0x5AE JUMP JUMPDEST JUMPDEST PUSH2 0xADE DUP3 SLOAD PUSH2 0x8E5 JUMP JUMPDEST PUSH2 0xAE9 DUP3 DUP3 DUP6 PUSH2 0xA29 JUMP JUMPDEST PUSH0 PUSH1 0x20 SWAP1 POP PUSH1 0x1F DUP4 GT PUSH1 0x1 DUP2 EQ PUSH2 0xB1A JUMPI PUSH0 DUP5 ISZERO PUSH2 0xB08 JUMPI DUP3 DUP8 ADD MLOAD SWAP1 POP JUMPDEST PUSH2 0xB12 DUP6 DUP3 PUSH2 0xA97 JUMP JUMPDEST DUP7 SSTORE POP PUSH2 0xB79 JUMP JUMPDEST PUSH1 0x1F NOT DUP5 AND PUSH2 0xB28 DUP7 PUSH2 0x915 JUMP JUMPDEST PUSH0 JUMPDEST DUP3 DUP2 LT ISZERO PUSH2 0xB4F JUMPI DUP5 DUP10 ADD MLOAD DUP3 SSTORE PUSH1 0x1 DUP3 ADD SWAP2 POP PUSH1 0x20 DUP6 ADD SWAP5 POP PUSH1 0x20 DUP2 ADD SWAP1 POP PUSH2 0xB2A JUMP JUMPDEST DUP7 DUP4 LT ISZERO PUSH2 0xB6C JUMPI DUP5 DUP10 ADD MLOAD PUSH2 0xB68 PUSH1 0x1F DUP10 AND DUP3 PUSH2 0xA7B JUMP JUMPDEST DUP4 SSTORE POP JUMPDEST PUSH1 0x1 PUSH1 0x2 DUP9 MUL ADD DUP9 SSTORE POP POP POP JUMPDEST POP POP POP POP POP POP JUMP JUMPDEST PUSH0 PUSH1 0x40 DUP3 ADD SWAP1 POP DUP2 DUP2 SUB PUSH0 DUP4 ADD MSTORE PUSH2 0xB99 DUP2 DUP6 PUSH2 0x532 JUMP JUMPDEST SWAP1 POP PUSH2 0xBA8 PUSH1 0x20 DUP4 ADD DUP5 PUSH2 0x42E JUMP JUMPDEST SWAP4 SWAP3 POP POP POP JUMP JUMPDEST PUSH0 PUSH2 0xBB9 DUP3 PUSH2 0x425 JUMP JUMPDEST SWAP2 POP PUSH32 0xFFFFFFFFFFFFFFFFFFFFFFFFFFFFFFFFFFFFFFFFFFFFFFFFFFFFFFFFFFFFFFFF DUP3 SUB PUSH2 0xBEB JUMPI PUSH2 0xBEA PUSH2 0x858 JUMP JUMPDEST JUMPDEST PUSH1 0x1 DUP3 ADD SWAP1 POP SWAP2 SWAP1 POP JUMP INVALID LOG2 PUSH5 0x6970667358 0x22 SLT KECCAK256 0xC9 0xC DUP2 MCOPY PUSH8 0x176D290CCE165A1E RETURNDATACOPY MLOAD PUSH29 0x66E0554E01577B8E0368B7F114DDBE5E64736F6C634300081A00330000 "
				},
				"gasEstimates": {
					"creation": {
						"codeDepositCost": "623200",
						"executionCost": "655",
						"totalCost": "623855"
					},
					"external": {
						"addService(string,uint256)": "infinite",
						"getService(uint256)": "infinite",
						"getTotalIncome(uint256)": "infinite",
						"recordIncome(uint256,uint256)": "infinite",
						"serviceCount()": "2403",
						"services(uint256)": "infinite"
					}
				},
				"methodIdentifiers": {
					"addService(string,uint256)": "cc1a40b7",
					"getService(uint256)": "ef0e239b",
					"getTotalIncome(uint256)": "66c8707a",
					"recordIncome(uint256,uint256)": "143fa89b",
					"serviceCount()": "06237526",
					"services(uint256)": "c22c4f43"
				}
			},
			"storageLayout": {
				"storage": [
					{
						"astId": 13,
						"contract": "contracts/GroundService.sol:GroundServices",
						"label": "services",
						"offset": 0,
						"slot": "0",
						"type": "t_mapping(t_uint256,t_struct(Service)8_storage)"
					},
					{
						"astId": 15,
						"contract": "contracts/GroundService.sol:GroundServices",
						"label": "serviceCount",
						"offset": 0,
						"slot": "1",
						"type": "t_uint256"
					}
				],
				"types": {
					"t_mapping(t_uint256,t_struct(Service)8_storage)": {
						"encoding": "mapping",
						"key": "t_uint256",
						"label": "mapping(uint256 => struct GroundServices.Service)",
						"numberOfBytes": "32",
						"value": "t_struct(Service)8_storage"
					},
					"t_string_storage": {
						"encoding": "bytes",
						"label": "string",
						"numberOfBytes": "32"
					},
					"t_struct(Service)8_storage": {
						"encoding": "inplace",
						"label": "struct GroundServices.Service",
						"members": [
							{
								"astId": 3,
								"contract": "contracts/GroundService.sol:GroundServices",
								"label": "name",
								"offset": 0,
								"slot": "0",
								"type": "t_string_storage"
							},
							{
								"astId": 5,
								"contract": "contracts/GroundService.sol:GroundServices",
								"label": "price",
								"offset": 0,
								"slot": "1",
								"type": "t_uint256"
							},
							{
								"astId": 7,
								"contract": "contracts/GroundService.sol:GroundServices",
								"label": "totalIncome",
								"offset": 0,
								"slot": "2",
								"type": "t_uint256"
							}
						],
						"numberOfBytes": "96"
					},
					"t_uint256": {
						"encoding": "inplace",
						"label": "uint256",
						"numberOfBytes": "32"
					}
				}
			},
			"userdoc": {
				"kind": "user",
				"methods": {},
				"version": 1
			}
		}
	}
}