{
	"contracts/services/Service.sol": {
		"Service": {
			"abi": [
				{
					"inputs": [
						{
							"internalType": "address",
							"name": "companyRegistryAddress",
							"type": "address"
						}
					],
					"stateMutability": "nonpayable",
					"type": "constructor"
				},
				{
					"anonymous": false,
					"inputs": [
						{
							"indexed": true,
							"internalType": "uint256",
							"name": "orderId",
							"type": "uint256"
						}
					],
					"name": "ServiceCompleted",
					"type": "event"
				},
				{
					"anonymous": false,
					"inputs": [
						{
							"indexed": true,
							"internalType": "uint256",
							"name": "serviceId",
							"type": "uint256"
						},
						{
							"indexed": false,
							"internalType": "string",
							"name": "serviceName",
							"type": "string"
						},
						{
							"indexed": false,
							"internalType": "uint256",
							"name": "price",
							"type": "uint256"
						}
					],
					"name": "ServiceCreated",
					"type": "event"
				},
				{
					"anonymous": false,
					"inputs": [
						{
							"indexed": true,
							"internalType": "uint256",
							"name": "orderId",
							"type": "uint256"
						},
						{
							"indexed": true,
							"internalType": "uint256",
							"name": "serviceId",
							"type": "uint256"
						},
						{
							"indexed": false,
							"internalType": "uint256",
							"name": "companyId",
							"type": "uint256"
						},
						{
							"indexed": false,
							"internalType": "uint256",
							"name": "quantity",
							"type": "uint256"
						},
						{
							"indexed": false,
							"internalType": "uint256",
							"name": "totalPrice",
							"type": "uint256"
						}
					],
					"name": "ServiceOrdered",
					"type": "event"
				},
				{
					"inputs": [
						{
							"internalType": "string",
							"name": "_serviceName",
							"type": "string"
						},
						{
							"internalType": "uint256",
							"name": "_price",
							"type": "uint256"
						}
					],
					"name": "addService",
					"outputs": [],
					"stateMutability": "nonpayable",
					"type": "function"
				},
				{
					"inputs": [],
					"name": "companyRegistry",
					"outputs": [
						{
							"internalType": "contract CompanyRegistry",
							"name": "",
							"type": "address"
						}
					],
					"stateMutability": "view",
					"type": "function"
				},
				{
					"inputs": [
						{
							"internalType": "uint256",
							"name": "_orderId",
							"type": "uint256"
						}
					],
					"name": "completeService",
					"outputs": [],
					"stateMutability": "nonpayable",
					"type": "function"
				},
				{
					"inputs": [
						{
							"internalType": "uint256",
							"name": "_serviceId",
							"type": "uint256"
						}
					],
					"name": "deactivateService",
					"outputs": [],
					"stateMutability": "nonpayable",
					"type": "function"
				},
				{
					"inputs": [
						{
							"internalType": "uint256",
							"name": "_orderId",
							"type": "uint256"
						}
					],
					"name": "getOrder",
					"outputs": [
						{
							"internalType": "uint256",
							"name": "",
							"type": "uint256"
						},
						{
							"internalType": "uint256",
							"name": "",
							"type": "uint256"
						},
						{
							"internalType": "uint256",
							"name": "",
							"type": "uint256"
						},
						{
							"internalType": "uint256",
							"name": "",
							"type": "uint256"
						},
						{
							"internalType": "bool",
							"name": "",
							"type": "bool"
						}
					],
					"stateMutability": "view",
					"type": "function"
				},
				{
					"inputs": [
						{
							"internalType": "uint256",
							"name": "_serviceId",
							"type": "uint256"
						}
					],
					"name": "getService",
					"outputs": [
						{
							"internalType": "string",
							"name": "",
							"type": "string"
						},
						{
							"internalType": "uint256",
							"name": "",
							"type": "uint256"
						},
						{
							"internalType": "bool",
							"name": "",
							"type": "bool"
						}
					],
					"stateMutability": "view",
					"type": "function"
				},
				{
					"inputs": [
						{
							"internalType": "uint256",
							"name": "_companyId",
							"type": "uint256"
						},
						{
							"internalType": "uint256",
							"name": "_serviceId",
							"type": "uint256"
						},
						{
							"internalType": "uint256",
							"name": "_quantity",
							"type": "uint256"
						}
					],
					"name": "orderService",
					"outputs": [],
					"stateMutability": "nonpayable",
					"type": "function"
				},
				{
					"inputs": [],
					"name": "owner",
					"outputs": [
						{
							"internalType": "address",
							"name": "",
							"type": "address"
						}
					],
					"stateMutability": "view",
					"type": "function"
				},
				{
					"inputs": [],
					"name": "serviceCount",
					"outputs": [
						{
							"internalType": "uint256",
							"name": "",
							"type": "uint256"
						}
					],
					"stateMutability": "view",
					"type": "function"
				},
				{
					"inputs": [],
					"name": "serviceOrderCount",
					"outputs": [
						{
							"internalType": "uint256",
							"name": "",
							"type": "uint256"
						}
					],
					"stateMutability": "view",
					"type": "function"
				},
				{
					"inputs": [
						{
							"internalType": "uint256",
							"name": "",
							"type": "uint256"
						}
					],
					"name": "serviceOrders",
					"outputs": [
						{
							"internalType": "uint256",
							"name": "serviceId",
							"type": "uint256"
						},
						{
							"internalType": "uint256",
							"name": "companyId",
							"type": "uint256"
						},
						{
							"internalType": "uint256",
							"name": "quantity",
							"type": "uint256"
						},
						{
							"internalType": "uint256",
							"name": "totalPrice",
							"type": "uint256"
						},
						{
							"internalType": "bool",
							"name": "isCompleted",
							"type": "bool"
						}
					],
					"stateMutability": "view",
					"type": "function"
				},
				{
					"inputs": [
						{
							"internalType": "uint256",
							"name": "",
							"type": "uint256"
						}
					],
					"name": "services",
					"outputs": [
						{
							"internalType": "string",
							"name": "serviceName",
							"type": "string"
						},
						{
							"internalType": "uint256",
							"name": "price",
							"type": "uint256"
						},
						{
							"internalType": "bool",
							"name": "isActive",
							"type": "bool"
						}
					],
					"stateMutability": "view",
					"type": "function"
				},
				{
					"inputs": [
						{
							"internalType": "uint256",
							"name": "_serviceId",
							"type": "uint256"
						},
						{
							"internalType": "uint256",
							"name": "_newPrice",
							"type": "uint256"
						}
					],
					"name": "updateServicePrice",
					"outputs": [],
					"stateMutability": "nonpayable",
					"type": "function"
				}
			],
			"devdoc": {
				"kind": "dev",
				"methods": {},
				"version": 1
			},
			"evm": {
				"assembly": "    /* \"contracts/services/Service.sol\":101:5521  contract Service {... */\n  mstore(0x40, 0x80)\n    /* \"contracts/services/Service.sol\":2535:2785  constructor(address companyRegistryAddress) {... */\n  callvalue\n  dup1\n  iszero\n  tag_1\n  jumpi\n  0x00\n  dup1\n  revert\ntag_1:\n  pop\n  mload(0x40)\n  sub(codesize, bytecodeSize)\n  dup1\n  bytecodeSize\n  dup4\n  codecopy\n  dup2\n  dup2\n  add\n  0x40\n  mstore\n  dup2\n  add\n  swap1\n  tag_2\n  swap2\n  swap1\n  tag_3\n  jump\t// in\ntag_2:\n    /* \"contracts/services/Service.sol\":2597:2607  msg.sender */\n  caller\n    /* \"contracts/services/Service.sol\":2589:2594  owner */\n  0x04\n  0x00\n    /* \"contracts/services/Service.sol\":2589:2607  owner = msg.sender */\n  0x0100\n  exp\n  dup2\n  sload\n  dup2\n  0xffffffffffffffffffffffffffffffffffffffff\n  mul\n  not\n  and\n  swap1\n  dup4\n  0xffffffffffffffffffffffffffffffffffffffff\n  and\n  mul\n  or\n  swap1\n  sstore\n  pop\n    /* \"contracts/services/Service.sol\":2690:2712  companyRegistryAddress */\n  dup1\n    /* \"contracts/services/Service.sol\":2656:2671  companyRegistry */\n  0x05\n  0x00\n    /* \"contracts/services/Service.sol\":2656:2713  companyRegistry = CompanyRegistry(companyRegistryAddress) */\n  0x0100\n  exp\n  dup2\n  sload\n  dup2\n  0xffffffffffffffffffffffffffffffffffffffff\n  mul\n  not\n  and\n  swap1\n  dup4\n  0xffffffffffffffffffffffffffffffffffffffff\n  and\n  mul\n  or\n  swap1\n  sstore\n  pop\n    /* \"contracts/services/Service.sol\":2535:2785  constructor(address companyRegistryAddress) {... */\n  pop\n    /* \"contracts/services/Service.sol\":101:5521  contract Service {... */\n  jump(tag_6)\n    /* \"#utility.yul\":88:205   */\ntag_8:\n    /* \"#utility.yul\":197:198   */\n  0x00\n    /* \"#utility.yul\":194:195   */\n  dup1\n    /* \"#utility.yul\":187:199   */\n  revert\n    /* \"#utility.yul\":334:460   */\ntag_10:\n    /* \"#utility.yul\":371:378   */\n  0x00\n    /* \"#utility.yul\":411:453   */\n  0xffffffffffffffffffffffffffffffffffffffff\n    /* \"#utility.yul\":404:409   */\n  dup3\n    /* \"#utility.yul\":400:454   */\n  and\n    /* \"#utility.yul\":389:454   */\n  swap1\n  pop\n    /* \"#utility.yul\":334:460   */\n  swap2\n  swap1\n  pop\n  jump\t// out\n    /* \"#utility.yul\":466:562   */\ntag_11:\n    /* \"#utility.yul\":503:510   */\n  0x00\n    /* \"#utility.yul\":532:556   */\n  tag_20\n    /* \"#utility.yul\":550:555   */\n  dup3\n    /* \"#utility.yul\":532:556   */\n  tag_10\n  jump\t// in\ntag_20:\n    /* \"#utility.yul\":521:556   */\n  swap1\n  pop\n    /* \"#utility.yul\":466:562   */\n  swap2\n  swap1\n  pop\n  jump\t// out\n    /* \"#utility.yul\":568:690   */\ntag_12:\n    /* \"#utility.yul\":641:665   */\n  tag_22\n    /* \"#utility.yul\":659:664   */\n  dup2\n    /* \"#utility.yul\":641:665   */\n  tag_11\n  jump\t// in\ntag_22:\n    /* \"#utility.yul\":634:639   */\n  dup2\n    /* \"#utility.yul\":631:666   */\n  eq\n    /* \"#utility.yul\":621:684   */\n  tag_23\n  jumpi\n    /* \"#utility.yul\":680:681   */\n  0x00\n    /* \"#utility.yul\":677:678   */\n  dup1\n    /* \"#utility.yul\":670:682   */\n  revert\n    /* \"#utility.yul\":621:684   */\ntag_23:\n    /* \"#utility.yul\":568:690   */\n  pop\n  jump\t// out\n    /* \"#utility.yul\":696:839   */\ntag_13:\n    /* \"#utility.yul\":753:758   */\n  0x00\n    /* \"#utility.yul\":784:790   */\n  dup2\n    /* \"#utility.yul\":778:791   */\n  mload\n    /* \"#utility.yul\":769:791   */\n  swap1\n  pop\n    /* \"#utility.yul\":800:833   */\n  tag_25\n    /* \"#utility.yul\":827:832   */\n  dup2\n    /* \"#utility.yul\":800:833   */\n  tag_12\n  jump\t// in\ntag_25:\n    /* \"#utility.yul\":696:839   */\n  swap3\n  swap2\n  pop\n  pop\n  jump\t// out\n    /* \"#utility.yul\":845:1196   */\ntag_3:\n    /* \"#utility.yul\":915:921   */\n  0x00\n    /* \"#utility.yul\":964:966   */\n  0x20\n    /* \"#utility.yul\":952:961   */\n  dup3\n    /* \"#utility.yul\":943:950   */\n  dup5\n    /* \"#utility.yul\":939:962   */\n  sub\n    /* \"#utility.yul\":935:967   */\n  slt\n    /* \"#utility.yul\":932:1051   */\n  iszero\n  tag_27\n  jumpi\n    /* \"#utility.yul\":970:1049   */\n  tag_28\n  tag_8\n  jump\t// in\ntag_28:\n    /* \"#utility.yul\":932:1051   */\ntag_27:\n    /* \"#utility.yul\":1090:1091   */\n  0x00\n    /* \"#utility.yul\":1115:1179   */\n  tag_29\n    /* \"#utility.yul\":1171:1178   */\n  dup5\n    /* \"#utility.yul\":1162:1168   */\n  dup3\n    /* \"#utility.yul\":1151:1160   */\n  dup6\n    /* \"#utility.yul\":1147:1169   */\n  add\n    /* \"#utility.yul\":1115:1179   */\n  tag_13\n  jump\t// in\ntag_29:\n    /* \"#utility.yul\":1105:1179   */\n  swap2\n  pop\n    /* \"#utility.yul\":1061:1189   */\n  pop\n    /* \"#utility.yul\":845:1196   */\n  swap3\n  swap2\n  pop\n  pop\n  jump\t// out\n    /* \"contracts/services/Service.sol\":101:5521  contract Service {... */\ntag_6:\n  dataSize(sub_0)\n  dup1\n  dataOffset(sub_0)\n  0x00\n  codecopy\n  0x00\n  return\nstop\n\nsub_0: assembly {\n        /* \"contracts/services/Service.sol\":101:5521  contract Service {... */\n      mstore(0x40, 0x80)\n      callvalue\n      dup1\n      iszero\n      tag_1\n      jumpi\n      0x00\n      dup1\n      revert\n    tag_1:\n      pop\n      jumpi(tag_2, lt(calldatasize, 0x04))\n      shr(0xe0, calldataload(0x00))\n      dup1\n      0xc22c4f43\n      gt\n      tag_16\n      jumpi\n      dup1\n      0xd09ef241\n      gt\n      tag_17\n      jumpi\n      dup1\n      0xd09ef241\n      eq\n      tag_12\n      jumpi\n      dup1\n      0xec9c3212\n      eq\n      tag_13\n      jumpi\n      dup1\n      0xef0e239b\n      eq\n      tag_14\n      jumpi\n      dup1\n      0xf19faf0e\n      eq\n      tag_15\n      jumpi\n      jump(tag_2)\n    tag_17:\n      dup1\n      0xc22c4f43\n      eq\n      tag_9\n      jumpi\n      dup1\n      0xc51aba2b\n      eq\n      tag_10\n      jumpi\n      dup1\n      0xcc1a40b7\n      eq\n      tag_11\n      jumpi\n      jump(tag_2)\n    tag_16:\n      dup1\n      0x06237526\n      eq\n      tag_3\n      jumpi\n      dup1\n      0x2f3ccebd\n      eq\n      tag_4\n      jumpi\n      dup1\n      0x8da5cb5b\n      eq\n      tag_5\n      jumpi\n      dup1\n      0x9fd80934\n      eq\n      tag_6\n      jumpi\n      dup1\n      0xab310fd2\n      eq\n      tag_7\n      jumpi\n      dup1\n      0xb7109dbd\n      eq\n      tag_8\n      jumpi\n    tag_2:\n      0x00\n      dup1\n      revert\n        /* \"contracts/services/Service.sol\":1368:1395  uint256 public serviceCount */\n    tag_3:\n      tag_18\n      tag_19\n      jump\t// in\n    tag_18:\n      mload(0x40)\n      tag_20\n      swap2\n      swap1\n      tag_21\n      jump\t// in\n    tag_20:\n      mload(0x40)\n      dup1\n      swap2\n      sub\n      swap1\n      return\n        /* \"contracts/services/Service.sol\":4509:4759  function completeService(uint256 _orderId) public onlyOwner {... */\n    tag_4:\n      tag_22\n      0x04\n      dup1\n      calldatasize\n      sub\n      dup2\n      add\n      swap1\n      tag_23\n      swap2\n      swap1\n      tag_24\n      jump\t// in\n    tag_23:\n      tag_25\n      jump\t// in\n    tag_22:\n      stop\n        /* \"contracts/services/Service.sol\":1525:1545  address public owner */\n    tag_5:\n      tag_26\n      tag_27\n      jump\t// in\n    tag_26:\n      mload(0x40)\n      tag_28\n      swap2\n      swap1\n      tag_29\n      jump\t// in\n    tag_28:\n      mload(0x40)\n      dup1\n      swap2\n      sub\n      swap1\n      return\n        /* \"contracts/services/Service.sol\":3284:3496  function updateServicePrice(uint256 _serviceId, uint256 _newPrice) public onlyOwner {... */\n    tag_6:\n      tag_30\n      0x04\n      dup1\n      calldatasize\n      sub\n      dup2\n      add\n      swap1\n      tag_31\n      swap2\n      swap1\n      tag_32\n      jump\t// in\n    tag_31:\n      tag_33\n      jump\t// in\n    tag_30:\n      stop\n        /* \"contracts/services/Service.sol\":1401:1433  uint256 public serviceOrderCount */\n    tag_7:\n      tag_34\n      tag_35\n      jump\t// in\n    tag_34:\n      mload(0x40)\n      tag_36\n      swap2\n      swap1\n      tag_21\n      jump\t// in\n    tag_36:\n      mload(0x40)\n      dup1\n      swap2\n      sub\n      swap1\n      return\n        /* \"contracts/services/Service.sol\":3763:4419  function orderService(uint256 _companyId, uint256 _serviceId, uint256 _quantity)... */\n    tag_8:\n      tag_37\n      0x04\n      dup1\n      calldatasize\n      sub\n      dup2\n      add\n      swap1\n      tag_38\n      swap2\n      swap1\n      tag_39\n      jump\t// in\n    tag_38:\n      tag_40\n      jump\t// in\n    tag_37:\n      stop\n        /* \"contracts/services/Service.sol\":1104:1151  mapping(uint256 => ServiceType) public services */\n    tag_9:\n      tag_41\n      0x04\n      dup1\n      calldatasize\n      sub\n      dup2\n      add\n      swap1\n      tag_42\n      swap2\n      swap1\n      tag_24\n      jump\t// in\n    tag_42:\n      tag_43\n      jump\t// in\n    tag_41:\n      mload(0x40)\n      tag_44\n      swap4\n      swap3\n      swap2\n      swap1\n      tag_45\n      jump\t// in\n    tag_44:\n      mload(0x40)\n      dup1\n      swap2\n      sub\n      swap1\n      return\n        /* \"contracts/services/Service.sol\":1925:1963  CompanyRegistry public companyRegistry */\n    tag_10:\n      tag_46\n      tag_47\n      jump\t// in\n    tag_46:\n      mload(0x40)\n      tag_48\n      swap2\n      swap1\n      tag_49\n      jump\t// in\n    tag_48:\n      mload(0x40)\n      dup1\n      swap2\n      sub\n      swap1\n      return\n        /* \"contracts/services/Service.sol\":2876:3206  function addService(string memory _serviceName, uint256 _price) public onlyOwner {... */\n    tag_11:\n      tag_50\n      0x04\n      dup1\n      calldatasize\n      sub\n      dup2\n      add\n      swap1\n      tag_51\n      swap2\n      swap1\n      tag_52\n      jump\t// in\n    tag_51:\n      tag_53\n      jump\t// in\n    tag_50:\n      stop\n        /* \"contracts/services/Service.sol\":4850:5191  function getOrder(uint256 _orderId) public view returns (uint256, uint256, uint256, uint256, bool) {... */\n    tag_12:\n      tag_54\n      0x04\n      dup1\n      calldatasize\n      sub\n      dup2\n      add\n      swap1\n      tag_55\n      swap2\n      swap1\n      tag_24\n      jump\t// in\n    tag_55:\n      tag_56\n      jump\t// in\n    tag_54:\n      mload(0x40)\n      tag_57\n      swap6\n      swap5\n      swap4\n      swap3\n      swap2\n      swap1\n      tag_58\n      jump\t// in\n    tag_57:\n      mload(0x40)\n      dup1\n      swap2\n      sub\n      swap1\n      return\n        /* \"contracts/services/Service.sol\":3565:3683  function deactivateService(uint256 _serviceId) public onlyOwner {... */\n    tag_13:\n      tag_59\n      0x04\n      dup1\n      calldatasize\n      sub\n      dup2\n      add\n      swap1\n      tag_60\n      swap2\n      swap1\n      tag_24\n      jump\t// in\n    tag_60:\n      tag_61\n      jump\t// in\n    tag_59:\n      stop\n        /* \"contracts/services/Service.sol\":5291:5519  function getService(uint256 _serviceId) public view returns (string memory, uint256, bool) {... */\n    tag_14:\n      tag_62\n      0x04\n      dup1\n      calldatasize\n      sub\n      dup2\n      add\n      swap1\n      tag_63\n      swap2\n      swap1\n      tag_24\n      jump\t// in\n    tag_63:\n      tag_64\n      jump\t// in\n    tag_62:\n      mload(0x40)\n      tag_65\n      swap4\n      swap3\n      swap2\n      swap1\n      tag_45\n      jump\t// in\n    tag_65:\n      mload(0x40)\n      dup1\n      swap2\n      sub\n      swap1\n      return\n        /* \"contracts/services/Service.sol\":1241:1294  mapping(uint256 => ServiceOrder) public serviceOrders */\n    tag_15:\n      tag_66\n      0x04\n      dup1\n      calldatasize\n      sub\n      dup2\n      add\n      swap1\n      tag_67\n      swap2\n      swap1\n      tag_24\n      jump\t// in\n    tag_67:\n      tag_68\n      jump\t// in\n    tag_66:\n      mload(0x40)\n      tag_69\n      swap6\n      swap5\n      swap4\n      swap3\n      swap2\n      swap1\n      tag_58\n      jump\t// in\n    tag_69:\n      mload(0x40)\n      dup1\n      swap2\n      sub\n      swap1\n      return\n        /* \"contracts/services/Service.sol\":1368:1395  uint256 public serviceCount */\n    tag_19:\n      sload(0x02)\n      dup2\n      jump\t// out\n        /* \"contracts/services/Service.sol\":4509:4759  function completeService(uint256 _orderId) public onlyOwner {... */\n    tag_25:\n        /* \"contracts/services/Service.sol\":2124:2129  owner */\n      0x04\n      0x00\n      swap1\n      sload\n      swap1\n      0x0100\n      exp\n      swap1\n      div\n      0xffffffffffffffffffffffffffffffffffffffff\n      and\n        /* \"contracts/services/Service.sol\":2110:2129  msg.sender == owner */\n      0xffffffffffffffffffffffffffffffffffffffff\n      and\n        /* \"contracts/services/Service.sol\":2110:2120  msg.sender */\n      caller\n        /* \"contracts/services/Service.sol\":2110:2129  msg.sender == owner */\n      0xffffffffffffffffffffffffffffffffffffffff\n      and\n      eq\n        /* \"contracts/services/Service.sol\":2102:2172  require(msg.sender == owner, \"Only the owner can perform this action\") */\n      tag_71\n      jumpi\n      mload(0x40)\n      0x08c379a000000000000000000000000000000000000000000000000000000000\n      dup2\n      mstore\n      0x04\n      add\n      tag_72\n      swap1\n      tag_73\n      jump\t// in\n    tag_72:\n      mload(0x40)\n      dup1\n      swap2\n      sub\n      swap1\n      revert\n    tag_71:\n        /* \"contracts/services/Service.sol\":4588:4601  serviceOrders */\n      0x01\n        /* \"contracts/services/Service.sol\":4588:4611  serviceOrders[_orderId] */\n      0x00\n        /* \"contracts/services/Service.sol\":4602:4610  _orderId */\n      dup3\n        /* \"contracts/services/Service.sol\":4588:4611  serviceOrders[_orderId] */\n      dup2\n      mstore\n      0x20\n      add\n      swap1\n      dup2\n      mstore\n      0x20\n      add\n      0x00\n      keccak256\n        /* \"contracts/services/Service.sol\":4588:4623  serviceOrders[_orderId].isCompleted */\n      0x04\n      add\n      0x00\n      swap1\n      sload\n      swap1\n      0x0100\n      exp\n      swap1\n      div\n      0xff\n      and\n        /* \"contracts/services/Service.sol\":4587:4623  !serviceOrders[_orderId].isCompleted */\n      iszero\n        /* \"contracts/services/Service.sol\":4579:4659  require(!serviceOrders[_orderId].isCompleted, \"Service order already completed\") */\n      tag_75\n      jumpi\n      mload(0x40)\n      0x08c379a000000000000000000000000000000000000000000000000000000000\n      dup2\n      mstore\n      0x04\n      add\n      tag_76\n      swap1\n      tag_77\n      jump\t// in\n    tag_76:\n      mload(0x40)\n      dup1\n      swap2\n      sub\n      swap1\n      revert\n    tag_75:\n        /* \"contracts/services/Service.sol\":4707:4711  true */\n      0x01\n        /* \"contracts/services/Service.sol\":4669:4682  serviceOrders */\n      dup1\n        /* \"contracts/services/Service.sol\":4669:4692  serviceOrders[_orderId] */\n      0x00\n        /* \"contracts/services/Service.sol\":4683:4691  _orderId */\n      dup4\n        /* \"contracts/services/Service.sol\":4669:4692  serviceOrders[_orderId] */\n      dup2\n      mstore\n      0x20\n      add\n      swap1\n      dup2\n      mstore\n      0x20\n      add\n      0x00\n      keccak256\n        /* \"contracts/services/Service.sol\":4669:4704  serviceOrders[_orderId].isCompleted */\n      0x04\n      add\n      0x00\n        /* \"contracts/services/Service.sol\":4669:4711  serviceOrders[_orderId].isCompleted = true */\n      0x0100\n      exp\n      dup2\n      sload\n      dup2\n      0xff\n      mul\n      not\n      and\n      swap1\n      dup4\n      iszero\n      iszero\n      mul\n      or\n      swap1\n      sstore\n      pop\n        /* \"contracts/services/Service.sol\":4743:4751  _orderId */\n      dup1\n        /* \"contracts/services/Service.sol\":4726:4752  ServiceCompleted(_orderId) */\n      0x1f67d03cb2fcad5608054854c5acce0db47379a9e6a8cb0439581b939a10a90e\n      mload(0x40)\n      mload(0x40)\n      dup1\n      swap2\n      sub\n      swap1\n      log2\n        /* \"contracts/services/Service.sol\":4509:4759  function completeService(uint256 _orderId) public onlyOwner {... */\n      pop\n      jump\t// out\n        /* \"contracts/services/Service.sol\":1525:1545  address public owner */\n    tag_27:\n      0x04\n      0x00\n      swap1\n      sload\n      swap1\n      0x0100\n      exp\n      swap1\n      div\n      0xffffffffffffffffffffffffffffffffffffffff\n      and\n      dup2\n      jump\t// out\n        /* \"contracts/services/Service.sol\":3284:3496  function updateServicePrice(uint256 _serviceId, uint256 _newPrice) public onlyOwner {... */\n    tag_33:\n        /* \"contracts/services/Service.sol\":2124:2129  owner */\n      0x04\n      0x00\n      swap1\n      sload\n      swap1\n      0x0100\n      exp\n      swap1\n      div\n      0xffffffffffffffffffffffffffffffffffffffff\n      and\n        /* \"contracts/services/Service.sol\":2110:2129  msg.sender == owner */\n      0xffffffffffffffffffffffffffffffffffffffff\n      and\n        /* \"contracts/services/Service.sol\":2110:2120  msg.sender */\n      caller\n        /* \"contracts/services/Service.sol\":2110:2129  msg.sender == owner */\n      0xffffffffffffffffffffffffffffffffffffffff\n      and\n      eq\n        /* \"contracts/services/Service.sol\":2102:2172  require(msg.sender == owner, \"Only the owner can perform this action\") */\n      tag_79\n      jumpi\n      mload(0x40)\n      0x08c379a000000000000000000000000000000000000000000000000000000000\n      dup2\n      mstore\n      0x04\n      add\n      tag_80\n      swap1\n      tag_73\n      jump\t// in\n    tag_80:\n      mload(0x40)\n      dup1\n      swap2\n      sub\n      swap1\n      revert\n    tag_79:\n        /* \"contracts/services/Service.sol\":3386:3394  services */\n      0x00\n        /* \"contracts/services/Service.sol\":3386:3406  services[_serviceId] */\n      dup1\n        /* \"contracts/services/Service.sol\":3395:3405  _serviceId */\n      dup4\n        /* \"contracts/services/Service.sol\":3386:3406  services[_serviceId] */\n      dup2\n      mstore\n      0x20\n      add\n      swap1\n      dup2\n      mstore\n      0x20\n      add\n      0x00\n      keccak256\n        /* \"contracts/services/Service.sol\":3386:3415  services[_serviceId].isActive */\n      0x02\n      add\n      0x00\n      swap1\n      sload\n      swap1\n      0x0100\n      exp\n      swap1\n      div\n      0xff\n      and\n        /* \"contracts/services/Service.sol\":3378:3441  require(services[_serviceId].isActive, \"Service is not active\") */\n      tag_82\n      jumpi\n      mload(0x40)\n      0x08c379a000000000000000000000000000000000000000000000000000000000\n      dup2\n      mstore\n      0x04\n      add\n      tag_83\n      swap1\n      tag_84\n      jump\t// in\n    tag_83:\n      mload(0x40)\n      dup1\n      swap2\n      sub\n      swap1\n      revert\n    tag_82:\n        /* \"contracts/services/Service.sol\":3480:3489  _newPrice */\n      dup1\n        /* \"contracts/services/Service.sol\":3451:3459  services */\n      0x00\n        /* \"contracts/services/Service.sol\":3451:3471  services[_serviceId] */\n      dup1\n        /* \"contracts/services/Service.sol\":3460:3470  _serviceId */\n      dup5\n        /* \"contracts/services/Service.sol\":3451:3471  services[_serviceId] */\n      dup2\n      mstore\n      0x20\n      add\n      swap1\n      dup2\n      mstore\n      0x20\n      add\n      0x00\n      keccak256\n        /* \"contracts/services/Service.sol\":3451:3477  services[_serviceId].price */\n      0x01\n      add\n        /* \"contracts/services/Service.sol\":3451:3489  services[_serviceId].price = _newPrice */\n      dup2\n      swap1\n      sstore\n      pop\n        /* \"contracts/services/Service.sol\":3284:3496  function updateServicePrice(uint256 _serviceId, uint256 _newPrice) public onlyOwner {... */\n      pop\n      pop\n      jump\t// out\n        /* \"contracts/services/Service.sol\":1401:1433  uint256 public serviceOrderCount */\n    tag_35:\n      sload(0x03)\n      dup2\n      jump\t// out\n        /* \"contracts/services/Service.sol\":3763:4419  function orderService(uint256 _companyId, uint256 _serviceId, uint256 _quantity)... */\n    tag_40:\n        /* \"contracts/services/Service.sol\":3887:3897  _companyId */\n      dup3\n        /* \"contracts/services/Service.sol\":2359:2372  bool isActive */\n      0x00\n        /* \"contracts/services/Service.sol\":2376:2391  companyRegistry */\n      0x05\n      0x00\n      swap1\n      sload\n      swap1\n      0x0100\n      exp\n      swap1\n      div\n      0xffffffffffffffffffffffffffffffffffffffff\n      and\n        /* \"contracts/services/Service.sol\":2376:2402  companyRegistry.getCompany */\n      0xffffffffffffffffffffffffffffffffffffffff\n      and\n      0x57d13917\n        /* \"contracts/services/Service.sol\":2403:2412  companyId */\n      dup4\n        /* \"contracts/services/Service.sol\":2376:2413  companyRegistry.getCompany(companyId) */\n      mload(0x40)\n      dup3\n      0xffffffff\n      and\n      0xe0\n      shl\n      dup2\n      mstore\n      0x04\n      add\n      tag_86\n      swap2\n      swap1\n      tag_21\n      jump\t// in\n    tag_86:\n      0x00\n      mload(0x40)\n      dup1\n      dup4\n      sub\n      dup2\n      dup7\n      gas\n      staticcall\n      iszero\n      dup1\n      iszero\n      tag_88\n      jumpi\n      returndatasize\n      0x00\n      dup1\n      returndatacopy\n      revert(0x00, returndatasize)\n    tag_88:\n      pop\n      pop\n      pop\n      pop\n      mload(0x40)\n      returndatasize\n      0x00\n      dup3\n      returndatacopy\n      returndatasize\n      not(0x1f)\n      0x1f\n      dup3\n      add\n      and\n      dup3\n      add\n      dup1\n      0x40\n      mstore\n      pop\n      dup2\n      add\n      swap1\n      tag_89\n      swap2\n      swap1\n      tag_90\n      jump\t// in\n    tag_89:\n        /* \"contracts/services/Service.sol\":2352:2413  (, , , bool isActive) = companyRegistry.getCompany(companyId) */\n      swap4\n      pop\n      pop\n      pop\n      pop\n        /* \"contracts/services/Service.sol\":2431:2439  isActive */\n      dup1\n        /* \"contracts/services/Service.sol\":2423:2481  require(isActive, \"Company does not exist or is inactive\") */\n      tag_91\n      jumpi\n      mload(0x40)\n      0x08c379a000000000000000000000000000000000000000000000000000000000\n      dup2\n      mstore\n      0x04\n      add\n      tag_92\n      swap1\n      tag_93\n      jump\t// in\n    tag_92:\n      mload(0x40)\n      dup1\n      swap2\n      sub\n      swap1\n      revert\n    tag_91:\n        /* \"contracts/services/Service.sol\":3921:3929  services */\n      0x00\n        /* \"contracts/services/Service.sol\":3921:3941  services[_serviceId] */\n      dup1\n        /* \"contracts/services/Service.sol\":3930:3940  _serviceId */\n      dup6\n        /* \"contracts/services/Service.sol\":3921:3941  services[_serviceId] */\n      dup2\n      mstore\n      0x20\n      add\n      swap1\n      dup2\n      mstore\n      0x20\n      add\n      0x00\n      keccak256\n        /* \"contracts/services/Service.sol\":3921:3950  services[_serviceId].isActive */\n      0x02\n      add\n      0x00\n      swap1\n      sload\n      swap1\n      0x0100\n      exp\n      swap1\n      div\n      0xff\n      and\n        /* \"contracts/services/Service.sol\":3913:3976  require(services[_serviceId].isActive, \"Service is not active\") */\n      tag_95\n      jumpi\n      mload(0x40)\n      0x08c379a000000000000000000000000000000000000000000000000000000000\n      dup2\n      mstore\n      0x04\n      add\n      tag_96\n      swap1\n      tag_84\n      jump\t// in\n    tag_96:\n      mload(0x40)\n      dup1\n      swap2\n      sub\n      swap1\n      revert\n    tag_95:\n        /* \"contracts/services/Service.sol\":3987:4004  serviceOrderCount */\n      0x03\n      0x00\n        /* \"contracts/services/Service.sol\":3987:4006  serviceOrderCount++ */\n      dup2\n      sload\n      dup1\n      swap3\n      swap2\n      swap1\n      tag_97\n      swap1\n      tag_98\n      jump\t// in\n    tag_97:\n      swap2\n      swap1\n      pop\n      sstore\n      pop\n        /* \"contracts/services/Service.sol\":4016:4034  uint256 totalPrice */\n      0x00\n        /* \"contracts/services/Service.sol\":4066:4075  _quantity */\n      dup4\n        /* \"contracts/services/Service.sol\":4037:4045  services */\n      0x00\n        /* \"contracts/services/Service.sol\":4037:4057  services[_serviceId] */\n      dup1\n        /* \"contracts/services/Service.sol\":4046:4056  _serviceId */\n      dup8\n        /* \"contracts/services/Service.sol\":4037:4057  services[_serviceId] */\n      dup2\n      mstore\n      0x20\n      add\n      swap1\n      dup2\n      mstore\n      0x20\n      add\n      0x00\n      keccak256\n        /* \"contracts/services/Service.sol\":4037:4063  services[_serviceId].price */\n      0x01\n      add\n      sload\n        /* \"contracts/services/Service.sol\":4037:4075  services[_serviceId].price * _quantity */\n      tag_99\n      swap2\n      swap1\n      tag_100\n      jump\t// in\n    tag_99:\n        /* \"contracts/services/Service.sol\":4016:4075  uint256 totalPrice = services[_serviceId].price * _quantity */\n      swap1\n      pop\n        /* \"contracts/services/Service.sol\":4121:4316  ServiceOrder({... */\n      mload(0x40)\n      dup1\n      0xa0\n      add\n      0x40\n      mstore\n      dup1\n        /* \"contracts/services/Service.sol\":4159:4169  _serviceId */\n      dup7\n        /* \"contracts/services/Service.sol\":4121:4316  ServiceOrder({... */\n      dup2\n      mstore\n      0x20\n      add\n        /* \"contracts/services/Service.sol\":4194:4204  _companyId */\n      dup8\n        /* \"contracts/services/Service.sol\":4121:4316  ServiceOrder({... */\n      dup2\n      mstore\n      0x20\n      add\n        /* \"contracts/services/Service.sol\":4228:4237  _quantity */\n      dup6\n        /* \"contracts/services/Service.sol\":4121:4316  ServiceOrder({... */\n      dup2\n      mstore\n      0x20\n      add\n        /* \"contracts/services/Service.sol\":4263:4273  totalPrice */\n      dup3\n        /* \"contracts/services/Service.sol\":4121:4316  ServiceOrder({... */\n      dup2\n      mstore\n      0x20\n      add\n        /* \"contracts/services/Service.sol\":4300:4305  false */\n      0x00\n        /* \"contracts/services/Service.sol\":4121:4316  ServiceOrder({... */\n      iszero\n      iszero\n      dup2\n      mstore\n      pop\n        /* \"contracts/services/Service.sol\":4086:4099  serviceOrders */\n      0x01\n        /* \"contracts/services/Service.sol\":4086:4118  serviceOrders[serviceOrderCount] */\n      0x00\n        /* \"contracts/services/Service.sol\":4100:4117  serviceOrderCount */\n      sload(0x03)\n        /* \"contracts/services/Service.sol\":4086:4118  serviceOrders[serviceOrderCount] */\n      dup2\n      mstore\n      0x20\n      add\n      swap1\n      dup2\n      mstore\n      0x20\n      add\n      0x00\n      keccak256\n        /* \"contracts/services/Service.sol\":4086:4316  serviceOrders[serviceOrderCount] = ServiceOrder({... */\n      0x00\n      dup3\n      add\n      mload\n      dup2\n      0x00\n      add\n      sstore\n      0x20\n      dup3\n      add\n      mload\n      dup2\n      0x01\n      add\n      sstore\n      0x40\n      dup3\n      add\n      mload\n      dup2\n      0x02\n      add\n      sstore\n      0x60\n      dup3\n      add\n      mload\n      dup2\n      0x03\n      add\n      sstore\n      0x80\n      dup3\n      add\n      mload\n      dup2\n      0x04\n      add\n      exp(0x0100, 0x00)\n      dup2\n      sload\n      dup2\n      0xff\n      mul\n      not\n      and\n      swap1\n      dup4\n      iszero\n      iszero\n      mul\n      or\n      swap1\n      sstore\n      pop\n      swap1\n      pop\n      pop\n        /* \"contracts/services/Service.sol\":4366:4376  _serviceId */\n      dup5\n        /* \"contracts/services/Service.sol\":4347:4364  serviceOrderCount */\n      sload(0x03)\n        /* \"contracts/services/Service.sol\":4332:4412  ServiceOrdered(serviceOrderCount, _serviceId, _companyId, _quantity, totalPrice) */\n      0x44d3ddf55f51976b05c8b0c08ef1736935ccb0e76b42e8d8d0cda0b07a00b873\n        /* \"contracts/services/Service.sol\":4378:4388  _companyId */\n      dup9\n        /* \"contracts/services/Service.sol\":4390:4399  _quantity */\n      dup8\n        /* \"contracts/services/Service.sol\":4401:4411  totalPrice */\n      dup6\n        /* \"contracts/services/Service.sol\":4332:4412  ServiceOrdered(serviceOrderCount, _serviceId, _companyId, _quantity, totalPrice) */\n      mload(0x40)\n      tag_101\n      swap4\n      swap3\n      swap2\n      swap1\n      tag_102\n      jump\t// in\n    tag_101:\n      mload(0x40)\n      dup1\n      swap2\n      sub\n      swap1\n      log3\n        /* \"contracts/services/Service.sol\":3903:4419  {... */\n      pop\n        /* \"contracts/services/Service.sol\":2342:2499  {... */\n      pop\n        /* \"contracts/services/Service.sol\":3763:4419  function orderService(uint256 _companyId, uint256 _serviceId, uint256 _quantity)... */\n      pop\n      pop\n      pop\n      pop\n      jump\t// out\n        /* \"contracts/services/Service.sol\":1104:1151  mapping(uint256 => ServiceType) public services */\n    tag_43:\n      mstore(0x20, 0x00)\n      dup1\n      0x00\n      mstore\n      keccak256(0x00, 0x40)\n      0x00\n      swap2\n      pop\n      swap1\n      pop\n      dup1\n      0x00\n      add\n      dup1\n      sload\n      tag_103\n      swap1\n      tag_104\n      jump\t// in\n    tag_103:\n      dup1\n      0x1f\n      add\n      0x20\n      dup1\n      swap2\n      div\n      mul\n      0x20\n      add\n      mload(0x40)\n      swap1\n      dup2\n      add\n      0x40\n      mstore\n      dup1\n      swap3\n      swap2\n      swap1\n      dup2\n      dup2\n      mstore\n      0x20\n      add\n      dup3\n      dup1\n      sload\n      tag_105\n      swap1\n      tag_104\n      jump\t// in\n    tag_105:\n      dup1\n      iszero\n      tag_106\n      jumpi\n      dup1\n      0x1f\n      lt\n      tag_107\n      jumpi\n      0x0100\n      dup1\n      dup4\n      sload\n      div\n      mul\n      dup4\n      mstore\n      swap2\n      0x20\n      add\n      swap2\n      jump(tag_106)\n    tag_107:\n      dup3\n      add\n      swap2\n      swap1\n      0x00\n      mstore\n      keccak256(0x00, 0x20)\n      swap1\n    tag_108:\n      dup2\n      sload\n      dup2\n      mstore\n      swap1\n      0x01\n      add\n      swap1\n      0x20\n      add\n      dup1\n      dup4\n      gt\n      tag_108\n      jumpi\n      dup3\n      swap1\n      sub\n      0x1f\n      and\n      dup3\n      add\n      swap2\n    tag_106:\n      pop\n      pop\n      pop\n      pop\n      pop\n      swap1\n      dup1\n      0x01\n      add\n      sload\n      swap1\n      dup1\n      0x02\n      add\n      0x00\n      swap1\n      sload\n      swap1\n      0x0100\n      exp\n      swap1\n      div\n      0xff\n      and\n      swap1\n      pop\n      dup4\n      jump\t// out\n        /* \"contracts/services/Service.sol\":1925:1963  CompanyRegistry public companyRegistry */\n    tag_47:\n      0x05\n      0x00\n      swap1\n      sload\n      swap1\n      0x0100\n      exp\n      swap1\n      div\n      0xffffffffffffffffffffffffffffffffffffffff\n      and\n      dup2\n      jump\t// out\n        /* \"contracts/services/Service.sol\":2876:3206  function addService(string memory _serviceName, uint256 _price) public onlyOwner {... */\n    tag_53:\n        /* \"contracts/services/Service.sol\":2124:2129  owner */\n      0x04\n      0x00\n      swap1\n      sload\n      swap1\n      0x0100\n      exp\n      swap1\n      div\n      0xffffffffffffffffffffffffffffffffffffffff\n      and\n        /* \"contracts/services/Service.sol\":2110:2129  msg.sender == owner */\n      0xffffffffffffffffffffffffffffffffffffffff\n      and\n        /* \"contracts/services/Service.sol\":2110:2120  msg.sender */\n      caller\n        /* \"contracts/services/Service.sol\":2110:2129  msg.sender == owner */\n      0xffffffffffffffffffffffffffffffffffffffff\n      and\n      eq\n        /* \"contracts/services/Service.sol\":2102:2172  require(msg.sender == owner, \"Only the owner can perform this action\") */\n      tag_110\n      jumpi\n      mload(0x40)\n      0x08c379a000000000000000000000000000000000000000000000000000000000\n      dup2\n      mstore\n      0x04\n      add\n      tag_111\n      swap1\n      tag_73\n      jump\t// in\n    tag_111:\n      mload(0x40)\n      dup1\n      swap2\n      sub\n      swap1\n      revert\n    tag_110:\n        /* \"contracts/services/Service.sol\":2967:2979  serviceCount */\n      0x02\n      0x00\n        /* \"contracts/services/Service.sol\":2967:2981  serviceCount++ */\n      dup2\n      sload\n      dup1\n      swap3\n      swap2\n      swap1\n      tag_113\n      swap1\n      tag_98\n      jump\t// in\n    tag_113:\n      swap2\n      swap1\n      pop\n      sstore\n      pop\n        /* \"contracts/services/Service.sol\":3016:3133  ServiceType({... */\n      mload(0x40)\n      dup1\n      0x60\n      add\n      0x40\n      mstore\n      dup1\n        /* \"contracts/services/Service.sol\":3055:3067  _serviceName */\n      dup4\n        /* \"contracts/services/Service.sol\":3016:3133  ServiceType({... */\n      dup2\n      mstore\n      0x20\n      add\n        /* \"contracts/services/Service.sol\":3088:3094  _price */\n      dup3\n        /* \"contracts/services/Service.sol\":3016:3133  ServiceType({... */\n      dup2\n      mstore\n      0x20\n      add\n        /* \"contracts/services/Service.sol\":3118:3122  true */\n      0x01\n        /* \"contracts/services/Service.sol\":3016:3133  ServiceType({... */\n      iszero\n      iszero\n      dup2\n      mstore\n      pop\n        /* \"contracts/services/Service.sol\":2991:2999  services */\n      0x00\n        /* \"contracts/services/Service.sol\":2991:3013  services[serviceCount] */\n      dup1\n        /* \"contracts/services/Service.sol\":3000:3012  serviceCount */\n      sload(0x02)\n        /* \"contracts/services/Service.sol\":2991:3013  services[serviceCount] */\n      dup2\n      mstore\n      0x20\n      add\n      swap1\n      dup2\n      mstore\n      0x20\n      add\n      0x00\n      keccak256\n        /* \"contracts/services/Service.sol\":2991:3133  services[serviceCount] = ServiceType({... */\n      0x00\n      dup3\n      add\n      mload\n      dup2\n      0x00\n      add\n      swap1\n      dup2\n      tag_114\n      swap2\n      swap1\n      tag_115\n      jump\t// in\n    tag_114:\n      pop\n      0x20\n      dup3\n      add\n      mload\n      dup2\n      0x01\n      add\n      sstore\n      0x40\n      dup3\n      add\n      mload\n      dup2\n      0x02\n      add\n      exp(0x0100, 0x00)\n      dup2\n      sload\n      dup2\n      0xff\n      mul\n      not\n      and\n      swap1\n      dup4\n      iszero\n      iszero\n      mul\n      or\n      swap1\n      sstore\n      pop\n      swap1\n      pop\n      pop\n        /* \"contracts/services/Service.sol\":3164:3176  serviceCount */\n      sload(0x02)\n        /* \"contracts/services/Service.sol\":3149:3199  ServiceCreated(serviceCount, _serviceName, _price) */\n      0xde757be6d27f7e58377d945677230e4643bea7f0ae6a2039f0ffcff08a46b360\n        /* \"contracts/services/Service.sol\":3178:3190  _serviceName */\n      dup4\n        /* \"contracts/services/Service.sol\":3192:3198  _price */\n      dup4\n        /* \"contracts/services/Service.sol\":3149:3199  ServiceCreated(serviceCount, _serviceName, _price) */\n      mload(0x40)\n      tag_116\n      swap3\n      swap2\n      swap1\n      tag_117\n      jump\t// in\n    tag_116:\n      mload(0x40)\n      dup1\n      swap2\n      sub\n      swap1\n      log2\n        /* \"contracts/services/Service.sol\":2876:3206  function addService(string memory _serviceName, uint256 _price) public onlyOwner {... */\n      pop\n      pop\n      jump\t// out\n        /* \"contracts/services/Service.sol\":4850:5191  function getOrder(uint256 _orderId) public view returns (uint256, uint256, uint256, uint256, bool) {... */\n    tag_56:\n        /* \"contracts/services/Service.sol\":4907:4914  uint256 */\n      0x00\n        /* \"contracts/services/Service.sol\":4916:4923  uint256 */\n      dup1\n        /* \"contracts/services/Service.sol\":4925:4932  uint256 */\n      0x00\n        /* \"contracts/services/Service.sol\":4934:4941  uint256 */\n      dup1\n        /* \"contracts/services/Service.sol\":4943:4947  bool */\n      0x00\n        /* \"contracts/services/Service.sol\":4959:4984  ServiceOrder memory order */\n      dup1\n        /* \"contracts/services/Service.sol\":4987:5000  serviceOrders */\n      0x01\n        /* \"contracts/services/Service.sol\":4987:5010  serviceOrders[_orderId] */\n      0x00\n        /* \"contracts/services/Service.sol\":5001:5009  _orderId */\n      dup9\n        /* \"contracts/services/Service.sol\":4987:5010  serviceOrders[_orderId] */\n      dup2\n      mstore\n      0x20\n      add\n      swap1\n      dup2\n      mstore\n      0x20\n      add\n      0x00\n      keccak256\n        /* \"contracts/services/Service.sol\":4959:5010  ServiceOrder memory order = serviceOrders[_orderId] */\n      mload(0x40)\n      dup1\n      0xa0\n      add\n      0x40\n      mstore\n      swap1\n      dup2\n      0x00\n      dup3\n      add\n      sload\n      dup2\n      mstore\n      0x20\n      add\n      0x01\n      dup3\n      add\n      sload\n      dup2\n      mstore\n      0x20\n      add\n      0x02\n      dup3\n      add\n      sload\n      dup2\n      mstore\n      0x20\n      add\n      0x03\n      dup3\n      add\n      sload\n      dup2\n      mstore\n      0x20\n      add\n      0x04\n      dup3\n      add\n      0x00\n      swap1\n      sload\n      swap1\n      0x0100\n      exp\n      swap1\n      div\n      0xff\n      and\n      iszero\n      iszero\n      iszero\n      iszero\n      dup2\n      mstore\n      pop\n      pop\n      swap1\n      pop\n        /* \"contracts/services/Service.sol\":5041:5046  order */\n      dup1\n        /* \"contracts/services/Service.sol\":5041:5056  order.serviceId */\n      0x00\n      add\n      mload\n        /* \"contracts/services/Service.sol\":5070:5075  order */\n      dup2\n        /* \"contracts/services/Service.sol\":5070:5085  order.companyId */\n      0x20\n      add\n      mload\n        /* \"contracts/services/Service.sol\":5099:5104  order */\n      dup3\n        /* \"contracts/services/Service.sol\":5099:5113  order.quantity */\n      0x40\n      add\n      mload\n        /* \"contracts/services/Service.sol\":5127:5132  order */\n      dup4\n        /* \"contracts/services/Service.sol\":5127:5143  order.totalPrice */\n      0x60\n      add\n      mload\n        /* \"contracts/services/Service.sol\":5157:5162  order */\n      dup5\n        /* \"contracts/services/Service.sol\":5157:5174  order.isCompleted */\n      0x80\n      add\n      mload\n        /* \"contracts/services/Service.sol\":5020:5184  return (... */\n      swap6\n      pop\n      swap6\n      pop\n      swap6\n      pop\n      swap6\n      pop\n      swap6\n      pop\n      pop\n        /* \"contracts/services/Service.sol\":4850:5191  function getOrder(uint256 _orderId) public view returns (uint256, uint256, uint256, uint256, bool) {... */\n      swap2\n      swap4\n      swap6\n      swap1\n      swap3\n      swap5\n      pop\n      jump\t// out\n        /* \"contracts/services/Service.sol\":3565:3683  function deactivateService(uint256 _serviceId) public onlyOwner {... */\n    tag_61:\n        /* \"contracts/services/Service.sol\":2124:2129  owner */\n      0x04\n      0x00\n      swap1\n      sload\n      swap1\n      0x0100\n      exp\n      swap1\n      div\n      0xffffffffffffffffffffffffffffffffffffffff\n      and\n        /* \"contracts/services/Service.sol\":2110:2129  msg.sender == owner */\n      0xffffffffffffffffffffffffffffffffffffffff\n      and\n        /* \"contracts/services/Service.sol\":2110:2120  msg.sender */\n      caller\n        /* \"contracts/services/Service.sol\":2110:2129  msg.sender == owner */\n      0xffffffffffffffffffffffffffffffffffffffff\n      and\n      eq\n        /* \"contracts/services/Service.sol\":2102:2172  require(msg.sender == owner, \"Only the owner can perform this action\") */\n      tag_120\n      jumpi\n      mload(0x40)\n      0x08c379a000000000000000000000000000000000000000000000000000000000\n      dup2\n      mstore\n      0x04\n      add\n      tag_121\n      swap1\n      tag_73\n      jump\t// in\n    tag_121:\n      mload(0x40)\n      dup1\n      swap2\n      sub\n      swap1\n      revert\n    tag_120:\n        /* \"contracts/services/Service.sol\":3671:3676  false */\n      0x00\n        /* \"contracts/services/Service.sol\":3639:3647  services */\n      dup1\n        /* \"contracts/services/Service.sol\":3639:3659  services[_serviceId] */\n      0x00\n        /* \"contracts/services/Service.sol\":3648:3658  _serviceId */\n      dup4\n        /* \"contracts/services/Service.sol\":3639:3659  services[_serviceId] */\n      dup2\n      mstore\n      0x20\n      add\n      swap1\n      dup2\n      mstore\n      0x20\n      add\n      0x00\n      keccak256\n        /* \"contracts/services/Service.sol\":3639:3668  services[_serviceId].isActive */\n      0x02\n      add\n      0x00\n        /* \"contracts/services/Service.sol\":3639:3676  services[_serviceId].isActive = false */\n      0x0100\n      exp\n      dup2\n      sload\n      dup2\n      0xff\n      mul\n      not\n      and\n      swap1\n      dup4\n      iszero\n      iszero\n      mul\n      or\n      swap1\n      sstore\n      pop\n        /* \"contracts/services/Service.sol\":3565:3683  function deactivateService(uint256 _serviceId) public onlyOwner {... */\n      pop\n      jump\t// out\n        /* \"contracts/services/Service.sol\":5291:5519  function getService(uint256 _serviceId) public view returns (string memory, uint256, bool) {... */\n    tag_64:\n        /* \"contracts/services/Service.sol\":5352:5365  string memory */\n      0x60\n        /* \"contracts/services/Service.sol\":5367:5374  uint256 */\n      0x00\n        /* \"contracts/services/Service.sol\":5376:5380  bool */\n      dup1\n        /* \"contracts/services/Service.sol\":5392:5418  ServiceType memory service */\n      0x00\n        /* \"contracts/services/Service.sol\":5421:5429  services */\n      dup1\n        /* \"contracts/services/Service.sol\":5421:5441  services[_serviceId] */\n      0x00\n        /* \"contracts/services/Service.sol\":5430:5440  _serviceId */\n      dup7\n        /* \"contracts/services/Service.sol\":5421:5441  services[_serviceId] */\n      dup2\n      mstore\n      0x20\n      add\n      swap1\n      dup2\n      mstore\n      0x20\n      add\n      0x00\n      keccak256\n        /* \"contracts/services/Service.sol\":5392:5441  ServiceType memory service = services[_serviceId] */\n      mload(0x40)\n      dup1\n      0x60\n      add\n      0x40\n      mstore\n      swap1\n      dup2\n      0x00\n      dup3\n      add\n      dup1\n      sload\n      tag_124\n      swap1\n      tag_104\n      jump\t// in\n    tag_124:\n      dup1\n      0x1f\n      add\n      0x20\n      dup1\n      swap2\n      div\n      mul\n      0x20\n      add\n      mload(0x40)\n      swap1\n      dup2\n      add\n      0x40\n      mstore\n      dup1\n      swap3\n      swap2\n      swap1\n      dup2\n      dup2\n      mstore\n      0x20\n      add\n      dup3\n      dup1\n      sload\n      tag_125\n      swap1\n      tag_104\n      jump\t// in\n    tag_125:\n      dup1\n      iszero\n      tag_126\n      jumpi\n      dup1\n      0x1f\n      lt\n      tag_127\n      jumpi\n      0x0100\n      dup1\n      dup4\n      sload\n      div\n      mul\n      dup4\n      mstore\n      swap2\n      0x20\n      add\n      swap2\n      jump(tag_126)\n    tag_127:\n      dup3\n      add\n      swap2\n      swap1\n      0x00\n      mstore\n      keccak256(0x00, 0x20)\n      swap1\n    tag_128:\n      dup2\n      sload\n      dup2\n      mstore\n      swap1\n      0x01\n      add\n      swap1\n      0x20\n      add\n      dup1\n      dup4\n      gt\n      tag_128\n      jumpi\n      dup3\n      swap1\n      sub\n      0x1f\n      and\n      dup3\n      add\n      swap2\n    tag_126:\n      pop\n      pop\n      pop\n      pop\n      pop\n      dup2\n      mstore\n      0x20\n      add\n      0x01\n      dup3\n      add\n      sload\n      dup2\n      mstore\n      0x20\n      add\n      0x02\n      dup3\n      add\n      0x00\n      swap1\n      sload\n      swap1\n      0x0100\n      exp\n      swap1\n      div\n      0xff\n      and\n      iszero\n      iszero\n      iszero\n      iszero\n      dup2\n      mstore\n      pop\n      pop\n      swap1\n      pop\n        /* \"contracts/services/Service.sol\":5459:5466  service */\n      dup1\n        /* \"contracts/services/Service.sol\":5459:5478  service.serviceName */\n      0x00\n      add\n      mload\n        /* \"contracts/services/Service.sol\":5480:5487  service */\n      dup2\n        /* \"contracts/services/Service.sol\":5480:5493  service.price */\n      0x20\n      add\n      mload\n        /* \"contracts/services/Service.sol\":5495:5502  service */\n      dup3\n        /* \"contracts/services/Service.sol\":5495:5511  service.isActive */\n      0x40\n      add\n      mload\n        /* \"contracts/services/Service.sol\":5451:5512  return (service.serviceName, service.price, service.isActive) */\n      swap4\n      pop\n      swap4\n      pop\n      swap4\n      pop\n      pop\n        /* \"contracts/services/Service.sol\":5291:5519  function getService(uint256 _serviceId) public view returns (string memory, uint256, bool) {... */\n      swap2\n      swap4\n      swap1\n      swap3\n      pop\n      jump\t// out\n        /* \"contracts/services/Service.sol\":1241:1294  mapping(uint256 => ServiceOrder) public serviceOrders */\n    tag_68:\n      mstore(0x20, 0x01)\n      dup1\n      0x00\n      mstore\n      keccak256(0x00, 0x40)\n      0x00\n      swap2\n      pop\n      swap1\n      pop\n      dup1\n      0x00\n      add\n      sload\n      swap1\n      dup1\n      0x01\n      add\n      sload\n      swap1\n      dup1\n      0x02\n      add\n      sload\n      swap1\n      dup1\n      0x03\n      add\n      sload\n      swap1\n      dup1\n      0x04\n      add\n      0x00\n      swap1\n      sload\n      swap1\n      0x0100\n      exp\n      swap1\n      div\n      0xff\n      and\n      swap1\n      pop\n      dup6\n      jump\t// out\n        /* \"#utility.yul\":7:84   */\n    tag_129:\n        /* \"#utility.yul\":44:51   */\n      0x00\n        /* \"#utility.yul\":73:78   */\n      dup2\n        /* \"#utility.yul\":62:78   */\n      swap1\n      pop\n        /* \"#utility.yul\":7:84   */\n      swap2\n      swap1\n      pop\n      jump\t// out\n        /* \"#utility.yul\":90:208   */\n    tag_130:\n        /* \"#utility.yul\":177:201   */\n      tag_193\n        /* \"#utility.yul\":195:200   */\n      dup2\n        /* \"#utility.yul\":177:201   */\n      tag_129\n      jump\t// in\n    tag_193:\n        /* \"#utility.yul\":172:175   */\n      dup3\n        /* \"#utility.yul\":165:202   */\n      mstore\n        /* \"#utility.yul\":90:208   */\n      pop\n      pop\n      jump\t// out\n        /* \"#utility.yul\":214:436   */\n    tag_21:\n        /* \"#utility.yul\":307:311   */\n      0x00\n        /* \"#utility.yul\":345:347   */\n      0x20\n        /* \"#utility.yul\":334:343   */\n      dup3\n        /* \"#utility.yul\":330:348   */\n      add\n        /* \"#utility.yul\":322:348   */\n      swap1\n      pop\n        /* \"#utility.yul\":358:429   */\n      tag_195\n        /* \"#utility.yul\":426:427   */\n      0x00\n        /* \"#utility.yul\":415:424   */\n      dup4\n        /* \"#utility.yul\":411:428   */\n      add\n        /* \"#utility.yul\":402:408   */\n      dup5\n        /* \"#utility.yul\":358:429   */\n      tag_130\n      jump\t// in\n    tag_195:\n        /* \"#utility.yul\":214:436   */\n      swap3\n      swap2\n      pop\n      pop\n      jump\t// out\n        /* \"#utility.yul\":442:517   */\n    tag_131:\n        /* \"#utility.yul\":475:481   */\n      0x00\n        /* \"#utility.yul\":508:510   */\n      0x40\n        /* \"#utility.yul\":502:511   */\n      mload\n        /* \"#utility.yul\":492:511   */\n      swap1\n      pop\n        /* \"#utility.yul\":442:517   */\n      swap1\n      jump\t// out\n        /* \"#utility.yul\":523:640   */\n    tag_132:\n        /* \"#utility.yul\":632:633   */\n      0x00\n        /* \"#utility.yul\":629:630   */\n      dup1\n        /* \"#utility.yul\":622:634   */\n      revert\n        /* \"#utility.yul\":646:763   */\n    tag_133:\n        /* \"#utility.yul\":755:756   */\n      0x00\n        /* \"#utility.yul\":752:753   */\n      dup1\n        /* \"#utility.yul\":745:757   */\n      revert\n        /* \"#utility.yul\":769:891   */\n    tag_134:\n        /* \"#utility.yul\":842:866   */\n      tag_200\n        /* \"#utility.yul\":860:865   */\n      dup2\n        /* \"#utility.yul\":842:866   */\n      tag_129\n      jump\t// in\n    tag_200:\n        /* \"#utility.yul\":835:840   */\n      dup2\n        /* \"#utility.yul\":832:867   */\n      eq\n        /* \"#utility.yul\":822:885   */\n      tag_201\n      jumpi\n        /* \"#utility.yul\":881:882   */\n      0x00\n        /* \"#utility.yul\":878:879   */\n      dup1\n        /* \"#utility.yul\":871:883   */\n      revert\n        /* \"#utility.yul\":822:885   */\n    tag_201:\n        /* \"#utility.yul\":769:891   */\n      pop\n      jump\t// out\n        /* \"#utility.yul\":897:1036   */\n    tag_135:\n        /* \"#utility.yul\":943:948   */\n      0x00\n        /* \"#utility.yul\":981:987   */\n      dup2\n        /* \"#utility.yul\":968:988   */\n      calldataload\n        /* \"#utility.yul\":959:988   */\n      swap1\n      pop\n        /* \"#utility.yul\":997:1030   */\n      tag_203\n        /* \"#utility.yul\":1024:1029   */\n      dup2\n        /* \"#utility.yul\":997:1030   */\n      tag_134\n      jump\t// in\n    tag_203:\n        /* \"#utility.yul\":897:1036   */\n      swap3\n      swap2\n      pop\n      pop\n      jump\t// out\n        /* \"#utility.yul\":1042:1371   */\n    tag_24:\n        /* \"#utility.yul\":1101:1107   */\n      0x00\n        /* \"#utility.yul\":1150:1152   */\n      0x20\n        /* \"#utility.yul\":1138:1147   */\n      dup3\n        /* \"#utility.yul\":1129:1136   */\n      dup5\n        /* \"#utility.yul\":1125:1148   */\n      sub\n        /* \"#utility.yul\":1121:1153   */\n      slt\n        /* \"#utility.yul\":1118:1237   */\n      iszero\n      tag_205\n      jumpi\n        /* \"#utility.yul\":1156:1235   */\n      tag_206\n      tag_132\n      jump\t// in\n    tag_206:\n        /* \"#utility.yul\":1118:1237   */\n    tag_205:\n        /* \"#utility.yul\":1276:1277   */\n      0x00\n        /* \"#utility.yul\":1301:1354   */\n      tag_207\n        /* \"#utility.yul\":1346:1353   */\n      dup5\n        /* \"#utility.yul\":1337:1343   */\n      dup3\n        /* \"#utility.yul\":1326:1335   */\n      dup6\n        /* \"#utility.yul\":1322:1344   */\n      add\n        /* \"#utility.yul\":1301:1354   */\n      tag_135\n      jump\t// in\n    tag_207:\n        /* \"#utility.yul\":1291:1354   */\n      swap2\n      pop\n        /* \"#utility.yul\":1247:1364   */\n      pop\n        /* \"#utility.yul\":1042:1371   */\n      swap3\n      swap2\n      pop\n      pop\n      jump\t// out\n        /* \"#utility.yul\":1377:1503   */\n    tag_136:\n        /* \"#utility.yul\":1414:1421   */\n      0x00\n        /* \"#utility.yul\":1454:1496   */\n      0xffffffffffffffffffffffffffffffffffffffff\n        /* \"#utility.yul\":1447:1452   */\n      dup3\n        /* \"#utility.yul\":1443:1497   */\n      and\n        /* \"#utility.yul\":1432:1497   */\n      swap1\n      pop\n        /* \"#utility.yul\":1377:1503   */\n      swap2\n      swap1\n      pop\n      jump\t// out\n        /* \"#utility.yul\":1509:1605   */\n    tag_137:\n        /* \"#utility.yul\":1546:1553   */\n      0x00\n        /* \"#utility.yul\":1575:1599   */\n      tag_210\n        /* \"#utility.yul\":1593:1598   */\n      dup3\n        /* \"#utility.yul\":1575:1599   */\n      tag_136\n      jump\t// in\n    tag_210:\n        /* \"#utility.yul\":1564:1599   */\n      swap1\n      pop\n        /* \"#utility.yul\":1509:1605   */\n      swap2\n      swap1\n      pop\n      jump\t// out\n        /* \"#utility.yul\":1611:1729   */\n    tag_138:\n        /* \"#utility.yul\":1698:1722   */\n      tag_212\n        /* \"#utility.yul\":1716:1721   */\n      dup2\n        /* \"#utility.yul\":1698:1722   */\n      tag_137\n      jump\t// in\n    tag_212:\n        /* \"#utility.yul\":1693:1696   */\n      dup3\n        /* \"#utility.yul\":1686:1723   */\n      mstore\n        /* \"#utility.yul\":1611:1729   */\n      pop\n      pop\n      jump\t// out\n        /* \"#utility.yul\":1735:1957   */\n    tag_29:\n        /* \"#utility.yul\":1828:1832   */\n      0x00\n        /* \"#utility.yul\":1866:1868   */\n      0x20\n        /* \"#utility.yul\":1855:1864   */\n      dup3\n        /* \"#utility.yul\":1851:1869   */\n      add\n        /* \"#utility.yul\":1843:1869   */\n      swap1\n      pop\n        /* \"#utility.yul\":1879:1950   */\n      tag_214\n        /* \"#utility.yul\":1947:1948   */\n      0x00\n        /* \"#utility.yul\":1936:1945   */\n      dup4\n        /* \"#utility.yul\":1932:1949   */\n      add\n        /* \"#utility.yul\":1923:1929   */\n      dup5\n        /* \"#utility.yul\":1879:1950   */\n      tag_138\n      jump\t// in\n    tag_214:\n        /* \"#utility.yul\":1735:1957   */\n      swap3\n      swap2\n      pop\n      pop\n      jump\t// out\n        /* \"#utility.yul\":1963:2437   */\n    tag_32:\n        /* \"#utility.yul\":2031:2037   */\n      0x00\n        /* \"#utility.yul\":2039:2045   */\n      dup1\n        /* \"#utility.yul\":2088:2090   */\n      0x40\n        /* \"#utility.yul\":2076:2085   */\n      dup4\n        /* \"#utility.yul\":2067:2074   */\n      dup6\n        /* \"#utility.yul\":2063:2086   */\n      sub\n        /* \"#utility.yul\":2059:2091   */\n      slt\n        /* \"#utility.yul\":2056:2175   */\n      iszero\n      tag_216\n      jumpi\n        /* \"#utility.yul\":2094:2173   */\n      tag_217\n      tag_132\n      jump\t// in\n    tag_217:\n        /* \"#utility.yul\":2056:2175   */\n    tag_216:\n        /* \"#utility.yul\":2214:2215   */\n      0x00\n        /* \"#utility.yul\":2239:2292   */\n      tag_218\n        /* \"#utility.yul\":2284:2291   */\n      dup6\n        /* \"#utility.yul\":2275:2281   */\n      dup3\n        /* \"#utility.yul\":2264:2273   */\n      dup7\n        /* \"#utility.yul\":2260:2282   */\n      add\n        /* \"#utility.yul\":2239:2292   */\n      tag_135\n      jump\t// in\n    tag_218:\n        /* \"#utility.yul\":2229:2292   */\n      swap3\n      pop\n        /* \"#utility.yul\":2185:2302   */\n      pop\n        /* \"#utility.yul\":2341:2343   */\n      0x20\n        /* \"#utility.yul\":2367:2420   */\n      tag_219\n        /* \"#utility.yul\":2412:2419   */\n      dup6\n        /* \"#utility.yul\":2403:2409   */\n      dup3\n        /* \"#utility.yul\":2392:2401   */\n      dup7\n        /* \"#utility.yul\":2388:2410   */\n      add\n        /* \"#utility.yul\":2367:2420   */\n      tag_135\n      jump\t// in\n    tag_219:\n        /* \"#utility.yul\":2357:2420   */\n      swap2\n      pop\n        /* \"#utility.yul\":2312:2430   */\n      pop\n        /* \"#utility.yul\":1963:2437   */\n      swap3\n      pop\n      swap3\n      swap1\n      pop\n      jump\t// out\n        /* \"#utility.yul\":2443:3062   */\n    tag_39:\n        /* \"#utility.yul\":2520:2526   */\n      0x00\n        /* \"#utility.yul\":2528:2534   */\n      dup1\n        /* \"#utility.yul\":2536:2542   */\n      0x00\n        /* \"#utility.yul\":2585:2587   */\n      0x60\n        /* \"#utility.yul\":2573:2582   */\n      dup5\n        /* \"#utility.yul\":2564:2571   */\n      dup7\n        /* \"#utility.yul\":2560:2583   */\n      sub\n        /* \"#utility.yul\":2556:2588   */\n      slt\n        /* \"#utility.yul\":2553:2672   */\n      iszero\n      tag_221\n      jumpi\n        /* \"#utility.yul\":2591:2670   */\n      tag_222\n      tag_132\n      jump\t// in\n    tag_222:\n        /* \"#utility.yul\":2553:2672   */\n    tag_221:\n        /* \"#utility.yul\":2711:2712   */\n      0x00\n        /* \"#utility.yul\":2736:2789   */\n      tag_223\n        /* \"#utility.yul\":2781:2788   */\n      dup7\n        /* \"#utility.yul\":2772:2778   */\n      dup3\n        /* \"#utility.yul\":2761:2770   */\n      dup8\n        /* \"#utility.yul\":2757:2779   */\n      add\n        /* \"#utility.yul\":2736:2789   */\n      tag_135\n      jump\t// in\n    tag_223:\n        /* \"#utility.yul\":2726:2789   */\n      swap4\n      pop\n        /* \"#utility.yul\":2682:2799   */\n      pop\n        /* \"#utility.yul\":2838:2840   */\n      0x20\n        /* \"#utility.yul\":2864:2917   */\n      tag_224\n        /* \"#utility.yul\":2909:2916   */\n      dup7\n        /* \"#utility.yul\":2900:2906   */\n      dup3\n        /* \"#utility.yul\":2889:2898   */\n      dup8\n        /* \"#utility.yul\":2885:2907   */\n      add\n        /* \"#utility.yul\":2864:2917   */\n      tag_135\n      jump\t// in\n    tag_224:\n        /* \"#utility.yul\":2854:2917   */\n      swap3\n      pop\n        /* \"#utility.yul\":2809:2927   */\n      pop\n        /* \"#utility.yul\":2966:2968   */\n      0x40\n        /* \"#utility.yul\":2992:3045   */\n      tag_225\n        /* \"#utility.yul\":3037:3044   */\n      dup7\n        /* \"#utility.yul\":3028:3034   */\n      dup3\n        /* \"#utility.yul\":3017:3026   */\n      dup8\n        /* \"#utility.yul\":3013:3035   */\n      add\n        /* \"#utility.yul\":2992:3045   */\n      tag_135\n      jump\t// in\n    tag_225:\n        /* \"#utility.yul\":2982:3045   */\n      swap2\n      pop\n        /* \"#utility.yul\":2937:3055   */\n      pop\n        /* \"#utility.yul\":2443:3062   */\n      swap3\n      pop\n      swap3\n      pop\n      swap3\n      jump\t// out\n        /* \"#utility.yul\":3068:3167   */\n    tag_139:\n        /* \"#utility.yul\":3120:3126   */\n      0x00\n        /* \"#utility.yul\":3154:3159   */\n      dup2\n        /* \"#utility.yul\":3148:3160   */\n      mload\n        /* \"#utility.yul\":3138:3160   */\n      swap1\n      pop\n        /* \"#utility.yul\":3068:3167   */\n      swap2\n      swap1\n      pop\n      jump\t// out\n        /* \"#utility.yul\":3173:3342   */\n    tag_140:\n        /* \"#utility.yul\":3257:3268   */\n      0x00\n        /* \"#utility.yul\":3291:3297   */\n      dup3\n        /* \"#utility.yul\":3286:3289   */\n      dup3\n        /* \"#utility.yul\":3279:3298   */\n      mstore\n        /* \"#utility.yul\":3331:3335   */\n      0x20\n        /* \"#utility.yul\":3326:3329   */\n      dup3\n        /* \"#utility.yul\":3322:3336   */\n      add\n        /* \"#utility.yul\":3307:3336   */\n      swap1\n      pop\n        /* \"#utility.yul\":3173:3342   */\n      swap3\n      swap2\n      pop\n      pop\n      jump\t// out\n        /* \"#utility.yul\":3348:3487   */\n    tag_141:\n        /* \"#utility.yul\":3437:3443   */\n      dup3\n        /* \"#utility.yul\":3432:3435   */\n      dup2\n        /* \"#utility.yul\":3427:3430   */\n      dup4\n        /* \"#utility.yul\":3421:3444   */\n      mcopy\n        /* \"#utility.yul\":3478:3479   */\n      0x00\n        /* \"#utility.yul\":3469:3475   */\n      dup4\n        /* \"#utility.yul\":3464:3467   */\n      dup4\n        /* \"#utility.yul\":3460:3476   */\n      add\n        /* \"#utility.yul\":3453:3480   */\n      mstore\n        /* \"#utility.yul\":3348:3487   */\n      pop\n      pop\n      pop\n      jump\t// out\n        /* \"#utility.yul\":3493:3595   */\n    tag_142:\n        /* \"#utility.yul\":3534:3540   */\n      0x00\n        /* \"#utility.yul\":3585:3587   */\n      0x1f\n        /* \"#utility.yul\":3581:3588   */\n      not\n        /* \"#utility.yul\":3576:3578   */\n      0x1f\n        /* \"#utility.yul\":3569:3574   */\n      dup4\n        /* \"#utility.yul\":3565:3579   */\n      add\n        /* \"#utility.yul\":3561:3589   */\n      and\n        /* \"#utility.yul\":3551:3589   */\n      swap1\n      pop\n        /* \"#utility.yul\":3493:3595   */\n      swap2\n      swap1\n      pop\n      jump\t// out\n        /* \"#utility.yul\":3601:3978   */\n    tag_143:\n        /* \"#utility.yul\":3689:3692   */\n      0x00\n        /* \"#utility.yul\":3717:3756   */\n      tag_231\n        /* \"#utility.yul\":3750:3755   */\n      dup3\n        /* \"#utility.yul\":3717:3756   */\n      tag_139\n      jump\t// in\n    tag_231:\n        /* \"#utility.yul\":3772:3843   */\n      tag_232\n        /* \"#utility.yul\":3836:3842   */\n      dup2\n        /* \"#utility.yul\":3831:3834   */\n      dup6\n        /* \"#utility.yul\":3772:3843   */\n      tag_140\n      jump\t// in\n    tag_232:\n        /* \"#utility.yul\":3765:3843   */\n      swap4\n      pop\n        /* \"#utility.yul\":3852:3917   */\n      tag_233\n        /* \"#utility.yul\":3910:3916   */\n      dup2\n        /* \"#utility.yul\":3905:3908   */\n      dup6\n        /* \"#utility.yul\":3898:3902   */\n      0x20\n        /* \"#utility.yul\":3891:3896   */\n      dup7\n        /* \"#utility.yul\":3887:3903   */\n      add\n        /* \"#utility.yul\":3852:3917   */\n      tag_141\n      jump\t// in\n    tag_233:\n        /* \"#utility.yul\":3942:3971   */\n      tag_234\n        /* \"#utility.yul\":3964:3970   */\n      dup2\n        /* \"#utility.yul\":3942:3971   */\n      tag_142\n      jump\t// in\n    tag_234:\n        /* \"#utility.yul\":3937:3940   */\n      dup5\n        /* \"#utility.yul\":3933:3972   */\n      add\n        /* \"#utility.yul\":3926:3972   */\n      swap2\n      pop\n        /* \"#utility.yul\":3693:3978   */\n      pop\n        /* \"#utility.yul\":3601:3978   */\n      swap3\n      swap2\n      pop\n      pop\n      jump\t// out\n        /* \"#utility.yul\":3984:4074   */\n    tag_144:\n        /* \"#utility.yul\":4018:4025   */\n      0x00\n        /* \"#utility.yul\":4061:4066   */\n      dup2\n        /* \"#utility.yul\":4054:4067   */\n      iszero\n        /* \"#utility.yul\":4047:4068   */\n      iszero\n        /* \"#utility.yul\":4036:4068   */\n      swap1\n      pop\n        /* \"#utility.yul\":3984:4074   */\n      swap2\n      swap1\n      pop\n      jump\t// out\n        /* \"#utility.yul\":4080:4189   */\n    tag_145:\n        /* \"#utility.yul\":4161:4182   */\n      tag_237\n        /* \"#utility.yul\":4176:4181   */\n      dup2\n        /* \"#utility.yul\":4161:4182   */\n      tag_144\n      jump\t// in\n    tag_237:\n        /* \"#utility.yul\":4156:4159   */\n      dup3\n        /* \"#utility.yul\":4149:4183   */\n      mstore\n        /* \"#utility.yul\":4080:4189   */\n      pop\n      pop\n      jump\t// out\n        /* \"#utility.yul\":4195:4716   */\n    tag_45:\n        /* \"#utility.yul\":4358:4362   */\n      0x00\n        /* \"#utility.yul\":4396:4398   */\n      0x60\n        /* \"#utility.yul\":4385:4394   */\n      dup3\n        /* \"#utility.yul\":4381:4399   */\n      add\n        /* \"#utility.yul\":4373:4399   */\n      swap1\n      pop\n        /* \"#utility.yul\":4445:4454   */\n      dup2\n        /* \"#utility.yul\":4439:4443   */\n      dup2\n        /* \"#utility.yul\":4435:4455   */\n      sub\n        /* \"#utility.yul\":4431:4432   */\n      0x00\n        /* \"#utility.yul\":4420:4429   */\n      dup4\n        /* \"#utility.yul\":4416:4433   */\n      add\n        /* \"#utility.yul\":4409:4456   */\n      mstore\n        /* \"#utility.yul\":4473:4551   */\n      tag_239\n        /* \"#utility.yul\":4546:4550   */\n      dup2\n        /* \"#utility.yul\":4537:4543   */\n      dup7\n        /* \"#utility.yul\":4473:4551   */\n      tag_143\n      jump\t// in\n    tag_239:\n        /* \"#utility.yul\":4465:4551   */\n      swap1\n      pop\n        /* \"#utility.yul\":4561:4633   */\n      tag_240\n        /* \"#utility.yul\":4629:4631   */\n      0x20\n        /* \"#utility.yul\":4618:4627   */\n      dup4\n        /* \"#utility.yul\":4614:4632   */\n      add\n        /* \"#utility.yul\":4605:4611   */\n      dup6\n        /* \"#utility.yul\":4561:4633   */\n      tag_130\n      jump\t// in\n    tag_240:\n        /* \"#utility.yul\":4643:4709   */\n      tag_241\n        /* \"#utility.yul\":4705:4707   */\n      0x40\n        /* \"#utility.yul\":4694:4703   */\n      dup4\n        /* \"#utility.yul\":4690:4708   */\n      add\n        /* \"#utility.yul\":4681:4687   */\n      dup5\n        /* \"#utility.yul\":4643:4709   */\n      tag_145\n      jump\t// in\n    tag_241:\n        /* \"#utility.yul\":4195:4716   */\n      swap5\n      swap4\n      pop\n      pop\n      pop\n      pop\n      jump\t// out\n        /* \"#utility.yul\":4722:4782   */\n    tag_146:\n        /* \"#utility.yul\":4750:4753   */\n      0x00\n        /* \"#utility.yul\":4771:4776   */\n      dup2\n        /* \"#utility.yul\":4764:4776   */\n      swap1\n      pop\n        /* \"#utility.yul\":4722:4782   */\n      swap2\n      swap1\n      pop\n      jump\t// out\n        /* \"#utility.yul\":4788:4930   */\n    tag_147:\n        /* \"#utility.yul\":4838:4847   */\n      0x00\n        /* \"#utility.yul\":4871:4924   */\n      tag_244\n        /* \"#utility.yul\":4889:4923   */\n      tag_245\n        /* \"#utility.yul\":4898:4922   */\n      tag_246\n        /* \"#utility.yul\":4916:4921   */\n      dup5\n        /* \"#utility.yul\":4898:4922   */\n      tag_136\n      jump\t// in\n    tag_246:\n        /* \"#utility.yul\":4889:4923   */\n      tag_146\n      jump\t// in\n    tag_245:\n        /* \"#utility.yul\":4871:4924   */\n      tag_136\n      jump\t// in\n    tag_244:\n        /* \"#utility.yul\":4858:4924   */\n      swap1\n      pop\n        /* \"#utility.yul\":4788:4930   */\n      swap2\n      swap1\n      pop\n      jump\t// out\n        /* \"#utility.yul\":4936:5062   */\n    tag_148:\n        /* \"#utility.yul\":4986:4995   */\n      0x00\n        /* \"#utility.yul\":5019:5056   */\n      tag_248\n        /* \"#utility.yul\":5050:5055   */\n      dup3\n        /* \"#utility.yul\":5019:5056   */\n      tag_147\n      jump\t// in\n    tag_248:\n        /* \"#utility.yul\":5006:5056   */\n      swap1\n      pop\n        /* \"#utility.yul\":4936:5062   */\n      swap2\n      swap1\n      pop\n      jump\t// out\n        /* \"#utility.yul\":5068:5217   */\n    tag_149:\n        /* \"#utility.yul\":5141:5150   */\n      0x00\n        /* \"#utility.yul\":5174:5211   */\n      tag_250\n        /* \"#utility.yul\":5205:5210   */\n      dup3\n        /* \"#utility.yul\":5174:5211   */\n      tag_148\n      jump\t// in\n    tag_250:\n        /* \"#utility.yul\":5161:5211   */\n      swap1\n      pop\n        /* \"#utility.yul\":5068:5217   */\n      swap2\n      swap1\n      pop\n      jump\t// out\n        /* \"#utility.yul\":5223:5400   */\n    tag_150:\n        /* \"#utility.yul\":5333:5393   */\n      tag_252\n        /* \"#utility.yul\":5387:5392   */\n      dup2\n        /* \"#utility.yul\":5333:5393   */\n      tag_149\n      jump\t// in\n    tag_252:\n        /* \"#utility.yul\":5328:5331   */\n      dup3\n        /* \"#utility.yul\":5321:5394   */\n      mstore\n        /* \"#utility.yul\":5223:5400   */\n      pop\n      pop\n      jump\t// out\n        /* \"#utility.yul\":5406:5674   */\n    tag_49:\n        /* \"#utility.yul\":5522:5526   */\n      0x00\n        /* \"#utility.yul\":5560:5562   */\n      0x20\n        /* \"#utility.yul\":5549:5558   */\n      dup3\n        /* \"#utility.yul\":5545:5563   */\n      add\n        /* \"#utility.yul\":5537:5563   */\n      swap1\n      pop\n        /* \"#utility.yul\":5573:5667   */\n      tag_254\n        /* \"#utility.yul\":5664:5665   */\n      0x00\n        /* \"#utility.yul\":5653:5662   */\n      dup4\n        /* \"#utility.yul\":5649:5666   */\n      add\n        /* \"#utility.yul\":5640:5646   */\n      dup5\n        /* \"#utility.yul\":5573:5667   */\n      tag_150\n      jump\t// in\n    tag_254:\n        /* \"#utility.yul\":5406:5674   */\n      swap3\n      swap2\n      pop\n      pop\n      jump\t// out\n        /* \"#utility.yul\":5680:5797   */\n    tag_151:\n        /* \"#utility.yul\":5789:5790   */\n      0x00\n        /* \"#utility.yul\":5786:5787   */\n      dup1\n        /* \"#utility.yul\":5779:5791   */\n      revert\n        /* \"#utility.yul\":5803:5920   */\n    tag_152:\n        /* \"#utility.yul\":5912:5913   */\n      0x00\n        /* \"#utility.yul\":5909:5910   */\n      dup1\n        /* \"#utility.yul\":5902:5914   */\n      revert\n        /* \"#utility.yul\":5926:6106   */\n    tag_153:\n        /* \"#utility.yul\":5974:6051   */\n      0x4e487b7100000000000000000000000000000000000000000000000000000000\n        /* \"#utility.yul\":5971:5972   */\n      0x00\n        /* \"#utility.yul\":5964:6052   */\n      mstore\n        /* \"#utility.yul\":6071:6075   */\n      0x41\n        /* \"#utility.yul\":6068:6069   */\n      0x04\n        /* \"#utility.yul\":6061:6076   */\n      mstore\n        /* \"#utility.yul\":6095:6099   */\n      0x24\n        /* \"#utility.yul\":6092:6093   */\n      0x00\n        /* \"#utility.yul\":6085:6100   */\n      revert\n        /* \"#utility.yul\":6112:6393   */\n    tag_154:\n        /* \"#utility.yul\":6195:6222   */\n      tag_259\n        /* \"#utility.yul\":6217:6221   */\n      dup3\n        /* \"#utility.yul\":6195:6222   */\n      tag_142\n      jump\t// in\n    tag_259:\n        /* \"#utility.yul\":6187:6193   */\n      dup2\n        /* \"#utility.yul\":6183:6223   */\n      add\n        /* \"#utility.yul\":6325:6331   */\n      dup2\n        /* \"#utility.yul\":6313:6323   */\n      dup2\n        /* \"#utility.yul\":6310:6332   */\n      lt\n        /* \"#utility.yul\":6289:6307   */\n      0xffffffffffffffff\n        /* \"#utility.yul\":6277:6287   */\n      dup3\n        /* \"#utility.yul\":6274:6308   */\n      gt\n        /* \"#utility.yul\":6271:6333   */\n      or\n        /* \"#utility.yul\":6268:6356   */\n      iszero\n      tag_260\n      jumpi\n        /* \"#utility.yul\":6336:6354   */\n      tag_261\n      tag_153\n      jump\t// in\n    tag_261:\n        /* \"#utility.yul\":6268:6356   */\n    tag_260:\n        /* \"#utility.yul\":6376:6386   */\n      dup1\n        /* \"#utility.yul\":6372:6374   */\n      0x40\n        /* \"#utility.yul\":6365:6387   */\n      mstore\n        /* \"#utility.yul\":6155:6393   */\n      pop\n        /* \"#utility.yul\":6112:6393   */\n      pop\n      pop\n      jump\t// out\n        /* \"#utility.yul\":6399:6528   */\n    tag_155:\n        /* \"#utility.yul\":6433:6439   */\n      0x00\n        /* \"#utility.yul\":6460:6480   */\n      tag_263\n      tag_131\n      jump\t// in\n    tag_263:\n        /* \"#utility.yul\":6450:6480   */\n      swap1\n      pop\n        /* \"#utility.yul\":6489:6522   */\n      tag_264\n        /* \"#utility.yul\":6517:6521   */\n      dup3\n        /* \"#utility.yul\":6509:6515   */\n      dup3\n        /* \"#utility.yul\":6489:6522   */\n      tag_154\n      jump\t// in\n    tag_264:\n        /* \"#utility.yul\":6399:6528   */\n      swap2\n      swap1\n      pop\n      jump\t// out\n        /* \"#utility.yul\":6534:6842   */\n    tag_156:\n        /* \"#utility.yul\":6596:6600   */\n      0x00\n        /* \"#utility.yul\":6686:6704   */\n      0xffffffffffffffff\n        /* \"#utility.yul\":6678:6684   */\n      dup3\n        /* \"#utility.yul\":6675:6705   */\n      gt\n        /* \"#utility.yul\":6672:6728   */\n      iszero\n      tag_266\n      jumpi\n        /* \"#utility.yul\":6708:6726   */\n      tag_267\n      tag_153\n      jump\t// in\n    tag_267:\n        /* \"#utility.yul\":6672:6728   */\n    tag_266:\n        /* \"#utility.yul\":6746:6775   */\n      tag_268\n        /* \"#utility.yul\":6768:6774   */\n      dup3\n        /* \"#utility.yul\":6746:6775   */\n      tag_142\n      jump\t// in\n    tag_268:\n        /* \"#utility.yul\":6738:6775   */\n      swap1\n      pop\n        /* \"#utility.yul\":6830:6834   */\n      0x20\n        /* \"#utility.yul\":6824:6828   */\n      dup2\n        /* \"#utility.yul\":6820:6835   */\n      add\n        /* \"#utility.yul\":6812:6835   */\n      swap1\n      pop\n        /* \"#utility.yul\":6534:6842   */\n      swap2\n      swap1\n      pop\n      jump\t// out\n        /* \"#utility.yul\":6848:6996   */\n    tag_157:\n        /* \"#utility.yul\":6946:6952   */\n      dup3\n        /* \"#utility.yul\":6941:6944   */\n      dup2\n        /* \"#utility.yul\":6936:6939   */\n      dup4\n        /* \"#utility.yul\":6923:6953   */\n      calldatacopy\n        /* \"#utility.yul\":6987:6988   */\n      0x00\n        /* \"#utility.yul\":6978:6984   */\n      dup4\n        /* \"#utility.yul\":6973:6976   */\n      dup4\n        /* \"#utility.yul\":6969:6985   */\n      add\n        /* \"#utility.yul\":6962:6989   */\n      mstore\n        /* \"#utility.yul\":6848:6996   */\n      pop\n      pop\n      pop\n      jump\t// out\n        /* \"#utility.yul\":7002:7427   */\n    tag_158:\n        /* \"#utility.yul\":7080:7085   */\n      0x00\n        /* \"#utility.yul\":7105:7171   */\n      tag_271\n        /* \"#utility.yul\":7121:7170   */\n      tag_272\n        /* \"#utility.yul\":7163:7169   */\n      dup5\n        /* \"#utility.yul\":7121:7170   */\n      tag_156\n      jump\t// in\n    tag_272:\n        /* \"#utility.yul\":7105:7171   */\n      tag_155\n      jump\t// in\n    tag_271:\n        /* \"#utility.yul\":7096:7171   */\n      swap1\n      pop\n        /* \"#utility.yul\":7194:7200   */\n      dup3\n        /* \"#utility.yul\":7187:7192   */\n      dup2\n        /* \"#utility.yul\":7180:7201   */\n      mstore\n        /* \"#utility.yul\":7232:7236   */\n      0x20\n        /* \"#utility.yul\":7225:7230   */\n      dup2\n        /* \"#utility.yul\":7221:7237   */\n      add\n        /* \"#utility.yul\":7270:7273   */\n      dup5\n        /* \"#utility.yul\":7261:7267   */\n      dup5\n        /* \"#utility.yul\":7256:7259   */\n      dup5\n        /* \"#utility.yul\":7252:7268   */\n      add\n        /* \"#utility.yul\":7249:7274   */\n      gt\n        /* \"#utility.yul\":7246:7358   */\n      iszero\n      tag_273\n      jumpi\n        /* \"#utility.yul\":7277:7356   */\n      tag_274\n      tag_152\n      jump\t// in\n    tag_274:\n        /* \"#utility.yul\":7246:7358   */\n    tag_273:\n        /* \"#utility.yul\":7367:7421   */\n      tag_275\n        /* \"#utility.yul\":7414:7420   */\n      dup5\n        /* \"#utility.yul\":7409:7412   */\n      dup3\n        /* \"#utility.yul\":7404:7407   */\n      dup6\n        /* \"#utility.yul\":7367:7421   */\n      tag_157\n      jump\t// in\n    tag_275:\n        /* \"#utility.yul\":7086:7427   */\n      pop\n        /* \"#utility.yul\":7002:7427   */\n      swap4\n      swap3\n      pop\n      pop\n      pop\n      jump\t// out\n        /* \"#utility.yul\":7447:7787   */\n    tag_159:\n        /* \"#utility.yul\":7503:7508   */\n      0x00\n        /* \"#utility.yul\":7552:7555   */\n      dup3\n        /* \"#utility.yul\":7545:7549   */\n      0x1f\n        /* \"#utility.yul\":7537:7543   */\n      dup4\n        /* \"#utility.yul\":7533:7550   */\n      add\n        /* \"#utility.yul\":7529:7556   */\n      slt\n        /* \"#utility.yul\":7519:7641   */\n      tag_277\n      jumpi\n        /* \"#utility.yul\":7560:7639   */\n      tag_278\n      tag_151\n      jump\t// in\n    tag_278:\n        /* \"#utility.yul\":7519:7641   */\n    tag_277:\n        /* \"#utility.yul\":7677:7683   */\n      dup2\n        /* \"#utility.yul\":7664:7684   */\n      calldataload\n        /* \"#utility.yul\":7702:7781   */\n      tag_279\n        /* \"#utility.yul\":7777:7780   */\n      dup5\n        /* \"#utility.yul\":7769:7775   */\n      dup3\n        /* \"#utility.yul\":7762:7766   */\n      0x20\n        /* \"#utility.yul\":7754:7760   */\n      dup7\n        /* \"#utility.yul\":7750:7767   */\n      add\n        /* \"#utility.yul\":7702:7781   */\n      tag_158\n      jump\t// in\n    tag_279:\n        /* \"#utility.yul\":7693:7781   */\n      swap2\n      pop\n        /* \"#utility.yul\":7509:7787   */\n      pop\n        /* \"#utility.yul\":7447:7787   */\n      swap3\n      swap2\n      pop\n      pop\n      jump\t// out\n        /* \"#utility.yul\":7793:8447   */\n    tag_52:\n        /* \"#utility.yul\":7871:7877   */\n      0x00\n        /* \"#utility.yul\":7879:7885   */\n      dup1\n        /* \"#utility.yul\":7928:7930   */\n      0x40\n        /* \"#utility.yul\":7916:7925   */\n      dup4\n        /* \"#utility.yul\":7907:7914   */\n      dup6\n        /* \"#utility.yul\":7903:7926   */\n      sub\n        /* \"#utility.yul\":7899:7931   */\n      slt\n        /* \"#utility.yul\":7896:8015   */\n      iszero\n      tag_281\n      jumpi\n        /* \"#utility.yul\":7934:8013   */\n      tag_282\n      tag_132\n      jump\t// in\n    tag_282:\n        /* \"#utility.yul\":7896:8015   */\n    tag_281:\n        /* \"#utility.yul\":8082:8083   */\n      0x00\n        /* \"#utility.yul\":8071:8080   */\n      dup4\n        /* \"#utility.yul\":8067:8084   */\n      add\n        /* \"#utility.yul\":8054:8085   */\n      calldataload\n        /* \"#utility.yul\":8112:8130   */\n      0xffffffffffffffff\n        /* \"#utility.yul\":8104:8110   */\n      dup2\n        /* \"#utility.yul\":8101:8131   */\n      gt\n        /* \"#utility.yul\":8098:8215   */\n      iszero\n      tag_283\n      jumpi\n        /* \"#utility.yul\":8134:8213   */\n      tag_284\n      tag_133\n      jump\t// in\n    tag_284:\n        /* \"#utility.yul\":8098:8215   */\n    tag_283:\n        /* \"#utility.yul\":8239:8302   */\n      tag_285\n        /* \"#utility.yul\":8294:8301   */\n      dup6\n        /* \"#utility.yul\":8285:8291   */\n      dup3\n        /* \"#utility.yul\":8274:8283   */\n      dup7\n        /* \"#utility.yul\":8270:8292   */\n      add\n        /* \"#utility.yul\":8239:8302   */\n      tag_159\n      jump\t// in\n    tag_285:\n        /* \"#utility.yul\":8229:8302   */\n      swap3\n      pop\n        /* \"#utility.yul\":8025:8312   */\n      pop\n        /* \"#utility.yul\":8351:8353   */\n      0x20\n        /* \"#utility.yul\":8377:8430   */\n      tag_286\n        /* \"#utility.yul\":8422:8429   */\n      dup6\n        /* \"#utility.yul\":8413:8419   */\n      dup3\n        /* \"#utility.yul\":8402:8411   */\n      dup7\n        /* \"#utility.yul\":8398:8420   */\n      add\n        /* \"#utility.yul\":8377:8430   */\n      tag_135\n      jump\t// in\n    tag_286:\n        /* \"#utility.yul\":8367:8430   */\n      swap2\n      pop\n        /* \"#utility.yul\":8322:8440   */\n      pop\n        /* \"#utility.yul\":7793:8447   */\n      swap3\n      pop\n      swap3\n      swap1\n      pop\n      jump\t// out\n        /* \"#utility.yul\":8453:9105   */\n    tag_58:\n        /* \"#utility.yul\":8652:8656   */\n      0x00\n        /* \"#utility.yul\":8690:8693   */\n      0xa0\n        /* \"#utility.yul\":8679:8688   */\n      dup3\n        /* \"#utility.yul\":8675:8694   */\n      add\n        /* \"#utility.yul\":8667:8694   */\n      swap1\n      pop\n        /* \"#utility.yul\":8704:8775   */\n      tag_288\n        /* \"#utility.yul\":8772:8773   */\n      0x00\n        /* \"#utility.yul\":8761:8770   */\n      dup4\n        /* \"#utility.yul\":8757:8774   */\n      add\n        /* \"#utility.yul\":8748:8754   */\n      dup9\n        /* \"#utility.yul\":8704:8775   */\n      tag_130\n      jump\t// in\n    tag_288:\n        /* \"#utility.yul\":8785:8857   */\n      tag_289\n        /* \"#utility.yul\":8853:8855   */\n      0x20\n        /* \"#utility.yul\":8842:8851   */\n      dup4\n        /* \"#utility.yul\":8838:8856   */\n      add\n        /* \"#utility.yul\":8829:8835   */\n      dup8\n        /* \"#utility.yul\":8785:8857   */\n      tag_130\n      jump\t// in\n    tag_289:\n        /* \"#utility.yul\":8867:8939   */\n      tag_290\n        /* \"#utility.yul\":8935:8937   */\n      0x40\n        /* \"#utility.yul\":8924:8933   */\n      dup4\n        /* \"#utility.yul\":8920:8938   */\n      add\n        /* \"#utility.yul\":8911:8917   */\n      dup7\n        /* \"#utility.yul\":8867:8939   */\n      tag_130\n      jump\t// in\n    tag_290:\n        /* \"#utility.yul\":8949:9021   */\n      tag_291\n        /* \"#utility.yul\":9017:9019   */\n      0x60\n        /* \"#utility.yul\":9006:9015   */\n      dup4\n        /* \"#utility.yul\":9002:9020   */\n      add\n        /* \"#utility.yul\":8993:8999   */\n      dup6\n        /* \"#utility.yul\":8949:9021   */\n      tag_130\n      jump\t// in\n    tag_291:\n        /* \"#utility.yul\":9031:9098   */\n      tag_292\n        /* \"#utility.yul\":9093:9096   */\n      0x80\n        /* \"#utility.yul\":9082:9091   */\n      dup4\n        /* \"#utility.yul\":9078:9097   */\n      add\n        /* \"#utility.yul\":9069:9075   */\n      dup5\n        /* \"#utility.yul\":9031:9098   */\n      tag_145\n      jump\t// in\n    tag_292:\n        /* \"#utility.yul\":8453:9105   */\n      swap7\n      swap6\n      pop\n      pop\n      pop\n      pop\n      pop\n      pop\n      jump\t// out\n        /* \"#utility.yul\":9111:9336   */\n    tag_160:\n        /* \"#utility.yul\":9251:9285   */\n      0x4f6e6c7920746865206f776e65722063616e20706572666f726d207468697320\n        /* \"#utility.yul\":9247:9248   */\n      0x00\n        /* \"#utility.yul\":9239:9245   */\n      dup3\n        /* \"#utility.yul\":9235:9249   */\n      add\n        /* \"#utility.yul\":9228:9286   */\n      mstore\n        /* \"#utility.yul\":9320:9328   */\n      0x616374696f6e0000000000000000000000000000000000000000000000000000\n        /* \"#utility.yul\":9315:9317   */\n      0x20\n        /* \"#utility.yul\":9307:9313   */\n      dup3\n        /* \"#utility.yul\":9303:9318   */\n      add\n        /* \"#utility.yul\":9296:9329   */\n      mstore\n        /* \"#utility.yul\":9111:9336   */\n      pop\n      jump\t// out\n        /* \"#utility.yul\":9342:9708   */\n    tag_161:\n        /* \"#utility.yul\":9484:9487   */\n      0x00\n        /* \"#utility.yul\":9505:9572   */\n      tag_295\n        /* \"#utility.yul\":9569:9571   */\n      0x26\n        /* \"#utility.yul\":9564:9567   */\n      dup4\n        /* \"#utility.yul\":9505:9572   */\n      tag_140\n      jump\t// in\n    tag_295:\n        /* \"#utility.yul\":9498:9572   */\n      swap2\n      pop\n        /* \"#utility.yul\":9581:9674   */\n      tag_296\n        /* \"#utility.yul\":9670:9673   */\n      dup3\n        /* \"#utility.yul\":9581:9674   */\n      tag_160\n      jump\t// in\n    tag_296:\n        /* \"#utility.yul\":9699:9701   */\n      0x40\n        /* \"#utility.yul\":9694:9697   */\n      dup3\n        /* \"#utility.yul\":9690:9702   */\n      add\n        /* \"#utility.yul\":9683:9702   */\n      swap1\n      pop\n        /* \"#utility.yul\":9342:9708   */\n      swap2\n      swap1\n      pop\n      jump\t// out\n        /* \"#utility.yul\":9714:10133   */\n    tag_73:\n        /* \"#utility.yul\":9880:9884   */\n      0x00\n        /* \"#utility.yul\":9918:9920   */\n      0x20\n        /* \"#utility.yul\":9907:9916   */\n      dup3\n        /* \"#utility.yul\":9903:9921   */\n      add\n        /* \"#utility.yul\":9895:9921   */\n      swap1\n      pop\n        /* \"#utility.yul\":9967:9976   */\n      dup2\n        /* \"#utility.yul\":9961:9965   */\n      dup2\n        /* \"#utility.yul\":9957:9977   */\n      sub\n        /* \"#utility.yul\":9953:9954   */\n      0x00\n        /* \"#utility.yul\":9942:9951   */\n      dup4\n        /* \"#utility.yul\":9938:9955   */\n      add\n        /* \"#utility.yul\":9931:9978   */\n      mstore\n        /* \"#utility.yul\":9995:10126   */\n      tag_298\n        /* \"#utility.yul\":10121:10125   */\n      dup2\n        /* \"#utility.yul\":9995:10126   */\n      tag_161\n      jump\t// in\n    tag_298:\n        /* \"#utility.yul\":9987:10126   */\n      swap1\n      pop\n        /* \"#utility.yul\":9714:10133   */\n      swap2\n      swap1\n      pop\n      jump\t// out\n        /* \"#utility.yul\":10139:10320   */\n    tag_162:\n        /* \"#utility.yul\":10279:10312   */\n      0x53657276696365206f7264657220616c726561647920636f6d706c6574656400\n        /* \"#utility.yul\":10275:10276   */\n      0x00\n        /* \"#utility.yul\":10267:10273   */\n      dup3\n        /* \"#utility.yul\":10263:10277   */\n      add\n        /* \"#utility.yul\":10256:10313   */\n      mstore\n        /* \"#utility.yul\":10139:10320   */\n      pop\n      jump\t// out\n        /* \"#utility.yul\":10326:10692   */\n    tag_163:\n        /* \"#utility.yul\":10468:10471   */\n      0x00\n        /* \"#utility.yul\":10489:10556   */\n      tag_301\n        /* \"#utility.yul\":10553:10555   */\n      0x1f\n        /* \"#utility.yul\":10548:10551   */\n      dup4\n        /* \"#utility.yul\":10489:10556   */\n      tag_140\n      jump\t// in\n    tag_301:\n        /* \"#utility.yul\":10482:10556   */\n      swap2\n      pop\n        /* \"#utility.yul\":10565:10658   */\n      tag_302\n        /* \"#utility.yul\":10654:10657   */\n      dup3\n        /* \"#utility.yul\":10565:10658   */\n      tag_162\n      jump\t// in\n    tag_302:\n        /* \"#utility.yul\":10683:10685   */\n      0x20\n        /* \"#utility.yul\":10678:10681   */\n      dup3\n        /* \"#utility.yul\":10674:10686   */\n      add\n        /* \"#utility.yul\":10667:10686   */\n      swap1\n      pop\n        /* \"#utility.yul\":10326:10692   */\n      swap2\n      swap1\n      pop\n      jump\t// out\n        /* \"#utility.yul\":10698:11117   */\n    tag_77:\n        /* \"#utility.yul\":10864:10868   */\n      0x00\n        /* \"#utility.yul\":10902:10904   */\n      0x20\n        /* \"#utility.yul\":10891:10900   */\n      dup3\n        /* \"#utility.yul\":10887:10905   */\n      add\n        /* \"#utility.yul\":10879:10905   */\n      swap1\n      pop\n        /* \"#utility.yul\":10951:10960   */\n      dup2\n        /* \"#utility.yul\":10945:10949   */\n      dup2\n        /* \"#utility.yul\":10941:10961   */\n      sub\n        /* \"#utility.yul\":10937:10938   */\n      0x00\n        /* \"#utility.yul\":10926:10935   */\n      dup4\n        /* \"#utility.yul\":10922:10939   */\n      add\n        /* \"#utility.yul\":10915:10962   */\n      mstore\n        /* \"#utility.yul\":10979:11110   */\n      tag_304\n        /* \"#utility.yul\":11105:11109   */\n      dup2\n        /* \"#utility.yul\":10979:11110   */\n      tag_163\n      jump\t// in\n    tag_304:\n        /* \"#utility.yul\":10971:11110   */\n      swap1\n      pop\n        /* \"#utility.yul\":10698:11117   */\n      swap2\n      swap1\n      pop\n      jump\t// out\n        /* \"#utility.yul\":11123:11294   */\n    tag_164:\n        /* \"#utility.yul\":11263:11286   */\n      0x53657276696365206973206e6f74206163746976650000000000000000000000\n        /* \"#utility.yul\":11259:11260   */\n      0x00\n        /* \"#utility.yul\":11251:11257   */\n      dup3\n        /* \"#utility.yul\":11247:11261   */\n      add\n        /* \"#utility.yul\":11240:11287   */\n      mstore\n        /* \"#utility.yul\":11123:11294   */\n      pop\n      jump\t// out\n        /* \"#utility.yul\":11300:11666   */\n    tag_165:\n        /* \"#utility.yul\":11442:11445   */\n      0x00\n        /* \"#utility.yul\":11463:11530   */\n      tag_307\n        /* \"#utility.yul\":11527:11529   */\n      0x15\n        /* \"#utility.yul\":11522:11525   */\n      dup4\n        /* \"#utility.yul\":11463:11530   */\n      tag_140\n      jump\t// in\n    tag_307:\n        /* \"#utility.yul\":11456:11530   */\n      swap2\n      pop\n        /* \"#utility.yul\":11539:11632   */\n      tag_308\n        /* \"#utility.yul\":11628:11631   */\n      dup3\n        /* \"#utility.yul\":11539:11632   */\n      tag_164\n      jump\t// in\n    tag_308:\n        /* \"#utility.yul\":11657:11659   */\n      0x20\n        /* \"#utility.yul\":11652:11655   */\n      dup3\n        /* \"#utility.yul\":11648:11660   */\n      add\n        /* \"#utility.yul\":11641:11660   */\n      swap1\n      pop\n        /* \"#utility.yul\":11300:11666   */\n      swap2\n      swap1\n      pop\n      jump\t// out\n        /* \"#utility.yul\":11672:12091   */\n    tag_84:\n        /* \"#utility.yul\":11838:11842   */\n      0x00\n        /* \"#utility.yul\":11876:11878   */\n      0x20\n        /* \"#utility.yul\":11865:11874   */\n      dup3\n        /* \"#utility.yul\":11861:11879   */\n      add\n        /* \"#utility.yul\":11853:11879   */\n      swap1\n      pop\n        /* \"#utility.yul\":11925:11934   */\n      dup2\n        /* \"#utility.yul\":11919:11923   */\n      dup2\n        /* \"#utility.yul\":11915:11935   */\n      sub\n        /* \"#utility.yul\":11911:11912   */\n      0x00\n        /* \"#utility.yul\":11900:11909   */\n      dup4\n        /* \"#utility.yul\":11896:11913   */\n      add\n        /* \"#utility.yul\":11889:11936   */\n      mstore\n        /* \"#utility.yul\":11953:12084   */\n      tag_310\n        /* \"#utility.yul\":12079:12083   */\n      dup2\n        /* \"#utility.yul\":11953:12084   */\n      tag_165\n      jump\t// in\n    tag_310:\n        /* \"#utility.yul\":11945:12084   */\n      swap1\n      pop\n        /* \"#utility.yul\":11672:12091   */\n      swap2\n      swap1\n      pop\n      jump\t// out\n        /* \"#utility.yul\":12097:12531   */\n    tag_166:\n        /* \"#utility.yul\":12186:12191   */\n      0x00\n        /* \"#utility.yul\":12211:12277   */\n      tag_312\n        /* \"#utility.yul\":12227:12276   */\n      tag_313\n        /* \"#utility.yul\":12269:12275   */\n      dup5\n        /* \"#utility.yul\":12227:12276   */\n      tag_156\n      jump\t// in\n    tag_313:\n        /* \"#utility.yul\":12211:12277   */\n      tag_155\n      jump\t// in\n    tag_312:\n        /* \"#utility.yul\":12202:12277   */\n      swap1\n      pop\n        /* \"#utility.yul\":12300:12306   */\n      dup3\n        /* \"#utility.yul\":12293:12298   */\n      dup2\n        /* \"#utility.yul\":12286:12307   */\n      mstore\n        /* \"#utility.yul\":12338:12342   */\n      0x20\n        /* \"#utility.yul\":12331:12336   */\n      dup2\n        /* \"#utility.yul\":12327:12343   */\n      add\n        /* \"#utility.yul\":12376:12379   */\n      dup5\n        /* \"#utility.yul\":12367:12373   */\n      dup5\n        /* \"#utility.yul\":12362:12365   */\n      dup5\n        /* \"#utility.yul\":12358:12374   */\n      add\n        /* \"#utility.yul\":12355:12380   */\n      gt\n        /* \"#utility.yul\":12352:12464   */\n      iszero\n      tag_314\n      jumpi\n        /* \"#utility.yul\":12383:12462   */\n      tag_315\n      tag_152\n      jump\t// in\n    tag_315:\n        /* \"#utility.yul\":12352:12464   */\n    tag_314:\n        /* \"#utility.yul\":12473:12525   */\n      tag_316\n        /* \"#utility.yul\":12518:12524   */\n      dup5\n        /* \"#utility.yul\":12513:12516   */\n      dup3\n        /* \"#utility.yul\":12508:12511   */\n      dup6\n        /* \"#utility.yul\":12473:12525   */\n      tag_141\n      jump\t// in\n    tag_316:\n        /* \"#utility.yul\":12192:12531   */\n      pop\n        /* \"#utility.yul\":12097:12531   */\n      swap4\n      swap3\n      pop\n      pop\n      pop\n      jump\t// out\n        /* \"#utility.yul\":12551:12906   */\n    tag_167:\n        /* \"#utility.yul\":12618:12623   */\n      0x00\n        /* \"#utility.yul\":12667:12670   */\n      dup3\n        /* \"#utility.yul\":12660:12664   */\n      0x1f\n        /* \"#utility.yul\":12652:12658   */\n      dup4\n        /* \"#utility.yul\":12648:12665   */\n      add\n        /* \"#utility.yul\":12644:12671   */\n      slt\n        /* \"#utility.yul\":12634:12756   */\n      tag_318\n      jumpi\n        /* \"#utility.yul\":12675:12754   */\n      tag_319\n      tag_151\n      jump\t// in\n    tag_319:\n        /* \"#utility.yul\":12634:12756   */\n    tag_318:\n        /* \"#utility.yul\":12785:12791   */\n      dup2\n        /* \"#utility.yul\":12779:12792   */\n      mload\n        /* \"#utility.yul\":12810:12900   */\n      tag_320\n        /* \"#utility.yul\":12896:12899   */\n      dup5\n        /* \"#utility.yul\":12888:12894   */\n      dup3\n        /* \"#utility.yul\":12881:12885   */\n      0x20\n        /* \"#utility.yul\":12873:12879   */\n      dup7\n        /* \"#utility.yul\":12869:12886   */\n      add\n        /* \"#utility.yul\":12810:12900   */\n      tag_166\n      jump\t// in\n    tag_320:\n        /* \"#utility.yul\":12801:12900   */\n      swap2\n      pop\n        /* \"#utility.yul\":12624:12906   */\n      pop\n        /* \"#utility.yul\":12551:12906   */\n      swap3\n      swap2\n      pop\n      pop\n      jump\t// out\n        /* \"#utility.yul\":12912:13034   */\n    tag_168:\n        /* \"#utility.yul\":12985:13009   */\n      tag_322\n        /* \"#utility.yul\":13003:13008   */\n      dup2\n        /* \"#utility.yul\":12985:13009   */\n      tag_137\n      jump\t// in\n    tag_322:\n        /* \"#utility.yul\":12978:12983   */\n      dup2\n        /* \"#utility.yul\":12975:13010   */\n      eq\n        /* \"#utility.yul\":12965:13028   */\n      tag_323\n      jumpi\n        /* \"#utility.yul\":13024:13025   */\n      0x00\n        /* \"#utility.yul\":13021:13022   */\n      dup1\n        /* \"#utility.yul\":13014:13026   */\n      revert\n        /* \"#utility.yul\":12965:13028   */\n    tag_323:\n        /* \"#utility.yul\":12912:13034   */\n      pop\n      jump\t// out\n        /* \"#utility.yul\":13040:13183   */\n    tag_169:\n        /* \"#utility.yul\":13097:13102   */\n      0x00\n        /* \"#utility.yul\":13128:13134   */\n      dup2\n        /* \"#utility.yul\":13122:13135   */\n      mload\n        /* \"#utility.yul\":13113:13135   */\n      swap1\n      pop\n        /* \"#utility.yul\":13144:13177   */\n      tag_325\n        /* \"#utility.yul\":13171:13176   */\n      dup2\n        /* \"#utility.yul\":13144:13177   */\n      tag_168\n      jump\t// in\n    tag_325:\n        /* \"#utility.yul\":13040:13183   */\n      swap3\n      swap2\n      pop\n      pop\n      jump\t// out\n        /* \"#utility.yul\":13189:13305   */\n    tag_170:\n        /* \"#utility.yul\":13259:13280   */\n      tag_327\n        /* \"#utility.yul\":13274:13279   */\n      dup2\n        /* \"#utility.yul\":13259:13280   */\n      tag_144\n      jump\t// in\n    tag_327:\n        /* \"#utility.yul\":13252:13257   */\n      dup2\n        /* \"#utility.yul\":13249:13281   */\n      eq\n        /* \"#utility.yul\":13239:13299   */\n      tag_328\n      jumpi\n        /* \"#utility.yul\":13295:13296   */\n      0x00\n        /* \"#utility.yul\":13292:13293   */\n      dup1\n        /* \"#utility.yul\":13285:13297   */\n      revert\n        /* \"#utility.yul\":13239:13299   */\n    tag_328:\n        /* \"#utility.yul\":13189:13305   */\n      pop\n      jump\t// out\n        /* \"#utility.yul\":13311:13448   */\n    tag_171:\n        /* \"#utility.yul\":13365:13370   */\n      0x00\n        /* \"#utility.yul\":13396:13402   */\n      dup2\n        /* \"#utility.yul\":13390:13403   */\n      mload\n        /* \"#utility.yul\":13381:13403   */\n      swap1\n      pop\n        /* \"#utility.yul\":13412:13442   */\n      tag_330\n        /* \"#utility.yul\":13436:13441   */\n      dup2\n        /* \"#utility.yul\":13412:13442   */\n      tag_170\n      jump\t// in\n    tag_330:\n        /* \"#utility.yul\":13311:13448   */\n      swap3\n      swap2\n      pop\n      pop\n      jump\t// out\n        /* \"#utility.yul\":13454:14614   */\n    tag_90:\n        /* \"#utility.yul\":13568:13574   */\n      0x00\n        /* \"#utility.yul\":13576:13582   */\n      dup1\n        /* \"#utility.yul\":13584:13590   */\n      0x00\n        /* \"#utility.yul\":13592:13598   */\n      dup1\n        /* \"#utility.yul\":13641:13644   */\n      0x80\n        /* \"#utility.yul\":13629:13638   */\n      dup6\n        /* \"#utility.yul\":13620:13627   */\n      dup8\n        /* \"#utility.yul\":13616:13639   */\n      sub\n        /* \"#utility.yul\":13612:13645   */\n      slt\n        /* \"#utility.yul\":13609:13729   */\n      iszero\n      tag_332\n      jumpi\n        /* \"#utility.yul\":13648:13727   */\n      tag_333\n      tag_132\n      jump\t// in\n    tag_333:\n        /* \"#utility.yul\":13609:13729   */\n    tag_332:\n        /* \"#utility.yul\":13789:13790   */\n      0x00\n        /* \"#utility.yul\":13778:13787   */\n      dup6\n        /* \"#utility.yul\":13774:13791   */\n      add\n        /* \"#utility.yul\":13768:13792   */\n      mload\n        /* \"#utility.yul\":13819:13837   */\n      0xffffffffffffffff\n        /* \"#utility.yul\":13811:13817   */\n      dup2\n        /* \"#utility.yul\":13808:13838   */\n      gt\n        /* \"#utility.yul\":13805:13922   */\n      iszero\n      tag_334\n      jumpi\n        /* \"#utility.yul\":13841:13920   */\n      tag_335\n      tag_133\n      jump\t// in\n    tag_335:\n        /* \"#utility.yul\":13805:13922   */\n    tag_334:\n        /* \"#utility.yul\":13946:14020   */\n      tag_336\n        /* \"#utility.yul\":14012:14019   */\n      dup8\n        /* \"#utility.yul\":14003:14009   */\n      dup3\n        /* \"#utility.yul\":13992:14001   */\n      dup9\n        /* \"#utility.yul\":13988:14010   */\n      add\n        /* \"#utility.yul\":13946:14020   */\n      tag_167\n      jump\t// in\n    tag_336:\n        /* \"#utility.yul\":13936:14020   */\n      swap5\n      pop\n        /* \"#utility.yul\":13739:14030   */\n      pop\n        /* \"#utility.yul\":14090:14092   */\n      0x20\n        /* \"#utility.yul\":14079:14088   */\n      dup6\n        /* \"#utility.yul\":14075:14093   */\n      add\n        /* \"#utility.yul\":14069:14094   */\n      mload\n        /* \"#utility.yul\":14121:14139   */\n      0xffffffffffffffff\n        /* \"#utility.yul\":14113:14119   */\n      dup2\n        /* \"#utility.yul\":14110:14140   */\n      gt\n        /* \"#utility.yul\":14107:14224   */\n      iszero\n      tag_337\n      jumpi\n        /* \"#utility.yul\":14143:14222   */\n      tag_338\n      tag_133\n      jump\t// in\n    tag_338:\n        /* \"#utility.yul\":14107:14224   */\n    tag_337:\n        /* \"#utility.yul\":14248:14322   */\n      tag_339\n        /* \"#utility.yul\":14314:14321   */\n      dup8\n        /* \"#utility.yul\":14305:14311   */\n      dup3\n        /* \"#utility.yul\":14294:14303   */\n      dup9\n        /* \"#utility.yul\":14290:14312   */\n      add\n        /* \"#utility.yul\":14248:14322   */\n      tag_167\n      jump\t// in\n    tag_339:\n        /* \"#utility.yul\":14238:14322   */\n      swap4\n      pop\n        /* \"#utility.yul\":14040:14332   */\n      pop\n        /* \"#utility.yul\":14371:14373   */\n      0x40\n        /* \"#utility.yul\":14397:14461   */\n      tag_340\n        /* \"#utility.yul\":14453:14460   */\n      dup8\n        /* \"#utility.yul\":14444:14450   */\n      dup3\n        /* \"#utility.yul\":14433:14442   */\n      dup9\n        /* \"#utility.yul\":14429:14451   */\n      add\n        /* \"#utility.yul\":14397:14461   */\n      tag_169\n      jump\t// in\n    tag_340:\n        /* \"#utility.yul\":14387:14461   */\n      swap3\n      pop\n        /* \"#utility.yul\":14342:14471   */\n      pop\n        /* \"#utility.yul\":14510:14512   */\n      0x60\n        /* \"#utility.yul\":14536:14597   */\n      tag_341\n        /* \"#utility.yul\":14589:14596   */\n      dup8\n        /* \"#utility.yul\":14580:14586   */\n      dup3\n        /* \"#utility.yul\":14569:14578   */\n      dup9\n        /* \"#utility.yul\":14565:14587   */\n      add\n        /* \"#utility.yul\":14536:14597   */\n      tag_171\n      jump\t// in\n    tag_341:\n        /* \"#utility.yul\":14526:14597   */\n      swap2\n      pop\n        /* \"#utility.yul\":14481:14607   */\n      pop\n        /* \"#utility.yul\":13454:14614   */\n      swap3\n      swap6\n      swap2\n      swap5\n      pop\n      swap3\n      pop\n      jump\t// out\n        /* \"#utility.yul\":14620:14844   */\n    tag_172:\n        /* \"#utility.yul\":14760:14794   */\n      0x436f6d70616e7920646f6573206e6f74206578697374206f7220697320696e61\n        /* \"#utility.yul\":14756:14757   */\n      0x00\n        /* \"#utility.yul\":14748:14754   */\n      dup3\n        /* \"#utility.yul\":14744:14758   */\n      add\n        /* \"#utility.yul\":14737:14795   */\n      mstore\n        /* \"#utility.yul\":14829:14836   */\n      0x6374697665000000000000000000000000000000000000000000000000000000\n        /* \"#utility.yul\":14824:14826   */\n      0x20\n        /* \"#utility.yul\":14816:14822   */\n      dup3\n        /* \"#utility.yul\":14812:14827   */\n      add\n        /* \"#utility.yul\":14805:14837   */\n      mstore\n        /* \"#utility.yul\":14620:14844   */\n      pop\n      jump\t// out\n        /* \"#utility.yul\":14850:15216   */\n    tag_173:\n        /* \"#utility.yul\":14992:14995   */\n      0x00\n        /* \"#utility.yul\":15013:15080   */\n      tag_344\n        /* \"#utility.yul\":15077:15079   */\n      0x25\n        /* \"#utility.yul\":15072:15075   */\n      dup4\n        /* \"#utility.yul\":15013:15080   */\n      tag_140\n      jump\t// in\n    tag_344:\n        /* \"#utility.yul\":15006:15080   */\n      swap2\n      pop\n        /* \"#utility.yul\":15089:15182   */\n      tag_345\n        /* \"#utility.yul\":15178:15181   */\n      dup3\n        /* \"#utility.yul\":15089:15182   */\n      tag_172\n      jump\t// in\n    tag_345:\n        /* \"#utility.yul\":15207:15209   */\n      0x40\n        /* \"#utility.yul\":15202:15205   */\n      dup3\n        /* \"#utility.yul\":15198:15210   */\n      add\n        /* \"#utility.yul\":15191:15210   */\n      swap1\n      pop\n        /* \"#utility.yul\":14850:15216   */\n      swap2\n      swap1\n      pop\n      jump\t// out\n        /* \"#utility.yul\":15222:15641   */\n    tag_93:\n        /* \"#utility.yul\":15388:15392   */\n      0x00\n        /* \"#utility.yul\":15426:15428   */\n      0x20\n        /* \"#utility.yul\":15415:15424   */\n      dup3\n        /* \"#utility.yul\":15411:15429   */\n      add\n        /* \"#utility.yul\":15403:15429   */\n      swap1\n      pop\n        /* \"#utility.yul\":15475:15484   */\n      dup2\n        /* \"#utility.yul\":15469:15473   */\n      dup2\n        /* \"#utility.yul\":15465:15485   */\n      sub\n        /* \"#utility.yul\":15461:15462   */\n      0x00\n        /* \"#utility.yul\":15450:15459   */\n      dup4\n        /* \"#utility.yul\":15446:15463   */\n      add\n        /* \"#utility.yul\":15439:15486   */\n      mstore\n        /* \"#utility.yul\":15503:15634   */\n      tag_347\n        /* \"#utility.yul\":15629:15633   */\n      dup2\n        /* \"#utility.yul\":15503:15634   */\n      tag_173\n      jump\t// in\n    tag_347:\n        /* \"#utility.yul\":15495:15634   */\n      swap1\n      pop\n        /* \"#utility.yul\":15222:15641   */\n      swap2\n      swap1\n      pop\n      jump\t// out\n        /* \"#utility.yul\":15647:15827   */\n    tag_174:\n        /* \"#utility.yul\":15695:15772   */\n      0x4e487b7100000000000000000000000000000000000000000000000000000000\n        /* \"#utility.yul\":15692:15693   */\n      0x00\n        /* \"#utility.yul\":15685:15773   */\n      mstore\n        /* \"#utility.yul\":15792:15796   */\n      0x11\n        /* \"#utility.yul\":15789:15790   */\n      0x04\n        /* \"#utility.yul\":15782:15797   */\n      mstore\n        /* \"#utility.yul\":15816:15820   */\n      0x24\n        /* \"#utility.yul\":15813:15814   */\n      0x00\n        /* \"#utility.yul\":15806:15821   */\n      revert\n        /* \"#utility.yul\":15833:16066   */\n    tag_98:\n        /* \"#utility.yul\":15872:15875   */\n      0x00\n        /* \"#utility.yul\":15895:15919   */\n      tag_350\n        /* \"#utility.yul\":15913:15918   */\n      dup3\n        /* \"#utility.yul\":15895:15919   */\n      tag_129\n      jump\t// in\n    tag_350:\n        /* \"#utility.yul\":15886:15919   */\n      swap2\n      pop\n        /* \"#utility.yul\":15941:16007   */\n      0xffffffffffffffffffffffffffffffffffffffffffffffffffffffffffffffff\n        /* \"#utility.yul\":15934:15939   */\n      dup3\n        /* \"#utility.yul\":15931:16008   */\n      sub\n        /* \"#utility.yul\":15928:16031   */\n      tag_351\n      jumpi\n        /* \"#utility.yul\":16011:16029   */\n      tag_352\n      tag_174\n      jump\t// in\n    tag_352:\n        /* \"#utility.yul\":15928:16031   */\n    tag_351:\n        /* \"#utility.yul\":16058:16059   */\n      0x01\n        /* \"#utility.yul\":16051:16056   */\n      dup3\n        /* \"#utility.yul\":16047:16060   */\n      add\n        /* \"#utility.yul\":16040:16060   */\n      swap1\n      pop\n        /* \"#utility.yul\":15833:16066   */\n      swap2\n      swap1\n      pop\n      jump\t// out\n        /* \"#utility.yul\":16072:16482   */\n    tag_100:\n        /* \"#utility.yul\":16112:16119   */\n      0x00\n        /* \"#utility.yul\":16135:16155   */\n      tag_354\n        /* \"#utility.yul\":16153:16154   */\n      dup3\n        /* \"#utility.yul\":16135:16155   */\n      tag_129\n      jump\t// in\n    tag_354:\n        /* \"#utility.yul\":16130:16155   */\n      swap2\n      pop\n        /* \"#utility.yul\":16169:16189   */\n      tag_355\n        /* \"#utility.yul\":16187:16188   */\n      dup4\n        /* \"#utility.yul\":16169:16189   */\n      tag_129\n      jump\t// in\n    tag_355:\n        /* \"#utility.yul\":16164:16189   */\n      swap3\n      pop\n        /* \"#utility.yul\":16224:16225   */\n      dup3\n        /* \"#utility.yul\":16221:16222   */\n      dup3\n        /* \"#utility.yul\":16217:16226   */\n      mul\n        /* \"#utility.yul\":16246:16276   */\n      tag_356\n        /* \"#utility.yul\":16264:16275   */\n      dup2\n        /* \"#utility.yul\":16246:16276   */\n      tag_129\n      jump\t// in\n    tag_356:\n        /* \"#utility.yul\":16235:16276   */\n      swap2\n      pop\n        /* \"#utility.yul\":16425:16426   */\n      dup3\n        /* \"#utility.yul\":16416:16423   */\n      dup3\n        /* \"#utility.yul\":16412:16427   */\n      div\n        /* \"#utility.yul\":16409:16410   */\n      dup5\n        /* \"#utility.yul\":16406:16428   */\n      eq\n        /* \"#utility.yul\":16386:16387   */\n      dup4\n        /* \"#utility.yul\":16379:16388   */\n      iszero\n        /* \"#utility.yul\":16359:16442   */\n      or\n        /* \"#utility.yul\":16336:16475   */\n      tag_357\n      jumpi\n        /* \"#utility.yul\":16455:16473   */\n      tag_358\n      tag_174\n      jump\t// in\n    tag_358:\n        /* \"#utility.yul\":16336:16475   */\n    tag_357:\n        /* \"#utility.yul\":16120:16482   */\n      pop\n        /* \"#utility.yul\":16072:16482   */\n      swap3\n      swap2\n      pop\n      pop\n      jump\t// out\n        /* \"#utility.yul\":16488:16930   */\n    tag_102:\n        /* \"#utility.yul\":16637:16641   */\n      0x00\n        /* \"#utility.yul\":16675:16677   */\n      0x60\n        /* \"#utility.yul\":16664:16673   */\n      dup3\n        /* \"#utility.yul\":16660:16678   */\n      add\n        /* \"#utility.yul\":16652:16678   */\n      swap1\n      pop\n        /* \"#utility.yul\":16688:16759   */\n      tag_360\n        /* \"#utility.yul\":16756:16757   */\n      0x00\n        /* \"#utility.yul\":16745:16754   */\n      dup4\n        /* \"#utility.yul\":16741:16758   */\n      add\n        /* \"#utility.yul\":16732:16738   */\n      dup7\n        /* \"#utility.yul\":16688:16759   */\n      tag_130\n      jump\t// in\n    tag_360:\n        /* \"#utility.yul\":16769:16841   */\n      tag_361\n        /* \"#utility.yul\":16837:16839   */\n      0x20\n        /* \"#utility.yul\":16826:16835   */\n      dup4\n        /* \"#utility.yul\":16822:16840   */\n      add\n        /* \"#utility.yul\":16813:16819   */\n      dup6\n        /* \"#utility.yul\":16769:16841   */\n      tag_130\n      jump\t// in\n    tag_361:\n        /* \"#utility.yul\":16851:16923   */\n      tag_362\n        /* \"#utility.yul\":16919:16921   */\n      0x40\n        /* \"#utility.yul\":16908:16917   */\n      dup4\n        /* \"#utility.yul\":16904:16922   */\n      add\n        /* \"#utility.yul\":16895:16901   */\n      dup5\n        /* \"#utility.yul\":16851:16923   */\n      tag_130\n      jump\t// in\n    tag_362:\n        /* \"#utility.yul\":16488:16930   */\n      swap5\n      swap4\n      pop\n      pop\n      pop\n      pop\n      jump\t// out\n        /* \"#utility.yul\":16936:17116   */\n    tag_175:\n        /* \"#utility.yul\":16984:17061   */\n      0x4e487b7100000000000000000000000000000000000000000000000000000000\n        /* \"#utility.yul\":16981:16982   */\n      0x00\n        /* \"#utility.yul\":16974:17062   */\n      mstore\n        /* \"#utility.yul\":17081:17085   */\n      0x22\n        /* \"#utility.yul\":17078:17079   */\n      0x04\n        /* \"#utility.yul\":17071:17086   */\n      mstore\n        /* \"#utility.yul\":17105:17109   */\n      0x24\n        /* \"#utility.yul\":17102:17103   */\n      0x00\n        /* \"#utility.yul\":17095:17110   */\n      revert\n        /* \"#utility.yul\":17122:17442   */\n    tag_104:\n        /* \"#utility.yul\":17166:17172   */\n      0x00\n        /* \"#utility.yul\":17203:17204   */\n      0x02\n        /* \"#utility.yul\":17197:17201   */\n      dup3\n        /* \"#utility.yul\":17193:17205   */\n      div\n        /* \"#utility.yul\":17183:17205   */\n      swap1\n      pop\n        /* \"#utility.yul\":17250:17251   */\n      0x01\n        /* \"#utility.yul\":17244:17248   */\n      dup3\n        /* \"#utility.yul\":17240:17252   */\n      and\n        /* \"#utility.yul\":17271:17289   */\n      dup1\n        /* \"#utility.yul\":17261:17342   */\n      tag_365\n      jumpi\n        /* \"#utility.yul\":17327:17331   */\n      0x7f\n        /* \"#utility.yul\":17319:17325   */\n      dup3\n        /* \"#utility.yul\":17315:17332   */\n      and\n        /* \"#utility.yul\":17305:17332   */\n      swap2\n      pop\n        /* \"#utility.yul\":17261:17342   */\n    tag_365:\n        /* \"#utility.yul\":17389:17391   */\n      0x20\n        /* \"#utility.yul\":17381:17387   */\n      dup3\n        /* \"#utility.yul\":17378:17392   */\n      lt\n        /* \"#utility.yul\":17358:17376   */\n      dup2\n        /* \"#utility.yul\":17355:17393   */\n      sub\n        /* \"#utility.yul\":17352:17436   */\n      tag_366\n      jumpi\n        /* \"#utility.yul\":17408:17426   */\n      tag_367\n      tag_175\n      jump\t// in\n    tag_367:\n        /* \"#utility.yul\":17352:17436   */\n    tag_366:\n        /* \"#utility.yul\":17173:17442   */\n      pop\n        /* \"#utility.yul\":17122:17442   */\n      swap2\n      swap1\n      pop\n      jump\t// out\n        /* \"#utility.yul\":17448:17589   */\n    tag_176:\n        /* \"#utility.yul\":17497:17501   */\n      0x00\n        /* \"#utility.yul\":17520:17523   */\n      dup2\n        /* \"#utility.yul\":17512:17523   */\n      swap1\n      pop\n        /* \"#utility.yul\":17543:17546   */\n      dup2\n        /* \"#utility.yul\":17540:17541   */\n      0x00\n        /* \"#utility.yul\":17533:17547   */\n      mstore\n        /* \"#utility.yul\":17577:17581   */\n      0x20\n        /* \"#utility.yul\":17574:17575   */\n      0x00\n        /* \"#utility.yul\":17564:17582   */\n      keccak256\n        /* \"#utility.yul\":17556:17582   */\n      swap1\n      pop\n        /* \"#utility.yul\":17448:17589   */\n      swap2\n      swap1\n      pop\n      jump\t// out\n        /* \"#utility.yul\":17595:17688   */\n    tag_177:\n        /* \"#utility.yul\":17632:17638   */\n      0x00\n        /* \"#utility.yul\":17679:17681   */\n      0x20\n        /* \"#utility.yul\":17674:17676   */\n      0x1f\n        /* \"#utility.yul\":17667:17672   */\n      dup4\n        /* \"#utility.yul\":17663:17677   */\n      add\n        /* \"#utility.yul\":17659:17682   */\n      div\n        /* \"#utility.yul\":17649:17682   */\n      swap1\n      pop\n        /* \"#utility.yul\":17595:17688   */\n      swap2\n      swap1\n      pop\n      jump\t// out\n        /* \"#utility.yul\":17694:17801   */\n    tag_178:\n        /* \"#utility.yul\":17738:17746   */\n      0x00\n        /* \"#utility.yul\":17788:17793   */\n      dup3\n        /* \"#utility.yul\":17782:17786   */\n      dup3\n        /* \"#utility.yul\":17778:17794   */\n      shl\n        /* \"#utility.yul\":17757:17794   */\n      swap1\n      pop\n        /* \"#utility.yul\":17694:17801   */\n      swap3\n      swap2\n      pop\n      pop\n      jump\t// out\n        /* \"#utility.yul\":17807:18200   */\n    tag_179:\n        /* \"#utility.yul\":17876:17882   */\n      0x00\n        /* \"#utility.yul\":17926:17927   */\n      0x08\n        /* \"#utility.yul\":17914:17924   */\n      dup4\n        /* \"#utility.yul\":17910:17928   */\n      mul\n        /* \"#utility.yul\":17949:18046   */\n      tag_372\n        /* \"#utility.yul\":17979:18045   */\n      0xffffffffffffffffffffffffffffffffffffffffffffffffffffffffffffffff\n        /* \"#utility.yul\":17968:17977   */\n      dup3\n        /* \"#utility.yul\":17949:18046   */\n      tag_178\n      jump\t// in\n    tag_372:\n        /* \"#utility.yul\":18067:18106   */\n      tag_373\n        /* \"#utility.yul\":18097:18105   */\n      dup7\n        /* \"#utility.yul\":18086:18095   */\n      dup4\n        /* \"#utility.yul\":18067:18106   */\n      tag_178\n      jump\t// in\n    tag_373:\n        /* \"#utility.yul\":18055:18106   */\n      swap6\n      pop\n        /* \"#utility.yul\":18139:18143   */\n      dup1\n        /* \"#utility.yul\":18135:18144   */\n      not\n        /* \"#utility.yul\":18128:18133   */\n      dup5\n        /* \"#utility.yul\":18124:18145   */\n      and\n        /* \"#utility.yul\":18115:18145   */\n      swap4\n      pop\n        /* \"#utility.yul\":18188:18192   */\n      dup1\n        /* \"#utility.yul\":18178:18186   */\n      dup7\n        /* \"#utility.yul\":18174:18193   */\n      and\n        /* \"#utility.yul\":18167:18172   */\n      dup5\n        /* \"#utility.yul\":18164:18194   */\n      or\n        /* \"#utility.yul\":18154:18194   */\n      swap3\n      pop\n        /* \"#utility.yul\":17883:18200   */\n      pop\n      pop\n        /* \"#utility.yul\":17807:18200   */\n      swap4\n      swap3\n      pop\n      pop\n      pop\n      jump\t// out\n        /* \"#utility.yul\":18206:18348   */\n    tag_180:\n        /* \"#utility.yul\":18256:18265   */\n      0x00\n        /* \"#utility.yul\":18289:18342   */\n      tag_375\n        /* \"#utility.yul\":18307:18341   */\n      tag_376\n        /* \"#utility.yul\":18316:18340   */\n      tag_377\n        /* \"#utility.yul\":18334:18339   */\n      dup5\n        /* \"#utility.yul\":18316:18340   */\n      tag_129\n      jump\t// in\n    tag_377:\n        /* \"#utility.yul\":18307:18341   */\n      tag_146\n      jump\t// in\n    tag_376:\n        /* \"#utility.yul\":18289:18342   */\n      tag_129\n      jump\t// in\n    tag_375:\n        /* \"#utility.yul\":18276:18342   */\n      swap1\n      pop\n        /* \"#utility.yul\":18206:18348   */\n      swap2\n      swap1\n      pop\n      jump\t// out\n        /* \"#utility.yul\":18354:18429   */\n    tag_181:\n        /* \"#utility.yul\":18397:18400   */\n      0x00\n        /* \"#utility.yul\":18418:18423   */\n      dup2\n        /* \"#utility.yul\":18411:18423   */\n      swap1\n      pop\n        /* \"#utility.yul\":18354:18429   */\n      swap2\n      swap1\n      pop\n      jump\t// out\n        /* \"#utility.yul\":18435:18704   */\n    tag_182:\n        /* \"#utility.yul\":18545:18584   */\n      tag_380\n        /* \"#utility.yul\":18576:18583   */\n      dup4\n        /* \"#utility.yul\":18545:18584   */\n      tag_180\n      jump\t// in\n    tag_380:\n        /* \"#utility.yul\":18606:18697   */\n      tag_381\n        /* \"#utility.yul\":18655:18696   */\n      tag_382\n        /* \"#utility.yul\":18679:18695   */\n      dup3\n        /* \"#utility.yul\":18655:18696   */\n      tag_181\n      jump\t// in\n    tag_382:\n        /* \"#utility.yul\":18647:18653   */\n      dup5\n        /* \"#utility.yul\":18640:18644   */\n      dup5\n        /* \"#utility.yul\":18634:18645   */\n      sload\n        /* \"#utility.yul\":18606:18697   */\n      tag_179\n      jump\t// in\n    tag_381:\n        /* \"#utility.yul\":18600:18604   */\n      dup3\n        /* \"#utility.yul\":18593:18698   */\n      sstore\n        /* \"#utility.yul\":18511:18704   */\n      pop\n        /* \"#utility.yul\":18435:18704   */\n      pop\n      pop\n      pop\n      jump\t// out\n        /* \"#utility.yul\":18710:18783   */\n    tag_183:\n        /* \"#utility.yul\":18755:18758   */\n      0x00\n        /* \"#utility.yul\":18710:18783   */\n      swap1\n      jump\t// out\n        /* \"#utility.yul\":18789:18978   */\n    tag_184:\n        /* \"#utility.yul\":18866:18898   */\n      tag_385\n      tag_183\n      jump\t// in\n    tag_385:\n        /* \"#utility.yul\":18907:18972   */\n      tag_386\n        /* \"#utility.yul\":18965:18971   */\n      dup2\n        /* \"#utility.yul\":18957:18963   */\n      dup5\n        /* \"#utility.yul\":18951:18955   */\n      dup5\n        /* \"#utility.yul\":18907:18972   */\n      tag_182\n      jump\t// in\n    tag_386:\n        /* \"#utility.yul\":18842:18978   */\n      pop\n        /* \"#utility.yul\":18789:18978   */\n      pop\n      pop\n      jump\t// out\n        /* \"#utility.yul\":18984:19170   */\n    tag_185:\n        /* \"#utility.yul\":19044:19164   */\n    tag_388:\n        /* \"#utility.yul\":19061:19064   */\n      dup2\n        /* \"#utility.yul\":19054:19059   */\n      dup2\n        /* \"#utility.yul\":19051:19065   */\n      lt\n        /* \"#utility.yul\":19044:19164   */\n      iszero\n      tag_390\n      jumpi\n        /* \"#utility.yul\":19115:19154   */\n      tag_391\n        /* \"#utility.yul\":19152:19153   */\n      0x00\n        /* \"#utility.yul\":19145:19150   */\n      dup3\n        /* \"#utility.yul\":19115:19154   */\n      tag_184\n      jump\t// in\n    tag_391:\n        /* \"#utility.yul\":19088:19089   */\n      0x01\n        /* \"#utility.yul\":19081:19086   */\n      dup2\n        /* \"#utility.yul\":19077:19090   */\n      add\n        /* \"#utility.yul\":19068:19090   */\n      swap1\n      pop\n        /* \"#utility.yul\":19044:19164   */\n      jump(tag_388)\n    tag_390:\n        /* \"#utility.yul\":18984:19170   */\n      pop\n      pop\n      jump\t// out\n        /* \"#utility.yul\":19176:19719   */\n    tag_186:\n        /* \"#utility.yul\":19277:19279   */\n      0x1f\n        /* \"#utility.yul\":19272:19275   */\n      dup3\n        /* \"#utility.yul\":19269:19280   */\n      gt\n        /* \"#utility.yul\":19266:19712   */\n      iszero\n      tag_393\n      jumpi\n        /* \"#utility.yul\":19311:19349   */\n      tag_394\n        /* \"#utility.yul\":19343:19348   */\n      dup2\n        /* \"#utility.yul\":19311:19349   */\n      tag_176\n      jump\t// in\n    tag_394:\n        /* \"#utility.yul\":19395:19424   */\n      tag_395\n        /* \"#utility.yul\":19413:19423   */\n      dup5\n        /* \"#utility.yul\":19395:19424   */\n      tag_177\n      jump\t// in\n    tag_395:\n        /* \"#utility.yul\":19385:19393   */\n      dup2\n        /* \"#utility.yul\":19381:19425   */\n      add\n        /* \"#utility.yul\":19578:19580   */\n      0x20\n        /* \"#utility.yul\":19566:19576   */\n      dup6\n        /* \"#utility.yul\":19563:19581   */\n      lt\n        /* \"#utility.yul\":19560:19609   */\n      iszero\n      tag_396\n      jumpi\n        /* \"#utility.yul\":19599:19607   */\n      dup2\n        /* \"#utility.yul\":19584:19607   */\n      swap1\n      pop\n        /* \"#utility.yul\":19560:19609   */\n    tag_396:\n        /* \"#utility.yul\":19622:19702   */\n      tag_397\n        /* \"#utility.yul\":19678:19700   */\n      tag_398\n        /* \"#utility.yul\":19696:19699   */\n      dup6\n        /* \"#utility.yul\":19678:19700   */\n      tag_177\n      jump\t// in\n    tag_398:\n        /* \"#utility.yul\":19668:19676   */\n      dup4\n        /* \"#utility.yul\":19664:19701   */\n      add\n        /* \"#utility.yul\":19651:19662   */\n      dup3\n        /* \"#utility.yul\":19622:19702   */\n      tag_185\n      jump\t// in\n    tag_397:\n        /* \"#utility.yul\":19281:19712   */\n      pop\n      pop\n        /* \"#utility.yul\":19266:19712   */\n    tag_393:\n        /* \"#utility.yul\":19176:19719   */\n      pop\n      pop\n      pop\n      jump\t// out\n        /* \"#utility.yul\":19725:19842   */\n    tag_187:\n        /* \"#utility.yul\":19779:19787   */\n      0x00\n        /* \"#utility.yul\":19829:19834   */\n      dup3\n        /* \"#utility.yul\":19823:19827   */\n      dup3\n        /* \"#utility.yul\":19819:19835   */\n      shr\n        /* \"#utility.yul\":19798:19835   */\n      swap1\n      pop\n        /* \"#utility.yul\":19725:19842   */\n      swap3\n      swap2\n      pop\n      pop\n      jump\t// out\n        /* \"#utility.yul\":19848:20017   */\n    tag_188:\n        /* \"#utility.yul\":19892:19898   */\n      0x00\n        /* \"#utility.yul\":19925:19976   */\n      tag_401\n        /* \"#utility.yul\":19973:19974   */\n      0x00\n        /* \"#utility.yul\":19969:19975   */\n      not\n        /* \"#utility.yul\":19961:19966   */\n      dup5\n        /* \"#utility.yul\":19958:19959   */\n      0x08\n        /* \"#utility.yul\":19954:19967   */\n      mul\n        /* \"#utility.yul\":19925:19976   */\n      tag_187\n      jump\t// in\n    tag_401:\n        /* \"#utility.yul\":19921:19977   */\n      not\n        /* \"#utility.yul\":20006:20010   */\n      dup1\n        /* \"#utility.yul\":20000:20004   */\n      dup4\n        /* \"#utility.yul\":19996:20011   */\n      and\n        /* \"#utility.yul\":19986:20011   */\n      swap2\n      pop\n        /* \"#utility.yul\":19899:20017   */\n      pop\n        /* \"#utility.yul\":19848:20017   */\n      swap3\n      swap2\n      pop\n      pop\n      jump\t// out\n        /* \"#utility.yul\":20022:20317   */\n    tag_189:\n        /* \"#utility.yul\":20098:20102   */\n      0x00\n        /* \"#utility.yul\":20244:20273   */\n      tag_403\n        /* \"#utility.yul\":20269:20272   */\n      dup4\n        /* \"#utility.yul\":20263:20267   */\n      dup4\n        /* \"#utility.yul\":20244:20273   */\n      tag_188\n      jump\t// in\n    tag_403:\n        /* \"#utility.yul\":20236:20273   */\n      swap2\n      pop\n        /* \"#utility.yul\":20306:20309   */\n      dup3\n        /* \"#utility.yul\":20303:20304   */\n      0x02\n        /* \"#utility.yul\":20299:20310   */\n      mul\n        /* \"#utility.yul\":20293:20297   */\n      dup3\n        /* \"#utility.yul\":20290:20311   */\n      or\n        /* \"#utility.yul\":20282:20311   */\n      swap1\n      pop\n        /* \"#utility.yul\":20022:20317   */\n      swap3\n      swap2\n      pop\n      pop\n      jump\t// out\n        /* \"#utility.yul\":20322:21717   */\n    tag_115:\n        /* \"#utility.yul\":20439:20476   */\n      tag_405\n        /* \"#utility.yul\":20472:20475   */\n      dup3\n        /* \"#utility.yul\":20439:20476   */\n      tag_139\n      jump\t// in\n    tag_405:\n        /* \"#utility.yul\":20541:20559   */\n      0xffffffffffffffff\n        /* \"#utility.yul\":20533:20539   */\n      dup2\n        /* \"#utility.yul\":20530:20560   */\n      gt\n        /* \"#utility.yul\":20527:20583   */\n      iszero\n      tag_406\n      jumpi\n        /* \"#utility.yul\":20563:20581   */\n      tag_407\n      tag_153\n      jump\t// in\n    tag_407:\n        /* \"#utility.yul\":20527:20583   */\n    tag_406:\n        /* \"#utility.yul\":20607:20645   */\n      tag_408\n        /* \"#utility.yul\":20639:20643   */\n      dup3\n        /* \"#utility.yul\":20633:20644   */\n      sload\n        /* \"#utility.yul\":20607:20645   */\n      tag_104\n      jump\t// in\n    tag_408:\n        /* \"#utility.yul\":20692:20759   */\n      tag_409\n        /* \"#utility.yul\":20752:20758   */\n      dup3\n        /* \"#utility.yul\":20744:20750   */\n      dup3\n        /* \"#utility.yul\":20738:20742   */\n      dup6\n        /* \"#utility.yul\":20692:20759   */\n      tag_186\n      jump\t// in\n    tag_409:\n        /* \"#utility.yul\":20786:20787   */\n      0x00\n        /* \"#utility.yul\":20810:20814   */\n      0x20\n        /* \"#utility.yul\":20797:20814   */\n      swap1\n      pop\n        /* \"#utility.yul\":20842:20844   */\n      0x1f\n        /* \"#utility.yul\":20834:20840   */\n      dup4\n        /* \"#utility.yul\":20831:20845   */\n      gt\n        /* \"#utility.yul\":20859:20860   */\n      0x01\n        /* \"#utility.yul\":20854:21472   */\n      dup2\n      eq\n      tag_411\n      jumpi\n        /* \"#utility.yul\":21516:21517   */\n      0x00\n        /* \"#utility.yul\":21533:21539   */\n      dup5\n        /* \"#utility.yul\":21530:21607   */\n      iszero\n      tag_412\n      jumpi\n        /* \"#utility.yul\":21582:21591   */\n      dup3\n        /* \"#utility.yul\":21577:21580   */\n      dup8\n        /* \"#utility.yul\":21573:21592   */\n      add\n        /* \"#utility.yul\":21567:21593   */\n      mload\n        /* \"#utility.yul\":21558:21593   */\n      swap1\n      pop\n        /* \"#utility.yul\":21530:21607   */\n    tag_412:\n        /* \"#utility.yul\":21633:21700   */\n      tag_413\n        /* \"#utility.yul\":21693:21699   */\n      dup6\n        /* \"#utility.yul\":21686:21691   */\n      dup3\n        /* \"#utility.yul\":21633:21700   */\n      tag_189\n      jump\t// in\n    tag_413:\n        /* \"#utility.yul\":21627:21631   */\n      dup7\n        /* \"#utility.yul\":21620:21701   */\n      sstore\n        /* \"#utility.yul\":21489:21711   */\n      pop\n        /* \"#utility.yul\":20824:21711   */\n      jump(tag_410)\n        /* \"#utility.yul\":20854:21472   */\n    tag_411:\n        /* \"#utility.yul\":20906:20910   */\n      0x1f\n        /* \"#utility.yul\":20902:20911   */\n      not\n        /* \"#utility.yul\":20894:20900   */\n      dup5\n        /* \"#utility.yul\":20890:20912   */\n      and\n        /* \"#utility.yul\":20940:20977   */\n      tag_414\n        /* \"#utility.yul\":20972:20976   */\n      dup7\n        /* \"#utility.yul\":20940:20977   */\n      tag_176\n      jump\t// in\n    tag_414:\n        /* \"#utility.yul\":20999:21000   */\n      0x00\n        /* \"#utility.yul\":21013:21221   */\n    tag_415:\n        /* \"#utility.yul\":21027:21034   */\n      dup3\n        /* \"#utility.yul\":21024:21025   */\n      dup2\n        /* \"#utility.yul\":21021:21035   */\n      lt\n        /* \"#utility.yul\":21013:21221   */\n      iszero\n      tag_417\n      jumpi\n        /* \"#utility.yul\":21106:21115   */\n      dup5\n        /* \"#utility.yul\":21101:21104   */\n      dup10\n        /* \"#utility.yul\":21097:21116   */\n      add\n        /* \"#utility.yul\":21091:21117   */\n      mload\n        /* \"#utility.yul\":21083:21089   */\n      dup3\n        /* \"#utility.yul\":21076:21118   */\n      sstore\n        /* \"#utility.yul\":21157:21158   */\n      0x01\n        /* \"#utility.yul\":21149:21155   */\n      dup3\n        /* \"#utility.yul\":21145:21159   */\n      add\n        /* \"#utility.yul\":21135:21159   */\n      swap2\n      pop\n        /* \"#utility.yul\":21204:21206   */\n      0x20\n        /* \"#utility.yul\":21193:21202   */\n      dup6\n        /* \"#utility.yul\":21189:21207   */\n      add\n        /* \"#utility.yul\":21176:21207   */\n      swap5\n      pop\n        /* \"#utility.yul\":21050:21054   */\n      0x20\n        /* \"#utility.yul\":21047:21048   */\n      dup2\n        /* \"#utility.yul\":21043:21055   */\n      add\n        /* \"#utility.yul\":21038:21055   */\n      swap1\n      pop\n        /* \"#utility.yul\":21013:21221   */\n      jump(tag_415)\n    tag_417:\n        /* \"#utility.yul\":21249:21255   */\n      dup7\n        /* \"#utility.yul\":21240:21247   */\n      dup4\n        /* \"#utility.yul\":21237:21256   */\n      lt\n        /* \"#utility.yul\":21234:21413   */\n      iszero\n      tag_418\n      jumpi\n        /* \"#utility.yul\":21307:21316   */\n      dup5\n        /* \"#utility.yul\":21302:21305   */\n      dup10\n        /* \"#utility.yul\":21298:21317   */\n      add\n        /* \"#utility.yul\":21292:21318   */\n      mload\n        /* \"#utility.yul\":21350:21398   */\n      tag_419\n        /* \"#utility.yul\":21392:21396   */\n      0x1f\n        /* \"#utility.yul\":21384:21390   */\n      dup10\n        /* \"#utility.yul\":21380:21397   */\n      and\n        /* \"#utility.yul\":21369:21378   */\n      dup3\n        /* \"#utility.yul\":21350:21398   */\n      tag_188\n      jump\t// in\n    tag_419:\n        /* \"#utility.yul\":21342:21348   */\n      dup4\n        /* \"#utility.yul\":21335:21399   */\n      sstore\n        /* \"#utility.yul\":21257:21413   */\n      pop\n        /* \"#utility.yul\":21234:21413   */\n    tag_418:\n        /* \"#utility.yul\":21459:21460   */\n      0x01\n        /* \"#utility.yul\":21455:21456   */\n      0x02\n        /* \"#utility.yul\":21447:21453   */\n      dup9\n        /* \"#utility.yul\":21443:21457   */\n      mul\n        /* \"#utility.yul\":21439:21461   */\n      add\n        /* \"#utility.yul\":21433:21437   */\n      dup9\n        /* \"#utility.yul\":21426:21462   */\n      sstore\n        /* \"#utility.yul\":20861:21472   */\n      pop\n      pop\n      pop\n        /* \"#utility.yul\":20824:21711   */\n    tag_410:\n      pop\n        /* \"#utility.yul\":20414:21717   */\n      pop\n      pop\n      pop\n        /* \"#utility.yul\":20322:21717   */\n      pop\n      pop\n      jump\t// out\n        /* \"#utility.yul\":21723:22146   */\n    tag_117:\n        /* \"#utility.yul\":21864:21868   */\n      0x00\n        /* \"#utility.yul\":21902:21904   */\n      0x40\n        /* \"#utility.yul\":21891:21900   */\n      dup3\n        /* \"#utility.yul\":21887:21905   */\n      add\n        /* \"#utility.yul\":21879:21905   */\n      swap1\n      pop\n        /* \"#utility.yul\":21951:21960   */\n      dup2\n        /* \"#utility.yul\":21945:21949   */\n      dup2\n        /* \"#utility.yul\":21941:21961   */\n      sub\n        /* \"#utility.yul\":21937:21938   */\n      0x00\n        /* \"#utility.yul\":21926:21935   */\n      dup4\n        /* \"#utility.yul\":21922:21939   */\n      add\n        /* \"#utility.yul\":21915:21962   */\n      mstore\n        /* \"#utility.yul\":21979:22057   */\n      tag_421\n        /* \"#utility.yul\":22052:22056   */\n      dup2\n        /* \"#utility.yul\":22043:22049   */\n      dup6\n        /* \"#utility.yul\":21979:22057   */\n      tag_143\n      jump\t// in\n    tag_421:\n        /* \"#utility.yul\":21971:22057   */\n      swap1\n      pop\n        /* \"#utility.yul\":22067:22139   */\n      tag_422\n        /* \"#utility.yul\":22135:22137   */\n      0x20\n        /* \"#utility.yul\":22124:22133   */\n      dup4\n        /* \"#utility.yul\":22120:22138   */\n      add\n        /* \"#utility.yul\":22111:22117   */\n      dup5\n        /* \"#utility.yul\":22067:22139   */\n      tag_130\n      jump\t// in\n    tag_422:\n        /* \"#utility.yul\":21723:22146   */\n      swap4\n      swap3\n      pop\n      pop\n      pop\n      jump\t// out\n\n    auxdata: 0xa26469706673582212202f476ad5b7d07c0daccab7e6c2292671aee75a5c078924711fd1e89f30dbde5764736f6c634300081a0033\n}\n",
				"bytecode": {
					"linkReferences": {},
					"object": "608060405234801561000f575f80fd5b5060405161194e38038061194e83398181016040528101906100319190610115565b3360045f6101000a81548173ffffffffffffffffffffffffffffffffffffffff021916908373ffffffffffffffffffffffffffffffffffffffff1602179055508060055f6101000a81548173ffffffffffffffffffffffffffffffffffffffff021916908373ffffffffffffffffffffffffffffffffffffffff16021790555050610140565b5f80fd5b5f73ffffffffffffffffffffffffffffffffffffffff82169050919050565b5f6100e4826100bb565b9050919050565b6100f4816100da565b81146100fe575f80fd5b50565b5f8151905061010f816100eb565b92915050565b5f6020828403121561012a576101296100b7565b5b5f61013784828501610101565b91505092915050565b6118018061014d5f395ff3fe608060405234801561000f575f80fd5b50600436106100cd575f3560e01c8063c22c4f431161008a578063d09ef24111610064578063d09ef241146101eb578063ec9c32121461021f578063ef0e239b1461023b578063f19faf0e1461026d576100cd565b8063c22c4f431461017f578063c51aba2b146101b1578063cc1a40b7146101cf576100cd565b806306237526146100d15780632f3ccebd146100ef5780638da5cb5b1461010b5780639fd8093414610129578063ab310fd214610145578063b7109dbd14610163575b5f80fd5b6100d96102a1565b6040516100e69190610c33565b60405180910390f35b61010960048036038101906101049190610c87565b6102a7565b005b6101136103f2565b6040516101209190610cf1565b60405180910390f35b610143600480360381019061013e9190610d0a565b610417565b005b61014d610521565b60405161015a9190610c33565b60405180910390f35b61017d60048036038101906101789190610d48565b610527565b005b61019960048036038101906101949190610c87565b61076d565b6040516101a893929190610e22565b60405180910390f35b6101b9610824565b6040516101c69190610eb9565b60405180910390f35b6101e960048036038101906101e49190610ffe565b610849565b005b61020560048036038101906102009190610c87565b61099f565b604051610216959493929190611058565b60405180910390f35b61023960048036038101906102349190610c87565b610a30565b005b61025560048036038101906102509190610c87565b610aec565b60405161026493929190610e22565b60405180910390f35b61028760048036038101906102829190610c87565b610bdd565b604051610298959493929190611058565b60405180910390f35b60025481565b60045f9054906101000a900473ffffffffffffffffffffffffffffffffffffffff1673ffffffffffffffffffffffffffffffffffffffff163373ffffffffffffffffffffffffffffffffffffffff1614610336576040517f08c379a000000000000000000000000000000000000000000000000000000000815260040161032d90611119565b60405180910390fd5b60015f8281526020019081526020015f206004015f9054906101000a900460ff1615610397576040517f08c379a000000000000000000000000000000000000000000000000000000000815260040161038e90611181565b60405180910390fd5b6001805f8381526020019081526020015f206004015f6101000a81548160ff021916908315150217905550807f1f67d03cb2fcad5608054854c5acce0db47379a9e6a8cb0439581b939a10a90e60405160405180910390a250565b60045f9054906101000a900473ffffffffffffffffffffffffffffffffffffffff1681565b60045f9054906101000a900473ffffffffffffffffffffffffffffffffffffffff1673ffffffffffffffffffffffffffffffffffffffff163373ffffffffffffffffffffffffffffffffffffffff16146104a6576040517f08c379a000000000000000000000000000000000000000000000000000000000815260040161049d90611119565b60405180910390fd5b5f808381526020019081526020015f206002015f9054906101000a900460ff16610505576040517f08c379a00000000000000000000000000000000000000000000000000000000081526004016104fc906111e9565b60405180910390fd5b805f808481526020019081526020015f20600101819055505050565b60035481565b825f60055f9054906101000a900473ffffffffffffffffffffffffffffffffffffffff1673ffffffffffffffffffffffffffffffffffffffff166357d13917836040518263ffffffff1660e01b81526004016105839190610c33565b5f60405180830381865afa15801561059d573d5f803e3d5ffd5b505050506040513d5f823e3d601f19601f820116820180604052508101906105c591906112c9565b93505050508061060a576040517f08c379a0000000000000000000000000000000000000000000000000000000008152600401610601906113d5565b60405180910390fd5b5f808581526020019081526020015f206002015f9054906101000a900460ff16610669576040517f08c379a0000000000000000000000000000000000000000000000000000000008152600401610660906111e9565b60405180910390fd5b60035f81548092919061067b90611420565b91905055505f835f808781526020019081526020015f20600101546106a09190611467565b90506040518060a001604052808681526020018781526020018581526020018281526020015f151581525060015f60035481526020019081526020015f205f820151815f01556020820151816001015560408201518160020155606082015181600301556080820151816004015f6101000a81548160ff021916908315150217905550905050846003547f44d3ddf55f51976b05c8b0c08ef1736935ccb0e76b42e8d8d0cda0b07a00b87388878560405161075d939291906114a8565b60405180910390a3505050505050565b5f602052805f5260405f205f91509050805f01805461078b9061150a565b80601f01602080910402602001604051908101604052809291908181526020018280546107b79061150a565b80156108025780601f106107d957610100808354040283529160200191610802565b820191905f5260205f20905b8154815290600101906020018083116107e557829003601f168201915b505050505090806001015490806002015f9054906101000a900460ff16905083565b60055f9054906101000a900473ffffffffffffffffffffffffffffffffffffffff1681565b60045f9054906101000a900473ffffffffffffffffffffffffffffffffffffffff1673ffffffffffffffffffffffffffffffffffffffff163373ffffffffffffffffffffffffffffffffffffffff16146108d8576040517f08c379a00000000000000000000000000000000000000000000000000000000081526004016108cf90611119565b60405180910390fd5b60025f8154809291906108ea90611420565b91905055506040518060600160405280838152602001828152602001600115158152505f8060025481526020019081526020015f205f820151815f01908161093291906116ce565b50602082015181600101556040820151816002015f6101000a81548160ff0219169083151502179055509050506002547fde757be6d27f7e58377d945677230e4643bea7f0ae6a2039f0ffcff08a46b360838360405161099392919061179d565b60405180910390a25050565b5f805f805f8060015f8881526020019081526020015f206040518060a00160405290815f8201548152602001600182015481526020016002820154815260200160038201548152602001600482015f9054906101000a900460ff1615151515815250509050805f01518160200151826040015183606001518460800151955095509550955095505091939590929450565b60045f9054906101000a900473ffffffffffffffffffffffffffffffffffffffff1673ffffffffffffffffffffffffffffffffffffffff163373ffffffffffffffffffffffffffffffffffffffff1614610abf576040517f08c379a0000000000000000000000000000000000000000000000000000000008152600401610ab690611119565b60405180910390fd5b5f805f8381526020019081526020015f206002015f6101000a81548160ff02191690831515021790555050565b60605f805f805f8681526020019081526020015f206040518060600160405290815f82018054610b1b9061150a565b80601f0160208091040260200160405190810160405280929190818152602001828054610b479061150a565b8015610b925780601f10610b6957610100808354040283529160200191610b92565b820191905f5260205f20905b815481529060010190602001808311610b7557829003601f168201915b5050505050815260200160018201548152602001600282015f9054906101000a900460ff1615151515815250509050805f015181602001518260400151935093509350509193909250565b6001602052805f5260405f205f91509050805f015490806001015490806002015490806003015490806004015f9054906101000a900460ff16905085565b5f819050919050565b610c2d81610c1b565b82525050565b5f602082019050610c465f830184610c24565b92915050565b5f604051905090565b5f80fd5b5f80fd5b610c6681610c1b565b8114610c70575f80fd5b50565b5f81359050610c8181610c5d565b92915050565b5f60208284031215610c9c57610c9b610c55565b5b5f610ca984828501610c73565b91505092915050565b5f73ffffffffffffffffffffffffffffffffffffffff82169050919050565b5f610cdb82610cb2565b9050919050565b610ceb81610cd1565b82525050565b5f602082019050610d045f830184610ce2565b92915050565b5f8060408385031215610d2057610d1f610c55565b5b5f610d2d85828601610c73565b9250506020610d3e85828601610c73565b9150509250929050565b5f805f60608486031215610d5f57610d5e610c55565b5b5f610d6c86828701610c73565b9350506020610d7d86828701610c73565b9250506040610d8e86828701610c73565b9150509250925092565b5f81519050919050565b5f82825260208201905092915050565b8281835e5f83830152505050565b5f601f19601f8301169050919050565b5f610dda82610d98565b610de48185610da2565b9350610df4818560208601610db2565b610dfd81610dc0565b840191505092915050565b5f8115159050919050565b610e1c81610e08565b82525050565b5f6060820190508181035f830152610e3a8186610dd0565b9050610e496020830185610c24565b610e566040830184610e13565b949350505050565b5f819050919050565b5f610e81610e7c610e7784610cb2565b610e5e565b610cb2565b9050919050565b5f610e9282610e67565b9050919050565b5f610ea382610e88565b9050919050565b610eb381610e99565b82525050565b5f602082019050610ecc5f830184610eaa565b92915050565b5f80fd5b5f80fd5b7f4e487b71000000000000000000000000000000000000000000000000000000005f52604160045260245ffd5b610f1082610dc0565b810181811067ffffffffffffffff82111715610f2f57610f2e610eda565b5b80604052505050565b5f610f41610c4c565b9050610f4d8282610f07565b919050565b5f67ffffffffffffffff821115610f6c57610f6b610eda565b5b610f7582610dc0565b9050602081019050919050565b828183375f83830152505050565b5f610fa2610f9d84610f52565b610f38565b905082815260208101848484011115610fbe57610fbd610ed6565b5b610fc9848285610f82565b509392505050565b5f82601f830112610fe557610fe4610ed2565b5b8135610ff5848260208601610f90565b91505092915050565b5f806040838503121561101457611013610c55565b5b5f83013567ffffffffffffffff81111561103157611030610c59565b5b61103d85828601610fd1565b925050602061104e85828601610c73565b9150509250929050565b5f60a08201905061106b5f830188610c24565b6110786020830187610c24565b6110856040830186610c24565b6110926060830185610c24565b61109f6080830184610e13565b9695505050505050565b7f4f6e6c7920746865206f776e65722063616e20706572666f726d2074686973205f8201527f616374696f6e0000000000000000000000000000000000000000000000000000602082015250565b5f611103602683610da2565b915061110e826110a9565b604082019050919050565b5f6020820190508181035f830152611130816110f7565b9050919050565b7f53657276696365206f7264657220616c726561647920636f6d706c65746564005f82015250565b5f61116b601f83610da2565b915061117682611137565b602082019050919050565b5f6020820190508181035f8301526111988161115f565b9050919050565b7f53657276696365206973206e6f742061637469766500000000000000000000005f82015250565b5f6111d3601583610da2565b91506111de8261119f565b602082019050919050565b5f6020820190508181035f830152611200816111c7565b9050919050565b5f61121961121484610f52565b610f38565b90508281526020810184848401111561123557611234610ed6565b5b611240848285610db2565b509392505050565b5f82601f83011261125c5761125b610ed2565b5b815161126c848260208601611207565b91505092915050565b61127e81610cd1565b8114611288575f80fd5b50565b5f8151905061129981611275565b92915050565b6112a881610e08565b81146112b2575f80fd5b50565b5f815190506112c38161129f565b92915050565b5f805f80608085870312156112e1576112e0610c55565b5b5f85015167ffffffffffffffff8111156112fe576112fd610c59565b5b61130a87828801611248565b945050602085015167ffffffffffffffff81111561132b5761132a610c59565b5b61133787828801611248565b93505060406113488782880161128b565b9250506060611359878288016112b5565b91505092959194509250565b7f436f6d70616e7920646f6573206e6f74206578697374206f7220697320696e615f8201527f6374697665000000000000000000000000000000000000000000000000000000602082015250565b5f6113bf602583610da2565b91506113ca82611365565b604082019050919050565b5f6020820190508181035f8301526113ec816113b3565b9050919050565b7f4e487b71000000000000000000000000000000000000000000000000000000005f52601160045260245ffd5b5f61142a82610c1b565b91507fffffffffffffffffffffffffffffffffffffffffffffffffffffffffffffffff820361145c5761145b6113f3565b5b600182019050919050565b5f61147182610c1b565b915061147c83610c1b565b925082820261148a81610c1b565b915082820484148315176114a1576114a06113f3565b5b5092915050565b5f6060820190506114bb5f830186610c24565b6114c86020830185610c24565b6114d56040830184610c24565b949350505050565b7f4e487b71000000000000000000000000000000000000000000000000000000005f52602260045260245ffd5b5f600282049050600182168061152157607f821691505b602082108103611534576115336114dd565b5b50919050565b5f819050815f5260205f209050919050565b5f6020601f8301049050919050565b5f82821b905092915050565b5f600883026115967fffffffffffffffffffffffffffffffffffffffffffffffffffffffffffffffff8261155b565b6115a0868361155b565b95508019841693508086168417925050509392505050565b5f6115d26115cd6115c884610c1b565b610e5e565b610c1b565b9050919050565b5f819050919050565b6115eb836115b8565b6115ff6115f7826115d9565b848454611567565b825550505050565b5f90565b611613611607565b61161e8184846115e2565b505050565b5b81811015611641576116365f8261160b565b600181019050611624565b5050565b601f821115611686576116578161153a565b6116608461154c565b8101602085101561166f578190505b61168361167b8561154c565b830182611623565b50505b505050565b5f82821c905092915050565b5f6116a65f198460080261168b565b1980831691505092915050565b5f6116be8383611697565b9150826002028217905092915050565b6116d782610d98565b67ffffffffffffffff8111156116f0576116ef610eda565b5b6116fa825461150a565b611705828285611645565b5f60209050601f831160018114611736575f8415611724578287015190505b61172e85826116b3565b865550611795565b601f1984166117448661153a565b5f5b8281101561176b57848901518255600182019150602085019450602081019050611746565b868310156117885784890151611784601f891682611697565b8355505b6001600288020188555050505b505050505050565b5f6040820190508181035f8301526117b58185610dd0565b90506117c46020830184610c24565b939250505056fea26469706673582212202f476ad5b7d07c0daccab7e6c2292671aee75a5c078924711fd1e89f30dbde5764736f6c634300081a0033",
					"opcodes": "PUSH1 0x80 PUSH1 0x40 MSTORE CALLVALUE DUP1 ISZERO PUSH2 0xF JUMPI PUSH0 DUP1 REVERT JUMPDEST POP PUSH1 0x40 MLOAD PUSH2 0x194E CODESIZE SUB DUP1 PUSH2 0x194E DUP4 CODECOPY DUP2 DUP2 ADD PUSH1 0x40 MSTORE DUP2 ADD SWAP1 PUSH2 0x31 SWAP2 SWAP1 PUSH2 0x115 JUMP JUMPDEST CALLER PUSH1 0x4 PUSH0 PUSH2 0x100 EXP DUP2 SLOAD DUP2 PUSH20 0xFFFFFFFFFFFFFFFFFFFFFFFFFFFFFFFFFFFFFFFF MUL NOT AND SWAP1 DUP4 PUSH20 0xFFFFFFFFFFFFFFFFFFFFFFFFFFFFFFFFFFFFFFFF AND MUL OR SWAP1 SSTORE POP DUP1 PUSH1 0x5 PUSH0 PUSH2 0x100 EXP DUP2 SLOAD DUP2 PUSH20 0xFFFFFFFFFFFFFFFFFFFFFFFFFFFFFFFFFFFFFFFF MUL NOT AND SWAP1 DUP4 PUSH20 0xFFFFFFFFFFFFFFFFFFFFFFFFFFFFFFFFFFFFFFFF AND MUL OR SWAP1 SSTORE POP POP PUSH2 0x140 JUMP JUMPDEST PUSH0 DUP1 REVERT JUMPDEST PUSH0 PUSH20 0xFFFFFFFFFFFFFFFFFFFFFFFFFFFFFFFFFFFFFFFF DUP3 AND SWAP1 POP SWAP2 SWAP1 POP JUMP JUMPDEST PUSH0 PUSH2 0xE4 DUP3 PUSH2 0xBB JUMP JUMPDEST SWAP1 POP SWAP2 SWAP1 POP JUMP JUMPDEST PUSH2 0xF4 DUP2 PUSH2 0xDA JUMP JUMPDEST DUP2 EQ PUSH2 0xFE JUMPI PUSH0 DUP1 REVERT JUMPDEST POP JUMP JUMPDEST PUSH0 DUP2 MLOAD SWAP1 POP PUSH2 0x10F DUP2 PUSH2 0xEB JUMP JUMPDEST SWAP3 SWAP2 POP POP JUMP JUMPDEST PUSH0 PUSH1 0x20 DUP3 DUP5 SUB SLT ISZERO PUSH2 0x12A JUMPI PUSH2 0x129 PUSH2 0xB7 JUMP JUMPDEST JUMPDEST PUSH0 PUSH2 0x137 DUP5 DUP3 DUP6 ADD PUSH2 0x101 JUMP JUMPDEST SWAP2 POP POP SWAP3 SWAP2 POP POP JUMP JUMPDEST PUSH2 0x1801 DUP1 PUSH2 0x14D PUSH0 CODECOPY PUSH0 RETURN INVALID PUSH1 0x80 PUSH1 0x40 MSTORE CALLVALUE DUP1 ISZERO PUSH2 0xF JUMPI PUSH0 DUP1 REVERT JUMPDEST POP PUSH1 0x4 CALLDATASIZE LT PUSH2 0xCD JUMPI PUSH0 CALLDATALOAD PUSH1 0xE0 SHR DUP1 PUSH4 0xC22C4F43 GT PUSH2 0x8A JUMPI DUP1 PUSH4 0xD09EF241 GT PUSH2 0x64 JUMPI DUP1 PUSH4 0xD09EF241 EQ PUSH2 0x1EB JUMPI DUP1 PUSH4 0xEC9C3212 EQ PUSH2 0x21F JUMPI DUP1 PUSH4 0xEF0E239B EQ PUSH2 0x23B JUMPI DUP1 PUSH4 0xF19FAF0E EQ PUSH2 0x26D JUMPI PUSH2 0xCD JUMP JUMPDEST DUP1 PUSH4 0xC22C4F43 EQ PUSH2 0x17F JUMPI DUP1 PUSH4 0xC51ABA2B EQ PUSH2 0x1B1 JUMPI DUP1 PUSH4 0xCC1A40B7 EQ PUSH2 0x1CF JUMPI PUSH2 0xCD JUMP JUMPDEST DUP1 PUSH4 0x6237526 EQ PUSH2 0xD1 JUMPI DUP1 PUSH4 0x2F3CCEBD EQ PUSH2 0xEF JUMPI DUP1 PUSH4 0x8DA5CB5B EQ PUSH2 0x10B JUMPI DUP1 PUSH4 0x9FD80934 EQ PUSH2 0x129 JUMPI DUP1 PUSH4 0xAB310FD2 EQ PUSH2 0x145 JUMPI DUP1 PUSH4 0xB7109DBD EQ PUSH2 0x163 JUMPI JUMPDEST PUSH0 DUP1 REVERT JUMPDEST PUSH2 0xD9 PUSH2 0x2A1 JUMP JUMPDEST PUSH1 0x40 MLOAD PUSH2 0xE6 SWAP2 SWAP1 PUSH2 0xC33 JUMP JUMPDEST PUSH1 0x40 MLOAD DUP1 SWAP2 SUB SWAP1 RETURN JUMPDEST PUSH2 0x109 PUSH1 0x4 DUP1 CALLDATASIZE SUB DUP2 ADD SWAP1 PUSH2 0x104 SWAP2 SWAP1 PUSH2 0xC87 JUMP JUMPDEST PUSH2 0x2A7 JUMP JUMPDEST STOP JUMPDEST PUSH2 0x113 PUSH2 0x3F2 JUMP JUMPDEST PUSH1 0x40 MLOAD PUSH2 0x120 SWAP2 SWAP1 PUSH2 0xCF1 JUMP JUMPDEST PUSH1 0x40 MLOAD DUP1 SWAP2 SUB SWAP1 RETURN JUMPDEST PUSH2 0x143 PUSH1 0x4 DUP1 CALLDATASIZE SUB DUP2 ADD SWAP1 PUSH2 0x13E SWAP2 SWAP1 PUSH2 0xD0A JUMP JUMPDEST PUSH2 0x417 JUMP JUMPDEST STOP JUMPDEST PUSH2 0x14D PUSH2 0x521 JUMP JUMPDEST PUSH1 0x40 MLOAD PUSH2 0x15A SWAP2 SWAP1 PUSH2 0xC33 JUMP JUMPDEST PUSH1 0x40 MLOAD DUP1 SWAP2 SUB SWAP1 RETURN JUMPDEST PUSH2 0x17D PUSH1 0x4 DUP1 CALLDATASIZE SUB DUP2 ADD SWAP1 PUSH2 0x178 SWAP2 SWAP1 PUSH2 0xD48 JUMP JUMPDEST PUSH2 0x527 JUMP JUMPDEST STOP JUMPDEST PUSH2 0x199 PUSH1 0x4 DUP1 CALLDATASIZE SUB DUP2 ADD SWAP1 PUSH2 0x194 SWAP2 SWAP1 PUSH2 0xC87 JUMP JUMPDEST PUSH2 0x76D JUMP JUMPDEST PUSH1 0x40 MLOAD PUSH2 0x1A8 SWAP4 SWAP3 SWAP2 SWAP1 PUSH2 0xE22 JUMP JUMPDEST PUSH1 0x40 MLOAD DUP1 SWAP2 SUB SWAP1 RETURN JUMPDEST PUSH2 0x1B9 PUSH2 0x824 JUMP JUMPDEST PUSH1 0x40 MLOAD PUSH2 0x1C6 SWAP2 SWAP1 PUSH2 0xEB9 JUMP JUMPDEST PUSH1 0x40 MLOAD DUP1 SWAP2 SUB SWAP1 RETURN JUMPDEST PUSH2 0x1E9 PUSH1 0x4 DUP1 CALLDATASIZE SUB DUP2 ADD SWAP1 PUSH2 0x1E4 SWAP2 SWAP1 PUSH2 0xFFE JUMP JUMPDEST PUSH2 0x849 JUMP JUMPDEST STOP JUMPDEST PUSH2 0x205 PUSH1 0x4 DUP1 CALLDATASIZE SUB DUP2 ADD SWAP1 PUSH2 0x200 SWAP2 SWAP1 PUSH2 0xC87 JUMP JUMPDEST PUSH2 0x99F JUMP JUMPDEST PUSH1 0x40 MLOAD PUSH2 0x216 SWAP6 SWAP5 SWAP4 SWAP3 SWAP2 SWAP1 PUSH2 0x1058 JUMP JUMPDEST PUSH1 0x40 MLOAD DUP1 SWAP2 SUB SWAP1 RETURN JUMPDEST PUSH2 0x239 PUSH1 0x4 DUP1 CALLDATASIZE SUB DUP2 ADD SWAP1 PUSH2 0x234 SWAP2 SWAP1 PUSH2 0xC87 JUMP JUMPDEST PUSH2 0xA30 JUMP JUMPDEST STOP JUMPDEST PUSH2 0x255 PUSH1 0x4 DUP1 CALLDATASIZE SUB DUP2 ADD SWAP1 PUSH2 0x250 SWAP2 SWAP1 PUSH2 0xC87 JUMP JUMPDEST PUSH2 0xAEC JUMP JUMPDEST PUSH1 0x40 MLOAD PUSH2 0x264 SWAP4 SWAP3 SWAP2 SWAP1 PUSH2 0xE22 JUMP JUMPDEST PUSH1 0x40 MLOAD DUP1 SWAP2 SUB SWAP1 RETURN JUMPDEST PUSH2 0x287 PUSH1 0x4 DUP1 CALLDATASIZE SUB DUP2 ADD SWAP1 PUSH2 0x282 SWAP2 SWAP1 PUSH2 0xC87 JUMP JUMPDEST PUSH2 0xBDD JUMP JUMPDEST PUSH1 0x40 MLOAD PUSH2 0x298 SWAP6 SWAP5 SWAP4 SWAP3 SWAP2 SWAP1 PUSH2 0x1058 JUMP JUMPDEST PUSH1 0x40 MLOAD DUP1 SWAP2 SUB SWAP1 RETURN JUMPDEST PUSH1 0x2 SLOAD DUP2 JUMP JUMPDEST PUSH1 0x4 PUSH0 SWAP1 SLOAD SWAP1 PUSH2 0x100 EXP SWAP1 DIV PUSH20 0xFFFFFFFFFFFFFFFFFFFFFFFFFFFFFFFFFFFFFFFF AND PUSH20 0xFFFFFFFFFFFFFFFFFFFFFFFFFFFFFFFFFFFFFFFF AND CALLER PUSH20 0xFFFFFFFFFFFFFFFFFFFFFFFFFFFFFFFFFFFFFFFF AND EQ PUSH2 0x336 JUMPI PUSH1 0x40 MLOAD PUSH32 0x8C379A000000000000000000000000000000000000000000000000000000000 DUP2 MSTORE PUSH1 0x4 ADD PUSH2 0x32D SWAP1 PUSH2 0x1119 JUMP JUMPDEST PUSH1 0x40 MLOAD DUP1 SWAP2 SUB SWAP1 REVERT JUMPDEST PUSH1 0x1 PUSH0 DUP3 DUP2 MSTORE PUSH1 0x20 ADD SWAP1 DUP2 MSTORE PUSH1 0x20 ADD PUSH0 KECCAK256 PUSH1 0x4 ADD PUSH0 SWAP1 SLOAD SWAP1 PUSH2 0x100 EXP SWAP1 DIV PUSH1 0xFF AND ISZERO PUSH2 0x397 JUMPI PUSH1 0x40 MLOAD PUSH32 0x8C379A000000000000000000000000000000000000000000000000000000000 DUP2 MSTORE PUSH1 0x4 ADD PUSH2 0x38E SWAP1 PUSH2 0x1181 JUMP JUMPDEST PUSH1 0x40 MLOAD DUP1 SWAP2 SUB SWAP1 REVERT JUMPDEST PUSH1 0x1 DUP1 PUSH0 DUP4 DUP2 MSTORE PUSH1 0x20 ADD SWAP1 DUP2 MSTORE PUSH1 0x20 ADD PUSH0 KECCAK256 PUSH1 0x4 ADD PUSH0 PUSH2 0x100 EXP DUP2 SLOAD DUP2 PUSH1 0xFF MUL NOT AND SWAP1 DUP4 ISZERO ISZERO MUL OR SWAP1 SSTORE POP DUP1 PUSH32 0x1F67D03CB2FCAD5608054854C5ACCE0DB47379A9E6A8CB0439581B939A10A90E PUSH1 0x40 MLOAD PUSH1 0x40 MLOAD DUP1 SWAP2 SUB SWAP1 LOG2 POP JUMP JUMPDEST PUSH1 0x4 PUSH0 SWAP1 SLOAD SWAP1 PUSH2 0x100 EXP SWAP1 DIV PUSH20 0xFFFFFFFFFFFFFFFFFFFFFFFFFFFFFFFFFFFFFFFF AND DUP2 JUMP JUMPDEST PUSH1 0x4 PUSH0 SWAP1 SLOAD SWAP1 PUSH2 0x100 EXP SWAP1 DIV PUSH20 0xFFFFFFFFFFFFFFFFFFFFFFFFFFFFFFFFFFFFFFFF AND PUSH20 0xFFFFFFFFFFFFFFFFFFFFFFFFFFFFFFFFFFFFFFFF AND CALLER PUSH20 0xFFFFFFFFFFFFFFFFFFFFFFFFFFFFFFFFFFFFFFFF AND EQ PUSH2 0x4A6 JUMPI PUSH1 0x40 MLOAD PUSH32 0x8C379A000000000000000000000000000000000000000000000000000000000 DUP2 MSTORE PUSH1 0x4 ADD PUSH2 0x49D SWAP1 PUSH2 0x1119 JUMP JUMPDEST PUSH1 0x40 MLOAD DUP1 SWAP2 SUB SWAP1 REVERT JUMPDEST PUSH0 DUP1 DUP4 DUP2 MSTORE PUSH1 0x20 ADD SWAP1 DUP2 MSTORE PUSH1 0x20 ADD PUSH0 KECCAK256 PUSH1 0x2 ADD PUSH0 SWAP1 SLOAD SWAP1 PUSH2 0x100 EXP SWAP1 DIV PUSH1 0xFF AND PUSH2 0x505 JUMPI PUSH1 0x40 MLOAD PUSH32 0x8C379A000000000000000000000000000000000000000000000000000000000 DUP2 MSTORE PUSH1 0x4 ADD PUSH2 0x4FC SWAP1 PUSH2 0x11E9 JUMP JUMPDEST PUSH1 0x40 MLOAD DUP1 SWAP2 SUB SWAP1 REVERT JUMPDEST DUP1 PUSH0 DUP1 DUP5 DUP2 MSTORE PUSH1 0x20 ADD SWAP1 DUP2 MSTORE PUSH1 0x20 ADD PUSH0 KECCAK256 PUSH1 0x1 ADD DUP2 SWAP1 SSTORE POP POP POP JUMP JUMPDEST PUSH1 0x3 SLOAD DUP2 JUMP JUMPDEST DUP3 PUSH0 PUSH1 0x5 PUSH0 SWAP1 SLOAD SWAP1 PUSH2 0x100 EXP SWAP1 DIV PUSH20 0xFFFFFFFFFFFFFFFFFFFFFFFFFFFFFFFFFFFFFFFF AND PUSH20 0xFFFFFFFFFFFFFFFFFFFFFFFFFFFFFFFFFFFFFFFF AND PUSH4 0x57D13917 DUP4 PUSH1 0x40 MLOAD DUP3 PUSH4 0xFFFFFFFF AND PUSH1 0xE0 SHL DUP2 MSTORE PUSH1 0x4 ADD PUSH2 0x583 SWAP2 SWAP1 PUSH2 0xC33 JUMP JUMPDEST PUSH0 PUSH1 0x40 MLOAD DUP1 DUP4 SUB DUP2 DUP7 GAS STATICCALL ISZERO DUP1 ISZERO PUSH2 0x59D JUMPI RETURNDATASIZE PUSH0 DUP1 RETURNDATACOPY RETURNDATASIZE PUSH0 REVERT JUMPDEST POP POP POP POP PUSH1 0x40 MLOAD RETURNDATASIZE PUSH0 DUP3 RETURNDATACOPY RETURNDATASIZE PUSH1 0x1F NOT PUSH1 0x1F DUP3 ADD AND DUP3 ADD DUP1 PUSH1 0x40 MSTORE POP DUP2 ADD SWAP1 PUSH2 0x5C5 SWAP2 SWAP1 PUSH2 0x12C9 JUMP JUMPDEST SWAP4 POP POP POP POP DUP1 PUSH2 0x60A JUMPI PUSH1 0x40 MLOAD PUSH32 0x8C379A000000000000000000000000000000000000000000000000000000000 DUP2 MSTORE PUSH1 0x4 ADD PUSH2 0x601 SWAP1 PUSH2 0x13D5 JUMP JUMPDEST PUSH1 0x40 MLOAD DUP1 SWAP2 SUB SWAP1 REVERT JUMPDEST PUSH0 DUP1 DUP6 DUP2 MSTORE PUSH1 0x20 ADD SWAP1 DUP2 MSTORE PUSH1 0x20 ADD PUSH0 KECCAK256 PUSH1 0x2 ADD PUSH0 SWAP1 SLOAD SWAP1 PUSH2 0x100 EXP SWAP1 DIV PUSH1 0xFF AND PUSH2 0x669 JUMPI PUSH1 0x40 MLOAD PUSH32 0x8C379A000000000000000000000000000000000000000000000000000000000 DUP2 MSTORE PUSH1 0x4 ADD PUSH2 0x660 SWAP1 PUSH2 0x11E9 JUMP JUMPDEST PUSH1 0x40 MLOAD DUP1 SWAP2 SUB SWAP1 REVERT JUMPDEST PUSH1 0x3 PUSH0 DUP2 SLOAD DUP1 SWAP3 SWAP2 SWAP1 PUSH2 0x67B SWAP1 PUSH2 0x1420 JUMP JUMPDEST SWAP2 SWAP1 POP SSTORE POP PUSH0 DUP4 PUSH0 DUP1 DUP8 DUP2 MSTORE PUSH1 0x20 ADD SWAP1 DUP2 MSTORE PUSH1 0x20 ADD PUSH0 KECCAK256 PUSH1 0x1 ADD SLOAD PUSH2 0x6A0 SWAP2 SWAP1 PUSH2 0x1467 JUMP JUMPDEST SWAP1 POP PUSH1 0x40 MLOAD DUP1 PUSH1 0xA0 ADD PUSH1 0x40 MSTORE DUP1 DUP7 DUP2 MSTORE PUSH1 0x20 ADD DUP8 DUP2 MSTORE PUSH1 0x20 ADD DUP6 DUP2 MSTORE PUSH1 0x20 ADD DUP3 DUP2 MSTORE PUSH1 0x20 ADD PUSH0 ISZERO ISZERO DUP2 MSTORE POP PUSH1 0x1 PUSH0 PUSH1 0x3 SLOAD DUP2 MSTORE PUSH1 0x20 ADD SWAP1 DUP2 MSTORE PUSH1 0x20 ADD PUSH0 KECCAK256 PUSH0 DUP3 ADD MLOAD DUP2 PUSH0 ADD SSTORE PUSH1 0x20 DUP3 ADD MLOAD DUP2 PUSH1 0x1 ADD SSTORE PUSH1 0x40 DUP3 ADD MLOAD DUP2 PUSH1 0x2 ADD SSTORE PUSH1 0x60 DUP3 ADD MLOAD DUP2 PUSH1 0x3 ADD SSTORE PUSH1 0x80 DUP3 ADD MLOAD DUP2 PUSH1 0x4 ADD PUSH0 PUSH2 0x100 EXP DUP2 SLOAD DUP2 PUSH1 0xFF MUL NOT AND SWAP1 DUP4 ISZERO ISZERO MUL OR SWAP1 SSTORE POP SWAP1 POP POP DUP5 PUSH1 0x3 SLOAD PUSH32 0x44D3DDF55F51976B05C8B0C08EF1736935CCB0E76B42E8D8D0CDA0B07A00B873 DUP9 DUP8 DUP6 PUSH1 0x40 MLOAD PUSH2 0x75D SWAP4 SWAP3 SWAP2 SWAP1 PUSH2 0x14A8 JUMP JUMPDEST PUSH1 0x40 MLOAD DUP1 SWAP2 SUB SWAP1 LOG3 POP POP POP POP POP POP JUMP JUMPDEST PUSH0 PUSH1 0x20 MSTORE DUP1 PUSH0 MSTORE PUSH1 0x40 PUSH0 KECCAK256 PUSH0 SWAP2 POP SWAP1 POP DUP1 PUSH0 ADD DUP1 SLOAD PUSH2 0x78B SWAP1 PUSH2 0x150A JUMP JUMPDEST DUP1 PUSH1 0x1F ADD PUSH1 0x20 DUP1 SWAP2 DIV MUL PUSH1 0x20 ADD PUSH1 0x40 MLOAD SWAP1 DUP2 ADD PUSH1 0x40 MSTORE DUP1 SWAP3 SWAP2 SWAP1 DUP2 DUP2 MSTORE PUSH1 0x20 ADD DUP3 DUP1 SLOAD PUSH2 0x7B7 SWAP1 PUSH2 0x150A JUMP JUMPDEST DUP1 ISZERO PUSH2 0x802 JUMPI DUP1 PUSH1 0x1F LT PUSH2 0x7D9 JUMPI PUSH2 0x100 DUP1 DUP4 SLOAD DIV MUL DUP4 MSTORE SWAP2 PUSH1 0x20 ADD SWAP2 PUSH2 0x802 JUMP JUMPDEST DUP3 ADD SWAP2 SWAP1 PUSH0 MSTORE PUSH1 0x20 PUSH0 KECCAK256 SWAP1 JUMPDEST DUP2 SLOAD DUP2 MSTORE SWAP1 PUSH1 0x1 ADD SWAP1 PUSH1 0x20 ADD DUP1 DUP4 GT PUSH2 0x7E5 JUMPI DUP3 SWAP1 SUB PUSH1 0x1F AND DUP3 ADD SWAP2 JUMPDEST POP POP POP POP POP SWAP1 DUP1 PUSH1 0x1 ADD SLOAD SWAP1 DUP1 PUSH1 0x2 ADD PUSH0 SWAP1 SLOAD SWAP1 PUSH2 0x100 EXP SWAP1 DIV PUSH1 0xFF AND SWAP1 POP DUP4 JUMP JUMPDEST PUSH1 0x5 PUSH0 SWAP1 SLOAD SWAP1 PUSH2 0x100 EXP SWAP1 DIV PUSH20 0xFFFFFFFFFFFFFFFFFFFFFFFFFFFFFFFFFFFFFFFF AND DUP2 JUMP JUMPDEST PUSH1 0x4 PUSH0 SWAP1 SLOAD SWAP1 PUSH2 0x100 EXP SWAP1 DIV PUSH20 0xFFFFFFFFFFFFFFFFFFFFFFFFFFFFFFFFFFFFFFFF AND PUSH20 0xFFFFFFFFFFFFFFFFFFFFFFFFFFFFFFFFFFFFFFFF AND CALLER PUSH20 0xFFFFFFFFFFFFFFFFFFFFFFFFFFFFFFFFFFFFFFFF AND EQ PUSH2 0x8D8 JUMPI PUSH1 0x40 MLOAD PUSH32 0x8C379A000000000000000000000000000000000000000000000000000000000 DUP2 MSTORE PUSH1 0x4 ADD PUSH2 0x8CF SWAP1 PUSH2 0x1119 JUMP JUMPDEST PUSH1 0x40 MLOAD DUP1 SWAP2 SUB SWAP1 REVERT JUMPDEST PUSH1 0x2 PUSH0 DUP2 SLOAD DUP1 SWAP3 SWAP2 SWAP1 PUSH2 0x8EA SWAP1 PUSH2 0x1420 JUMP JUMPDEST SWAP2 SWAP1 POP SSTORE POP PUSH1 0x40 MLOAD DUP1 PUSH1 0x60 ADD PUSH1 0x40 MSTORE DUP1 DUP4 DUP2 MSTORE PUSH1 0x20 ADD DUP3 DUP2 MSTORE PUSH1 0x20 ADD PUSH1 0x1 ISZERO ISZERO DUP2 MSTORE POP PUSH0 DUP1 PUSH1 0x2 SLOAD DUP2 MSTORE PUSH1 0x20 ADD SWAP1 DUP2 MSTORE PUSH1 0x20 ADD PUSH0 KECCAK256 PUSH0 DUP3 ADD MLOAD DUP2 PUSH0 ADD SWAP1 DUP2 PUSH2 0x932 SWAP2 SWAP1 PUSH2 0x16CE JUMP JUMPDEST POP PUSH1 0x20 DUP3 ADD MLOAD DUP2 PUSH1 0x1 ADD SSTORE PUSH1 0x40 DUP3 ADD MLOAD DUP2 PUSH1 0x2 ADD PUSH0 PUSH2 0x100 EXP DUP2 SLOAD DUP2 PUSH1 0xFF MUL NOT AND SWAP1 DUP4 ISZERO ISZERO MUL OR SWAP1 SSTORE POP SWAP1 POP POP PUSH1 0x2 SLOAD PUSH32 0xDE757BE6D27F7E58377D945677230E4643BEA7F0AE6A2039F0FFCFF08A46B360 DUP4 DUP4 PUSH1 0x40 MLOAD PUSH2 0x993 SWAP3 SWAP2 SWAP1 PUSH2 0x179D JUMP JUMPDEST PUSH1 0x40 MLOAD DUP1 SWAP2 SUB SWAP1 LOG2 POP POP JUMP JUMPDEST PUSH0 DUP1 PUSH0 DUP1 PUSH0 DUP1 PUSH1 0x1 PUSH0 DUP9 DUP2 MSTORE PUSH1 0x20 ADD SWAP1 DUP2 MSTORE PUSH1 0x20 ADD PUSH0 KECCAK256 PUSH1 0x40 MLOAD DUP1 PUSH1 0xA0 ADD PUSH1 0x40 MSTORE SWAP1 DUP2 PUSH0 DUP3 ADD SLOAD DUP2 MSTORE PUSH1 0x20 ADD PUSH1 0x1 DUP3 ADD SLOAD DUP2 MSTORE PUSH1 0x20 ADD PUSH1 0x2 DUP3 ADD SLOAD DUP2 MSTORE PUSH1 0x20 ADD PUSH1 0x3 DUP3 ADD SLOAD DUP2 MSTORE PUSH1 0x20 ADD PUSH1 0x4 DUP3 ADD PUSH0 SWAP1 SLOAD SWAP1 PUSH2 0x100 EXP SWAP1 DIV PUSH1 0xFF AND ISZERO ISZERO ISZERO ISZERO DUP2 MSTORE POP POP SWAP1 POP DUP1 PUSH0 ADD MLOAD DUP2 PUSH1 0x20 ADD MLOAD DUP3 PUSH1 0x40 ADD MLOAD DUP4 PUSH1 0x60 ADD MLOAD DUP5 PUSH1 0x80 ADD MLOAD SWAP6 POP SWAP6 POP SWAP6 POP SWAP6 POP SWAP6 POP POP SWAP2 SWAP4 SWAP6 SWAP1 SWAP3 SWAP5 POP JUMP JUMPDEST PUSH1 0x4 PUSH0 SWAP1 SLOAD SWAP1 PUSH2 0x100 EXP SWAP1 DIV PUSH20 0xFFFFFFFFFFFFFFFFFFFFFFFFFFFFFFFFFFFFFFFF AND PUSH20 0xFFFFFFFFFFFFFFFFFFFFFFFFFFFFFFFFFFFFFFFF AND CALLER PUSH20 0xFFFFFFFFFFFFFFFFFFFFFFFFFFFFFFFFFFFFFFFF AND EQ PUSH2 0xABF JUMPI PUSH1 0x40 MLOAD PUSH32 0x8C379A000000000000000000000000000000000000000000000000000000000 DUP2 MSTORE PUSH1 0x4 ADD PUSH2 0xAB6 SWAP1 PUSH2 0x1119 JUMP JUMPDEST PUSH1 0x40 MLOAD DUP1 SWAP2 SUB SWAP1 REVERT JUMPDEST PUSH0 DUP1 PUSH0 DUP4 DUP2 MSTORE PUSH1 0x20 ADD SWAP1 DUP2 MSTORE PUSH1 0x20 ADD PUSH0 KECCAK256 PUSH1 0x2 ADD PUSH0 PUSH2 0x100 EXP DUP2 SLOAD DUP2 PUSH1 0xFF MUL NOT AND SWAP1 DUP4 ISZERO ISZERO MUL OR SWAP1 SSTORE POP POP JUMP JUMPDEST PUSH1 0x60 PUSH0 DUP1 PUSH0 DUP1 PUSH0 DUP7 DUP2 MSTORE PUSH1 0x20 ADD SWAP1 DUP2 MSTORE PUSH1 0x20 ADD PUSH0 KECCAK256 PUSH1 0x40 MLOAD DUP1 PUSH1 0x60 ADD PUSH1 0x40 MSTORE SWAP1 DUP2 PUSH0 DUP3 ADD DUP1 SLOAD PUSH2 0xB1B SWAP1 PUSH2 0x150A JUMP JUMPDEST DUP1 PUSH1 0x1F ADD PUSH1 0x20 DUP1 SWAP2 DIV MUL PUSH1 0x20 ADD PUSH1 0x40 MLOAD SWAP1 DUP2 ADD PUSH1 0x40 MSTORE DUP1 SWAP3 SWAP2 SWAP1 DUP2 DUP2 MSTORE PUSH1 0x20 ADD DUP3 DUP1 SLOAD PUSH2 0xB47 SWAP1 PUSH2 0x150A JUMP JUMPDEST DUP1 ISZERO PUSH2 0xB92 JUMPI DUP1 PUSH1 0x1F LT PUSH2 0xB69 JUMPI PUSH2 0x100 DUP1 DUP4 SLOAD DIV MUL DUP4 MSTORE SWAP2 PUSH1 0x20 ADD SWAP2 PUSH2 0xB92 JUMP JUMPDEST DUP3 ADD SWAP2 SWAP1 PUSH0 MSTORE PUSH1 0x20 PUSH0 KECCAK256 SWAP1 JUMPDEST DUP2 SLOAD DUP2 MSTORE SWAP1 PUSH1 0x1 ADD SWAP1 PUSH1 0x20 ADD DUP1 DUP4 GT PUSH2 0xB75 JUMPI DUP3 SWAP1 SUB PUSH1 0x1F AND DUP3 ADD SWAP2 JUMPDEST POP POP POP POP POP DUP2 MSTORE PUSH1 0x20 ADD PUSH1 0x1 DUP3 ADD SLOAD DUP2 MSTORE PUSH1 0x20 ADD PUSH1 0x2 DUP3 ADD PUSH0 SWAP1 SLOAD SWAP1 PUSH2 0x100 EXP SWAP1 DIV PUSH1 0xFF AND ISZERO ISZERO ISZERO ISZERO DUP2 MSTORE POP POP SWAP1 POP DUP1 PUSH0 ADD MLOAD DUP2 PUSH1 0x20 ADD MLOAD DUP3 PUSH1 0x40 ADD MLOAD SWAP4 POP SWAP4 POP SWAP4 POP POP SWAP2 SWAP4 SWAP1 SWAP3 POP JUMP JUMPDEST PUSH1 0x1 PUSH1 0x20 MSTORE DUP1 PUSH0 MSTORE PUSH1 0x40 PUSH0 KECCAK256 PUSH0 SWAP2 POP SWAP1 POP DUP1 PUSH0 ADD SLOAD SWAP1 DUP1 PUSH1 0x1 ADD SLOAD SWAP1 DUP1 PUSH1 0x2 ADD SLOAD SWAP1 DUP1 PUSH1 0x3 ADD SLOAD SWAP1 DUP1 PUSH1 0x4 ADD PUSH0 SWAP1 SLOAD SWAP1 PUSH2 0x100 EXP SWAP1 DIV PUSH1 0xFF AND SWAP1 POP DUP6 JUMP JUMPDEST PUSH0 DUP2 SWAP1 POP SWAP2 SWAP1 POP JUMP JUMPDEST PUSH2 0xC2D DUP2 PUSH2 0xC1B JUMP JUMPDEST DUP3 MSTORE POP POP JUMP JUMPDEST PUSH0 PUSH1 0x20 DUP3 ADD SWAP1 POP PUSH2 0xC46 PUSH0 DUP4 ADD DUP5 PUSH2 0xC24 JUMP JUMPDEST SWAP3 SWAP2 POP POP JUMP JUMPDEST PUSH0 PUSH1 0x40 MLOAD SWAP1 POP SWAP1 JUMP JUMPDEST PUSH0 DUP1 REVERT JUMPDEST PUSH0 DUP1 REVERT JUMPDEST PUSH2 0xC66 DUP2 PUSH2 0xC1B JUMP JUMPDEST DUP2 EQ PUSH2 0xC70 JUMPI PUSH0 DUP1 REVERT JUMPDEST POP JUMP JUMPDEST PUSH0 DUP2 CALLDATALOAD SWAP1 POP PUSH2 0xC81 DUP2 PUSH2 0xC5D JUMP JUMPDEST SWAP3 SWAP2 POP POP JUMP JUMPDEST PUSH0 PUSH1 0x20 DUP3 DUP5 SUB SLT ISZERO PUSH2 0xC9C JUMPI PUSH2 0xC9B PUSH2 0xC55 JUMP JUMPDEST JUMPDEST PUSH0 PUSH2 0xCA9 DUP5 DUP3 DUP6 ADD PUSH2 0xC73 JUMP JUMPDEST SWAP2 POP POP SWAP3 SWAP2 POP POP JUMP JUMPDEST PUSH0 PUSH20 0xFFFFFFFFFFFFFFFFFFFFFFFFFFFFFFFFFFFFFFFF DUP3 AND SWAP1 POP SWAP2 SWAP1 POP JUMP JUMPDEST PUSH0 PUSH2 0xCDB DUP3 PUSH2 0xCB2 JUMP JUMPDEST SWAP1 POP SWAP2 SWAP1 POP JUMP JUMPDEST PUSH2 0xCEB DUP2 PUSH2 0xCD1 JUMP JUMPDEST DUP3 MSTORE POP POP JUMP JUMPDEST PUSH0 PUSH1 0x20 DUP3 ADD SWAP1 POP PUSH2 0xD04 PUSH0 DUP4 ADD DUP5 PUSH2 0xCE2 JUMP JUMPDEST SWAP3 SWAP2 POP POP JUMP JUMPDEST PUSH0 DUP1 PUSH1 0x40 DUP4 DUP6 SUB SLT ISZERO PUSH2 0xD20 JUMPI PUSH2 0xD1F PUSH2 0xC55 JUMP JUMPDEST JUMPDEST PUSH0 PUSH2 0xD2D DUP6 DUP3 DUP7 ADD PUSH2 0xC73 JUMP JUMPDEST SWAP3 POP POP PUSH1 0x20 PUSH2 0xD3E DUP6 DUP3 DUP7 ADD PUSH2 0xC73 JUMP JUMPDEST SWAP2 POP POP SWAP3 POP SWAP3 SWAP1 POP JUMP JUMPDEST PUSH0 DUP1 PUSH0 PUSH1 0x60 DUP5 DUP7 SUB SLT ISZERO PUSH2 0xD5F JUMPI PUSH2 0xD5E PUSH2 0xC55 JUMP JUMPDEST JUMPDEST PUSH0 PUSH2 0xD6C DUP7 DUP3 DUP8 ADD PUSH2 0xC73 JUMP JUMPDEST SWAP4 POP POP PUSH1 0x20 PUSH2 0xD7D DUP7 DUP3 DUP8 ADD PUSH2 0xC73 JUMP JUMPDEST SWAP3 POP POP PUSH1 0x40 PUSH2 0xD8E DUP7 DUP3 DUP8 ADD PUSH2 0xC73 JUMP JUMPDEST SWAP2 POP POP SWAP3 POP SWAP3 POP SWAP3 JUMP JUMPDEST PUSH0 DUP2 MLOAD SWAP1 POP SWAP2 SWAP1 POP JUMP JUMPDEST PUSH0 DUP3 DUP3 MSTORE PUSH1 0x20 DUP3 ADD SWAP1 POP SWAP3 SWAP2 POP POP JUMP JUMPDEST DUP3 DUP2 DUP4 MCOPY PUSH0 DUP4 DUP4 ADD MSTORE POP POP POP JUMP JUMPDEST PUSH0 PUSH1 0x1F NOT PUSH1 0x1F DUP4 ADD AND SWAP1 POP SWAP2 SWAP1 POP JUMP JUMPDEST PUSH0 PUSH2 0xDDA DUP3 PUSH2 0xD98 JUMP JUMPDEST PUSH2 0xDE4 DUP2 DUP6 PUSH2 0xDA2 JUMP JUMPDEST SWAP4 POP PUSH2 0xDF4 DUP2 DUP6 PUSH1 0x20 DUP7 ADD PUSH2 0xDB2 JUMP JUMPDEST PUSH2 0xDFD DUP2 PUSH2 0xDC0 JUMP JUMPDEST DUP5 ADD SWAP2 POP POP SWAP3 SWAP2 POP POP JUMP JUMPDEST PUSH0 DUP2 ISZERO ISZERO SWAP1 POP SWAP2 SWAP1 POP JUMP JUMPDEST PUSH2 0xE1C DUP2 PUSH2 0xE08 JUMP JUMPDEST DUP3 MSTORE POP POP JUMP JUMPDEST PUSH0 PUSH1 0x60 DUP3 ADD SWAP1 POP DUP2 DUP2 SUB PUSH0 DUP4 ADD MSTORE PUSH2 0xE3A DUP2 DUP7 PUSH2 0xDD0 JUMP JUMPDEST SWAP1 POP PUSH2 0xE49 PUSH1 0x20 DUP4 ADD DUP6 PUSH2 0xC24 JUMP JUMPDEST PUSH2 0xE56 PUSH1 0x40 DUP4 ADD DUP5 PUSH2 0xE13 JUMP JUMPDEST SWAP5 SWAP4 POP POP POP POP JUMP JUMPDEST PUSH0 DUP2 SWAP1 POP SWAP2 SWAP1 POP JUMP JUMPDEST PUSH0 PUSH2 0xE81 PUSH2 0xE7C PUSH2 0xE77 DUP5 PUSH2 0xCB2 JUMP JUMPDEST PUSH2 0xE5E JUMP JUMPDEST PUSH2 0xCB2 JUMP JUMPDEST SWAP1 POP SWAP2 SWAP1 POP JUMP JUMPDEST PUSH0 PUSH2 0xE92 DUP3 PUSH2 0xE67 JUMP JUMPDEST SWAP1 POP SWAP2 SWAP1 POP JUMP JUMPDEST PUSH0 PUSH2 0xEA3 DUP3 PUSH2 0xE88 JUMP JUMPDEST SWAP1 POP SWAP2 SWAP1 POP JUMP JUMPDEST PUSH2 0xEB3 DUP2 PUSH2 0xE99 JUMP JUMPDEST DUP3 MSTORE POP POP JUMP JUMPDEST PUSH0 PUSH1 0x20 DUP3 ADD SWAP1 POP PUSH2 0xECC PUSH0 DUP4 ADD DUP5 PUSH2 0xEAA JUMP JUMPDEST SWAP3 SWAP2 POP POP JUMP JUMPDEST PUSH0 DUP1 REVERT JUMPDEST PUSH0 DUP1 REVERT JUMPDEST PUSH32 0x4E487B7100000000000000000000000000000000000000000000000000000000 PUSH0 MSTORE PUSH1 0x41 PUSH1 0x4 MSTORE PUSH1 0x24 PUSH0 REVERT JUMPDEST PUSH2 0xF10 DUP3 PUSH2 0xDC0 JUMP JUMPDEST DUP2 ADD DUP2 DUP2 LT PUSH8 0xFFFFFFFFFFFFFFFF DUP3 GT OR ISZERO PUSH2 0xF2F JUMPI PUSH2 0xF2E PUSH2 0xEDA JUMP JUMPDEST JUMPDEST DUP1 PUSH1 0x40 MSTORE POP POP POP JUMP JUMPDEST PUSH0 PUSH2 0xF41 PUSH2 0xC4C JUMP JUMPDEST SWAP1 POP PUSH2 0xF4D DUP3 DUP3 PUSH2 0xF07 JUMP JUMPDEST SWAP2 SWAP1 POP JUMP JUMPDEST PUSH0 PUSH8 0xFFFFFFFFFFFFFFFF DUP3 GT ISZERO PUSH2 0xF6C JUMPI PUSH2 0xF6B PUSH2 0xEDA JUMP JUMPDEST JUMPDEST PUSH2 0xF75 DUP3 PUSH2 0xDC0 JUMP JUMPDEST SWAP1 POP PUSH1 0x20 DUP2 ADD SWAP1 POP SWAP2 SWAP1 POP JUMP JUMPDEST DUP3 DUP2 DUP4 CALLDATACOPY PUSH0 DUP4 DUP4 ADD MSTORE POP POP POP JUMP JUMPDEST PUSH0 PUSH2 0xFA2 PUSH2 0xF9D DUP5 PUSH2 0xF52 JUMP JUMPDEST PUSH2 0xF38 JUMP JUMPDEST SWAP1 POP DUP3 DUP2 MSTORE PUSH1 0x20 DUP2 ADD DUP5 DUP5 DUP5 ADD GT ISZERO PUSH2 0xFBE JUMPI PUSH2 0xFBD PUSH2 0xED6 JUMP JUMPDEST JUMPDEST PUSH2 0xFC9 DUP5 DUP3 DUP6 PUSH2 0xF82 JUMP JUMPDEST POP SWAP4 SWAP3 POP POP POP JUMP JUMPDEST PUSH0 DUP3 PUSH1 0x1F DUP4 ADD SLT PUSH2 0xFE5 JUMPI PUSH2 0xFE4 PUSH2 0xED2 JUMP JUMPDEST JUMPDEST DUP2 CALLDATALOAD PUSH2 0xFF5 DUP5 DUP3 PUSH1 0x20 DUP7 ADD PUSH2 0xF90 JUMP JUMPDEST SWAP2 POP POP SWAP3 SWAP2 POP POP JUMP JUMPDEST PUSH0 DUP1 PUSH1 0x40 DUP4 DUP6 SUB SLT ISZERO PUSH2 0x1014 JUMPI PUSH2 0x1013 PUSH2 0xC55 JUMP JUMPDEST JUMPDEST PUSH0 DUP4 ADD CALLDATALOAD PUSH8 0xFFFFFFFFFFFFFFFF DUP2 GT ISZERO PUSH2 0x1031 JUMPI PUSH2 0x1030 PUSH2 0xC59 JUMP JUMPDEST JUMPDEST PUSH2 0x103D DUP6 DUP3 DUP7 ADD PUSH2 0xFD1 JUMP JUMPDEST SWAP3 POP POP PUSH1 0x20 PUSH2 0x104E DUP6 DUP3 DUP7 ADD PUSH2 0xC73 JUMP JUMPDEST SWAP2 POP POP SWAP3 POP SWAP3 SWAP1 POP JUMP JUMPDEST PUSH0 PUSH1 0xA0 DUP3 ADD SWAP1 POP PUSH2 0x106B PUSH0 DUP4 ADD DUP9 PUSH2 0xC24 JUMP JUMPDEST PUSH2 0x1078 PUSH1 0x20 DUP4 ADD DUP8 PUSH2 0xC24 JUMP JUMPDEST PUSH2 0x1085 PUSH1 0x40 DUP4 ADD DUP7 PUSH2 0xC24 JUMP JUMPDEST PUSH2 0x1092 PUSH1 0x60 DUP4 ADD DUP6 PUSH2 0xC24 JUMP JUMPDEST PUSH2 0x109F PUSH1 0x80 DUP4 ADD DUP5 PUSH2 0xE13 JUMP JUMPDEST SWAP7 SWAP6 POP POP POP POP POP POP JUMP JUMPDEST PUSH32 0x4F6E6C7920746865206F776E65722063616E20706572666F726D207468697320 PUSH0 DUP3 ADD MSTORE PUSH32 0x616374696F6E0000000000000000000000000000000000000000000000000000 PUSH1 0x20 DUP3 ADD MSTORE POP JUMP JUMPDEST PUSH0 PUSH2 0x1103 PUSH1 0x26 DUP4 PUSH2 0xDA2 JUMP JUMPDEST SWAP2 POP PUSH2 0x110E DUP3 PUSH2 0x10A9 JUMP JUMPDEST PUSH1 0x40 DUP3 ADD SWAP1 POP SWAP2 SWAP1 POP JUMP JUMPDEST PUSH0 PUSH1 0x20 DUP3 ADD SWAP1 POP DUP2 DUP2 SUB PUSH0 DUP4 ADD MSTORE PUSH2 0x1130 DUP2 PUSH2 0x10F7 JUMP JUMPDEST SWAP1 POP SWAP2 SWAP1 POP JUMP JUMPDEST PUSH32 0x53657276696365206F7264657220616C726561647920636F6D706C6574656400 PUSH0 DUP3 ADD MSTORE POP JUMP JUMPDEST PUSH0 PUSH2 0x116B PUSH1 0x1F DUP4 PUSH2 0xDA2 JUMP JUMPDEST SWAP2 POP PUSH2 0x1176 DUP3 PUSH2 0x1137 JUMP JUMPDEST PUSH1 0x20 DUP3 ADD SWAP1 POP SWAP2 SWAP1 POP JUMP JUMPDEST PUSH0 PUSH1 0x20 DUP3 ADD SWAP1 POP DUP2 DUP2 SUB PUSH0 DUP4 ADD MSTORE PUSH2 0x1198 DUP2 PUSH2 0x115F JUMP JUMPDEST SWAP1 POP SWAP2 SWAP1 POP JUMP JUMPDEST PUSH32 0x53657276696365206973206E6F74206163746976650000000000000000000000 PUSH0 DUP3 ADD MSTORE POP JUMP JUMPDEST PUSH0 PUSH2 0x11D3 PUSH1 0x15 DUP4 PUSH2 0xDA2 JUMP JUMPDEST SWAP2 POP PUSH2 0x11DE DUP3 PUSH2 0x119F JUMP JUMPDEST PUSH1 0x20 DUP3 ADD SWAP1 POP SWAP2 SWAP1 POP JUMP JUMPDEST PUSH0 PUSH1 0x20 DUP3 ADD SWAP1 POP DUP2 DUP2 SUB PUSH0 DUP4 ADD MSTORE PUSH2 0x1200 DUP2 PUSH2 0x11C7 JUMP JUMPDEST SWAP1 POP SWAP2 SWAP1 POP JUMP JUMPDEST PUSH0 PUSH2 0x1219 PUSH2 0x1214 DUP5 PUSH2 0xF52 JUMP JUMPDEST PUSH2 0xF38 JUMP JUMPDEST SWAP1 POP DUP3 DUP2 MSTORE PUSH1 0x20 DUP2 ADD DUP5 DUP5 DUP5 ADD GT ISZERO PUSH2 0x1235 JUMPI PUSH2 0x1234 PUSH2 0xED6 JUMP JUMPDEST JUMPDEST PUSH2 0x1240 DUP5 DUP3 DUP6 PUSH2 0xDB2 JUMP JUMPDEST POP SWAP4 SWAP3 POP POP POP JUMP JUMPDEST PUSH0 DUP3 PUSH1 0x1F DUP4 ADD SLT PUSH2 0x125C JUMPI PUSH2 0x125B PUSH2 0xED2 JUMP JUMPDEST JUMPDEST DUP2 MLOAD PUSH2 0x126C DUP5 DUP3 PUSH1 0x20 DUP7 ADD PUSH2 0x1207 JUMP JUMPDEST SWAP2 POP POP SWAP3 SWAP2 POP POP JUMP JUMPDEST PUSH2 0x127E DUP2 PUSH2 0xCD1 JUMP JUMPDEST DUP2 EQ PUSH2 0x1288 JUMPI PUSH0 DUP1 REVERT JUMPDEST POP JUMP JUMPDEST PUSH0 DUP2 MLOAD SWAP1 POP PUSH2 0x1299 DUP2 PUSH2 0x1275 JUMP JUMPDEST SWAP3 SWAP2 POP POP JUMP JUMPDEST PUSH2 0x12A8 DUP2 PUSH2 0xE08 JUMP JUMPDEST DUP2 EQ PUSH2 0x12B2 JUMPI PUSH0 DUP1 REVERT JUMPDEST POP JUMP JUMPDEST PUSH0 DUP2 MLOAD SWAP1 POP PUSH2 0x12C3 DUP2 PUSH2 0x129F JUMP JUMPDEST SWAP3 SWAP2 POP POP JUMP JUMPDEST PUSH0 DUP1 PUSH0 DUP1 PUSH1 0x80 DUP6 DUP8 SUB SLT ISZERO PUSH2 0x12E1 JUMPI PUSH2 0x12E0 PUSH2 0xC55 JUMP JUMPDEST JUMPDEST PUSH0 DUP6 ADD MLOAD PUSH8 0xFFFFFFFFFFFFFFFF DUP2 GT ISZERO PUSH2 0x12FE JUMPI PUSH2 0x12FD PUSH2 0xC59 JUMP JUMPDEST JUMPDEST PUSH2 0x130A DUP8 DUP3 DUP9 ADD PUSH2 0x1248 JUMP JUMPDEST SWAP5 POP POP PUSH1 0x20 DUP6 ADD MLOAD PUSH8 0xFFFFFFFFFFFFFFFF DUP2 GT ISZERO PUSH2 0x132B JUMPI PUSH2 0x132A PUSH2 0xC59 JUMP JUMPDEST JUMPDEST PUSH2 0x1337 DUP8 DUP3 DUP9 ADD PUSH2 0x1248 JUMP JUMPDEST SWAP4 POP POP PUSH1 0x40 PUSH2 0x1348 DUP8 DUP3 DUP9 ADD PUSH2 0x128B JUMP JUMPDEST SWAP3 POP POP PUSH1 0x60 PUSH2 0x1359 DUP8 DUP3 DUP9 ADD PUSH2 0x12B5 JUMP JUMPDEST SWAP2 POP POP SWAP3 SWAP6 SWAP2 SWAP5 POP SWAP3 POP JUMP JUMPDEST PUSH32 0x436F6D70616E7920646F6573206E6F74206578697374206F7220697320696E61 PUSH0 DUP3 ADD MSTORE PUSH32 0x6374697665000000000000000000000000000000000000000000000000000000 PUSH1 0x20 DUP3 ADD MSTORE POP JUMP JUMPDEST PUSH0 PUSH2 0x13BF PUSH1 0x25 DUP4 PUSH2 0xDA2 JUMP JUMPDEST SWAP2 POP PUSH2 0x13CA DUP3 PUSH2 0x1365 JUMP JUMPDEST PUSH1 0x40 DUP3 ADD SWAP1 POP SWAP2 SWAP1 POP JUMP JUMPDEST PUSH0 PUSH1 0x20 DUP3 ADD SWAP1 POP DUP2 DUP2 SUB PUSH0 DUP4 ADD MSTORE PUSH2 0x13EC DUP2 PUSH2 0x13B3 JUMP JUMPDEST SWAP1 POP SWAP2 SWAP1 POP JUMP JUMPDEST PUSH32 0x4E487B7100000000000000000000000000000000000000000000000000000000 PUSH0 MSTORE PUSH1 0x11 PUSH1 0x4 MSTORE PUSH1 0x24 PUSH0 REVERT JUMPDEST PUSH0 PUSH2 0x142A DUP3 PUSH2 0xC1B JUMP JUMPDEST SWAP2 POP PUSH32 0xFFFFFFFFFFFFFFFFFFFFFFFFFFFFFFFFFFFFFFFFFFFFFFFFFFFFFFFFFFFFFFFF DUP3 SUB PUSH2 0x145C JUMPI PUSH2 0x145B PUSH2 0x13F3 JUMP JUMPDEST JUMPDEST PUSH1 0x1 DUP3 ADD SWAP1 POP SWAP2 SWAP1 POP JUMP JUMPDEST PUSH0 PUSH2 0x1471 DUP3 PUSH2 0xC1B JUMP JUMPDEST SWAP2 POP PUSH2 0x147C DUP4 PUSH2 0xC1B JUMP JUMPDEST SWAP3 POP DUP3 DUP3 MUL PUSH2 0x148A DUP2 PUSH2 0xC1B JUMP JUMPDEST SWAP2 POP DUP3 DUP3 DIV DUP5 EQ DUP4 ISZERO OR PUSH2 0x14A1 JUMPI PUSH2 0x14A0 PUSH2 0x13F3 JUMP JUMPDEST JUMPDEST POP SWAP3 SWAP2 POP POP JUMP JUMPDEST PUSH0 PUSH1 0x60 DUP3 ADD SWAP1 POP PUSH2 0x14BB PUSH0 DUP4 ADD DUP7 PUSH2 0xC24 JUMP JUMPDEST PUSH2 0x14C8 PUSH1 0x20 DUP4 ADD DUP6 PUSH2 0xC24 JUMP JUMPDEST PUSH2 0x14D5 PUSH1 0x40 DUP4 ADD DUP5 PUSH2 0xC24 JUMP JUMPDEST SWAP5 SWAP4 POP POP POP POP JUMP JUMPDEST PUSH32 0x4E487B7100000000000000000000000000000000000000000000000000000000 PUSH0 MSTORE PUSH1 0x22 PUSH1 0x4 MSTORE PUSH1 0x24 PUSH0 REVERT JUMPDEST PUSH0 PUSH1 0x2 DUP3 DIV SWAP1 POP PUSH1 0x1 DUP3 AND DUP1 PUSH2 0x1521 JUMPI PUSH1 0x7F DUP3 AND SWAP2 POP JUMPDEST PUSH1 0x20 DUP3 LT DUP2 SUB PUSH2 0x1534 JUMPI PUSH2 0x1533 PUSH2 0x14DD JUMP JUMPDEST JUMPDEST POP SWAP2 SWAP1 POP JUMP JUMPDEST PUSH0 DUP2 SWAP1 POP DUP2 PUSH0 MSTORE PUSH1 0x20 PUSH0 KECCAK256 SWAP1 POP SWAP2 SWAP1 POP JUMP JUMPDEST PUSH0 PUSH1 0x20 PUSH1 0x1F DUP4 ADD DIV SWAP1 POP SWAP2 SWAP1 POP JUMP JUMPDEST PUSH0 DUP3 DUP3 SHL SWAP1 POP SWAP3 SWAP2 POP POP JUMP JUMPDEST PUSH0 PUSH1 0x8 DUP4 MUL PUSH2 0x1596 PUSH32 0xFFFFFFFFFFFFFFFFFFFFFFFFFFFFFFFFFFFFFFFFFFFFFFFFFFFFFFFFFFFFFFFF DUP3 PUSH2 0x155B JUMP JUMPDEST PUSH2 0x15A0 DUP7 DUP4 PUSH2 0x155B JUMP JUMPDEST SWAP6 POP DUP1 NOT DUP5 AND SWAP4 POP DUP1 DUP7 AND DUP5 OR SWAP3 POP POP POP SWAP4 SWAP3 POP POP POP JUMP JUMPDEST PUSH0 PUSH2 0x15D2 PUSH2 0x15CD PUSH2 0x15C8 DUP5 PUSH2 0xC1B JUMP JUMPDEST PUSH2 0xE5E JUMP JUMPDEST PUSH2 0xC1B JUMP JUMPDEST SWAP1 POP SWAP2 SWAP1 POP JUMP JUMPDEST PUSH0 DUP2 SWAP1 POP SWAP2 SWAP1 POP JUMP JUMPDEST PUSH2 0x15EB DUP4 PUSH2 0x15B8 JUMP JUMPDEST PUSH2 0x15FF PUSH2 0x15F7 DUP3 PUSH2 0x15D9 JUMP JUMPDEST DUP5 DUP5 SLOAD PUSH2 0x1567 JUMP JUMPDEST DUP3 SSTORE POP POP POP POP JUMP JUMPDEST PUSH0 SWAP1 JUMP JUMPDEST PUSH2 0x1613 PUSH2 0x1607 JUMP JUMPDEST PUSH2 0x161E DUP2 DUP5 DUP5 PUSH2 0x15E2 JUMP JUMPDEST POP POP POP JUMP JUMPDEST JUMPDEST DUP2 DUP2 LT ISZERO PUSH2 0x1641 JUMPI PUSH2 0x1636 PUSH0 DUP3 PUSH2 0x160B JUMP JUMPDEST PUSH1 0x1 DUP2 ADD SWAP1 POP PUSH2 0x1624 JUMP JUMPDEST POP POP JUMP JUMPDEST PUSH1 0x1F DUP3 GT ISZERO PUSH2 0x1686 JUMPI PUSH2 0x1657 DUP2 PUSH2 0x153A JUMP JUMPDEST PUSH2 0x1660 DUP5 PUSH2 0x154C JUMP JUMPDEST DUP2 ADD PUSH1 0x20 DUP6 LT ISZERO PUSH2 0x166F JUMPI DUP2 SWAP1 POP JUMPDEST PUSH2 0x1683 PUSH2 0x167B DUP6 PUSH2 0x154C JUMP JUMPDEST DUP4 ADD DUP3 PUSH2 0x1623 JUMP JUMPDEST POP POP JUMPDEST POP POP POP JUMP JUMPDEST PUSH0 DUP3 DUP3 SHR SWAP1 POP SWAP3 SWAP2 POP POP JUMP JUMPDEST PUSH0 PUSH2 0x16A6 PUSH0 NOT DUP5 PUSH1 0x8 MUL PUSH2 0x168B JUMP JUMPDEST NOT DUP1 DUP4 AND SWAP2 POP POP SWAP3 SWAP2 POP POP JUMP JUMPDEST PUSH0 PUSH2 0x16BE DUP4 DUP4 PUSH2 0x1697 JUMP JUMPDEST SWAP2 POP DUP3 PUSH1 0x2 MUL DUP3 OR SWAP1 POP SWAP3 SWAP2 POP POP JUMP JUMPDEST PUSH2 0x16D7 DUP3 PUSH2 0xD98 JUMP JUMPDEST PUSH8 0xFFFFFFFFFFFFFFFF DUP2 GT ISZERO PUSH2 0x16F0 JUMPI PUSH2 0x16EF PUSH2 0xEDA JUMP JUMPDEST JUMPDEST PUSH2 0x16FA DUP3 SLOAD PUSH2 0x150A JUMP JUMPDEST PUSH2 0x1705 DUP3 DUP3 DUP6 PUSH2 0x1645 JUMP JUMPDEST PUSH0 PUSH1 0x20 SWAP1 POP PUSH1 0x1F DUP4 GT PUSH1 0x1 DUP2 EQ PUSH2 0x1736 JUMPI PUSH0 DUP5 ISZERO PUSH2 0x1724 JUMPI DUP3 DUP8 ADD MLOAD SWAP1 POP JUMPDEST PUSH2 0x172E DUP6 DUP3 PUSH2 0x16B3 JUMP JUMPDEST DUP7 SSTORE POP PUSH2 0x1795 JUMP JUMPDEST PUSH1 0x1F NOT DUP5 AND PUSH2 0x1744 DUP7 PUSH2 0x153A JUMP JUMPDEST PUSH0 JUMPDEST DUP3 DUP2 LT ISZERO PUSH2 0x176B JUMPI DUP5 DUP10 ADD MLOAD DUP3 SSTORE PUSH1 0x1 DUP3 ADD SWAP2 POP PUSH1 0x20 DUP6 ADD SWAP5 POP PUSH1 0x20 DUP2 ADD SWAP1 POP PUSH2 0x1746 JUMP JUMPDEST DUP7 DUP4 LT ISZERO PUSH2 0x1788 JUMPI DUP5 DUP10 ADD MLOAD PUSH2 0x1784 PUSH1 0x1F DUP10 AND DUP3 PUSH2 0x1697 JUMP JUMPDEST DUP4 SSTORE POP JUMPDEST PUSH1 0x1 PUSH1 0x2 DUP9 MUL ADD DUP9 SSTORE POP POP POP JUMPDEST POP POP POP POP POP POP JUMP JUMPDEST PUSH0 PUSH1 0x40 DUP3 ADD SWAP1 POP DUP2 DUP2 SUB PUSH0 DUP4 ADD MSTORE PUSH2 0x17B5 DUP2 DUP6 PUSH2 0xDD0 JUMP JUMPDEST SWAP1 POP PUSH2 0x17C4 PUSH1 0x20 DUP4 ADD DUP5 PUSH2 0xC24 JUMP JUMPDEST SWAP4 SWAP3 POP POP POP JUMP INVALID LOG2 PUSH5 0x6970667358 0x22 SLT KECCAK256 0x2F SELFBALANCE PUSH11 0xD5B7D07C0DACCAB7E6C229 0x26 PUSH18 0xAEE75A5C078924711FD1E89F30DBDE576473 PUSH16 0x6C634300081A00330000000000000000 "
				},
				"gasEstimates": {
					"creation": {
						"codeDepositCost": "1229000",
						"executionCost": "infinite",
						"totalCost": "infinite"
					},
					"external": {
						"addService(string,uint256)": "infinite",
						"companyRegistry()": "infinite",
						"completeService(uint256)": "30333",
						"deactivateService(uint256)": "26961",
						"getOrder(uint256)": "infinite",
						"getService(uint256)": "infinite",
						"orderService(uint256,uint256,uint256)": "infinite",
						"owner()": "2553",
						"serviceCount()": "2426",
						"serviceOrderCount()": "2514",
						"serviceOrders(uint256)": "infinite",
						"services(uint256)": "infinite",
						"updateServicePrice(uint256,uint256)": "infinite"
					}
				},
				"methodIdentifiers": {
					"addService(string,uint256)": "cc1a40b7",
					"companyRegistry()": "c51aba2b",
					"completeService(uint256)": "2f3ccebd",
					"deactivateService(uint256)": "ec9c3212",
					"getOrder(uint256)": "d09ef241",
					"getService(uint256)": "ef0e239b",
					"orderService(uint256,uint256,uint256)": "b7109dbd",
					"owner()": "8da5cb5b",
					"serviceCount()": "06237526",
					"serviceOrderCount()": "ab310fd2",
					"serviceOrders(uint256)": "f19faf0e",
					"services(uint256)": "c22c4f43",
					"updateServicePrice(uint256,uint256)": "9fd80934"
				}
			},
			"storageLayout": {
				"storage": [
					{
						"astId": 307,
						"contract": "contracts/services/Service.sol:Service",
						"label": "services",
						"offset": 0,
						"slot": "0",
						"type": "t_mapping(t_uint256,t_struct(ServiceType)291_storage)"
					},
					{
						"astId": 312,
						"contract": "contracts/services/Service.sol:Service",
						"label": "serviceOrders",
						"offset": 0,
						"slot": "1",
						"type": "t_mapping(t_uint256,t_struct(ServiceOrder)302_storage)"
					},
					{
						"astId": 314,
						"contract": "contracts/services/Service.sol:Service",
						"label": "serviceCount",
						"offset": 0,
						"slot": "2",
						"type": "t_uint256"
					},
					{
						"astId": 316,
						"contract": "contracts/services/Service.sol:Service",
						"label": "serviceOrderCount",
						"offset": 0,
						"slot": "3",
						"type": "t_uint256"
					},
					{
						"astId": 318,
						"contract": "contracts/services/Service.sol:Service",
						"label": "owner",
						"offset": 0,
						"slot": "4",
						"type": "t_address"
					},
					{
						"astId": 345,
						"contract": "contracts/services/Service.sol:Service",
						"label": "companyRegistry",
						"offset": 0,
						"slot": "5",
						"type": "t_contract(CompanyRegistry)281"
					}
				],
				"types": {
					"t_address": {
						"encoding": "inplace",
						"label": "address",
						"numberOfBytes": "20"
					},
					"t_bool": {
						"encoding": "inplace",
						"label": "bool",
						"numberOfBytes": "1"
					},
					"t_contract(CompanyRegistry)281": {
						"encoding": "inplace",
						"label": "contract CompanyRegistry",
						"numberOfBytes": "20"
					},
					"t_mapping(t_uint256,t_struct(ServiceOrder)302_storage)": {
						"encoding": "mapping",
						"key": "t_uint256",
						"label": "mapping(uint256 => struct Service.ServiceOrder)",
						"numberOfBytes": "32",
						"value": "t_struct(ServiceOrder)302_storage"
					},
					"t_mapping(t_uint256,t_struct(ServiceType)291_storage)": {
						"encoding": "mapping",
						"key": "t_uint256",
						"label": "mapping(uint256 => struct Service.ServiceType)",
						"numberOfBytes": "32",
						"value": "t_struct(ServiceType)291_storage"
					},
					"t_string_storage": {
						"encoding": "bytes",
						"label": "string",
						"numberOfBytes": "32"
					},
					"t_struct(ServiceOrder)302_storage": {
						"encoding": "inplace",
						"label": "struct Service.ServiceOrder",
						"members": [
							{
								"astId": 293,
								"contract": "contracts/services/Service.sol:Service",
								"label": "serviceId",
								"offset": 0,
								"slot": "0",
								"type": "t_uint256"
							},
							{
								"astId": 295,
								"contract": "contracts/services/Service.sol:Service",
								"label": "companyId",
								"offset": 0,
								"slot": "1",
								"type": "t_uint256"
							},
							{
								"astId": 297,
								"contract": "contracts/services/Service.sol:Service",
								"label": "quantity",
								"offset": 0,
								"slot": "2",
								"type": "t_uint256"
							},
							{
								"astId": 299,
								"contract": "contracts/services/Service.sol:Service",
								"label": "totalPrice",
								"offset": 0,
								"slot": "3",
								"type": "t_uint256"
							},
							{
								"astId": 301,
								"contract": "contracts/services/Service.sol:Service",
								"label": "isCompleted",
								"offset": 0,
								"slot": "4",
								"type": "t_bool"
							}
						],
						"numberOfBytes": "160"
					},
					"t_struct(ServiceType)291_storage": {
						"encoding": "inplace",
						"label": "struct Service.ServiceType",
						"members": [
							{
								"astId": 286,
								"contract": "contracts/services/Service.sol:Service",
								"label": "serviceName",
								"offset": 0,
								"slot": "0",
								"type": "t_string_storage"
							},
							{
								"astId": 288,
								"contract": "contracts/services/Service.sol:Service",
								"label": "price",
								"offset": 0,
								"slot": "1",
								"type": "t_uint256"
							},
							{
								"astId": 290,
								"contract": "contracts/services/Service.sol:Service",
								"label": "isActive",
								"offset": 0,
								"slot": "2",
								"type": "t_bool"
							}
						],
						"numberOfBytes": "96"
					},
					"t_uint256": {
						"encoding": "inplace",
						"label": "uint256",
						"numberOfBytes": "32"
					}
				}
			},
			"userdoc": {
				"kind": "user",
				"methods": {},
				"version": 1
			}
		}
	}
}